:1000000000000120750300005D0300005F03000095
:1000100061030000630300006503000000000000AE
:100020000000000000000000000000006703000066
:1000300069030000000000006B0300006D03000076
:100040006F0300006F030000210800006F03000031
:100050006F0300006F0300006F0300006F030000D8
:100060006F0300006F0300006F0300006F030000C8
:100070006F0300006F0300006F0300006F030000B8
:100080006F0300006F0300006F0300006F030000A8
:100090006F0300006F0300006F0300006F03000098
:1000A0006F0300006F0300006F0300006F03000088
:1000B0006F0300006F03000000000000000000005C
:1000C0006F0300006F0300006F0300006F03000068
:1000D0006F0300006F0300006F03000000000000CA
:1000E0000000000000000000000000000000000010
:1000F0000000000000000000000000000000000000
:1001000000000000000000000000000000000000EF
:1001100000000000000000000000000000000000DF
:1001200000000000000000000000000000000000CF
:1001300000000000000000000000000000000000BF
:1001400000000000000000000000000000000000AF
:10015000000000000000000000000000000000009F
:10016000000000000000000000000000000000008F
:10017000000000000000000000000000000000007F
:10018000000000000000000000000000000000006F
:10019000000000000000000000000000000000005F
:1001A000000000000000000000000000000000004F
:1001B000000000000000000000000000000000003F
:1001C000000000000000000000000000000000002F
:1001D000000000000000000000000000000000001F
:1001E000000000000000000000000000000000000F
:1001F00000000000000000000000000000000000FF
:10020000354936480A1A02D0072291438D463449AF
:1002100034480A1A06D00722914381F30988022242
:1002200082F3148830483149314A00F044F83148AB
:100230003149324A00F03FF831483249324A00F041
:100240003AF832483249334A00F035F832483349F7
:10025000334A00F030F833483349344A00F02BF881
:1002600033483449344A00F026F8344834490022EF
:1002700000F02CF833483449002200F027F83348C6
:100280003349091A082902DB002202604160314A21
:1002900090471F481F49884205D00268043003B4C4
:1002A000904703BCF7E700208646EC46002000217B
:1002B000294A9047FEE7884207D0521A05D00378B2
:1002C00001300B700131013AF9D17047884202D0F8
:1002D00002700130FAE770470000012000E00020C2
:1002E0000000012000000120B020000000000020DC
:1002F00020000020D0030000D0030000681F000091
:10030000B02000000000002000000020681F000056
:10031000681F0000681F0000681F0000681F0000C1
:10032000681F0000681F0000681F0000AF20000069
:10033000D02000002000002020000020200000200D
:10034000D8030020D8030020D8030020D8030020C1
:10035000D82300209D030000C1110000FEE7FEE746
:10036000FEE7FEE7FEE7FEE7FEE7FEE7FEE7FEE765
:1003700000F002B8FFF7FCBF0F484FF007018843B9
:1003800085460E4880470E48016841F470010160BF
:10039000BFF34F8FBFF36F8FFFF732BF09480A4992
:1003A0000A4A884207D0521A05D0037801300B70F0
:1003B0000131013AF9D1704700000120BD1B000056
:1003C00088ED00E0681F0000000000200000002011
:1003D0001FB50021039001AA44F20100CDE90111EB
:1003E00000F004F805B05DF804FB000072B6094B9C
:1003F000D3F8F020D20700D500BEBFF34F8FD968E5
:10040000054A01F4E0610A43DA60BFF34F8F00BF91
:10041000FDE700BF00ED00E00400FA0549B152B16C
:10042000531E1A4007D1826001608380C26010466B
:1004300070470E2070470920704710B58468C26865
:100440008388121B934208D3C26813400268D154B8
:10045000C3680133C360002010BD0420FCE782683C
:10046000C3689A420AD08268838813400268D35CCA
:100470000B7083680133836000207047052070474C
:100480000648074A03780749D35C012213B10430B8
:1004900000F020BE0C3000F0E3BB00BF00000020E5
:1004A00058000020480000200648074A0378074902
:1004B000D35C012213B1043000F0BEBD0C3000F05B
:1004C0007FBB00BF00000020580000204900002032
:1004D00037B50578012D0DD0022D30D075B91F49E3
:1004E0001F48FFF7BCFF002834D103B0BDE83040FF
:1004F000FFF7DABF037A1BB9FFF7C2FF03B030BDC5
:100500004368184C19782046FFF797FF80B18DF8A3
:1005100000500190144B68461B689847A168E36837
:10052000A2885B1A9A42E7D2104B01221A70E5E7C3
:10053000A268E3689A42F1D08DF80000EAE7C36848
:100540008DF800500193FFF79BFF074B68461B682F
:100550009847D3E703238DF80030F6E749000020E1
:10056000380000202400002020000020340000205B
:10057000F0B51F46234B89B004461A600D4600298A
:100580003DD08A8820480968FFF748FF002834D109
:10059000AA89A9681D48FFF741FF00282DD11C4EEC
:1005A0000FCE6D460FC596E80F0085E80F00636912
:1005B0000693237C174A18488DF81C70003B18BF1F
:1005C00001238DF81430637C002B14BF0E2300230D
:1005D0008DF81530E3680293A368039323680193B1
:1005E00069466368009300F0DDF830B90B4B187072
:1005F0002368013301D0FFF743FF09B0F0BD0720A6
:10060000FBE700BF2000002024000020380000206D
:10061000681F0000D104000000000020340000200A
:1006200070B5084D014608482E78FFF718FF0446BC
:1006300036B100232B70FFF723FF08B1FFF7C8FE88
:10064000204670BD340000202400002010B5014673
:100650000E48FFF7F2FE0446A8B90D480D4A03788C
:10066000D35C63B1043000F0DBFC60B90A49074891
:10067000FFF7F5FE38B9BDE81040FFF715BF0C30A5
:1006800000F092FAF1E7204610BD00BF38000020CC
:1006900000000020580000204900002072B6024AE5
:1006A00013680133136070474C000020034A13683D
:1006B000013B136003B962B6704700BF4C000020D5
:1006C000FFF7ECBFFFF7F2BF044B1A5C0123934026
:1006D0004FF0A042C2F80835704700BF881F0000E5
:1006E00008B50020FFF7F0FF0120FFF7EDFF022023
:1006F000FFF7EAFFBDE808400320FFF7E5BFC207A8
:1007000008B501460CD54FF0A0430322C3F8442797
:10071000C3F84827C3F84C27C3F85027FFF7E0FF7A
:100720008B070AD54FF0A0430C22C3F83427C3F837
:100730003827C3F83C27C3F8402708BD1FB5037806
:100740008DF800304368019383688DF80830C368E2
:10075000054A0393054B684653F8213052F821109F
:10076000984705B05DF804FB5000002054000020BD
:100770001FB503788DF800304368019383688DF8C6
:100780000830C368054A0393054B684653F8213087
:1007900052F82110984705B05DF804FB5000002086
:1007A00054000020F0B5194B90F800C091F81DE0FE
:1007B00043F82C20164B16460A6943F82C20154B9B
:1007C00003F80CE00C4607460FCC89B06D460FC508
:1007D00094E80F0085E80F00CDF810C0BEF1000FBF
:1007E00009D0002E0C4A694608BF3246381D00F079
:1007F00055FB09B0F0BD002E084A694608BF3246D5
:1008000007F10C0000F01CF9F3E700BF54000020D2
:1008100050000020580000203D0700007107000034
:10082000014B1B68184700BF5C00002038B50B4B1C
:1008300098420C4601D0002038BD0020FFF740FF51
:10084000074B1D7915B901221C601A710020FFF7B2
:1008500039FF002DEFD01120EEE700BF002000404F
:100860005C0000200023435082B043580193019B59
:1008700002B070470A4610B54FF48E71FFF7F2FFD1
:10088000136A9168C95C136A01331362C0F81C15BE
:1008900010BD024608B500684FF49271FFF7E2FF01
:1008A00010684FF48471FFF7DDFF136801221A60AE
:1008B00008BD8B690A4610B54FF4847123B9FFF760
:1008C000D1FFD0F8183510BDFFF7CCFF536AD168BF
:1008D000D0F81805C854536A01335362F3E7000097
:1008E0001FB501238DF80030044BCDE90110D3E989
:1008F00000126846904705B05DF804FB64000020D4
:1009000030B54D4DD5F804339A0585B051D5D5F89D
:100910002431002B4DD04FF492712846FFF7A2FFEF
:100920004FF40173C5F80833444B93F829200AB9F2
:1009300001226A60404902228DF80020D1F880240B
:10094000C1F8802403929A690292DA680192002227
:10095000C3E906226846D3E9001290473648D0F82A
:100960001C315BB1354A5169136A99424DD992F8ED
:100970002830002B49D11146FFF77CFF2E48D0F8D4
:100980004431002B56D04FF4A271FFF76BFF2B4B75
:1009900093F829200AB1012202609A69002A49D0FD
:1009A000586AD96800229A6105B0BDE83040FFF767
:1009B00097BFD5F804335B07D0D5D5F80831002BA5
:1009C000CCD01E4C1C482146FFF773FF636AA26916
:1009D0009A42C3D1E369E1684BB1A3612369E36043
:1009E0000023606AE3616362FFF77AFFB6E794F879
:1009F00029300BB901236B600F4B4FF40172C3F820
:100A000008230023606AA361EEE70B484FF48E7160
:100A1000FFF728FF5369002BB0D0516902910023E2
:100A200091688DF80030019153616846D2E9001356
:100A30009847A3E705B030BD0020004064000020C7
:100A40002DE9F843534D90F804802C2303FB085301
:100A5000064693F82A300C469146002B40F09680CB
:100A60004D490068FFF7E2FE0746002840F09080FD
:100A700022683068511C0BD04FF0A04101239340F5
:100A8000C1F8083502F5E0734FF0030C41F823C0BC
:100A900061684B1C1FBF01F5E0734FF0A04C4FF095
:100AA000000E4CF823E0A369C0F8243594F814C074
:100AB000637DBCF1010F4CEA0303C0F86C35C0F84C
:100AC0001415C0F80C251DD1A268531C1FBF02F5D8
:100AD000E0734FF0A0414FF0000C41F823C0E368F1
:100AE000591C0BD04FF0A04C01219940CCF80815AF
:100AF00003F5E0714FF0030E4CF821E0C0F8083523
:100B0000C0F810252C2202FB08F2AB18C3F80490A1
:100B10002369AB50B9F1000F20D04FF48E71247FC0
:100B2000FFF7A0FE4FF4A2713068FFF79BFE32681A
:100B30001A4BC2F80433130B42F307326101002A47
:100B4000C9B21EDB1648841884F80013012152092B
:100B500003F01F0301FA03F340F822303368042244
:100B6000C3F800252C2303FB08530022C3E9062207
:100B700083F829205A61012283F82A203846BDE8EB
:100B8000F883084A03F00F03D154E7E70827F5E795
:100B90001127F3E764000020010900008000020033
:100BA00000E100E014ED00E00279044B2C2101FB90
:100BB00002335869003818BF0120704764000020D4
:100BC0002DE9F84F064690F8048089469246FFF7D3
:100BD000EBFF044600283CD1204F2C2508FB057B69
:100BE0004FF48E71CBF814A0CBF80890CBF820000E
:100BF0008BF828003068FFF735FE306801238360EA
:100C00005946FFF737FEDBF804305D461BBB306802
:100C1000DBF814402B6A9C4211D83368D3F81C21AE
:100C2000002AFBD00122DA6000202C2303FB087786
:100C300000237B61BDE8F88F95F828303BB9D0F8E8
:100C40001C31002BF8D05946FFF714FEE2E70F20C5
:100C5000EBE71120EEE72046ECE700BF6400002040
:100C60002DE9F0473A4D07792C2303FB075306463D
:100C70005C6824B103684FF40170C3F808032C23A7
:100C800003FB0753986950B1D869002841D024B1BB
:100C900033684FF40172C3F80423112436E09A61DB
:100CA000D9605862D8612C2303FB075393F829308D
:100CB0001BB910B93046FFF7ECFD4FF02C0808FBCC
:100CC000075A3068DAF80430002B37D14FF4A2719C
:100CD000D046FFF7C7FD3068D0F82491D0F808312E
:100CE000D0F84441CBB914B9B9F1000FF3D02C239B
:100CF00003FB07550023AB61B9F1000F24D12CBBD6
:100D000095F8291033680122B1B11A602046BDE878
:100D1000F0871961DA610120C5E7B9F1000FE6D16A
:100D2000002CE4D14146FFF7C4FDDAF82430DAF8AC
:100D300018209A42CFD8DAE75A60E7E74FF40173F8
:100D4000C0F804330024E1E70324DFE70F24DDE7E4
:100D5000640000200023435082B043580193019B5C
:100D600002B070471FB501238DF80030044BCDE968
:100D70000110D3E900126846904705B05DF804FB06
:100D8000900000207FB5434AD2F82461002E60D045
:100D900010464FF49271FFF7DDFF02238DF800300B
:100DA000D2F88034C2F880340393D2F83C350293F1
:100DB000394BDA6801920022C3E906226846D3E97A
:100DC000001290473348D0F8443173B14FF4A27108
:100DD000FFF7C0FF304B9A693AB10022C3E90622FF
:100DE000D968D0F83C05FFF7BDFF2A48D0F820317C
:100DF000ABB14FF49071FFF7ADFF0123C360264BF9
:100E00005A6962B1D0F84C150291002299688DF8A8
:100E1000002001915A616846D3E9001290471D48AD
:100E2000D0F858319BB14FF4AC71FFF793FF1A4BD8
:100E30005A6962B1D0F84C150291002299688DF878
:100E4000002001915A616846D3E90012904704B02E
:100E500070BDD2F81031002BB4D04FF48871104619
:100E6000FFF778FF0C4BD2F83C0599698842A9D16D
:100E7000DC69D96864B1D2F8005225F02005C2F8C7
:100E800000521A699C61DA60DE61FFF76BFF99E737
:100E90009C61FAE700200040900000202DE9F84313
:100EA0005A4E90F80480242303FB0863044693F809
:100EB00020300D469146002B40F0A3805449006835
:100EC000FFF7B4FC0746002840F09D802A682068A0
:100ED000511C0BD04FF0A04101239340C1F80835BD
:100EE00002F5E0734FF0030C41F823C069684B1C16
:100EF0001FBF01F5E0734FF0A04C4FF0000E4CF80F
:100F000023E0AB69C0F8243595F814C06B7DBCF1C3
:100F1000010F4CEA0303C0F86C35C0F80C25C0F88B
:100F200014151DD1AA68531C1FBF02F5E0734FF0C2
:100F3000A0414FF0000C41F823C0EB68591C0BD0C6
:100F40004FF0A04C01219940CCF8081503F5E07151
:100F50004FF0030E4CF821E0C0F80835C0F810251A
:100F6000242202FB08F2B318C3F804902B69B35093
:100F7000B9F1000F2FD04FF488712A7FFFF7EAFEF6
:100F800020684FF49071FFF7E5FE20684FF49271EE
:100F9000FFF7E0FE20684FF4A271FFF7DBFE4FF48D
:100FA000AC712068FFF7D6FE23681A49C3F8041312
:100FB000190B43F307335201002BD2B21CDB164846
:100FC000C51885F8002301225B0901F01F0102FA10
:100FD00001F140F8231023680822C3F800252423D8
:100FE00003FB08660023C6E906337361012386F814
:100FF00020303846BDE8F883084B01F00F015A5401
:10100000E9E70827F5E71127F3E700BF9000002084
:10101000850D00001003420000E100E014ED00E047
:101020000279044B242101FB02335869003818BFB0
:10103000012070479000002001F06043B3F1005F91
:101040002DE9F0470646884692463BD190F8049039
:10105000FFF7E6FF0446002836D11D4F30682425EF
:1010600005FB09754FF49071C5F814A0C5F8088008
:10107000FFF770FE4FF4AC713068FFF76BFE33681A
:101080006A69A968C3F84415C3F8482501229A6023
:101090006A68DAB9D3F82021D3F858011AB90028C0
:1010A000F8D00F2007E00028FBD10122DA60D3F846
:1010B0005821002AFBD0242303FB097700237B61FE
:1010C000BDE8F0871020FBE71120F9E72046F7E79D
:1010D00090000020F8B501F06043B3F1005F0446D2
:1010E0000F465ED10379304D242101FB035149683D
:1010F00021B100684FF40476C0F80863242000FB97
:1011000003539E6956B1D869002839D021B12368AC
:101110004FF40472C3F80423112030E09A61DF60B9
:10112000DE6120684FF48871FFF714FE20684FF4E9
:10113000A271FFF70FFE2368C3F83475C3F8382592
:1011400016BB01221A602479242202FB0452526841
:101150000ABBD3F81011D3F84421D3F8240111436A
:1011600002D10028F5D00A46242303FB04550023AE
:10117000984218BF03209A42AB6118BF0F20F8BDF8
:101180001F61DA610126CCE7D3F8002242F0200289
:10119000C3F80022D7E74FF40472C3F804230020F9
:1011A000EDE71020EBE700BF900000200378022B52
:1011B00002D14068FFF70CB9012BFAD0704700004C
:1011C000F0B52F4D8BB00120FFF799FA0FCD04AC8D
:1011D0000FC495E803002B4B2B4A00934FF4807308
:1011E00084E80300CDE902230193284A07236946D6
:1011F00004A8FFF7BDF908B1FFF7EAF800F052F9CB
:101200000546002837D10646044600F0BDF90746DA
:101210006846FFF705FA0028F7D19DF800301CB9A1
:101220001E023D460124F0E705F11502BA429BB2C9
:1012300002D21E023D46E8E71E4306F00303C6F352
:101240008502C6F30521C6F38F3000F0E9FA04A841
:1012500000F0A8FA04460028D7D09DF81100FFF747
:10126000F5F90028F9D19DF81000FFF7EFF90446D1
:101270000028F8D1C9E74FF0FF300BB0F0BD00BF38
:101280008C1F0000B4000020B4010020AD1100004C
:101290000C4B0322C3F80825A3F5F0330022C3F852
:1012A0000022C3F8102101221A61D3F81021002A6C
:1012B000FBD00022C3F810215A601A60024B1A803A
:1012C000704700BF00F00140D003002008B500F0D7
:1012D000F5FB084B01210022C3F80815C3F81025BF
:1012E000C3F81425A3F5B0331961FFF7D1FF024B02
:1012F000197008BD00F00140D203002038B51D4C24
:101300001D4D2178286800F0E3FB20B11B4B012222
:101310001A80042038BDFFF7BBFF194B2A68C3F8B9
:101320000C252278C3F81025D3F8241521F0FF01ED
:10133000C3F82415D3F8241541F07101C3F824151E
:101340001049C3F81C15033A0121C3F83015012ACE
:1013500040F20311C3F82C05C3F8341506D80A4A25
:101360001278120642F48472C3F81425074AC3F8AF
:101370001825CFE714000020D4030020BC02002071
:101380000010004000294176BF020020FF0003004A
:10139000124AD0B1D2F83C3723F0004323F0FF03C8
:1013A00043F0004343F07D03C2F83C37D2F87C376A
:1013B00023F0004323F0700343F0004343F0600345
:1013C000C2F87C37064B18707047064BC2F83C37A2
:1013D000D2F87C3723F00043F2E700BF0010004052
:1013E000D30300203430004010B5044600F066FB03
:1013F000194940F25B63C1F83835184BC1F83C35E8
:10140000174B1B685B000233C1F80835154BC1F858
:1014100004350023C1F800310323C1F80032124B18
:1014200054B11B7813B10120FFF7B2FF0023C1F8BC
:101430000C3101234B6010BD0C4A1B781278C1F8A7
:101440000C25002BF7D00A4B0122DA605A60C3F852
:101450004041C3F84441EEE70010004055555500A7
:10146000CC030020C8020020B4020020D4030020D6
:1014700000900040024B01221A649A63704700BF3B
:1014800000100040064B0022C3F81C2101225A61C3
:10149000D3F81C21002AFBD0D3F84805C0B270470E
:1014A0000010004038B54FF080430022C3F80021FF
:1014B00001221A60D3F80021002AFBD0294B1B68B7
:1014C000002201244FF480315C600425DC60C3F805
:1014D0000425C3F84021C3F84421C3F84821C3F8C8
:1014E0004C21C3F8041340F6C411C3F80042C3F8FA
:1014F0001055C3F840154FF48271C3F844151C60B1
:10150000194B1A60194B40F2E2415C60DC60C3F891
:101510000425C3F84021C3F84421C3F84821C3F887
:101520004C21C3F84015C3F84425114A4FF400710B
:10153000C2F880110722C3F81025FFF7DFFE70B94B
:101540000C4B0D4A18700D4B1C700D4B1860136935
:1015500043F0100313610B4BC3F8404538BD2846D8
:10156000FCE700BF18000020B802002000900040F7
:1015700000E100E0BE02002000ED00E0D203002008
:10158000C002002000E00140774A136970B543F0C3
:101590001003764D764C13612B78042B0BD1D4F8C5
:1015A0000421012A07D10021C4F8041171490978E6
:1015B00009B171490A61D4F80C21002A39D06F4A67
:1015C00000210220042BC4F80C11C2F8800140D184
:1015D000684B1B78012262606BB1674B40F2E240BE
:1015E000C3F840053F20C3F84405DA60C3F8401152
:1015F000C3F844111A60D4F80034012B13D16049A8
:10160000604A0978137852780339012903F00F03EF
:1016100001D8022B07D8002B62D15B495B4800F050
:101620000DFC002868D0574840F20112002100F05C
:1016300068FC2B78042B0CD1D4F80031012B08D195
:101640000022C4F800214B4A127812B14A4AD360F2
:1016500013604F4B1B68D3F84021002A5CD0002256
:10166000C3F84021444BD3F84031012B1DD1FFF783
:1016700009FF484B1B78002B68D05F2802D9002057
:10168000FFF786FEFFF7F6FE3B4B40F2E242C3F85F
:101690004025002101225A60DA60C3F840111A6027
:1016A000364B4FF40072C3F880213349D1F84431EE
:1016B000002B3FF471AFFFF7E5FE5E288CBF0020E2
:1016C0000120FFF765FEFFF7D5FE0023C1F8443582
:1016D000C1F84431294B4FF40072C3F880215BE715
:1016E000012B0ED0022B0ED0032B9CD1FF212748BB
:1016F0000023DEB2964208D3274A138801331380B1
:1017000091E70F21F3E75521F1E710F8016B8E42C5
:1017100003F10103EDD086E7D3F844110029A1D0ED
:10172000C3F844211D4B93F90030002B09DB5A0903
:10173000012103F01F0301FA03F360320F4941F85E
:101740002230174B18680130186070BDD4F874351A
:101750004FF6F072134204D0B3F5003F01D20120DE
:101760008EE75E28FBD98DE700ED00E0D203002074
:1017700000100040B40200200090004000E100E0B2
:1017800014000020C8020020A41F0000CA0200208C
:1017900018000020D3030020D003002015000020F3
:1017A000B8020020044B00211A781970034B1B88E3
:1017B00003601046704700BFBE020020BC0200203C
:1017C00010B50B4B1B7810F0300FC4B218BF44F0AB
:1017D000C004012B01D9002010BD064B204619780A
:1017E00000F076F90028F6D1034B01201C60F3E7E6
:1017F000D203002014000020D4030020054B1B78E6
:10180000012B024603D80449044800F07BB90020AC
:10181000704700BFD20300201500002018000020F0
:101820002DE9F84FDFF884A2DFF88492DFF884C254
:101830001546DAF80020CCF800300E4602F0C0025F
:1018400005F03F010A438C49CAF800200E6099F860
:10185000001003390129044604D8032B04BFFF21DB
:10186000CCF800108549DFF85082854F4FF0010B0E
:1018700081F800B098F8001000203880002900F0AE
:10188000F980002C57D1FFF721FD76B91DB1012356
:101890003B80042406E0032389F80030794BCAF822
:1018A00000401C702046BDE8F88F012E05D1032DA5
:1018B000EDD8AD01CAF80050F4E7022E20D1012D79
:1018C0000ED0022DE3D1042389F800306D4B204661
:1018D00083F800B0FFF75CFD6B4BC3F810B009E074
:1018E000032389F80030674B20461C70FFF750FD3A
:1018F000654B1D61654B1870BDE8F84FFFF7FEBCE6
:10190000032E03D1012DC2D80024CBE7042E04D12D
:10191000002DBCD106233B80C4E7052EB7D1032D93
:10192000B5D8DFE805F0020502054FF4FF73F2E7D2
:1019300040F64803EFE7032C0FD1012903D101231F
:101940003B800224AEE7524B1B886FEA43436FEAA9
:1019500053433B80FFF7BAFCD6E70129EFD1032BB5
:1019600004D0272E02D939800C469BE7484B4FF014
:10197000000B012CA3F800B00CD140F20112594623
:10198000444800F0BEFA2046FFF72EFD042388F8F5
:101990000030B9E7022CB7D1DCF800303D49032B09
:1019A0004A7006D8013B022B0FD8DFE803F03F4610
:1019B0004A00FF2B7FF46BAF022D52D045D9032D87
:1019C000A2D13046FFF71AFF4EE000230B703248D9
:1019D000324900F06DFA0020FFF706FD99F800107B
:1019E0002F4BDAF800001A68042941D0032914BFEC
:1019F0000023502303EBC003042908BF5B0840F217
:101A00007121F9330846984201F27121FAD3254B2E
:101A1000C2F8400502F5A072C3F81025224AC3F8A7
:101A200014250122C3F804250223B0E701230B701B
:101A30000F21194800F065FACDE702230B705521FC
:101A4000F7E704230B70FF21F3E75846FFF7CCFCC0
:101A500000F036F8144B0122C3F800221A60032369
:101A600095E73046FFF7ACFE00287FF44DAF0EE758
:101A70005823BFE7052415E7CC030020BE02002051
:101A8000BC020020BF02002000900040B4020020F1
:101A9000D0030020C8020020CA020020A41F0000BA
:101AA0001800002000F0014000100040C00200209B
:101AB00014000020C4020020D20300207047000060
:101AC000024B4FF40072C3F85026704700100040DC
:101AD000C31E012B0CD958B1A0F1EC02132A03D874
:101AE000074BD340DB0703D420F02000D82805D1D2
:101AF0000339012994BF0020042070470420704757
:101B0000110109002AB9104B036008230B70012052
:101B10007047012A03D10D4B03600923F6E7022A1F
:101B200003D10B4B03600A23F0E7032A03D1094BCF
:101B300003601A23EAE7042A03D1074B03601B233F
:101B4000E4E70020704700BF0080004000900040A4
:101B500000A0004000A0014000B001404FF08052C2
:101B6000D2F83031591C09BF4FF07042D2F834011D
:101B7000D2F8E80F92F8E03F08BFC0F30310062B3D
:101B800005D1033803288CBF0020012070470020B6
:101B9000704700004FF0704393F8E02F062A09D1F8
:101BA000D3F8E83FC3F30313033B032B02D8024AE5
:101BB000D05C704700207047AB20000008B5FFF7ED
:101BC000CDFF40B14FF080538F4AD3F82433C3F395
:101BD0000423C2F84035FFF7DDFF10B18B4B8C4A70
:101BE0005A67FFF7BBFF48B14FF080534FF0804278
:101BF000D3F84432C3F34233C2F83C35FFF7CAFF8F
:101C000030B1844AD2F8FC3023F08073C2F8FC3043
:101C1000FFF7A4FF40B14FF080430022C3F80C212E
:101C2000C3F81021C3F83825FFF7B4FF20B14FF0F7
:101C300080430322C3F8A025FFF7ACFF60B1764BC9
:101C40000522C3F810260122C3F888260022C3F813
:101C500018263F22C3F814264FF08053D3F83021C2
:101C6000511C09BF4FF07043D3F8343193F8E02F83
:101C7000D3F8E83F08BFC3F30313062A4DD1033B53
:101C8000032B4AD8654AD35C002B46D04FF08052D4
:101C9000634BD2F80414C3F82015D2F80814C3F823
:101CA0002415D2F80C14C3F82815D2F81014C3F870
:101CB0002C15D2F81414C3F83015D2F81814C3F840
:101CC0003415D2F81C14C3F84015D2F82014C3F808
:101CD0004415D2F82414C3F84815D2F82814C3F8D0
:101CE0004C15D2F82C14C3F85015D2F83014C3F8A0
:101CF0005415D2F83414C3F86015D2F83814C3F868
:101D00006415D2F83C14C3F86815D2F84014C3F82F
:101D10006C15D2F84424C3F87025FFF71FFF48B1B3
:101D20004FF080534FF08042D3F8583203F04F0306
:101D3000C2F8E43EFFF712FF48B14FF08043D3F8FA
:101D40000024D20744BF6FF00102C3F800244FF013
:101D50008053D3F83021062A0ED1D3F83431033B17
:101D6000032B09D82F4AD35C33B12F4AD2F83C3722
:101D700043F48063C2F83C37264AD2F8883043F4F3
:101D80007003C2F88830BFF34F8FBFF36F8F4FF0EF
:101D90001023D3F80022002A03DBD3F80432002BEF
:101DA0002EDA224B0122C3F80425D3F80024002A9E
:101DB000FBD04FF010221521C2F80012D3F80024F6
:101DC000002AFBD04FF010231522C3F80422174B32
:101DD000D3F80024002AFBD00022C3F80425D3F84E
:101DE0000024002AFBD0BFF34F8F0A49104BCA686A
:101DF00002F4E0621343CB60BFF34F8F00BFFDE7F7
:101E00000C4B0D4A1A6008BD0030014000C007406D
:101E10000DF0ADBA00ED00E000500040A32000003E
:101E200000C00040A72000000010004000E001407A
:101E30000400FA051C0000200090D0036AB30F2AAA
:101E400070B511D8013A2FD0034600EB020C01E027
:101E50009C4524D08E461C4611F8012B13F8010B2B
:101E60009042F5D0801A70BD40EA010C1CF0030FBF
:101E700004460B4606D0013AE6E7043A042A204617
:101E80001946DFD9194620460E680568B54203F1A8
:101E9000040304F10404F0D0D4E7104670476078DE
:101EA0009EF80120801A70BD00780A78DAE700BF3A
:101EB000844640EA010313F0030F18D18446202A18
:101EC0000BD32DE9F007B1E8F807A0E8F807A2F175
:101ED0002002202AF7D2BDE8F007042A07D351F8E0
:101EE000043B40F8043BA2F10402042AF7D2002A82
:101EF00005D011F8013B00F8013B013AF9D16046E9
:101F000070478446002A2DD010F0030F04D000F84B
:101F1000011B013A26D0F7E7C9B241EA012141EAA3
:101F20000141202A12D3A2F120022DE9F0030B4631
:101F30000C460D460E460F4688468946A0E8FA0331
:101F4000203AFBD2BDE8F00320320BD0042A05D39F
:101F500040F8041B043A05D0042AF9D200F8011B0A
:081F6000013AFBD16046704715
:101F6800FFFFFFFFFFFFFFFFFFFFFFFFFFFFFFFF79
:101F780000000000000000000000D601060100007B
:101F880011121314020000000300000005000000F5
:101F9800070000000000000000A04E00FFC1FBE8A1
:101FA8004C90728BE7B3518963AB23230284187278
:101FB800AA612F3B51A8E53749FBC9CA0C18532C15
:101FC800FD45E39AE6F15DB0B61BB4BE2A50EAE9D6
:101FD8000E9C4B5E5724CCA1B759B887FFE07D749F
:101FE8002648B9C5F3D9A8C4B1D5911101420C3915
:101FF800D5B0979D28D4F29BA4FD6465068C2996DC
:10200800FEA2714DF3F82E58DB0D5A5F1528F574B2
:1020180007CE25AF2B12E6D0DB2CDCC37FF03E3A8F
:1020280013A4DCE2F96C54E2D8EAC8880021869C43
:102038006AD8CB4E146AF94DD27EB23203C6144B1D
:102048007FD1B8A6797C17ACED06ADAF0A947ABA01
:1020580003E792D7150973E86D16EEE13F781F9DE7
:1020680009526EF17C362A716C7564448010434EB7
:1020780035EC65270AB5FC26693F599901638AA59D
:10208800BF685CD33CBE0BD67683D657054A3DDD88
:102098008173C9EB8A8439F4360BF700000101001B
:0720A800000001010000002F
:1020B0000000000000200040000000000020004060
:1020C0000000000003080000008000400090D003E2
:040000030000037581
:00000001FF
