:1000000000000120750300005D0300005F03000095
:1000100061030000630300006503000000000000AE
:100020000000000000000000000000006703000066
:1000300069030000000000006B0300006D03000076
:100040007D2200006F030000512300006F030000B9
:100050006F0300006F0300006F030000C523000062
:100060006F0300008D2700009D2700006F03000034
:100070006F0300006F0300006F0300006F030000B8
:100080006F030000591300006F03000021230000DC
:100090006F0300006F0300006F0300006F03000098
:1000A0006F0300006F0300006F0300006F03000088
:1000B0006F0300006F03000000000000000000005C
:1000C0006F0300006F0300006F0300006F03000068
:1000D0006F0300006F0300006F03000000000000CA
:1000E0000000000000000000000000000000000010
:1000F0000000000000000000000000000000000000
:1001000000000000000000000000000000000000EF
:1001100000000000000000000000000000000000DF
:1001200000000000000000000000000000000000CF
:1001300000000000000000000000000000000000BF
:1001400000000000000000000000000000000000AF
:10015000000000000000000000000000000000009F
:10016000000000000000000000000000000000008F
:10017000000000000000000000000000000000007F
:10018000000000000000000000000000000000006F
:10019000000000000000000000000000000000005F
:1001A000000000000000000000000000000000004F
:1001B000000000000000000000000000000000003F
:1001C000000000000000000000000000000000002F
:1001D000000000000000000000000000000000001F
:1001E000000000000000000000000000000000000F
:1001F00000000000000000000000000000000000FF
:10020000354936480A1A02D0072291438D463449AF
:1002100034480A1A06D00722914381F30988022242
:1002200082F3148830483149314A00F044F83148AB
:100230003149324A00F03FF831483249324A00F041
:100240003AF832483249334A00F035F832483349F7
:10025000334A00F030F833483349344A00F02BF881
:1002600033483449344A00F026F8344834490022EF
:1002700000F02CF833483449002200F027F83348C6
:100280003349091A082902DB002202604160314A21
:1002900090471F481F49884205D00268043003B4C4
:1002A000904703BCF7E700208646EC46002000217B
:1002B000294A9047FEE7884207D0521A05D00378B2
:1002C00001300B700131013AF9D17047884202D0F8
:1002D00002700130FAE770470000012000E00020C2
:1002E0000000012000000120FC3C00000000002074
:1002F000A0000020D0030000D0030000EE37000073
:10030000FC3C0000000000200000002074380000C9
:10031000743800007438000074380000743800002D
:10032000743800007438000074380000FA3C000093
:100330009C3D0000A0000020A0000020A0000020A4
:100340008A0800208C0800208C0800208C080020DF
:100350008C2800209D0300002D310000FEE7FEE701
:10036000FEE7FEE7FEE7FEE7FEE7FEE7FEE7FEE765
:1003700000F002B8FFF7FCBF0F484FF007018843B9
:1003800085460E4880470E48016841F470010160BF
:10039000BFF34F8FBFF36F8FFFF732BF09480A4992
:1003A0000A4A884207D0521A05D0037801300B70F0
:1003B0000131013AF9D170470000012021320000DB
:1003C00088ED00E0743800000000002000000020EC
:1003D000F0B595B01D46164608460C4601F0CEFD18
:1003E0001A9B0D93CDE9086500252B46082205A927
:1003F00020460A958DF82C500C9501F0DCFD079BEA
:100400000293069B03939DF814308DF8115003F06E
:100410000302012A1DD1BDF81420059DC3F3C203B8
:10042000C2F383168DF81030B20008230EA92046BF
:1004300001F0C1FDC5F3952508AB0093324602AB30
:100440000EA9284600F094FB204601F09BFD15B054
:10045000F0BD022AF8D1BDF81650C3F3C203C5F3AC
:1004600089158DF810300827082D2E4628BF08263C
:100470003B4632460EA9204601F09DFDAD1B08AB60
:1004800002AA31460EA8374400F0D6FB002DEBD16E
:10049000DAE70000014B01221A707047E1000020EA
:1004A0007047000070B5124D06460FCD88B06C46FF
:1004B0000FC495E80F00002E84E80F004FF0FF33C3
:1004C0004FF00602CDE90023CDE90233094A0A487C
:1004D0004FF0EB7308BF00226946069301F042FE1D
:1004E00008B100F005FC054B1E7008B070BD00BFE0
:1004F000743800009504000000000020A0000020D7
:1005000007B5044B0093044A4023FFF761FF03B093
:100510005DF804FB1D050000A100002038B50D4B5F
:100520000D4D002018700D4804782D5DD2B21C4688
:1005300065B1043002F074FD08B100F0D9FB084B3E
:100540001A7812B12378002BFBD038BD0C3002F0A2
:1005500029FBF1E7E1000020C40700200000002093
:10056000A000002008B50848084A0378D35C3BB1D6
:10057000043002F0C5FCBDE808400020FFF792BF40
:100580000C3002F0A5FAF6E700000020C4070020B6
:100590000120FFF787BF000008B5FFF7F9FF044807
:1005A000042100F04FFA034B01225A7108BD00BF2D
:1005B0005038000014000020037813F0040216D015
:1005C00003F00303012B03D0022B09D00120704755
:1005D0000A6800880232C0F3831002440A60F5E71B
:1005E0000B684288023303EB92130B60EEE7104670
:1005F000704700002DE9F04F044685B0861C0020AE
:100600000F46154600F070FD3F4A51683960936807
:1006100003F580735B1A924602F21C4702F5836968
:1006200002F21448B34219D30020002D68D004F020
:100630000F039B0143F0050363F30F00DAF8043066
:10064000DAB203321E444AF822000020CAF80460DD
:1006500000F04CFD012005B0BDE8F08F01213846C7
:1006600000F02FFF484600F044FF404600F041FFF5
:10067000DAF808000090C0B203300AEB8000694647
:10068000FFF79AFF009B30BBDAB20AEB8202D16817
:1006900001919A1C0133DBB20AEB83030092D3F879
:1006A0000CB001F00303012B22D0022B15D083469E
:1006B000404600F021FF10B1009BCAF808305946AF
:1006C000384600F0FEFEDAF80830DAF8042003F5C8
:1006D00080739B1AA6E7D8B2CEE7BDF80630C3F305
:1006E000891303334FEA1B4B02EB93030093DFE7BD
:1006F000BDF80430C3F383134FEA1B4B1344F5E7F3
:10070000A40544F0060099E7B4010020064B074811
:1007100010B500221A7001F0EAFB044610B9044833
:1007200001F053FC204610BDB401002060380000E9
:10073000C838000030B50A4C71B10A4A0A49121B88
:10074000D20800239A4201D1002030BD31F8235055
:10075000854202D00133F5E7034654F83300F4E74D
:10076000F03700005038000000000020094B01392C
:1007700003EBC000032909D8DFE801F00A020406F0
:100780000420704700797047407970470020704717
:1007900002207047F0370000034BD3E90130C31A41
:1007A00058425841704700BFB40100202DE9FF4175
:1007B000FFF7F2FF0546002840F0E280714CC4F8D4
:1007C0001804BFF34F8FA3680093DBB2033304EB2D
:1007D00083006946FFF7F0FE009B18B1D4F8182497
:1007E000002A55D0DAB2991C013304EB8202DBB245
:1007F00004EB8303D268DB68029302F00303022B4D
:10080000019200914FD1BDF806305F48C3F38917BC
:10081000502F3E4628BF502666F38F1306F108017D
:10082000ADF8063001F07BFB0546002800F0938010
:1008300001F0A4FB002301A90822284601F0B1FB26
:100840000099CB43DBB20133C9B20331B6EB830F5E
:100850004FEA830804EB810122D908234246A6EB24
:100860000806284601F09DFBF6B2484908F1080346
:100870003246284601F095FB009B033703EB9707B0
:100880000097D4F81834002B41D1D4F8106451E00B
:1008900062689A4299D8A260284604B0BDE8F08107
:1008A00008233246E5E7012B55D1BDF80430364820
:1008B000C3F38311062928BF062161F3891302318E
:1008C0008900ADF8043001F02AFB0546002842D02B
:1008D00001F054FB0023082201A9284601F061FB26
:1008E0000026BDF80420C2F38312B300964203F140
:1008F0000803C6D200994A1CC9B20331009204EB26
:1009000081010422284601F04CFB0136E9E7284624
:1009100001F038FBFFF740FF80F00100C5B2BBE7F4
:10092000F3685B7923B1336829461B6830469847E2
:10093000F3681E68002EF3D1284601F023FB3046F1
:1009400000F0D2FBD4F818340BB9009BA360002050
:1009500000F0CCFBDEE7D4F8104454B90C4B0D4842
:100960000D49C01AC008000440F0020000F05CF815
:10097000D0E7236820469B689847E3681C68ECE74B
:10098000002589E7B401002060380000C001002084
:10099000F037000030380000B13800002DE9F3478F
:1009A00004460E46924601A9012218469946FFF7D1
:1009B00021FE1B4F10B3019D4FF00008AA1CC84533
:1009C00008EB020123D11748002100F057FD80F306
:1009D0001000000440EA1440E4006B1C04F03804EA
:1009E000DBB2EDB244F0010407EB8303033544EAC4
:1009F000881444EA8624D86047F825403B781BB128
:100A0000FFF7D4FE0028FBD102B0BDE8F087C9B2E1
:100A100007EB81015AF82830CB6008F10108CEE7D6
:100A2000B4010020D005002000231A46FFF7B6BF0E
:100A300007B50123019201AAFFF7B0FF03B05DF8EB
:100A400004FB000030B50F49D1F810240346002004
:100A5000144634B9DC6820714AB9C1F810342260F8
:100A600030BDE4682579854206D02468F1E7D26874
:100A7000116821601360F3E701300A28E8D14FF0D4
:100A8000FF30EDE7B4010020084A38B50123D2F861
:100A9000104413701D4604B938BDE3685D712368C6
:100AA00020465B689847E3681C68F4E7B4010020BF
:100AB00007B503460846197A052911D05B7A2BB190
:100AC000094A0A49019001F002F801980849019089
:100AD00000F0FDFF019803B05DF804EB00F0ECBFFF
:100AE000002AF8D0F2E700BFD4380000D93800005F
:100AF000F938000030B5C38885B004460D4633B1DF
:100B0000144A00921449154A284600F0E0FF217A61
:100B100005291DD0637A4BB1A088FFF727FE104B43
:100B2000104953F82020284600F0D1FF227A0E4BBE
:100B3000A08853F8222003920021FFF7FBFD039ABF
:100B40000A490346284605B0BDE8304000F0BFBF63
:100B500005B030BDD4380000E4380000DC380000B7
:100B600060390000D938000084390000FC380000EA
:100B70002DE9F04385B01F460C9D002395F80C909D
:100B80002B7306460C46904629463846FFF7B2FFBF
:100B9000B8F1060F09D8DFE808F00412181F28334F
:100BA00040003146284600F092FF00222946384690
:100BB000FFF77EFF85F80C9005B0BDE8F083226852
:100BC0003146284600F083FFEFE7D4E900233146A1
:100BD000284600F07CFFE8E7A36800933146D4E99B
:100BE0000023284600F073FFDFE7E3680193A36862
:100BF00000933146D4E90023284600F068FFD4E78B
:100C000023690293E3680193A36800933146D4E912
:100C10000023284600F05BFFC7E76369039323695D
:100C20000293E3680193A36800933146D4E900235B
:100C3000284600F04CFFB8E708292DE9F74F804619
:100C40000E4617461C463CD8002593F80C901D73A1
:100C500019461046FFF74EFFDFF888A0DFF888B08E
:100C6000AE4231D918F805205946204600F02FFF32
:100C70000135082DF4D11949194DDFF870A020462F
:100C800000F025FF4FF0000B5E4522D918F80B202D
:100C90007E2A05D81046019202F018FD019A00B98B
:100CA0002E225146204600F012FF0BF1010BBBF142
:100CB000080FE9D1012221463846FFF7F9FE84F8F2
:100CC0000C9003B0BDE8F08F5146204600F0FFFEC7
:100CD000CEE72946204600F0FAFEE6E7103900008C
:100CE0000E3900000C3900000639000012390000EE
:100CF0001FB50021039001AA44F20100CDE90111C2
:100D000000F004F805B05DF804FB000010B572B601
:100D1000FFF7BAFEFFF74AFD0028FBD1104B114C3C
:100D20001149E41AE408240444F00100FFF77CFEB2
:100D30000E4B1B68DB0700D500BE0D4944F00200D6
:100D4000FFF772FEBFF34F8F0A490B4BCA6802F4DC
:100D5000E0621343CB60BFF34F8F00BFFDE700BFDE
:100D6000F03700003038000098390000F0ED00E066
:100D7000A439000000ED00E00400FA05D0E90223E8
:100D8000D1E90201994208BF90422CBF0120002006
:100D90007047000008B50B4800F0C7FA0A4B0B4932
:100DA000D3E900231218D1E9000143F100038B427B
:100DB00008BF824203D212F1807243F10003104651
:100DC000194608BD1C00002070060020E80600201F
:100DD00037B505460C460A4801A900F0DAFA60B1B9
:100DE0000570446001A9064800F0FDFA18B10548F5
:100DF00000F0A0FA002003B030BD0420FBE700BFE4
:100E0000D40600201C00002038B5184B1B7804467F
:100E100013B90025284638BD0028FAD0037F03F017
:100E2000FF05002BF5D0FFF7B5FFD4E90223994267
:100E300008BF904214D3236903B92377D4E905305E
:100E4000984721690029E4D0237F03F0FF05002B98
:100E5000DFD0D4E90223521843F10003C4E902238E
:100E60000348214601F0BAF8D4E700BF7806002015
:100E7000C039000013B5114B1149186801900823BF
:100E80001048582200F072FA044698B90E4A0F48EA
:100E900001A900F03BF9044660B90C48012100F0BB
:100EA00027FA01230A4A0948194600F089F9094B33
:100EB00001221A70204602B010BD00BFBC390000EC
:100EC0007C060020D40600202D0F00001C0000200E
:100ED000FFFF7F00780600203AB103685A614A1E7E
:100EE000514251411961002070470720704738B5C1
:100EF000037F04460D4683B98261FFF74BFF2369E8
:100F0000401941F10001C4E9020103B12561214604
:100F10000020BDE83840FFF75BBF002038BD00006F
:100F2000014800F002BA00BF1C0000202DE9F04F7C
:100F300085B0804600F0E4F940B15A4AD2E9003168
:100F400013F1807341F10001C2E9003100214046F4
:100F500000F0E5F938B1544E336823B13068FFF73B
:100F600053FF002333600121404600F0D8F920B13F
:100F7000FFF710FF4D4BC3E900014D484A4F4D4E5E
:100F8000DFF8389103A900F03EFA002845D1DFF8D8
:100F90002491454EDFF828A1484601F035F8336822
:100FA000002875D07BB13368D0E90201D3E9022370
:100FB000994208BF90422DD233681B7F1BB1316824
:100FC000484601F00BF8484601F018F8D0E902B3A2
:100FD00007460193FFF7DEFE019BBBEB000463EBCA
:100FE0000105012C75F1000345DBB4F5350F40D345
:100FF000FFF796FF304A02444FF496030021504613
:1010000000F0FEF800283ED1336813B9404600F0E6
:10101000CFF8376005B0BDE8F08F0378012B1DD005
:10102000022B09D14FF0000A304600F0E7FF0028FC
:1010300034D080F81CA0F7E73BB941680B7F23B997
:1010400001230B77304600F0C9FF03A9184800F0D0
:1010500005FA03A9164800F0D6F996E741683B68FF
:10106000994202D100233B60EFE7304600F0CFFF0A
:10107000EBE7BA68C0E70021504600F046F9384671
:10108000FFF7C2FE01E00D28F9D00023336083E7AB
:10109000002BBFD1404600F08FF8BBE7012389F851
:1010A0000030D2E770060020F0060020E80600209D
:1010B000D4060020C0390000FFFFB40078060020ED
:1010C0001C00002072B6024A136801331360704797
:1010D000F4060020034A1368013B136003B962B6AB
:1010E000704700BFF4060020FFF7ECBFFFF7F2BF28
:1010F000435882B03BB10023435043580193019BB6
:10110000012002B070471846FBE70000F8B5204BFD
:101110004479204D43F824201F4A204B05EBC4049A
:101120009B1A2279DB081B0432B143F002001C49F0
:10113000FFF77AFC0820F8BD02680C88C2F8084561
:1011400090F904608A7804795201002ED2B219DB3A
:1011500014498F1987F800230122760904F01F042F
:1011600002FA04F441F82640427905EBC201012459
:1011700045F832000C7143F003000B49FFF754FCB3
:101180000020D8E7094904F00F040A55ECE700BF36
:1011900000070020F8060020F03700003838000073
:1011A000CC39000000E100E0EE39000014ED00E071
:1011B000036801221A607047036801225A60704771
:1011C00073B501F15005AD000068ADB24FF4803445
:1011D0008C400026C0F80843C0F84843465101F54A
:1011E000A8714559019522F07F42019D40F82120C8
:1011F000C0F844430BB1C0F8044302B070BD000016
:101200002DE9F74F0D4622F07F4402684FF48037F6
:1012100005F150068F408046B60002EB8500C2F80B
:101220004873B6B2C2F80873D2F8041599464FF065
:10123000000BD0F84035C0F8401542F806B05B1AF4
:101240009259009223F07F43012B009A4FEA850ABE
:101250000CD1264B4FF4806043F001039847D8F837
:10126000003043F806B09B590193019BD8F8001059
:10127000D1F80465C1F84473A31B23F07F43012B0D
:101280001CD11A4B05F5A875013443F0010341F850
:1012900025404FF480609847D8F80030D3F80435E3
:1012A0009E4209D1D8F800300020C3F84473C3F837
:1012B000047303B0BDE8F08F0D20FAE78A44C9F14A
:1012C000FF13CAF84045D1F80405221A013A22F06A
:1012D0007F4203F57F439342EED3002AE2D10134EB
:1012E000CAF84045D1F804359842DAE7003A0000E0
:1012F00003680222C3F8442309B1C3F804237047EA
:1013000000684FF48271FFF7F3BE4FF4803303FAA5
:1013100001F10368C3F84813C3F80813704750314C
:101320008900006889B2FFF7E3BE0368D3F80405BB
:101330007047000090F90430002B09DB5A090121A5
:1013400003F01F0301FA03F34032024941F822304F
:10135000704700BF00E100E0024B034A1B681068C1
:10136000184700BF00070020F806002010B561B143
:10137000B2FBF3F403FB1424A4B244B9C0E9001493
:1013800084608281C381204610BD0E20FCE70920C5
:10139000FAE737B550E8013F9DB2C48925448489F6
:1013A000A54228BF2D1B0489A54202BFBFF32F8F82
:1013B000002207E0C5EA030540E80154002CE9D10A
:1013C0004FF001028DF803200193019B9DF803204B
:1013D0000B6002F0FF0322B10B880068184403B0D1
:1013E00030BD1846FBE70A884B889A4209D150E87D
:1013F000012FC2EA024240E80123002BF7D101206D
:1014000070470020704737B550E8023F1FFAA3F538
:10141000C488A54202BFBFF32F8F00220DE0C4890C
:1014200025448489A54228BF2D1BC3EA054540E811
:101430000254002CE8D14FF001028DF803200193F3
:10144000019B9DF803200B6002F0FF0322B14B8843
:101450000068184403B030BD1846FBE70A884B8883
:101460009A4209D150E8022FC2EA224240E8022300
:10147000002BF7D1012070470020704710B50346BC
:1014800053E8000F0A4643E8002494F0000FF7D118
:1014900010BD10B5034653E8002F42EA010043E8AF
:1014A000000494F0000FF6D110BD10B5034653E8C8
:1014B000000F00EA010243E8002494F0000FF6D187
:1014C00010BD10B5034653E8002F02EB010043E8BE
:1014D000000494F0000FF6D110BD10B5034653E898
:1014E000002FA2EB010043E8000494F0000FF6D1B6
:1014F00010BD0121FFF7CDBF0021FFF7D6BF10B50A
:1015000090B1D0E9012301689B1ADBB20A60013B6C
:10151000DBB2FF2B026802D10020107110BD1168F0
:101520004C1C14600B70F2E70E20F7E738B5044648
:101530000020FFF7D9FD226863681168994213D92A
:10154000481E106011F8015CE368218A01FB053533
:10155000A36811791B1ADBB2994200D213710020E3
:10156000FFF7C4FD284638BD0025F8E738B5054625
:1015700000200C46FFF7B8FD2A681368591C11605B
:10158000E968641A298AB4FBF1F41C70BDE838409C
:101590000020FFF7ABBD0000034B1B79022B01D1EC
:1015A00000F0F6B9704700BF040700202DE9F84F9E
:1015B0004268DFF850E1DFF8449100252C464FF4F3
:1015C0007A780127D2B9002C36D0634234EA03037B
:1015D000857B4A4E4FD0374611464FF6FF739646ED
:1015E00005F1FF385FFA81FCAC456ED34FF6FF7210
:1015F0009342434A0CBF1388138041E08368967975
:10160000D17903EB860A0EEB4101BAF802B0898961
:101610008B4588BFAAF8021033F826A08A4538BF48
:1016200023F8261092F806C003EB8C0A33F82C300E
:10163000BAF802A0534504D84FF6FF742046BDE81F
:10164000F88FA1EB0A01A3EB0A039BB208FB01F19F
:10165000B1FBF3F10CF1010389B2A94229F813108F
:1016600004D907FA0CF40D461268ABE704BF07FA79
:1016700006F63443F8E7B4FA84F3C3F11F039BB2D0
:101680000133DBB25A1E591C36F813C036F81270FB
:1016900036F811400CEB07012144013D4D4302FB9C
:1016A0000CF2991E07FB012204FB032483891348D3
:1016B0006A08013B03FB04240021B4FBF5F4282253
:1016C0000134A4B202F030F8B8E724FA01F2D207EC
:1016D00010D53A7897F804904A44D2B2BCF1000F82
:1016E00002D0414518BF5208462A03D9724584BF2B
:1016F0008BB296460131023774E700BF2407002001
:1017000080070020040700202DE9F0433A4D83783C
:101710002A7FDA40D20785B015D505EB430302884E
:101720009A8100F0C3F970B9344B1C680646012752
:1017300064B928222146324801F0F6FF3149324887
:10174000102201F0C8FF05B0BDE8F083E17BA9B12C
:101750006368DFF8B0E0DFF8B0C0029408223CF81C
:10176000020B3EF8028BA0F10F09C84510DB0F30C9
:1017700080450DDC013A12F0FF02F0D12468D7E772
:10178000DA7905EB420290899A88904203D81B6867
:10179000002BF5D11946237C7BB1A37BE1B1012B52
:1017A000ECD92046FFF702FF0423ADF80C008DF8BA
:1017B00004302B6801A89847E0E70029DED0A27B1F
:1017C000012A05D92046FFF7F1FE0223ADF80C00EF
:1017D0008DF804302774ECE7012B09D92046FFF778
:1017E000E5FE0323ADF80C008DF804302674E0E725
:1017F0008DF80470FAE700BF040700204C070020B2
:1018000024070020100700207007002010B50A4BA5
:101810000A4C00222060A1601A600948094A01218F
:10182000FFF75AFB30B90849084800F061F808B9D9
:101830000123237110BD00BF4C07002004070020C6
:10184000083A00009915000009170000063A000048
:10185000F8B5194C227F05468AB10123EB730026A7
:101860006A68217F30464FF6FF7C1F4672B906B189
:1018700021770223237100F07DF8002005E0A168A4
:101880000E48FFF734FB0028E7D0F8BD92F806E0D9
:10189000AB6803EB8E03A3F802C0D37921FA03FEF1
:1018A0001EF0010F05D107FA03F3DBB21843194309
:1018B00001261268DAE700BF040700205007002065
:1018C000044B1A6812B91860FFF7C2BF13461268BA
:1018D000F8E700BF4C070020044A137FB3FA83F3F4
:1018E000C3F11F03DBB25376704700BF84070020AB
:1018F000F8B580B379B3194C194F002323760378D8
:10190000E37603F5E0704FF0A0460125032205FAC7
:1019100003F346F82020C6F80835124861601249E2
:10192000BA7000F0FFFD08B10320F8BDE37E05FAB0
:1019300003F3C6F80835394600F03CFE0028F3D121
:101940000A48294600F090FE0028EDD1084BC3F864
:1019500000052570E9E70720E7E700BF84070020BE
:10196000240000200C3A0000F9190000A407002010
:1019700000700040054B01221A7602221A709A7EEE
:101980001043002298761A76704700BF8407002023
:1019900008B515498B7E03F0FF001BB30B7F53B9CD
:1019A000124A0123C2F800350A7ED2B90B768B7E2B
:1019B0000B77FFF791FF4B7E0D4A0133DBB2D371FA
:1019C0000A4A0020C2F81405C2F81035CA7E012365
:1019D00093404FF0A042C2F80C35BDE8084000F03B
:1019E00097BE112008BD00BF840700200070004092
:1019F0002400002000000000F7B5274CE37E0125FD
:101A00004FF0A04705FA03F306462946C7F8083504
:101A1000406800F029FE7368B3F9000001F0EAFDA8
:101A20001BA3D3E9002301F035FD1C4B002201F07C
:101A300031FD1B4B002201F02DFD1A4B002201F05D
:101A400029FD01F0C3FDE37E05FA03F3C7F808356D
:101A5000637E043380B224F81300637E617EADF8A8
:101A600004008D40217F8DF8063021EA05012177A1
:101A700019B90D4B2176C3F80015636801A8984782
:101A8000237F1BB1FFF728FFFFF782FF03B0F0BDF4
:101A9000333333333333E33F8407002000408F4038
:101AA000000008400000503F00700040014B187ECD
:101AB000704700BF84070020826810B504462AB131
:101AC00043690168006998470023A36010BD0EB404
:101AD00003B5039921B104AB01AA019300F076F894
:101AE00002B05DF804EB03B070470A2938B504462C
:101AF0000D4602D10D21FFF7F8FFA3682268591C9B
:101B0000A160D554D4E901329A4204D32046BDE8FD
:101B10003840FFF7D1BF38BD2DE9F84F9846DDE9D1
:101B20000A43154682460F460A464FF00109AA426B
:101B30000FD2C14538BFC14613F0010B01D16CB9BA
:101B400000240126B8F1010F1BD908F1FF386E43BC
:101B5000F8E709F10109B2FBF5F2E8E79B070ED5BA
:101B6000B8F1000F0CBF30262026A145E9D2013C78
:101B700031465046FFF7B9FF002CF6D1E0E72026AA
:101B8000F3E7B7FBF6F39D42E1D9DFF83C80B7FB02
:101B9000F6F3504618F8031006FB1377FFF7A5FF7E
:101BA0003346AB42B6FBF5F6F1D2BBF1000F02D0E3
:101BB0000CB1A14501D3BDE8F88F20215046013C6E
:101BC000FFF793FFF4E700BF103A00002DE9F74F4D
:101BD000054617468846002900F0428118F8011B87
:101BE00049B92B7B002B00F03B81284603B0BDE8B0
:101BF000F04FFFF761BF252940F0B780002698F825
:101C000000302D2B424608F1010823D0302B24D080
:101C10002B2B25D000242A2B02F1010123D13B6874
:101C20001A1D1B683A601C440A4613782E2B26D1D5
:101C300001324FF0000A104610F8011BA1F1300CE0
:101C4000BCF1090F1DD80A2303FB0A13A3F1300AC4
:101C50000246F0E746F00106D1E746F00206CEE77D
:101C600046F00406CBE711F8013CA3F13000092847
:101C7000DBD80A2202FB0434303C0A46CBE74FF0A3
:101C8000000A12F8011B01F0FB0068289046F8D00A
:101C9000782909D86F290CD8632962D022D8252940
:101CA00063D0582900F0888098F80030002B95D137
:101CB00097E770390829F7D801A353F821F000BF3E
:101CC0003B1E0000A91C0000A91C0000C91D00004B
:101CD000A91C0000A71D0000A91C0000A91C0000F1
:101CE000B91D0000642901D06929DDD13A68D2F814
:101CF0000090111D89EAE9723960A2EBE9724FF098
:101D0000010B092A35DCD34538BFD3462CB1B9F1D4
:101D1000000F01DB720700D5013CB30702D5BAF111
:101D2000000F03D0F00701D44CBB0024B9F1000F21
:101D30002DDAC9F100092D212846FFF7D6FE06F05D
:101D40000302022A04D1BAF1000F01D11CBB002406
:101D5000CDE9004653460A2249462846FFF7DCFEF5
:101D6000A2E73B681A1D19783A602846FFF7BDFEC6
:101D70009AE70A230BF1010BB2FBF3F2C1E7A3458B
:101D8000D4D220212846013CFFF7AFFECCE77107F3
:101D9000D5D52B21D0E7A345DAD230212846013C06
:101DA000FFF7A3FED2E73968CDE900460A1D3A6085
:101DB00053460A220968D0E739680A1D3A60CDE91E
:101DC000004653461022F5E73B681A1D3A6016F0AC
:101DD0000106D3F8009028D1B9F1000F03D048468E
:101DE00001F0D5FC0646B44200D904BB09F1FF3925
:101DF00019F8011F00293FF457AF2846FFF775FE79
:101E0000F6E728460136FFF770FE19F8061000299C
:101E1000F7D1A642BFF448AF002C3FF445AF2021D4
:101E20002846013CFFF761FEF3E70026EDE720219D
:101E30002846013CFFF759FED5E73B681A1D3A607A
:101E4000302128461C68FFF750FE78212846FFF70E
:101E50004CFE00220823CDE90032214610227CE707
:101E600003B0BDE8F08F00BF2DE9F84FB0F806A031
:101E70004579D2F800B09DF828900AFB05F5043D9D
:101E800088460BEB0301A94203F1040488BFA5EBCC
:101E9000030BB4FBFAF607460AFB1644C2F800B07F
:101EA0004EB9AAEB04055D4528BF5D46BBF1000FA6
:101EB00004D1BDE8F88F3F68013EF1E7043408EB38
:101EC00006003C442A46B9F1000F0DD02146ABEB89
:101ED000050B01F000FCDA452E443F6855464FF0F3
:101EE000000428BF5D46E1E701462046EFE7FFF723
:101EF00006BBF8B546790146721E0546002393429B
:101F00002D6803D30024A64202D8F8BD0133F6E7BA
:101F10000F682846FFF72AFB01343946F3E72DE91D
:101F2000F843068ACD1C0746FFF700FB043E354404
:101F30000446B5FBF6F5F0B14FF48073EDB2838043
:101F4000C680013D076081464FF00008A84512D2C7
:101F50003846FFF7EBFA064648B1637901336371FF
:101F600008F10108C9F8000007608146EEE7204645
:101F7000FFF7BFFF34462046BDE8F8830121043057
:101F8000FFF79FBA10B5012104460430FFF7A5FA08
:101F900010F0FF0F04D12046BDE81040FFF7A9BFA5
:101FA00010BD1FB503920022009203AAFFF75CFF49
:101FB00005B05DF804FB1FB503920122009203AA4D
:101FC000FFF752FF05B05DF804FB836800225A60FA
:101FD000C3E904229A60DA601A60704770B54468F9
:101FE00006460D46206818B1B3682946984718B9C7
:101FF00023682B60256070BD2468F3E74368186888
:1020000008B102681A6070474368186870474368EF
:10201000186800B97047884203D102681A6001202D
:10202000704703460068F4E738B5074C051E04F115
:10203000080318BF1C4623682BB11A6822605B682E
:1020400028469847F7E738BDB007002020B9054B70
:1020500001225A70FFF7E8BF012802D1014A9070AF
:10206000F8E77047A807002038B50C4C23789BB9D7
:102070000B486360A3602361E36000F0BBF8054692
:1020800000F0C4F801232370064BD3F800340BB1E1
:102090000123A370284638BD8525F5E7A807002051
:1020A0004D2000000000014038B5134CA3780546D0
:1020B00003F0FF0073B115B16B6801209847002051
:1020C000FFF712F8E3680133E3600020BDE8384011
:1020D000FFF70CB8FFF708F825B1226913463BB9A2
:1020E0002A602561E368002BECD100F0A1F8E9E754
:1020F0009D42F7D01B68F2E7A80700201FB50378C0
:102100008DF800304368019383688DF80830C36808
:10211000054A0393054B684653F8213052F82110C5
:10212000984705B05DF804FBBC070020C0070020FD
:102130001FB503788DF800304368019383688DF8EC
:102140000830C368054A0393054B684653F82130AD
:1021500052F82110984705B05DF804FBBC07002039
:10216000C0070020F0B5194B90F800C091F81DE0B1
:1021700043F82C20164B16460A6943F82C20154BC1
:1021800003F80CE00C4607460FCC89B06D460FC52E
:1021900094E80F0085E80F00CDF810C0BEF1000FE5
:1021A00009D0002E0C4A694608BF3246381D00F09F
:1021B000E3FD09B0F0BD002E084A694608BF32466B
:1021C00007F10C0000F0CEFBF3E700BFC0070020D2
:1021D000BC070020C4070020FD20000031210000C2
:1021E00000F18040002382B0036003680193019BEB
:1021F00002B07047044A137923B90121106091801D
:102200001846704785207047C8070020074B1A689A
:10221000D20704D4C02283F8002301221A604FF0B1
:1022200080430122C3F81825704700BF00E100E099
:1022300038B54FF48270FFF7D3FF4FF0804302228E
:10224000C3F804230A4AD06840F08073D360094B76
:102250001C6844F0010119605D685968491BB1F5BB
:102260000A5FFAD31C60044BD06001221A6038BDAB
:10227000F0ED00E0001000E008000040124B1B6889
:1022800010B573B14FF48070FFF7AAFF4FF0804391
:102290000122C3F808230D4B587910B95A711B68F5
:1022A00098470B4B1B6873B14FF48270FFF798FF90
:1022B0004FF080430222C3F80823044BBDE81040CE
:1022C0001B680120184710BD00010040C80700200E
:1022D0000401004000F1804000F59830002382B0F6
:1022E000036003680193019B02B0704700F18043D3
:1022F00003F5983310B51B68024663B1064BD3F85B
:102300000433194207D0FFF7E5FF044BBDE8104046
:102310001B681046184710BD00300140D007002050
:1023200008B501214FF48070FFF7E0FF02214FF460
:102330008270FFF7DBFF04214FF48470FFF7D6FFB4
:10234000BDE8084008214FF48670FFF7CFBF0000BA
:10235000014B1B68184700BFD407002038B50B4B52
:1023600098420C4601D0002038BD0020FEF7BCFE8C
:10237000074B1D7915B901221C601A710020FEF768
:10238000B5FE002DEFD01120EEE700BF0020004089
:10239000D4070020034B984201BF034B00221A6070
:1023A0001A71704700200040D407002000F18040DF
:1023B00000F5E040002382B0036003680193019BB5
:1023C00002B07047F0B5504B504C1B6885B0002BE5
:1023D0003DD04FF4827094F82E20FFF7E7FF2AB328
:1023E00094F82F3013BB4A4B1B68002B33D04FF4AB
:1023F0008070FFF7DBFF638B94F82D108B424FD971
:1024000022895B1A9BB292B26383D31A626802EB91
:102410004303404AC2F82C36C2F830164FF482709B
:10242000FFF7C4FF3C4B01221A6014E0636802937B
:102430002389ADF80C30E36800218DF8041023BB2C
:102440002374236801A89847002384F82F3094F858
:102450002E30002BC7D1314B1B685BB14FF4887015
:10246000FFF7A4FF0023237402238DF8043001A892
:10247000236898472A4B1B68EBB14FF48A70FFF72B
:1024800095FF0023237405B0F0BD208B608363604B
:102490002081E160002AD4D11E4B01221A60D0E7CE
:1024A000BCD1E368012284F82F2013B1002262839B
:1024B000AFE76383B2E766694FF000470125002E5E
:1024C000E1D0B6FA86F227FA02F34632920026EA03
:1024D000030602F1804303F5E0431B68002BEED0B6
:1024E0001046FFF763FFA2F58C72D30882F0040256
:1024F000C2F380028DF808308DF8045023688DF8FF
:10250000092001A89847DAE704710040DC070020A1
:1025100000710040007000400470004010710040E5
:102520001471004038B5204A92F82C300446002B34
:1025300037D111601D490078C1F8F0056078C1F805
:10254000F4050125137482F82D30536182F82F3081
:10255000E07882F82E006FF0004382F82C504FF4A0
:102560008270C1F80833FFF721FF4FF48070FFF746
:102570001DFF4FF48A70FFF719FFA3780C485B0129
:10258000DBB280F80733802303600223C1F80433F1
:1025900092F82E300BB1C1F80453C1F80055002059
:1025A00038BD0820FCE700BFDC07002000700040B9
:1025B00000E100E070B52A4B1A7C02F0FF05002A0A
:1025C0004BD10A79012A9CBF264CC4F8005500F172
:1025D0000C0503EB4504247924B993F82D4001340C
:1025E00083F82D4003EB4503CC790D7A8E781C716E
:1025F0005D714B7836021B0106F4E06603F0300390
:1026000033430E7806F003063343CE78360306F4E0
:1026100080563343160406F4E02633434E79897915
:10262000360506F480160906334301F080710B432A
:102630000C4901EB0016000100F1804000F5E0407C
:10264000012AC6F81835C0F81455C0F8104502D84C
:102650000123C1F80035002000E0112070BD00BF4B
:10266000DC0700200070004070B5264A264B054666
:102670001220C2F808031C7C022C03D1C2F8040308
:10268000112070BD187C01281DD1D86818B1022313
:10269000C2F80433F4E7DD60198393F82E3063B990
:1026A0001A4A1368002BFCD04FF48070FFF77EFEAF
:1026B000144BC3F82C56C3F83016124B0222C3F841
:1026C00004230020DDE7022093F82E40C2F8040323
:1026D000012600201E745D601981D8603CB15983C9
:1026E00093F82D30C2F82C56C2F83036C9E7C2F83C
:1026F0002C564FF48070C2F83016FFF757FE204674
:102700001660BEE700700040DC070020007100404A
:10271000084A117C0129CBB209D192F82E0018B1D8
:10272000054A002013607047044A13607047082070
:10273000704700BFDC0700200070004004700040BC
:102740002DE9F743002406460F4600F5A0754FF427
:102750008038A1462B688BB1D6F8043308FA04F20E
:102760001A420BD0C5F800902B680193019BA3007F
:1027700003F5A07398B2D7E9003198470134042CCF
:1027800005F10405E6D103B0BDE8F0830149024834
:10279000FFF7D6BF0C080020009000400149024816
:1027A000FFF7CEBF1808002000A0004000234350D0
:1027B00082B043580193019B02B070470A4610B59E
:1027C0004FF48E71FFF7F2FF136A9168C95C136AC8
:1027D00001331362C0F81C1510BD8B690A4610B591
:1027E0004FF4847123B9FFF7E1FFD0F8183510BD1D
:1027F000FFF7DCFF536AD168D0F81805C854536A54
:1028000001335362F3E700001FB501238DF8003058
:10281000044BCDE90110D3E900126846904705B09A
:102820005DF804FB2408002030B54C48D0F8043390
:1028300013F4007F85B005464DD0D0F82431002B2D
:1028400049D04FF49271FFF7B1FF4FF40173C0F814
:102850000833434B93F829200AB9012242603F49CB
:1028600002228DF80020D1F88024C1F88024039240
:102870009A690292DA6801920022C3E90622684648
:10288000D3E9001290473548D0F81C315BB1344988
:102890004A690B6A9A420A464AD991F82830002BB5
:1028A00046D1FFF78BFF2D48D0F844318BB14FF460
:1028B000A271FFF77BFF2A4B93F829200AB101226E
:1028C00002609A692AB10022586AD9689A61FFF7B2
:1028D0009BFF05B030BDD5F804335B07D3D5D5F8E1
:1028E0000831002BCFD01E4C1C482146FFF775FF46
:1028F000636AA2699A422346C5D1E269E1684AB196
:102900002369E3600023606AA261E3616362FFF709
:102910007BFFB8E794F829200AB901226A600F4AC0
:102920004FF40170C2F808030022586A9A61EEE77A
:102930000A484FF48E71FFF739FF5369002BB2D06C
:1029400051690291002391688DF800300191536123
:102950006846D2E900139847A5E700BF0020004071
:10296000240800202DE9F843544B057991462C2288
:1029700002FB0532064692F82A200C469846002AA9
:1029800040F098804E490068FFF7E8FC07460028B1
:1029900040F0928021683368481C0BD04FF0A04073
:1029A00001228A40C0F8082501F5E0724FF0030CBF
:1029B00040F822C06068421C1FBF00F5E0724FF073
:1029C000A04C4FF0000E4CF822E0A269C3F8242579
:1029D00094F814C0627DBCF1010F4CEA0202C3F806
:1029E0006C25C3F81405C3F80C151DD1A1684A1C49
:1029F0001FBF01F5E0724FF0A0404FF0000C40F80F
:102A000022C0E268501C0BD04FF0A04C0120904037
:102A1000CCF8080502F5E0704FF0030E4CF820E00A
:102A2000C3F80825C3F810152C236B4308EB0302E9
:102A3000C2F80490226948F80320B9F1000F21D0B0
:102A40003068247F4FF48E71FFF7B0FE4FF4A2710F
:102A50003068FFF7ABFE32681A4BC2F80433110B33
:102A600042F307326301002ADBB21EDB16488418EA
:102A700084F800330123520901F01F0103FA01F128
:102A800040F8221033680422C3F800252C2303FBEE
:102A900005830022C3E9062283F829205A61012216
:102AA00083F82A203846BDE8F883084A01F00F0170
:102AB0005354E7E70827F5E71127F3E72408002038
:102AC000292800008000020000E100E014ED00E091
:102AD000F8B503680479304D0022C3F800252C2294
:102AE00002FB04525268A2B12C4AC3F808231A0B05
:102AF00043F30733002B0CDB02F01F015B090122BB
:102B00008A402033264941F82320BFF34F8FBFF37B
:102B10006F8F0068D0F80C65D0F81415D0F8083520
:102B2000D0F810254FF0FF37BE42C0F8147518BF1B
:102B300006F5E076C0F80C75C0F80875C0F8107599
:102B40001EBF4FF0A0474FF0020C47F826C04E1CA6
:102B50001FBF4FF0A04601F5E071022746F8217033
:102B6000511C1FBF4FF0A04102F5E072022641F850
:102B700022605A1C1FBF03F5E0734FF0A0420221F0
:102B800042F82310FFF706FC2C2303FB0454002318
:102B900084F82A306360F8BD240800208402020013
:102BA00000E100E02DE9F047204F90F804904FF04D
:102BB0002C0808FB097405466669002E34D1626151
:102BC0000068A16026624FF48E7184F82860FFF7D8
:102BD000EDFD2868012383602146FFF7EFFD636860
:102BE000A0468BB92868D4F814A0236A9A4511D856
:102BF0002A68D2F81C31002BFBD00123D3602C2390
:102C000003FB097300225A613046BDE8F08794F84F
:102C100028303BB9D0F81C31002BF8D04146FFF7E3
:102C2000CDFDE2E70F26EAE71126EDE724080020B4
:102C30000023435082B043580193019B02B0704778
:102C40001FB501238DF80030044BCDE90110D3E905
:102C500000126846904705B05DF804FB500800205C
:102C60007FB5434AD2F82461002E60D010464FF45D
:102C70009271FFF7DDFF02238DF80030D2F8803427
:102C8000C2F880340393D2F83C350293394BDA68AA
:102C900001920022C3E906226846D3E90012904758
:102CA0003348D0F8443173B14FF4A271FFF7C0FF3D
:102CB000304B9A693AB10022C3E90622D968D0F8AC
:102CC0003C05FFF7BDFF2A48D0F82031ABB14FF4E7
:102CD0009071FFF7ADFF0123C360264B5A6962B1C3
:102CE000D0F84C150291002299688DF800200191CE
:102CF0005A616846D3E9001290471D48D0F8583110
:102D00009BB14FF4AC71FFF793FF1A4B5A6962B154
:102D1000D0F84C150291002299688DF8002001919D
:102D20005A616846D3E90012904704B070BDD2F8EA
:102D30001031002BB4D04FF488711046FFF778FFA4
:102D40000C4BD2F83C0599698842A9D1DC69D96855
:102D500064B1D2F8005225F02005C2F800521A6979
:102D60009C61DA60DE61FFF76BFF99E79C61FAE72F
:102D700000200040500800202DE9F8435B4B067905
:102D80009146242202FB0632044692F820200D468A
:102D90009846002A40F0A58055490068FFF7DEFA02
:102DA0000746002840F09F8029682368481C0BD004
:102DB0004FF0A04001228A40C0F8082501F5E072DA
:102DC0004FF0030C40F822C06868421C1FBF00F59A
:102DD000E0724FF0A04C4FF0000E4CF822E0AA69D0
:102DE000C3F8242595F814C06A7DBCF1010F4CEAA4
:102DF0000202C3F86C25C3F80C15C3F814051DD1E5
:102E0000A9684A1C1FBF01F5E0724FF0A0404FF0C7
:102E1000000C40F822C0EA68501C0BD04FF0A04CC8
:102E200001209040CCF8080502F5E0704FF0030E49
:102E30004CF820E0C3F80825C3F810152423734389
:102E400008EB0302C2F804902A6948F80320B9F19C
:102E5000000F30D020682A7F4FF48871FFF7E8FE1A
:102E600020684FF49071FFF7E3FE20684FF49271F1
:102E7000FFF7DEFE20684FF4A271FFF7D9FE4FF492
:102E8000AC712068FFF7D4FE23681A49C3F8041315
:102E9000190B43F307335201002BD2B21CDB164847
:102EA000C51885F8002301225B0901F01F0102FA11
:102EB00001F140F8231023680822C3F800252423D9
:102EC00003FB06830022C3E906225A61012283F82C
:102ED00020203846BDE8F883084B01F00F015A5412
:102EE000E9E70827F5E71127F3E700BF50080020BE
:102EF000612C00001003420000E100E014ED00E04E
:102F0000F8B5444D0479242303FB045302465B685F
:102F10000068ABB1404BC0F8083340F30733002BD7
:102F20004FEA10310CDB01F01F065B090121B140B3
:102F300020333A4E46F82310BFF34F8FBFF36F8F05
:102F4000D0F8003223F02003C0F80032242303FB22
:102F500004539B692BB14FF4A271FFF769FE012363
:102F600043604FF4AC71FFF763FE0123C360242379
:102F700003FB0453D0F858110029FBD0996919B10B
:102F8000D0F844110029F5D00023C0F800351368AB
:102F9000D3F80C75D3F81465D3F80825D3F81015B9
:102FA0004FF0FF3C6745C3F80CC518BF07F5E07745
:102FB000C3F814C5C3F808C5C3F810C51EBF4FF049
:102FC000A0434FF0020C43F827C0771C1FBF4FF0FF
:102FD000A04306F5E076022743F826704E1C1FBF7B
:102FE00001F5E0714FF0A043022643F82160531C25
:102FF0001FBF4FF0A04302F5E072022143F82210F8
:10300000FFF7C8F9242303FB0454002384F820307D
:103010006360F8BD500800201003420000E100E0AA
:1030200001F06043B3F1005F2DE9F041064638D16D
:103030001E4B0779242505FB073598466C69002C43
:1030400031D16A610068A9604FF49071FFF7F0FD1B
:103050004FF4AC713068FFF7EBFD33686A69A9681B
:10306000C3F84415C3F8482501229A606A68AAB9D2
:10307000D3F82021D3F858411AB9002CF8D00F24E6
:1030800007E0002CFBD10122DA60D3F85821002A96
:10309000FBD0242303FB078700237B612046BDE888
:1030A000F0811024FAE71124F8E700BF500800204F
:1030B0000378042B23D8DFE803F02C032C2C160014
:1030C0004368144A934224D15B6913481A88134910
:1030D000013292B21A80124BC01AC008000440F0AC
:1030E0000300FDF7A5BC43680E4A934211D1008945
:1030F0004FF6FF7290420CD05B69022118470648D8
:10310000074B0949C01AC008000440F00200FDF74F
:103110008BBC70473000002030380000593A000066
:10312000F037000050000020743A000008B54FF45A
:1031300080410020FDF7EAFA08B1FDF7D9FDFDF75F
:103140002BFAFDF797FE08B1FDF7D2FDFEF78CFFD5
:1031500008BBFEF7A9FF114B11481249C01AC0085D
:10316000000440F00300FDF75FFC0F4840F23331EC
:10317000FEF74CFB08B1FDF7BBFD0C480C4B43615F
:10318000FEF79EFB08B1FDF7B3FD30BFFDF70EFB68
:103190000028FBD1F9E7FDF7ABFDDCE7F0370000D5
:1031A00030380000833A0000B130000030000020C9
:1031B000880800200B4B1B685A1C05BF0A4B0B4AA2
:1031C0000B4A10680ABF1B781068C0F30310062B67
:1031D00005D1033803288CBF002001207047002050
:1031E000704700BF30010010E00F00F0E80F00F062
:1031F00034010010074B1B78062B09D1064B1B68C6
:10320000C3F30313033B032B02D8044AD05C70477B
:1032100000207047E00F00F0E80F00F0B73A000020
:1032200008B5FFF7C7FF28B1834B844A1B68C3F377
:1032300004231360FFF7DEFF10B1814B814A1A604F
:10324000FFF7B8FF28B1804B804A1B68C3F34233B5
:103250001360FFF7CFFF20B17D4AD36823F080735E
:10326000D360FFF7A7FF40B14FF080430022C3F8BF
:103270000C21C3F81021C3F83825FFF7BBFF10B1AC
:10328000744B03221A60FFF7B5FF40B1724B052261
:103290001A6001229A6700229A603F225A606F4B9F
:1032A0001A68511C0BBF6E4B6E4B1A781B6802BF1D
:1032B00008331B68C3F30313062A4DD1033B032BCA
:1032C0004AD8694AD35C002B46D04FF08052674BF6
:1032D000D2F80414C3F82015D2F80814C3F8241542
:1032E000D2F80C14C3F82815D2F81014C3F82C1512
:1032F000D2F81414C3F83015D2F81814C3F83415E2
:10330000D2F81C14C3F84015D2F82014C3F84415A1
:10331000D2F82414C3F84815D2F82814C3F84C1571
:10332000D2F82C14C3F85015D2F83014C3F8541541
:10333000D2F83414C3F86015D2F83814C3F8641501
:10334000D2F83C14C3F86815D2F84014C3F86C15D1
:10335000D2F84424C3F87025FFF72CFF28B1444B62
:10336000444A1B6803F04F031360FFF723FF48B183
:103370004FF08043D3F80024D20744BF6FF001021E
:10338000C3F80024354B1B68062B0CD1354B1B684A
:10339000033B032B07D8384AD35C23B1374A136861
:1033A00043F480631360364AD2F8883043F47003E4
:1033B000C2F88830BFF34F8FBFF36F8F4FF01023E9
:1033C000D3F80022002A03DBD3F80432002B2FDAD3
:1033D0002C4B0122C3F80425D3F80024002AFBD08B
:1033E0004FF010221521C2F80012D3F80024002A51
:1033F000FBD04FF010231522C3F80422214B1A46AC
:10340000D3F800140029FBD00021C3F80415D2F82A
:103410000034002BFBD0BFF34F8F19491A4BCA68F9
:1034200002F4E0621343CB60BFF34F8F00BFFDE7B0
:10343000164B174A1A6008BD24030010403501409E
:1034400074C007400DF0ADBA440200103C050040C6
:10345000F0ED00E0A00500401056004030010010E3
:10346000E00F00F034010010AF3A000000C000404F
:1034700058020010E40E0040B33A00003C17004030
:1034800000ED00E000E001400400FA0588000020A3
:103490000090D003F0B540F2FF7681EA030C16EA03
:1034A000115E1EBFB64516EA1355B5425AD021EA41
:1034B000465141F48011A1FB024723EA465343F4ED
:1034C0008013AE44A0FB03650CF0004C36197D411F
:1034D000A1FB034747F10003A0FB0217F619654162
:1034E00053F10003094218BF46F0010640F2FE7492
:1034F000B3F5007F13D2AEF5806EA6452BD24CEA11
:103500000331280341EA155140EA165032034508B9
:1035100072F1004250F1000051EB0E51F0BDAEF2DD
:10352000FF3EA64517D24CEAC321E80241EA5551B5
:1035300040EA5650F202450872F1004250F1000094
:1035400051EB0E51F0BD0CF0004141F0FE4141F451
:1035500070010020F0BD1EEA0E0FF4D50CF0004102
:103560000020F0BD16EA115F04BF01F00041002009
:10357000004218BF41F0010116EA135F04BF03F0D7
:1035800000430022124218BF43F0010306EA13541D
:10359000B44218BF9EEA060F03D00CF00041002091
:1035A000F0BD21F0004123F00043B1EB065F06D8E7
:1035B000B3EB065F03D8002918BF002BC3D140F23C
:1035C0000001C7F6F8710020F0BD00BF0B0D40F2FE
:1035D0001E42D21A09DBCB0243EA505040F00040B1
:1035E000202A28BF2022D0407047490060EB00000D
:1035F000704700BF80B110F0004248BFD0F100001A
:10360000120D02F21D42B0FA80F18840521AC30A2C
:10361000400503EB02517047010070477F2805D831
:10362000034B185C034B5B5C1840704700207047ED
:10363000C83A0000483B0000A0F16103192B98BF75
:1036400020387047A0F14103192B98BF20307047F4
:103650007F2805D8034B185C034B5B5C1840704710
:1036600000207047C83A0000483B0000A0F1610309
:10367000192B98BF20387047A0F14103192B98BF30
:10368000203070477F299ABF017001206FF02E0013
:1036900070475AB10A787F2A0AD800B10260002127
:1036A00019605960501A18BF0120704700207047F8
:1036B0006FF02E007047000008B5034B5B689B68F5
:1036C0001B68984708BD00BF8C00002008B5092181
:1036D000FFF7F2FF08BD844640EA010313F0030F31
:1036E00018D18446202A0BD32DE9F007B1E8F8075A
:1036F000A0E8F807A2F12002202AF7D2BDE8F007DF
:10370000042A07D351F8043B40F8043BA2F1040219
:10371000042AF7D2002A05D011F8013B00F8013B3A
:10372000013AF9D1604670478446002A2DD010F046
:10373000030F04D000F8011B013A26D0F7E7C9B205
:1037400041EA012141EA0141202A12D3A2F12002DB
:103750002DE9F0030B460C460D460E460F468846F3
:103760008946A0E8FA03203AFBD2BDE8F0032032F4
:103770000BD0042A05D340F8041B043A05D0042AD0
:10378000F9D200F8011B013AFBD16046704700F105
:10379000010110F0030F11D010F8012B002A23D0E3
:1037A00010F0030F0AD010F8012B002A1CD010F0E3
:1037B000030F03D010F8012B002A15D02DE970005B
:1037C0004FF001324FF0803350F8044BA4EB020568
:1037D00025EA04051D4000D1F6E7A0F1040070BC05
:0E37E00010F8012B002AFBD1A0EB010070476E
:1037F0002F3A000000000000353A000000000000F1
:103800003A3A0000000000003E3A000000000000CC
:10381000423A000000000000483A000000000000AA
:103820004E3A000000000000533A00000000000083
:10383000C238000000000303B1390000000000009E
:10384000293A000000000000203A000000000000BB
:103850009438000000000000A03800001400002090
:10386000E4000020AC010020B4010020EC000020A6
:04387000180000003C
:10387400FFFFFFFFFFFFFFFFFFFFFFFFFFFFFFFF54
:1038840000000000000000000000D6010601000056
:103894000105000065050000A10400007561727453
:1038A4005F6C6F675F6261636B656E640042616346
:1038B4006B656E647320666C757368656400617013
:1038C40070000000D40500207F0000005406002092
:1038D4001B5B306D002573001B5B313B33316D0086
:1038E40025734C6F67732064726F70706564202851
:1038F40025642925730D0A003C25733E2025733A5F
:103904002000202530327800202020007C00256310
:10391400001B5B313B33306D001B5B313B33326D3D
:10392400001B5B313B33336D001B5B313B33346D28
:10393400001B5B313B33356D001B5B313B33366D14
:10394400001B5B313B33376D007761726E696E67C4
:1039540000696E666F00646562756700D4380000A4
:1039640015390000DC3800001D390000253900003D
:103974002D390000353900003D390000453900007B
:10398400000000009E3900004D3900005539000048
:103994005A390000466174616C206572726F72005E
:1039A40053797374656D207265736574006170700A
:1039B4005F74696D6572000001000600000000007C
:1039C4006C0600207D0D000052544320696E737410
:1039D400616E636520616C726561647920696E69EA
:1039E4007469616C697A65642E005254433A2069A3
:1039F4006E697469616C697A65642E000338FDD858
:103A040070471A005007002001000600303132339D
:103A1400343536373839414243444546736F7274FE
:103A24006C69737400636C6F636B00434C4F434B5E
:103A340000434F4D500050504900505253005341E1
:103A44004144430054494D45520055415254005598
:103A54004152544500427574746F6E20746F7563DF
:103A640068656420253033642074696D65732E00A5
:103A7400556E6B6E6F776E206576656E742E00439F
:103A84006170616369746976652073656E73696ECC
:103A940067206C696272617279206578616D706CFF
:103AA4006520737461727465642E00000001010066
:103AB400000001010000000043000000504F534982
:103AC40058000000202020202020202020682828C2
:103AD40028282020202020202020202020202020D2
:103AE400202020204810101010101010101010105A
:103AF400101010108484848484848484848410103A
:103B04001010101010818181818181010101010156
:103B14000101010101010101010101010101011082
:103B2400101010101082828282828202020202022B
:103B34000202020202020202020202020202021053
:103B4400101010200007032004170201085710402A
:103B540080000000BC3A0000C03B0000D43C0000E0
:103B640053756E004D6F6E005475650057656400A3
:103B740054687500467269005361740000000000C7
:103B84004A616E00466562004D61720041707200C8
:103B94004D6179004A756E004A756C004175670085
:103BA400536570004F6374004E6F76004465630084
:103BB40000000000414D00504D000000F83C0000A2
:103BC400F43C0000F43C0000F43C0000F43C000031
:103BD400F43C0000F43C0000F43C0000F43C000021
:103BE400F43C0000FFFFFFFFFFFFFFFFFFFFFFFFAD
:103BF400FFFF0000343C0000643B0000703C000008
:103C0400843B0000B83B0000183C0000C83C0000A6
:103C1400243C0000256D2F25642F25790000000029
:103C24002561202562202565202554202559000082
:103C340053756E646179004D6F6E646179005475DB
:103C44006573646179005765646E657364617900B6
:103C540054687572736461790046726964617900AD
:103C64005361747572646179000000004A616E7575
:103C7400617279004665627275617279004D617294
:103C8400636800417072696C004D6179004A756E19
:103C940065004A756C7900417567757374005365E6
:103CA4007074656D626572004F63746F6265720053
:103CB4004E6F76656D62657200446563656D62651D
:103CC4007200000025483A254D3A255300000000B3
:103CD4001D3600003936000045360000513600001C
:103CE4006D360000793600008536000093360000FA
:063CF400000000002E009C
:103CFC0000000000002000400000000000200040F8
:103D0C000000000000000000FF0000000010014057
:103D1C00110004000000000002000001000000007F
:103D2C000000000048000020740800200100010081
:103D3C00000000000000000000000000B80B0007AD
:103D4C000000000068000020780800203200040009
:103D5C000000000000000000700000209001000432
:103D6C0078000020900101018000002090010202E7
:103D7C0000000000900103040090D003583B0000A9
:103D8C00583B0000583B0000583B0000583B0000DB
:040000030000037581
:00000001FF
