:020000022000DC
:1060000000000120756302005D6302005F6302000F
:106010006163020063630200656302000000000028
:1060200000000000000000000000000067630200A4
:1060300069630200000000006B6302006D630200F0
:10604000198602006F630200698A02006F63020012
:106050006F6302006F630200198902006F63020020
:106060006F6302006F6302006F6302006F630200E0
:106070006F6302006F6302006F6302006F630200D0
:106080006F630200097702006F6302006F63020012
:106090006F6302006F63020085A702006F63020056
:1060A0006F6302006F6302006F6302006F630200A0
:1060B0006F6302006F630200000000000000000038
:1060C0006F6302006F6302006F6302006F63020080
:1060D0006F6302006F6302006F6302000000000044
:1060E00000000000000000000000000000000000B0
:1060F00000000000000000000000000000000000A0
:10610000000000000000000000000000000000008F
:10611000000000000000000000000000000000007F
:10612000000000000000000000000000000000006F
:10613000000000000000000000000000000000005F
:10614000000000000000000000000000000000004F
:10615000000000000000000000000000000000003F
:10616000000000000000000000000000000000002F
:10617000000000000000000000000000000000001F
:10618000000000000000000000000000000000000F
:1061900000000000000000000000000000000000FF
:1061A00000000000000000000000000000000000EF
:1061B00000000000000000000000000000000000DF
:1061C00000000000000000000000000000000000CF
:1061D00000000000000000000000000000000000BF
:1061E00000000000000000000000000000000000AF
:1061F000000000000000000000000000000000009F
:10620000354936480A1A02D0072291438D4634494F
:1062100034480A1A06D00722914381F309880222E2
:1062200082F3148830483149314A00F044F831484B
:106230003149324A00F03FF831483249324A00F0E1
:106240003AF832483249334A00F035F83248334997
:10625000334A00F030F833483349344A00F02BF821
:1062600033483449344A00F026F83448344900228F
:1062700000F02CF833483449002200F027F8334866
:106280003349091A082902DB002202604160314AC1
:1062900090471F481F49884205D00268043003B464
:1062A000904703BCF7E700208646EC46002000211B
:1062B000294A9047FEE7884207D0521A05D0037852
:1062C00001300B700131013AF9D17047884202D098
:1062D00002700130FAE770470000012000E0002062
:1062E000000001200000012080BA0200F0220020FE
:1062F00048230020D0630200D0630200F2AB02000A
:1063000080BA0200F0220020F0220020E0AC02005F
:10631000E0AC0200E0AC0200E0AC0200E0AC020045
:10632000E0AC0200E0AC0200E0AC02007EBA020089
:10633000D8BA020048230020482300204823002028
:10634000382C0020382C0020382C0020382C00203D
:10635000384C00209D630200C9950200FEE7FEE76D
:10636000FEE7FEE7FEE7FEE7FEE7FEE7FEE7FEE705
:1063700000F002B8FFF7FCBF0F484FF00701884359
:1063800085460E4880470E48016841F4700101605F
:10639000BFF34F8FBFF36F8FFFF732BF09480A4932
:1063A0000A4A884207D0521A05D0037801300B7090
:1063B0000131013AF9D170470000012081800200CB
:1063C00088ED00E0E0AC0200F0220020F022002086
:1063D000F0B595B01D46164608460C4601F046FD40
:1063E0001A9B0D93CDE9086500252B46082205A9C7
:1063F00020460A958DF82C500C9501F054FD079B12
:106400000293069B03939DF814308DF8115003F00E
:106410000302012A1DD1BDF81420059DC3F3C20358
:10642000C2F383168DF81030B20008230EA920465F
:1064300001F039FDC5F3952508AB0093324602AB58
:106440000EA9284600F0AAFB204601F013FD15B066
:10645000F0BD022AF8D1BDF81650C3F3C203C5F34C
:1064600089158DF810300827082D2E4628BF0826DC
:106470003B4632460EA9204601F015FDAD1B08AB88
:1064800002AA31460EA8374400F0ECFB002DEBD1F8
:10649000DAE70000014B01221A70704789230020BF
:1064A0007047000070B5124D06460FCD88B06C469F
:1064B0000FC495E80F00002E84E80F004FF0FF3363
:1064C0004FF00602CDE90023CDE90233094A0A481C
:1064D0004FF0EB7308BF00226946069302F022F8E2
:1064E00008B100F0B3FD054B1E7008B070BD00BFD1
:1064F000E0AC020095640200F02200204823002056
:1065000007B5044B0093044A4023FFF761FF03B033
:106510005DF804FB1D6502004923002038B50D4BD2
:106520000D4D002018700D4804782D5DD2B21C4628
:1065300065B1043002F006FF08B100F087FD084B9A
:106540001A7812B12378002BFBD038BD0C3002F042
:10655000BBFCF1E789230020282A0020F02200203C
:106560004823002008B50848084A0378D35C3BB1AB
:10657000043002F057FEBDE808400020FFF792BF4C
:106580000C3002F037FCF6E7F0220020282A002029
:106590000120FFF787BF000008B5FFF7F9FF0448A7
:1065A000042100F065FA034B01225A7108BD00BFB7
:1065B000D0AC020004230020037813F0040216D0AC
:1065C00003F00303012B03D0022B09D001207047F5
:1065D0000A6800880232C0F3831002440A60F5E7BB
:1065E0000B684288023303EB92130B60EEE7104610
:1065F000704700002DE9F04F87B000230446861C49
:106600000DF107000F4615468DF8073000F00EFF1C
:10661000404A51683960936803F580735B1A92466B
:1066200002F21C4702F5836902F21448B3421AD3FE
:106630000020002D69D004F00F039B0143F00503F7
:1066400063F30F00DAF80430DAB203321E444AF87A
:1066500022009DF80700CAF8046000F00BFF01203B
:1066600007B0BDE8F08F0121384601F02AF948460D
:1066700001F03FF9404601F03CF9DAF808000290D9
:10668000C0B203300AEB800002A9FFF795FF029B1E
:1066900030BBDAB20AEB8202D16803919A1C013353
:1066A000DBB20AEB83030292D3F80CB001F00303D0
:1066B000012B22D0022B15D08346404601F01CF955
:1066C00010B1029BCAF808305946384601F0F9F873
:1066D000DAF80830DAF8042003F580739B1AA5E78E
:1066E000D8B2CEE7BDF80E30C3F3891303334FEAB7
:1066F0001B4B02EB93030293DFE7BDF80C30C3F3AF
:1067000083134FEA1B4B1344F5E7A40544F006003E
:1067100098E700BF5C240020064B074810B5002214
:106720001A7001F05CFB044610B9044801F004FC47
:10673000204610BD5C24002044AC020034AD0200B1
:1067400030B50A4C71B10A4A0A49121BD20800231B
:106750009A4201D1002030BD31F82350854202D049
:106760000133F5E7034654F83300F4E758AC020070
:10677000D0AC0200F0220020094B013903EBC0002D
:10678000032909D8DFE801F00A0204060420704753
:1067900000797047407970470020704702207047A9
:1067A00058AC0200034BD3E90130C31A5842584198
:1067B000704700BF5C2400202DE9F04186B0FFF750
:1067C000F1FF0546002840F0E680744CC4F8180438
:1067D000BFF34F8FA3680293DBB2033304EB830054
:1067E00002A9FFF7E9FE029B18B1D4F81824002A89
:1067F00055D0DAB2991C013304EB8202DBB204EB10
:106800008303D268DB68049302F00303022B039234
:1068100002914FD1BDF80E306148C3F38917502F54
:106820003E4628BF502666F38F1306F10801ADF8E7
:106830000E3001F0ECFA0546002800F0978001F0D8
:1068400015FB002303A90822284601F022FB029928
:10685000CB43DBB20133C9B20331B6EB830F4FEA4E
:10686000830804EB810122D908234246A6EB0806DF
:10687000284601F00EFBF6B24A4908F108033246F9
:10688000284601F006FB029B033703EB97070297AC
:10689000D4F81834002B41D1D4F8106451E0626868
:1068A0009A4299D8A260284606B0BDE8F081082334
:1068B0003246E5E7012B59D1BDF80C303848C3F317
:1068C0008311062928BF062161F38913023189004B
:1068D000ADF80C3001F09BFA0546002846D001F0D7
:1068E000C5FA0023082203A9284601F0D2FA00269F
:1068F000BDF80C20C2F38312B300964203F10803E3
:10690000C6D202994A1CC9B20331029204EB81013A
:106910000422284601F0BDFA0136E9E7284601F0D5
:10692000A9FAFFF73FFF80F00100C5B2BBE7F368AB
:106930005B7923B1336829461B6830469847F36872
:106940001E68002EF3D1284601F094FA0DF10700DD
:106950008DF8076000F06AFDD4F818340BB9029B7B
:10696000A3609DF8070000F085FDDAE7D4F8104435
:1069700054B90D4B0D480E49C01AC008000440F030
:10698000020000F05DF8CCE7236820469B6898473A
:10699000E3681C68ECE7002585E700BF5C24002065
:1069A00044AC02006824002058AC020080AC020015
:1069B0001DAD02002DE9F34704460E46924601A99B
:1069C000012218469946FFF715FE1B4F10B3019D93
:1069D0004FF00008AA1CC84508EB020123D1174854
:1069E000002100F03FFF80F31000000440EA144053
:1069F000E4006B1C04F03804DBB2EDB244F0010497
:106A000007EB8303033544EA881444EA8624D860FC
:106A100047F825403B781BB1FFF7CEFE0028FBD19D
:106A200002B0BDE8F087C9B207EB81015AF82830FF
:106A3000CB6008F10108CEE75C2400207828002014
:106A400000231A46FFF7B6BF07B50123019201AA3A
:106A5000FFF7B0FF03B05DF804FB07B5CDE90023F5
:106A600002236A46FFF7A6FF03B05DF804FB0000AF
:106A700030B50F49D1F8102403460020144634B92C
:106A8000DC6820714AB9C1F81034226030BDE46876
:106A90002579854206D02468F1E7D2681168216023
:106AA0001360F3E701300A28E8D14FF0FF30EDE73B
:106AB0005C240020084A38B50123D2F81044137032
:106AC0001D4604B938BDE3685D71236820465B68E4
:106AD0009847E3681C68F4E75C24002007B5034688
:106AE0000846197A052911D05B7A2BB1094A0A495F
:106AF000019000F064FF01980849019000F05FFFE9
:106B0000019803B05DF804EB00F04EBF002AF8D006
:106B1000F2E700BF40AD020045AD020065AD0200E6
:106B200030B5C38885B004460D4633B1144A00928F
:106B30001449154A284600F042FF217A05291DD044
:106B4000637A4BB1A088FFF717FE104B104953F83A
:106B50002020284600F033FF227A0E4BA08853F8FD
:106B6000222003920021FFF7EBFD039A0A49034616
:106B7000284605B0BDE8304000F021BF05B030BD6B
:106B800040AD020050AD020048AD0200CCAD0200A5
:106B900045AD0200F0AD020068AD02002DE9F04302
:106BA00085B01F460C9D002395F80C902B7306466C
:106BB0000C46904629463846FFF7B2FFB8F1060F5B
:106BC00009D8DFE808F00412181F283340003146C6
:106BD000284600F0F4FE002229463846FFF77EFFE3
:106BE00085F80C9005B0BDE8F08322683146284650
:106BF00000F0E5FEEFE7D4E900233146284600F037
:106C0000DEFEE8E7A36800933146D4E90023284676
:106C100000F0D5FEDFE7E3680193A36800933146F7
:106C2000D4E90023284600F0CAFED4E72369029382
:106C3000E3680193A36800933146D4E90023284612
:106C400000F0BDFEC7E76369039323690293E3681D
:106C50000193A36800933146D4E90023284600F04D
:106C6000AEFEB8E708292DE9F74F80460E461746D5
:106C70001C463CD8002593F80C901D73194610460D
:106C8000FFF74EFFDFF888A0DFF888B0AE4231D9B9
:106C900018F805205946204600F091FE0135082DD0
:106CA000F4D11949194DDFF870A0204600F087FE95
:106CB0004FF0000B5E4522D918F80B207E2A05D82C
:106CC0001046019203F004FF019A00B92E225146AA
:106CD000204600F074FE0BF1010BBBF1080FE9D167
:106CE000012221463846FFF7F9FE84F80C9003B0E4
:106CF000BDE8F08F5146204600F061FECEE7294600
:106D0000204600F05CFEE6E77CAD02007AAD0200B2
:106D100078AD020072AD02007EAD0200C30710B56F
:106D200007D4F023054A4008145C2340194311544A
:106D300010BD0901C9B20F23F4E700BF48290020A4
:106D400030B5094B1C78094B196800239C4202DCC2
:106D50000022104630BD11F83350854201EBC302CA
:106D6000F7D00133F2E700BF142900205829002092
:106D700013B504460191FFF7E3FF38B143682BB127
:106D80000199204602B0BDE81040184702B010BD7E
:106D9000034B044819680022490800F056BA00BFA6
:106DA000182900202029002010B5C0B2FFF7C8FF25
:106DB0000446007801F0A6FD63785A1E5342534101
:106DC000834208D1044BD3E90023134303D1BDE828
:106DD0001040FFF7DDBF10BD4029002037B5430844
:106DE000354AD35CC2074CBF1B0903F00F030446AE
:106DF0000D46042B35D8DFE803F003252C383C0082
:106E000079B30121FFF78AFF00230DF107008DF808
:106E1000073000F00BFB0120A4F12003C4F1200196
:106E2000264A20FA01F100FA03F30B43A040D2E90D
:106E3000004120430B43C2E900039DF8070000F026
:106E400019FB0EE0002918BF02212046FFF766FF5C
:106E500007E041B10321FFF761FF01212046FFF761
:106E600087FF03B030BD0121EFE70029F9D10421EC
:106E7000EBE709B10321E8E7FFF750FF2946204679
:106E8000FFF776FF0DF107008DF8075000F0CEFAFE
:106E90000120A4F12003C4F12001084A20FA01F1E5
:106EA00000FA03F30B43A040D2E9004124EA0000BA
:106EB00021EA0303BFE700BF482900204029002042
:106EC0002DE9F041124E134F00243378A34208DC21
:106ED000114BD3E90023134318D0BDE8F041FFF76D
:106EE00057BF3D6805EBC40815F8340001F00AFDF2
:106EF00098F801305A1E53425341181A41424141F9
:106F000015F83400FFF76AFF0134DEE7BDE8F081D1
:106F1000142900205829002040290020092AF7B50B
:106F200005460C4616463CD901F00AFCD8B11E4B6A
:106F30001E481D601E4B1F4F1C701F4B002110224E
:106F40001E6003F0F3FD1D4B00200021C3E900018A
:106F5000013CE4B20326FF2C0BD1194A1948002149
:106F600000F068F903E001F0ADFB0028DFD003B0CA
:106F7000F0BD9DF8063015F834008DF8046005EB7F
:106F8000C40223F007038DF8063001A993788DF829
:106F900005303A4601F0DEFB013CE4B20028DAD0CD
:106FA000E5E70720E3E700BF582900204829002033
:106FB00014290020A96D0200182900204029002072
:106FC000C16E020010AE020070B5084D084E0024DC
:106FD0002B789C4201D3002070BD3368012113F847
:106FE000340001F029FC0134F2E700BF142900202D
:106FF0005829002073B5114D114E00242B789C4266
:1070000014D300230DF107008DF8073000F00EFABD
:107010000C4B00210020C3E900019DF8070000F09F
:1070200029FA094800F029F902B070BD336813F855
:10703000340001F045FC0134E0E700BF14290020D2
:107040005829002040290020202900201FB50021B8
:10705000039001AA44F20100CDE9011100F004F807
:1070600005B05DF804FB000010B572B6FFF722FD15
:10707000FFF7A2FB0028FBD1104B114C1149E41A79
:10708000E408240444F00100FFF7DAFC0E4B1B680F
:10709000DB0700D500BE0D4944F00200FFF7D0FC2D
:1070A000BFF34F8F0A490B4BCA6802F4E0621343E7
:1070B000CB60BFF34F8F00BFFDE700BF58AC0200AD
:1070C00080AC020014AE0200F0ED00E020AE020041
:1070D00000ED00E00400FA05D0E90223D1E9020145
:1070E000994208BF90422CBF012000207047000049
:1070F00008B50B4800F0F1FA0A4B0B49D3E900231D
:107100001218D1E9000143F100038B4208BF82420B
:1071100003D212F1807243F100031046194608BDF4
:107120000C23002060290020D829002037B505460F
:107130000C460A4801A900F004FB60B105704460E8
:1071400001A9064800F027FB18B1054800F0CAFA6B
:10715000002003B030BD0420FBE700BFC42900209D
:107160000C23002038B5184B1B78044613B90025B2
:10717000284638BD0028FAD0037F03F0FF05002B16
:10718000F5D0FFF7B5FFD4E90223994208BF90423A
:1071900014D3236903B92377D4E9053098472169CB
:1071A0000029E4D0237F03F0FF05002BDFD0D4E9D2
:1071B0000223521843F10003C4E902230348214685
:1071C00000F0D9FED4E700BF682900203CAE0200E1
:1071D00013B5114B11491868019008231048582223
:1071E00000F09CFA044698B90E4A0F4801A900F035
:1071F00065F9044660B90C48012100F051FA0123F9
:107200000A4A0948194600F0B3F9094B01221A70DD
:10721000204602B010BD00BF38AE02006C2900202D
:10722000C4290020957202000C230020FFFF7F007C
:10723000682900203AB103685A614A1E51425141FF
:107240001961002070470720704738B5037F044656
:107250000D4683B98261FFF74BFF2369401941F165
:107260000001C4E9020103B1256121460020BDE807
:107270003840FFF75BBF002038BD0023014603778D
:107280000120FFF753BF0000014800F026BA00BFFD
:107290000C2300202DE9F04F85B0804600F008FA5D
:1072A00040B15A4AD2E9003113F1807341F1000133
:1072B000C2E900310021404600F009FA38B1544ECD
:1072C000336823B13068FFF74DFF0023336001219D
:1072D000404600F0FCF920B1FFF70AFF4D4BC3E92F
:1072E00000014D484A4F4D4EDFF8389103A900F098
:1072F00062FA002845D1DFF82491454EDFF828A135
:10730000484600F04EFE3368002875D07BB13368E4
:10731000D0E90201D3E90223994208BF90422DD25D
:1073200033681B7F1BB13168484600F024FE484695
:1073300000F031FED0E902B307460193FFF7D8FE13
:10734000019BBBEB000463EB0105012C75F100030D
:1073500045DBB4F5350F40D3FFF796FF304A0244C2
:107360004FF496030021504600F022F900283ED148
:10737000336813B9404600F0F3F8376005B0BDE854
:10738000F08F0378012B1DD0022B09D14FF0000A9A
:10739000304600F000FE002834D080F81CA0F7E74B
:1073A0003BB941680B7F23B901230B77304600F0CE
:1073B000E2FD03A9184800F029FA03A9164800F0D5
:1073C000FAF996E741683B68994202D100233B6095
:1073D000EFE7304600F0E8FDEBE7BA68C0E70021D0
:1073E000504600F06AF93846FFF7BCFE01E00D2870
:1073F000F9D00023336083E7002BBFD1404600F073
:10740000B3F8BBE7012389F80030D2E760290020F8
:10741000E0290020D8290020C42900203CAE020029
:10742000FFFFB400682900200C23002070B5EFF3A3
:10743000108672B60C4A946801239CB993600B4B7A
:107440000B4DD3F8801029401160C3F88050D3F859
:10745000841051604FF0FF32C3F88420047006B9E5
:1074600062B670BD0370FAE7E429002000E100E095
:10747000FC06FFBD084B9A6810B55AB150B9EFF33E
:10748000108172B6054A1C6814605C68546098608C
:1074900001B962B610BD00BFE429002000E100E0A0
:1074A000435882B03BB10023435043580193019BA2
:1074B000012002B070471846FBE70000F8B5204BEA
:1074C0004479204D43F824201F4A204B05EBC40487
:1074D0009B1A2279DB081B0432B143F002001C49DD
:1074E000FFF7AEFA0820F8BD02680C88C2F808451C
:1074F00090F904608A7804795201002ED2B219DB27
:1075000014498F1987F800230122760904F01F041B
:1075100002FA04F441F82640427905EBC201012445
:1075200045F832000C7143F003000B49FFF788FA6D
:107530000020D8E7094904F00F040A55ECE700BF22
:10754000F8290020F029002058AC020090AC02007D
:1075500048AE020000E100E06AAE020014ED00E077
:10756000036801221A607047036801225A6070475D
:1075700073B501F15005AD000068ADB24FF4803431
:107580008C400026C0F80843C0F84843465101F536
:10759000A8714559019522F07F42019D40F82120B4
:1075A000C0F844430BB1C0F8044302B070BD000002
:1075B0002DE9F74F0D4622F07F4402684FF48037E3
:1075C00005F150068F408046B60002EB8500C2F8F8
:1075D0004873B6B2C2F80873D2F8041599464FF052
:1075E000000BD0F84035C0F8401542F806B05B1AE1
:1075F0009259009223F07F43012B009A4FEA850AAB
:107600000CD1264B4FF4806043F001039847D8F823
:10761000003043F806B09B590193019BD8F8001045
:10762000D1F80465C1F84473A31B23F07F43012BF9
:107630001CD11A4B05F5A875013443F0010341F83C
:1076400025404FF480609847D8F80030D3F80435CF
:107650009E4209D1D8F800300020C3F84473C3F823
:10766000047303B0BDE8F08F0D20FAE78A44C9F136
:10767000FF13CAF84045D1F80405221A013A22F056
:107680007F4203F57F439342EED3002AE2D10134D7
:10769000CAF84045D1F804359842DAE780AE0200D6
:1076A00003680222C3F8442309B1C3F804237047D6
:1076B00000684FF48271FFF7F3BE4FF4803303FA92
:1076C00001F10368C3F84813C3F808137047503139
:1076D0008900006889B2FFF7E3BE0368D3F80405A8
:1076E0007047000090F90430002B09DB5A09012192
:1076F00003F01F0301FA03F34032024941F822303C
:10770000704700BF00E100E0024B034A1B681068AD
:10771000184700BFF8290020F029002010B561B1FA
:10772000B2FBF3F403FB1424A4B244B9C0E900147F
:1077300084608281C381204610BD0E20FCE70920B1
:10774000FAE737B550E8013F9DB2C48925448489E2
:10775000A54228BF2D1B0489A54202BFBFF32F8F6E
:10776000002207E0C5EA030540E80154002CE9D1F6
:107770004FF001028DF803200193019B9DF8032037
:107780000B6002F0FF0322B10B880068184403B0BD
:1077900030BD1846FBE70A884B889A4209D150E869
:1077A000012FC2EA024240E80123002BF7D1012059
:1077B00070470020704737B550E8023F1FFAA3F525
:1077C000C488A54202BFBFF32F8F00220DE0C489F9
:1077D00025448489A54228BF2D1BC3EA054540E8FE
:1077E0000254002CE8D14FF001028DF803200193E0
:1077F000019B9DF803200B6002F0FF0322B14B8830
:107800000068184403B030BD1846FBE70A884B886F
:107810009A4209D150E8022FC2EA224240E80223EC
:10782000002BF7D1012070470020704701F01F02A4
:107830004B090121914000EB830000F01EB801F0DC
:107840001F0301229A404B0900EB8300D14300F053
:107850002CB84B0901F01F0150F82300C84000F07C
:107860000100704710B5034653E8000F0A4643E88D
:10787000002494F0000FF7D110BD10B5034653E873
:10788000002F42EA010043E8000494F0000FF6D113
:1078900010BD10B5034653E8000F00EA010243E8AB
:1078A000002494F0000FF6D110BD10B5034653E844
:1078B000002F02EA010043E8000494F0000FF6D123
:1078C00010BD10B5034653E8002F02EB010043E85A
:1078D000000494F0000FF6D110BD10B5034653E834
:1078E000002FA2EB010043E8000494F0000FF6D152
:1078F00010BD0121FFF7C1BF0021FFF7CABF10B5BE
:1079000090B1D0E9012301689B1ADBB20A60013B08
:10791000DBB2FF2B026802D10020107110BD11688C
:107920004C1C14600B70F2E70E20F7E737B50546E4
:1079300000240DF107008DF80740FFF777FD2A6856
:107940006B68116899420ED9481E106011F8014CFD
:10795000EB68298A01FB0434AB6811791B1ADBB28E
:10796000994238BF13719DF80700FFF783FD204649
:1079700003B030BD37B5054600230DF107000C46B6
:107980008DF80730FFF752FD2A681368591C116003
:10799000E968641A298AB4FBF1F41C709DF80700A9
:1079A000FFF768FD03B030BD826810B504462AB108
:1079B00043690168006998470023A36010BD0EB4B5
:1079C00003B5039921B104AB01AA019300F076F845
:1079D00002B05DF804EB03B070470A2938B50446DD
:1079E0000D4602D10D21FFF7F8FFA3682268591C4C
:1079F000A160D554D4E901329A4204D32046BDE8AF
:107A00003840FFF7D1BF38BD2DE9F84F9846DDE982
:107A10000A43154682460F460A464FF00109AA421C
:107A20000FD2C14538BFC14613F0010B01D16CB96B
:107A300000240126B8F1010F1BD908F1FF386E436D
:107A4000F8E709F10109B2FBF5F2E8E79B070ED56B
:107A5000B8F1000F0CBF30262026A145E9D2013C29
:107A600031465046FFF7B9FF002CF6D1E0E720265B
:107A7000F3E7B7FBF6F39D42E1D9DFF83C80B7FBB3
:107A8000F6F3504618F8031006FB1377FFF7A5FF2F
:107A90003346AB42B6FBF5F6F1D2BBF1000F02D094
:107AA0000CB1A14501D3BDE8F88F20215046013C1F
:107AB000FFF793FFF4E700BF86AE02002DE9F74F12
:107AC000054617468846002900F0428118F8011B38
:107AD00049B92B7B002B00F03B81284603B0BDE861
:107AE000F04FFFF761BF252940F0B780002698F8D6
:107AF00000302D2B424608F1010823D0302B24D032
:107B00002B2B25D000242A2B02F1010123D13B6825
:107B10001A1D1B683A601C440A4613782E2B26D186
:107B200001324FF0000A104610F8011BA1F1300C91
:107B3000BCF1090F1DD80A2303FB0A13A3F1300A75
:107B40000246F0E746F00106D1E746F00206CEE72E
:107B500046F00406CBE711F8013CA3F130000928F8
:107B6000DBD80A2202FB0434303C0A46CBE74FF054
:107B7000000A12F8011B01F0FB0068289046F8D0BB
:107B8000782909D86F290CD8632962D022D82529F1
:107B900063D0582900F0888098F80030002B95D1E8
:107BA00097E770390829F7D801A353F821F000BFEF
:107BB0002B7D0200997B0200997B0200B97C0200B8
:107BC000997B0200977C0200997B0200997B02005E
:107BD000A97C0200642901D06929DDD13A68D2F874
:107BE0000090111D89EAE9723960A2EBE9724FF049
:107BF000010B092A35DCD34538BFD3462CB1B9F186
:107C0000000F01DB720700D5013CB30702D5BAF1C2
:107C1000000F03D0F00701D44CBB0024B9F1000FD2
:107C20002DDAC9F100092D212846FFF7D6FE06F00E
:107C30000302022A04D1BAF1000F01D11CBB0024B7
:107C4000CDE9004653460A2249462846FFF7DCFEA6
:107C5000A2E73B681A1D19783A602846FFF7BDFE77
:107C60009AE70A230BF1010BB2FBF3F2C1E7A3453C
:107C7000D4D220212846013CFFF7AFFECCE77107A4
:107C8000D5D52B21D0E7A345DAD230212846013CB7
:107C9000FFF7A3FED2E73968CDE900460A1D3A6036
:107CA00053460A220968D0E739680A1D3A60CDE9CF
:107CB000004653461022F5E73B681A1D3A6016F05D
:107CC0000106D3F8009028D1B9F1000F03D048463F
:107CD00002F05FFF0646B44200D904BB09F1FF3948
:107CE00019F8011F00293FF457AF2846FFF775FE2A
:107CF000F6E728460136FFF770FE19F8061000294E
:107D0000F7D1A642BFF448AF002C3FF445AF202185
:107D10002846013CFFF761FEF3E70026EDE720214E
:107D20002846013CFFF759FED5E73B681A1D3A602B
:107D3000302128461C68FFF750FE78212846FFF7BF
:107D40004CFE00220823CDE90032214610227CE7B8
:107D500003B0BDE8F08F00BF2DE9F84FB0F806A0E2
:107D60004579D2F800B09DF828900AFB05F5043D4E
:107D700088460BEB0301A94203F1040488BFA5EB7D
:107D8000030BB4FBFAF607460AFB1644C2F800B030
:107D90004EB9AAEB04055D4528BF5D46BBF1000F57
:107DA00004D1BDE8F88F3F68013EF1E7043408EBE9
:107DB00006003C442A46B9F1000F0DD02146ABEB3A
:107DC000050B02F08AFEDA452E443F6855464FF017
:107DD000000428BF5D46E1E701462046EFE7FFF7D4
:107DE0008EBDF8B546790146721E054600239342C2
:107DF0002D6803D30024A64202D8F8BD0133F6E76C
:107E00000F682846FFF7B6FD01343946F3E72DE940
:107E1000F843068ACD1C0746FFF788FD043E35442B
:107E20000446B5FBF6F5F0B14FF48073EDB28380F4
:107E3000C680013D076081464FF00008A84512D278
:107E40003846FFF773FD064648B163790133637125
:107E500008F10108C9F8000007608146EEE72046F6
:107E6000FFF7BFFF34462046BDE8F8830121043008
:107E7000FFF727BD10B5012104460430FFF72DFDA3
:107E800010F0FF0F04D12046BDE81040FFF7A9BF56
:107E900010BD1FB503920022009203AAFFF75CFFFA
:107EA00005B05DF804FB1FB503920122009203AAFE
:107EB000FFF752FF05B05DF804FB41DF704700009B
:107EC000064B10B500241C70054B1C60BFF35F8F80
:107ED0000449054800F039F8204610BD042A002066
:107EE000082A0020A0AE0200FC29002007B50023CC
:107EF0000DF107008DF80730FFF798FAF1EE103A10
:107F000023F09F03E1EE103ABFF35F8F094B40224D
:107F1000C3F884219DF80700FFF7ACFA02F018FCC3
:107F200020B1FFF7CAFF03B05DF804FB20BF40BFDC
:107F300020BFF8E700E100E0836800225A60C3E94F
:107F400004229A60DA601A6070470B684A684360DE
:107F5000934208BF0023016008BF43607047436835
:107F600043B10268916852680B449342436004BF76
:107F700000234360704770B5446806460D4620688C
:107F800018B1B3682946984718B923682B60256053
:107F900070BD2468F3E74368186808B102681A6086
:107FA00070474368186870474368186800B970479D
:107FB000884203D102681A600120704703460068B6
:107FC000F4E7000010B50D49A1F59472914201D873
:107FD00000200FE08C1AE30F03EBE4035B1002EBCD
:107FE000C30452F83330834205D802D204F10802A8
:107FF000ECE7606810BD2146E8E700BFACB30200C3
:1080000008B5FFF7DFFF024B002808BF184608BD80
:108010006FB202000B4B1B685A1C05BF0A4B0B4A80
:108020000B4A10680ABF1B781068C0F30310062BB8
:1080300005D1033803288CBF0020012070470020A1
:10804000704700BF30010010E00F00F0E80F00F0B3
:1080500034010010074B1B78062B09D1064B1B6817
:10806000C3F30313033B032B02D8044AD05C7047CD
:1080700000207047E00F00F0E80F00F0B4B30200FA
:1080800008B5FFF7C7FF28B1834B844A1B68C3F3C9
:1080900004231360FFF7DEFF10B1814B814A1A60A1
:1080A000FFF7B8FF28B1804B804A1B68C3F3423307
:1080B0001360FFF7CFFF20B17D4AD36823F08073B0
:1080C000D360FFF7A7FF40B14FF080430022C3F811
:1080D0000C21C3F81021C3F83825FFF7BBFF10B1FE
:1080E000744B03221A60FFF7B5FF40B1724B0522B3
:1080F0001A6001229A6700229A603F225A606F4BF1
:108100001A68511C0BBF6E4B6E4B1A781B6802BF6E
:1081100008331B68C3F30313062A4DD1033B032B1B
:108120004AD8694AD35C002B46D04FF08052674B47
:10813000D2F80414C3F82015D2F80814C3F8241593
:10814000D2F80C14C3F82815D2F81014C3F82C1563
:10815000D2F81414C3F83015D2F81814C3F8341533
:10816000D2F81C14C3F84015D2F82014C3F84415F3
:10817000D2F82414C3F84815D2F82814C3F84C15C3
:10818000D2F82C14C3F85015D2F83014C3F8541593
:10819000D2F83414C3F86015D2F83814C3F8641553
:1081A000D2F83C14C3F86815D2F84014C3F86C1523
:1081B000D2F84424C3F87025FFF72CFF28B1444BB4
:1081C000444A1B6803F04F031360FFF723FF48B1D5
:1081D0004FF08043D3F80024D20744BF6FF0010270
:1081E000C3F80024354B1B68062B0CD1354B1B689C
:1081F000033B032B07D8384AD35C23B1374A1368B3
:1082000043F480631360364AD2F8883043F4700335
:10821000C2F88830BFF34F8FBFF36F8F4FF010233A
:10822000D3F80022002A03DBD3F80432002B2FDA24
:108230002C4B0122C3F80425D3F80024002AFBD0DC
:108240004FF010221521C2F80012D3F80024002AA2
:10825000FBD04FF010231522C3F80422214B1A46FD
:10826000D3F800140029FBD00021C3F80415D2F87C
:108270000034002BFBD0BFF34F8F19491A4BCA684B
:1082800002F4E0621343CB60BFF34F8F00BFFDE702
:10829000164B174A1A6008BD2403001040350140F0
:1082A00074C007400DF0ADBA440200103C05004018
:1082B000F0ED00E0A0050040105600403001001035
:1082C000E00F00F034010010ACB3020000C0004029
:1082D00058020010E40E0040B0B302003C1700400A
:1082E00000ED00E000E001400400FA051423002046
:1082F0000090D003044B1A5C012393404FF0A0423E
:10830000C2F80C35704700BFB8B30200044B1A5CCA
:10831000012393404FF0A042C2F80835704700BFD8
:10832000B8B3020008B50020FFF7F0FF0120FFF707
:10833000EDFF0220FFF7EAFFBDE808400320FFF74A
:10834000E5BFC20708B501460CD54FF0A043032294
:10835000C3F84427C3F84827C3F84C27C3F850276D
:10836000FFF7E0FF8B070AD54FF0A0430C22C3F8BC
:108370003427C3F83827C3F83C27C3F8402708BD83
:1083800038B5074C051E04F1080318BF1C462368C6
:108390002BB11A6822605B6828469847F7E738BD1A
:1083A000142A002020B9054B01225A70FFF7E8BFBC
:1083B000012802D1014A9070F8E770470C2A00208A
:1083C00020B9034B01225A70FFF7DABF704700BF94
:1083D0000C2A002038B50E4C2378B3B90D486360E1
:1083E000A3602361E36000F0E5F8054602F0B0F910
:1083F00008B900F0EBF801232370074BD3F80034E1
:108400000BB10123A370284638BD8525F5E700BFD1
:108410000C2A0020A58302000000014037B50D4C56
:1084200000230DF107008DF80730FEF7FFFFE3682A
:10843000013BE360E36833B9074BD3F8005415B947
:1084400000F0D6F8A5709DF80700FFF713F803B009
:1084500030BD00BF0C2A002000000140012813B5E8
:108460000CD0032820D038B9124B0122C3F8802049
:10847000BFF34F8FBFF36F8F02B010BD0E4C0023C0
:108480000DF107008DF80730FEF7D0FF23780BB908
:10849000FFF7A0FFE3689DF807000133E3600123C5
:1084A000A370FEF7E7FFE7E700F090F8FFF7B6FFED
:1084B000E2E700BF00E100E00C2A00201FB50378CE
:1084C0008DF800304368019383688DF80830C368E5
:1084D000054A0393054B684653F8213052F82110A2
:1084E000984705B05DF804FB202A0020242A0020CC
:1084F0001FB503788DF800304368019383688DF8C9
:108500000830C368054A0393054B684653F8213089
:1085100052F82110984705B05DF804FB202A00208E
:10852000242A0020F0B5194B90F800C091F81DE006
:1085300043F82C20164B16460A6943F82C20154B9D
:1085400003F80CE00C4607460FCC89B06D460FC50A
:1085500094E80F0085E80F00CDF810C0BEF1000FC1
:1085600009D0002E0C4A694608BF3246381D00F07B
:1085700095FD09B0F0BD002E084A694608BF324695
:1085800007F10C0000F080FBF3E700BF242A002075
:10859000202A0020282A0020BD840200F184020045
:1085A00000F18040002382B0036003680193019BC7
:1085B00002B07047044A137923B9012110609180F9
:1085C00018467047852070472C2A0020074B1A68F0
:1085D000D20704D4C02283F8002301221A604FF08E
:1085E00080430122C3F81825704700BF00E100E076
:1085F0004FF0804208B50223C2F808334FF482706E
:10860000FFF7CEFF034B01211960D2F81834DB03CA
:10861000FBD408BD0C000040124B1B6810B573B1B1
:108620004FF48070FFF7BCFF4FF080430122C3F886
:1086300008230D4B587910B95A711B6898470B4B9A
:108640001B6873B14FF48270FFF7AAFF4FF08043AD
:108650000222C3F80823044BBDE810401B68012028
:10866000184710BD000100402C2A002004010040E2
:1086700000F1804000F5C040002382B00360036831
:108680000193019B02B07047800000F1A040D0F838
:10869000002722F44032C0F80027D0F8003743EA20
:1086A0000141C0F800177047054B4FF0FF32072813
:1086B00043F8202084BFC01880F84820704700BFCE
:1086C000342A002010B51A4C94F858306BBB4FF088
:1086D000FF3222FA03F1C90748BFE11803F1010391
:1086E00048BF81F83020202BF3D10021C8B2FFF71A
:1086F000DBFF01310C29F9D1042200210D4802F0E1
:1087000015FA0D4BC02283F8062340221A604FF45D
:10871000BE70FFF7ADFF094B4FF00042C3F80423D2
:10872000012384F85830002010BD0820FCE700BF6A
:10873000342A0020882A002000E100E00060004088
:10874000034B93F85800003818BF0120704700BF52
:10875000342A0020F0B5364D2C1894F93040002C06
:1087600064DA8C78C4F34004002C0BBF0823002388
:108770000C260826B34201D10420F0BD55F8237021
:1087800001373FD12E1845F8232086F8303014B930
:10879000EA1882F848008A78540713D4D60733D5EC
:1087A000820002F1A042D2F8004724F00204C2F88D
:1087B0000047204EC20800F007070124BC40B75C08
:1087C0003C43B4548A780C7812F0020225D09B0006
:1087D00003F1804303F5C0430202D3F8101521F4DE
:1087E000473121F44071C3F810152404D3F8101553
:1087F00002F4F85204F4403422430A43C3F810252B
:108800000020BAE70133B5E74C7800F5E0724FF08D
:10881000A046A40046F82240CBE7083B2B4493F83F
:10882000501041EA841483F85040E9E70820A4E797
:10883000342A0020882A002038B51F4C251895F9C5
:108840003020072A16DD224492F848309B09032B7A
:108850000BD14FF0A043D3F81015C14001F0010136
:108860000231BDE83840FFF70FBF012B0CBF0221DA
:108870000321F6E7D3B2072B1CD8930003F1804302
:1088800003F5C043D3F8100540F00100C3F810050C
:1088900002F14000800080B2FFF7EAFE51B195F985
:1088A000303054F823302BB1012303FA02F2034B8A
:1088B000C3F8042338BD00BF342A00200060004004
:1088C0000E4B034493F93020072A02DD0021FFF705
:1088D000DBBED3B2072B10D8930003F1804303F51E
:1088E000C043D3F8101521F00101C3F8101501237E
:1088F00003FA02F2024BC3F808237047342A00201F
:10890000006000404FF0A043D3F8103523FA00F088
:1089100000F00100704700002DE9F74F00244E4D94
:1089200001944FF48072012102F1804303F5C043AA
:1089300090B21B68012B06D1D5F804330B4202D04C
:10894000FFF796FE0C430432B2F5907F4FEA4101E7
:10895000EAD1424B1B68012B0CD14FF4BE70FFF7DC
:1089600087FE4FF0A04344F00044D3F82025019245
:10897000C3F8202514F0FF0F1AD0394F0025012627
:10898000344210D0AB0003F1804303F5C043D3F869
:108990001005D3F8101557F8253023B1C1F3014164
:1089A000C0F3042098470135082D4FEA4606E7D169
:1089B000002C48DA2A4D4FF0A0482A4E4FF000090B
:1089C000012716F9013B5A1C31D0C3F3C20202A998
:1089D0000A44DCB212F8042C03F03F0A03F0070348
:1089E00007FA03F31A4222D00AF5E073504658F80A
:1089F0002330C3F3014BBBF1020F0CBF0321022153
:108A0000FFF742FE07FA0AF3C8F8203505EB0A0320
:108A100093F9303055F823304BB1A109032904D024
:108A2000BBF1020F12D1012901D15046984709F13B
:108A30000109B9F1040FC4D1D8F820350193C8F861
:108A40002035002BB9D103B0BDE8F08FBBF1030F87
:108A5000EDD10229E8E700BF006000407C610040E2
:108A6000342A0020842A0020014B1B68184700BFCD
:108A7000902A00200E4B984237B50C4602D00020B9
:108A800003B030BD00230DF107008DF80730FEF76D
:108A9000CDFC084B1D7915B901221C601A719DF897
:108AA0000700FEF7E7FC002DE9D01120E8E700BF42
:108AB00000200040902A0020034B984201BF034B46
:108AC00000221A601A71704700200040902A00208E
:108AD0000023435082B043580193019B02B070477A
:108AE0000A4610B54FF48E71FFF7F2FF136A9168D2
:108AF000C95C136A01331362C0F81C1510BD8B6981
:108B00000A4610B54FF4847123B9FFF7E1FFD0F89E
:108B1000183510BDFFF7DCFF536AD168D0F818058F
:108B2000C854536A01335362F3E700001FB50123B1
:108B30008DF80030044BCDE90110D3E900126846EE
:108B4000904705B05DF804FB982A002030B54C48EA
:108B5000D0F8043313F4007F85B005464DD0D0F82B
:108B60002431002B49D04FF49271FFF7B1FF4FF43D
:108B70000173C0F80833434B93F829200AB9012246
:108B800042603F4902228DF80020D1F88024C1F8CC
:108B9000802403929A690292DA6801920022C3E962
:108BA00006226846D3E9001290473548D0F81C31B8
:108BB0005BB134494A690B6A9A420A464AD991F82C
:108BC0002830002B46D1FFF78BFF2D48D0F84431D9
:108BD0008BB14FF4A271FFF77BFF2A4B93F829204A
:108BE0000AB1012202609A692AB10022586AD96842
:108BF0009A61FFF79BFF05B030BDD5F804335B07E2
:108C0000D3D5D5F80831002BCFD01E4C1C482146B7
:108C1000FFF775FF636AA2699A422346C5D1E269EC
:108C2000E1684AB12369E3600023606AA261E361FD
:108C30006362FFF77BFFB8E794F829200AB90122A5
:108C40006A600F4A4FF40170C2F808030022586AA4
:108C50009A61EEE70A484FF48E71FFF739FF5369C6
:108C6000002BB2D051690291002391688DF8003039
:108C7000019153616846D2E900139847A5E700BF08
:108C800000200040982A00202DE9F843544B057934
:108C900091462C2202FB0532064692F82A200C4609
:108CA0009846002A40F098804E490068FFF7E2FE9F
:108CB0000746002840F0928021683368481C0BD09A
:108CC0004FF0A04001228A40C0F8082501F5E0726B
:108CD0004FF0030C40F822C06068421C1FBF00F533
:108CE000E0724FF0A04C4FF0000E4CF822E0A26969
:108CF000C3F8242594F814C0627DBCF1010F4CEA3E
:108D00000202C3F86C25C3F81405C3F80C151DD175
:108D1000A1684A1C1FBF01F5E0724FF0A0404FF060
:108D2000000C40F822C0E268501C0BD04FF0A04C61
:108D300001209040CCF8080502F5E0704FF0030EDA
:108D40004CF820E0C3F80825C3F810152C236B431A
:108D500008EB0302C2F80490226948F80320B9F135
:108D6000000F21D03068247F4FF48E71FFF7B0FEE2
:108D70004FF4A2713068FFF7ABFE32681A4BC2F8AD
:108D80000433110B42F307326301002ADBB21EDB0E
:108D90001648841884F800330123520901F01F019A
:108DA00003FA01F140F8221033680422C3F80025C9
:108DB0002C2303FB05830022C3E9062283F8292024
:108DC0005A61012283F82A203846BDE8F883084A10
:108DD00001F00F015354E7E70827F5E71127F3E700
:108DE000982A00204D8B02008000020000E100E084
:108DF00014ED00E0F8B503680479304D0022C3F8A3
:108E000000252C2202FB04525268A2B12C4AC3F85E
:108E100008231A0B43F30733002B0CDB02F01F016E
:108E20005B0901228A402033264941F82320BFF301
:108E30004F8FBFF36F8F0068D0F80C65D0F8141512
:108E4000D0F80835D0F810254FF0FF37BE42C0F8F3
:108E5000147518BF06F5E076C0F80C75C0F80875F3
:108E6000C0F810751EBF4FF0A0474FF0020C47F836
:108E700026C04E1C1FBF4FF0A04601F5E07102272F
:108E800046F82170511C1FBF4FF0A04102F5E0725F
:108E9000022641F822605A1C1FBF03F5E0734FF011
:108EA000A042022142F82310FFF706FE2C2303FB09
:108EB0000454002384F82A306360F8BD982A002007
:108EC0008402020000E100E02DE9F047204F90F815
:108ED00004904FF02C0808FB097405466669002EC3
:108EE00034D162610068A16026624FF48E7184F80B
:108EF0002860FFF7EDFD2868012383602146FFF716
:108F0000EFFD6368A0468BB92868D4F814A0236AE3
:108F10009A4511D82A68D2F81C31002BFBD00123C6
:108F2000D3602C2303FB097300225A613046BDE84D
:108F3000F08794F828303BB9D0F81C31002BF8D0DA
:108F40004146FFF7CDFDE2E70F26EAE71126EDE700
:108F5000982A00200023435082B043580193019B7C
:108F600002B070471FB501238DF80030044BCDE9E6
:108F70000110D3E900126846904705B05DF804FB84
:108F8000C42A00207FB5434AD2F82461002E60D065
:108F900010464FF49271FFF7DDFF02238DF8003089
:108FA000D2F88034C2F880340393D2F83C3502936F
:108FB000394BDA6801920022C3E906226846D3E9F8
:108FC000001290473348D0F8443173B14FF4A27186
:108FD000FFF7C0FF304B9A693AB10022C3E906227D
:108FE000D968D0F83C05FFF7BDFF2A48D0F82031FA
:108FF000ABB14FF49071FFF7ADFF0123C360264B77
:109000005A6962B1D0F84C150291002299688DF826
:10901000002001915A616846D3E9001290471D482B
:10902000D0F858319BB14FF4AC71FFF793FF1A4B56
:109030005A6962B1D0F84C150291002299688DF8F6
:10904000002001915A616846D3E90012904704B0AC
:1090500070BDD2F81031002BB4D04FF48871104697
:10906000FFF778FF0C4BD2F83C0599698842A9D1EB
:10907000DC69D96864B1D2F8005225F02005C2F845
:1090800000521A699C61DA60DE61FFF76BFF99E7B5
:109090009C61FAE700200040C42A00202DE9F84333
:1090A0005B4B06799146242202FB0632044692F875
:1090B00020200D469846002A40F0A58055490068BA
:1090C000FFF7D8FC0746002840F09F8029682368F6
:1090D000481C0BD04FF0A04001228A40C0F8082560
:1090E00001F5E0724FF0030C40F822C06868421CA2
:1090F0001FBF00F5E0724FF0A04C4FF0000E4CF88F
:1091000022E0AA69C3F8242595F814C06A7DBCF151
:10911000010F4CEA0202C3F86C25C3F80C15C3F822
:1091200014051DD1A9684A1C1FBF01F5E0724FF05C
:10913000A0404FF0000C40F822C0EA68501C0BD051
:109140004FF0A04C01209040CCF8080502F5E070EB
:109150004FF0030E4CF820E0C3F80825C3F81015B3
:109160002423734308EB0302C2F804902A6948F8E9
:109170000320B9F1000F30D020682A7F4FF48871A6
:10918000FFF7E8FE20684FF49071FFF7E3FE2068D8
:109190004FF49271FFF7DEFE20684FF4A271FFF7E3
:1091A000D9FE4FF4AC712068FFF7D4FE23681A494A
:1091B000C3F80413190B43F307335201002BD2B247
:1091C0001CDB1648C51885F8002301225B0901F055
:1091D0001F0102FA01F140F8231023680822C3F8A6
:1091E0000025242303FB06830022C3E906225A61DB
:1091F000012283F820203846BDE8F883084B01F0AF
:109200000F015A54E9E70827F5E71127F3E700BFF4
:10921000C42A0020858F02001003420000E100E014
:1092200014ED00E0F8B5444D0479242303FB045306
:1092300002465B680068ABB1404BC0F8083340F3AE
:109240000733002B4FEA10310CDB01F01F065B09DE
:109250000121B14020333A4E46F82310BFF34F8F1F
:10926000BFF36F8FD0F8003223F02003C0F8003234
:10927000242303FB04539B692BB14FF4A271FFF726
:1092800069FE012343604FF4AC71FFF763FE0123D5
:10929000C360242303FB0453D0F858110029FBD0EA
:1092A000996919B1D0F844110029F5D00023C0F80C
:1092B00000351368D3F80C75D3F81465D3F8082576
:1092C000D3F810154FF0FF3C6745C3F80CC518BF25
:1092D00007F5E077C3F814C5C3F808C5C3F810C58F
:1092E0001EBF4FF0A0434FF0020C43F827C0771C7D
:1092F0001FBF4FF0A04306F5E076022743F8267023
:109300004E1C1FBF01F5E0714FF0A043022643F849
:109310002160531C1FBF4FF0A04302F5E0720221F1
:1093200043F82210FFF7C8FB242303FB0454002357
:1093300084F820306360F8BDC42A00201003420086
:1093400000E100E001F06043B3F1005F2DE9F0417E
:10935000064638D11E4B0779242505FB073598466C
:109360006C69002C31D16A610068A9604FF490717A
:10937000FFF7F0FD4FF4AC713068FFF7EBFD336899
:109380006A69A968C3F84415C3F8482501229A60A0
:109390006A68AAB9D3F82021D3F858411AB9002C29
:1093A000F8D00F2407E0002CFBD10122DA60D3F8BB
:1093B0005821002AFBD0242303FB078700237B616D
:1093C0002046BDE8F0811024FAE71124F8E700BF39
:1093D000C42A002072DF704773DF704776DF704762
:1093E0007ADF70477CDF70477FDF70478FDF704721
:1093F000B1DF7047FDF72ABE08B5064B012118788A
:10940000FFF7EAFF08B1FDF721FEBDE808400020A4
:10941000FEF770BF302300200388212B13B50446CC
:1094200054D007D8112B30D0132B47D0102B0CD091
:1094300002B010BD522B51D0562B01D03B2BF7D18F
:10944000A0881321FFF7CAFF1AE0284B28482949B2
:10945000C01AC008000440F00300FDF7F1FA012033
:10946000FEF748FF0020FEF751FF234BA188234859
:10947000198000F0E1FF08B1FDF7E8FDFDF7A4FD5C
:109480000028D5D0FDF7E2FDD2E7184B18481C495B
:10949000C01AC008000440F00300FDF7D1FA012013
:1094A000FEF734FF144B4FF6FF721A80FDF7A2FD52
:1094B00008B1FDF7CBFDFFF79FFFB9E70E4800238A
:1094C0001A4685210088FFF78FFFD9E7002301A9FD
:1094D0008088ADF80430FFF789FFD1E70648002304
:1094E0001A4619460088FFF783FFC9E758AC020007
:1094F00080AC0200DEB3020032230020542B002097
:10950000E8B3020008B503784BB9054B3B21188836
:10951000FFF764FF18B1BDE80840FDF797BD08BD2F
:10952000322300200D2807B51BD1124B12480191A0
:10953000C01AC0080004114940F00300FDF780FA8A
:109540000F4B019A0F49188801F05AF830F00802C1
:109550000CD043F20202904208D043F20142904202
:1095600004D003B05DF804EBFDF770BD03B05DF807
:1095700004FB00BF58AC020080AC0200F5B302004F
:10958000322300203C2B002010B50A4B0A4CE41A71
:10959000E408240444F0030402203AB1FEF7AAFED2
:1095A00006492046BDE81040FDF74ABAFEF7AEFE78
:1095B0000349F6E758AC020080AC02000FB4020089
:1095C00020B40200FDF742BD00B54FF48041A7B0C2
:1095D0000020FDF7A1F808B1FDF738FDFCF7DCFF2E
:1095E0000120FEF7AEFEFDF7F3FD08B1FDF72EFDFD
:1095F0006A4840F233320121FDF790FC08B1FDF7D3
:1096000025FDFEF75DFC08B1FDF720FD01F062F8D5
:1096100008B1FDF71BFD002317A90120179301F0E6
:10962000E1F808B1FDF712FD17A801F08DF908B1B6
:10963000FDF70CFD11235A488DF8203001F0A9FAEE
:10964000574982B208A8FFF7CDFE08B1FDF7FEFC2E
:109650000822002117A801F069FA524A4FF0C87396
:1096600017A8CDE91723FFF7BBFE08B1FDF7EEFC05
:109670004D48002100F0D8FD08B1FDF7E7FC0023BC
:1096800008934A484A4B179317A900F0C3FE08B144
:10969000FDF7DCFC474B4848089308A900F042FF5F
:1096A00008B1FDF7D3FC41F22353ADF80430424B2F
:1096B000424C9B7C8DF806303C22002108A801F02A
:1096C00035FA02238DF820303C2240F2016300215C
:1096D00017A8ADF8223001F029FA22460123ADF88F
:1096E0006C3052F8041B01AB08A81C9300F0F0F892
:1096F00008B1FDF7ABFC324AA16817A800F0E8F802
:1097000008B1FDF7A3FC1822002102A801F00EFA0F
:1097100000230122ADF8143003934FF480738DF8C9
:109720000820ADF81C3025492648402302AA04939E
:10973000FFF750FE08B1FDF789FC1C22002117A895
:1097400001F0F4F900234FF4A022CDE91732ADF86F
:109750006A304FF4A0328DF86C301B4B19921C9379
:1097600003221A4B8DF8682017A81D9300F078FB90
:1097700008B1FDF76BFC164B16481749C01AC00814
:10978000000440F00300FDF75BF9FFF735FEFDF73D
:1097900013F80028FBD1FEF7A9FBF8E718230020F7
:1097A00032B402005000A000282B0020542B0020CF
:1097B000F5930200899502003C2B00202023002015
:1097C0002C2300203023002005950200C5950200BF
:1097D00058AC020080AC020040B402006DDF70475C
:1097E00079DF70477DDF704764DF70472DE9F04F08
:1097F00085B000250E9CBDF83CB0B4F800A00191E6
:10980000074690461E46A9463A884A450DDC45B1B2
:109810002388013BA3EB0A039BB2FF2B3AD806F83F
:109820000A30002005B0BDE8F08F7A6852F82900B0
:10983000039000220DF10B0103A8FFF7D5FF0028CC
:10984000F0D19DF80B20424521D12288002D14BF74
:109850000020022002EB0801014459451ADC3DB901
:10986000013292B2019B2280B354228801322280BD
:1098700022880DF10B01324403A8FFF7B5FF002841
:10988000D0D121889DF80B200A442280012509F1BE
:109890000109B9E70C20C5E72DE9F341089FBDF8A0
:1098A00024801546CDE90078022204461E46FFF7C3
:1098B0009DFF50B93346102229462046CDE908784D
:1098C00002B0BDE8F041FFF791BF02B0BDE8F08102
:1098D0002DE9F04F00231788138090F82D3085B0C4
:1098E00006460D46144653B3082F01D80C2027E135
:1098F00002A8FFF773FF002840F022812388082286
:10990000EA54238801339BB21B222380EA54208827
:10991000013080B2208006220DF10901284401F0B7
:10992000DCF823889DF8082006339BB212F0FE0273
:1099300018BF01222380EA54238801332380B3789F
:10994000FBB123880433BB42D0D802A8FFF748FFFD
:10995000002840F0F58023880322EA54238801334D
:109960009BB219222380EA542388BDF808200133D2
:109970009BB2E9182380EA54120A4A702388023302
:109980002380F2789AB12388D91CB942AED802213B
:10999000E954238801339BB201212380E9542388B1
:1099A0000B449BB22380EA5423880B4423807268C3
:1099B000AAB12388D91CB94298D8022192F9002073
:1099C000E954238801339BB20A212380E954238878
:1099D00001339BB22380EA542388013323803389E7
:1099E000002B40F0A180338A5BB1CDE900472B46C4
:1099F0000722032106F11000FFF74EFF002840F078
:109A00009F80338B5BB1CDE900472B461522142193
:109A100006F11800FFF740FF002840F09180326AFD
:109A2000002A40F09080D6F82480B8F1000F30D0A2
:109A3000B8F804302188981C8A1C0244BA423FF6C8
:109A400055AFFE283FF652AF03336B5423880133E2
:109A50009BB2FF222380EA54238801339BB22380E8
:109A6000B8F80020EA54E918120A4A702088023037
:109A700080B22080B8F804205AB1D8F80810002924
:109A80006BD0284401F029F82388B8F80420134447
:109A9000238096F82C30002B40F09A8030780028F4
:109AA0004ED03388012B58D0228802F1020CBC45DD
:109AB0003FF61CAF012805D17378023313449F424F
:109AC000FFF414AF023FBF1ABFB202A905EB0C00AE
:109AD000ADF80870FFF786FE90BB3178BDF808300E
:109AE000022900F0BA8072789A4202D3BB4240F257
:109AF000B280012940F0B380974293B2C0F0AF80AA
:109B0000ADF808300821BDF80830FE2B3FF6EEAE68
:109B100022880133AB542288013292B22280A954A8
:109B20002288134423800BE0CDE900472B46062210
:109B3000022106F10800FFF7AFFE00283FF453AF03
:109B400005B0BDE8F08FB4F800C00CF10603BB42CD
:109B50003FF6CCAE1188052901D80720F0E76FF455
:109B6000486E01EB0E039BB24FF27D3E7345F4D974
:109B70005388052BF1D96FF44860181880B27045EE
:109B8000EBD94FF6FF70814203D0834201D0994256
:109B9000E3D8052305F80C30238801339BB212214A
:109BA0002380E954238801339BB223801188E95430
:109BB000E818090A4170238802339BB22380528837
:109BC000EA54E918120A4A702388023323802AE7EC
:109BD000B36A002BC1D04FF000094FF00C0A4FF0D0
:109BE000160B96F82C305FFA89F293427FF656AF47
:109BF000B16A0AFB02F201EB0208B8F80430981CC3
:109C0000FE283FF673AE208803332B54238801339C
:109C10009BB2238005F803B0238801339BB22380D5
:109C20008A5AEA54E918120A4A702088023080B22F
:109C30002080B8F804205AB1D8F8081000298CD038
:109C4000284400F04AFF2388B8F8042013442380F6
:109C500009F10109C5E7092155E7BB42FBD9ADF878
:109C600008704FE775DF704776DF70477ADF70471F
:109C70007BDF7047034B1A8882420CBF18460020D6
:109C8000704700BF7C2B0020024B9B6903B1184733
:109C9000704700BF602B002073B585B22846FFF7E0
:109CA000E9FF044670B1164E027A337B9A420BD21A
:109CB00000F10A012846FFF7D5FFE8B1112801D0CD
:109CC000FFF7E2FF02B070BD00230372337C43B1A3
:109CD0003B212846FFF7C8FF30F0080301D0FFF70B
:109CE000D3FF7369002BEDD000228DF80420ADF86E
:109CF000065001A89847E5E7237A01332372E1E78C
:109D0000602B002037B50B46497A0F4A71B9D2E96A
:109D100001141D7A0246002D18BF21465868FDF730
:109D200094FA08B1FFF7B0FF03B030BD00211972FB
:109D30005369002BF8D00122ADF806008DF80420FD
:109D400001A89847F0E700BF602B00204B880288ED
:109D50009A4213D842889A4210D380888A8840F267
:109D6000F313984294BF031AC31A934206D800F221
:109D7000F310904234BF002001207047002070474C
:109D80000388122B70B5014659D004D8102B1ED071
:109D9000112B44D070BD502BFCD12F4BC288DB89D6
:109DA0009A42F7D1038A022BF4D186883046FFF716
:109DB00061FF05460028EDD001F1120000F03FF9E7
:109DC00038BB6868FDF759FA0028E3D009E0C37B87
:109DD000012BDFD14FF6FF70FFF74CFF054620B98E
:109DE0000420BDE87040FFF74FBF1C4A8E880680F4
:109DF000002303721368C0F80A305368C0F80E30AD
:109E000010310A30FFF7A2FF134B6872DB89002B79
:109E1000C0D129463046BDE87040FFF773BF808847
:109E2000FFF728FF04460028B4D04068FDF725FA64
:109E300008B1FFF729FF4FF6FF732380AAE7868852
:109E40003046FFF717FF05460028A3D008310A3037
:109E5000FFF77CFF6872DCE7602B0020902B00206E
:109E6000F8B5064648B305460FCD154F3C460FC41E
:109E700095E8070084E807003068124C3C60B0B1F8
:109E8000FFF7F4FEC0B9326813682360536863605B
:109E90000D480E4A4FF6FF7303800D4B40F8043F08
:109EA0000021FDF7C7F9002818BF032004E0204671
:109EB000FFF7DEFE0028EBD0F8BD0E20FCE700BF68
:109EC000602B0020902B00207C2B0020999C02000E
:109ED000982B00200AB1FDF7A9BCFDF7B0BC73B503
:109EE0000191019C06466CB100252C46294601A82B
:109EF000FDF7AFFC18B106EB440301349D8001353A
:109F0000142DF3D13046346002B070BD2DE9F04716
:109F100003888488103B8CB005460A2B1FD8DFE8E5
:109F200003F0063F1E1E1E1E1E1E1E604400314E04
:109F3000B368DB43009371686846FDF7B6FC00998F
:109F400001A8FFF7CCFF0DF108094FF00008019BB5
:109F5000984507D3132C13D90420FDF777F80CB0DC
:109F6000BDE8F08739F802AB00270137514606EB10
:109F70008700FDF764FC1E2FF7D108F10108E6E722
:109F80001D482146FDF752FC1C482146FDF74EFCBA
:109F9000EB7B022BE3D11A482146FDF747FCDEE7B5
:109FA00015482146FDF74BFCD9E7027A15483F2AB0
:109FB0004FEA1215214694BF00220122FFF78AFFC3
:109FC000022D94BF002201220F482146FFF782FF95
:109FD000012D0E4894BF002201222146FFF77AFF8F
:109FE000BDE7037A002BBAD1427A0648C2F3C00219
:109FF0002146F3E7B82B0020C02B0020BC2B00200B
:10A00000C42B0020D02B0020CC2B0020C82B0020FC
:10A01000AADF7047002301380B70042806D8DFE858
:10A0200000F00306080A0C0011230B70704721236F
:10A03000FBE73123F9E71223F7E72223F5E700785E
:10A0400000F001007047F0B58B7891B0012B0C4601
:10A0500038BF01238DF80E3005460B88ADF80C3063
:10A06000002116466846032200F060FD607C6946C8
:10A07000FFF7D0FFA07C0DF10101FFF7CBFFE27BE2
:10A08000237B217D43EAC203227C43EA02139DF82D
:10A090000220002922F0190203F0190314BF022143
:10A0A0000121134361F342031C22002109A88DF80A
:10A0B000023000F03BFD637B13F0300F15D002AF90
:10A0C00003220021384600F031FDE07C0DF109014A
:10A0D000FFF7A0FF11238DF808309DF80A300E9786
:10A0E000012262F342038DF80A30637B8DF824303D
:10A0F0001422A37B8DF82530002104A800F016FD62
:10A1000003AB0493A388ADF81C30A368CDF814D03A
:10A110001BB1E288ADF818200893A369002B31D059
:10A1200001AF03220021384600F000FDA3691A8820
:10A13000ADF82C205A88ADF82E205A680D97187B60
:10A140000A923946FFF766FFA3690DF10501587BB6
:10A15000FFF760FFA269917A137A43EAC103D17ACB
:10A16000927B43EA01139DF80610002A03F01903BD
:10A1700021F0190114BF022201220B4362F34203B2
:10A180008DF80630E36903B10C93334604AA09A99C
:10A190002846FFF73DFF11B0F0BD90DF7047A5DF07
:10A1A0007047B5DF704700007FB50023ADF8081099
:10A1B000ADF80A106A4602A9064603930093ADF86B
:10A1C0000430FFF7EAFF054600B3124B124CE41AC5
:10A1D000E408FDF715FF240444F0010403460F4989
:10A1E00032462046FCF739FCBDF80020BDF80230AD
:10A1F00052EA030103D00A492046FCF72EFCBDF8C1
:10A2000004201AB107492046FCF71EFC284604B07A
:10A2100070BD00BF58AC0200A0AC020058B40200F0
:10A22000A2B40200E1B4020078B14FF0171303604A
:10A230001B2303711723C380038141F61B320023C4
:10A24000016143818281184670470E2070470000EB
:10A2500013B5034680880C46B8B91A88242A00F042
:10A26000958014D8112A71D0232A00F09D80102ADD
:10A270003BD0A37A4BB1E1880020FFF790FF002884
:10A2800040F098804FF48073638102B010BD3A2A89
:10A2900064D0552AEDD1DB88C988A072172B38BF4E
:10A2A00017238B4228BF0B462381FFF77AFF60B14B
:10A2B000FDF7A6FE484B4949024649481B1ADB08F0
:10A2C0001B0443F00100FCF7BFFBE37A002BD0D165
:10A2D0002369002BCDD040F6772200922289ADF879
:10A2E0000420694620469847C3E7DB7B0A790A7356
:10A2F000012B13D0022B14D0E18823898B4205D285
:10A300000020FFF74CFF70B90123E372217B637BD0
:10A310008B42AED20020FFF747FFAAE70B88E3800D
:10A32000EAE74B88FBE7112802D10123A372EDE78E
:10A33000FDF766FE284B2B49024629481B1ADB080D
:10A340001B0443F00100FCF77FFBDFE71723CB8002
:10A350000B8141F61B3348818B818AE75B89CA8870
:10A36000934228BF1346172B0A6938BF17230B8166
:10A370004AB1C97A39B140F677210091ADF804307D
:10A380006946204690470023638172E71A7A0B6979
:10A390004A73002B3FF46DAF4DF67A218DF805001E
:10A3A00000918DF804209CE7197A237B994228BFFD
:10A3B0001946B0E711283FF468AFFDF721FE064BC0
:10A3C0000849024606481B1ADB081B0443F001003B
:10A3D000FCF73AFB59E700BFA0AC020068B50200E9
:10A3E00058AC020037B50200B0DF704766DF704737
:10A3F00010B5002104464088FFF7F8FF034608B96E
:10A40000237210BD112801D10123F9E76368BDE86B
:10A410001040184760B159B10378DE2B0AD00B68A1
:10A420004360DE2303704FF6FF73438000207047C4
:10A430000E2070470820704728B10378DE2B04D126
:10A440004180002070470E20704708207047F0B50B
:10A45000054685B00C46F1B1E8B10B78DE2B1AD178
:10A4600082884B889A4204D10B7A13B10846FFF7D1
:10A47000BFFF2B88112B32D0512B0ED0012B0AD1CC
:10A480002B7A012B07D1A9886288914203D12372CC
:10A490002046FFF7ADFF05B0F0BDAE886388B3423C
:10A4A000F9D1AF79022FF6D1AD7B2B1F022BF2D859
:10A4B00000211022684600F039FB052D14BF4FF42F
:10A4C000C0730023694630468DF80070ADF8043043
:10A4D000FFF78AFF0028DED063689847DBE76388D0
:10A4E000AA889A4204BF4FF6FF736380D3E7A8DFC0
:10A4F0007047AEDF704762DF70470288502A10B4A1
:10A500000DD1C4884A88944209D1028A012A06D111
:10A510004B6923B1827C5DF8044B808818475DF855
:10A52000044B7047F0B50B6843618FB0334B02AA00
:10A53000044603F11007164618685968154603C506
:10A540000833BB422A46F7D104F112013046FFF727
:10A55000D2FF00284FD1A37C8DF80630224641F26D
:10A56000235301A90120ADF80430FFF7C0FF0028F4
:10A5700041D10146202206A800F0D8FA41F2245326
:10A58000ADF81830A37C8DF81A309DF8253022469E
:10A5900023F0120301254FF0011643F0120332F8A5
:10A5A0000A0B079606A98DF825308DF829508DF8ED
:10A5B0002B50FFF748FDF0B90146202206A800F015
:10A5C000B5FA41F22553ADF81830A37C8DF81A3056
:10A5D0009DF825300796224623F00A0343F00A032C
:10A5E00032F8020B8DF8253006A98DF829508DF828
:10A5F0002A50FFF728FD0FB0F0BD00BFA4B5020040
:10A6000070B588B00D468DF807201022044601264B
:10A610000DEB02000021ADF80E6000F087FA6B89A7
:10A62000ADF810300DF10703079304A90DF10E03E7
:10A6300020468DF812600693FFF75BFF08B070BDEF
:10A6400010DF704713B5044609496846FDF77DFCE5
:10A65000019808B902B010BDD0E90021204690470A
:10A6600018B16846FDF77BFCF2E71120F2E700BF66
:10A67000C0B5020013B5044607496846FDF765FCFE
:10A68000019B0BB902B010BD2046D3E900219047D1
:10A690006846FDF764FCF3E7D8B502000B4991F872
:10A6A00016335A09EC231341DB0706D5084B9A6889
:10A6B0003AB94FF480030B60704742F20200FCF796
:10A6C000C5BC1A6842F480021A60704700E100E0DD
:10A6D000E4290020F7B5194F3C7864BB184E0125DA
:10A6E00020463570FFF7AEFF112821D02046FFF736
:10A6F000C1FF144B8DF80340186801900DF1030061
:10A70000FCF794FE104901A8FFF79AFF0446B0FA3F
:10A7100080F0400938709DF80300FCF7ABFE3CB9AF
:10A720000A4B34701C70FFF7B9FF2846FFF7A2FFF1
:10A73000204603B0F0BD0824FAE700BF352C002006
:10A74000342C0020BCB5020069700200362C0020B9
:10A75000014B1878704700BF352C002007B5084919
:10A760006846FDF7F2FB019B13B903B05DF804FBEB
:10A77000D3E9002090476846FDF7F1FBF3E700BFFF
:10A78000CCB50200FFF7EABF60DF704769DF7047B2
:10A7900061DF704730B5114B1B7891B0E3B1104DBC
:10A7A00034240DF1020103A8ADF80240FFF7F0FFD9
:10A7B00070B9294601A8FDF7C8FB029B002BF0D019
:10A7C00003A8D3E90021904701A8FDF7C8FBF4E7EF
:10A7D000052801D0FCF73AFC11B030BD372C002021
:10A7E0001CB8020030B5054685B00C46002900F0C3
:10A7F00099804D4B0B600C22002101A800F096F9C6
:10A8000001238DF8063022688DF80450062301A933
:10A810002020ADF80830FFF7B9FF60B1FDF7F0FB7D
:10A82000424B4349024643481B1ADB081B0443F0D2
:10A830000100FCF709F90C22002101A800F076F9CB
:10A8400001238DF805302268002301A94020ADF8CE
:10A850000630FFF79BFF60B1FDF7D2FB334B364963
:10A86000024634481B1ADB081B0443F00100FCF7C6
:10A87000EBF80C22002101A800F058F90A23226805
:10A880008DF8043001A90120FFF780FF60B1FDF7CA
:10A89000B7FB264B2949024626481B1ADB081B0436
:10A8A00043F00100FCF7D0F80C22002101A800F0D1
:10A8B0003DF94FF4B0632268019301A9A120FFF78D
:10A8C00065FF60B1FDF79CFB184B1D490246194816
:10A8D0001B1ADB081B0443F00100FCF7B5F80C223F
:10A8E000002101A800F022F99DF8043022686FF3DE
:10A8F000000301A9A0208DF80430FFF747FF0346AD
:10A9000068B1FDF77DFB094B0E49024609481B1A49
:10A91000DB081B0443F00100FCF796F800231846FF
:10A9200005B030BD0E23FAE7F0220020B0AC0200E3
:10A93000E4B5020058AC02002AB6020076B6020066
:10A94000C2B6020013B7020073B505460668FFF7EA
:10A950001BFF2B68B34204461DD91A481A4B1B49EA
:10A960001B1ADB081B0443F002000190FCF768F897
:10A970002B68174901983246FCF76FF84FF0805367
:10A980002A68D3F80C31134901989B0203F1005354
:10A990009A1AFCF759F82CB90F4B01221A7020466D
:10A9A00002B070BD2046FDF72BFB074B0B4902465A
:10A9B00004481B1ADB081B0443F00100FCF744F8B1
:10A9C000EDE700BF58AC0200B0AC020066B7020071
:10A9D00095B70200C6B70200372C0020F0B702007E
:10A9E0004BDF70471FB50D4C01A8FFF7F9FF70B999
:10A9F000214602A8FDF7A9FA039B002BF4D0019889
:10AA0000D3E90021904702A8FDF7A9FAF4E7052849
:10AA100001D0FCF71BFB04B010BD00BF34B802002E
:10AA20007F2805D8034B185C034B5B5C18407047CC
:10AA3000002070474CB80200CCB80200A0F16103BE
:10AA4000192B98BF20387047A0F14103192B98BFEC
:10AA5000203070477F2805D8034B185C034B5B5CA4
:10AA600018407047002070474CB80200CCB8020074
:10AA7000A0F16103192B98BF20387047A0F1410362
:10AA8000192B98BF203070477F299ABF0170012091
:10AA90006FF02E0070475AB10A787F2A0AD800B1A9
:10AAA0000260002119605960501A18BF01207047D8
:10AAB000002070476FF02E007047000008B5034B70
:10AAC0005B689B681B68984708BD00BF3423002063
:10AAD00008B50921FFF7F2FF08BD844640EA0103EB
:10AAE00013F0030F18D18446202A0BD32DE9F00769
:10AAF000B1E8F807A0E8F807A2F12002202AF7D26F
:10AB0000BDE8F007042A07D351F8043B40F8043BA2
:10AB1000A2F10402042AF7D2002A05D011F8013B61
:10AB200000F8013B013AF9D1604670478446002A9B
:10AB30002DD010F0030F04D000F8011B013A26D0ED
:10AB4000F7E7C9B241EA012141EA0141202A12D3C3
:10AB5000A2F120022DE9F0030B460C460D460E46ED
:10AB60000F4688468946A0E8FA03203AFBD2BDE8A2
:10AB7000F00320320BD0042A05D340F8041B043A1A
:10AB800005D0042AF9D200F8011B013AFBD1604636
:10AB9000704700F1010110F0030F11D010F8012BE4
:10ABA000002A23D010F0030F0AD010F8012B002A3E
:10ABB0001CD010F0030F03D010F8012B002A15D081
:10ABC0002DE970004FF001324FF0803350F8044B04
:10ABD000A4EB020525EA04051D4000D1F6E7A0F12B
:10ABE000040070BC10F8012B002AFBD1A0EB01007F
:02ABF0007047AC
:08ABF400C18302000000000013
:10ABFC000D9F02000000000051A20200282B002033
:10AC0C00819D0200000000004FA40200542B002084
:10AC1C00FBA402003C2B0020199402000000000051
:08AC2C005D840200000000003D
:10AC340095A7020000000000E5A902000000000042
:10AC44008C230020542400205C2400209423002022
:04AC540018000000E4
:10AC5800C2B3020000000000C8B3020000000000F8
:10AC6800CFB3020000000000D3B3020000000000D0
:10AC7800D8B30200000000002EAD0200000003035C
:10AC880004AE0200000000002DAE0200000000002B
:10AC9800BCB302000000000097B5020000000303E7
:10ACA800B4B50200000003030DB80200000003035E
:10ACB80028B802000000030396AE0200000000005E
:08ACC800ACAE02000000000028
:10ACD00000AD0200000000000CAD020004230020C3
:10ACE000FFFFFFFFFFFFFFFFFFFFFFFFFFFFFFFF74
:10ACF00000000000000000000000D6010601000076
:10AD00000165020065650200A1640200756172744C
:10AD10005F6C6F675F6261636B656E640042616365
:10AD20006B656E647320666C757368656400617032
:10AD3000700000007C2800207F000000FC2800201C
:10AD40001B5B306D002573001B5B313B33316D00A5
:10AD500025734C6F67732064726F70706564202870
:10AD600025642925730D0A003C25733E2025733A7E
:10AD70002000202530327800202020007C00256330
:10AD8000001B5B313B33306D001B5B313B33326D5D
:10AD9000001B5B313B33336D001B5B313B33346D48
:10ADA000001B5B313B33356D001B5B313B33366D34
:10ADB000001B5B313B33376D007761726E696E67E4
:10ADC00000696E666F0064656275670040AD0200E1
:10ADD00081AD020048AD020089AD020091AD0200D4
:10ADE00099AD0200A1AD0200A9AD0200B1AD020013
:10ADF000000000001AAE0200B9AD0200C1AD0200B1
:10AE0000C6AD02006170705F627574746F6E000091
:10AE100020290020466174616C206572726F720097
:10AE200053797374656D2072657365740061707019
:10AE30005F74696D6572000001000600000000008B
:10AE40005C290020D970020052544320696E73744B
:10AE5000616E636520616C726561647920696E69F9
:10AE60007469616C697A65642E005254433A2069B2
:10AE70006E697469616C697A65642E000000000077
:10AE80000338FDD8704730313233343536373839EE
:10AE90004142434445467077725F6D676D740000B0
:10AEA000FCAB0200FCAB020004000000736F727484
:10AEB0006C697374004E52465F5355434345535378
:10AEC000004E52465F4552524F525F5356435F48C1
:10AED000414E444C45525F4D495353494E47004EF5
:10AEE00052465F4552524F525F534F465444455667
:10AEF0004943455F4E4F545F454E41424C454400E7
:10AF00004E52465F4552524F525F494E5445524E43
:10AF1000414C004E52465F4552524F525F4E4F5F7A
:10AF20004D454D004E52465F4552524F525F4E4F77
:10AF3000545F464F554E44004E52465F4552524F65
:10AF4000525F4E4F545F535550504F52544544003A
:10AF50004E52465F4552524F525F494E56414C4900
:10AF6000445F504152414D004E52465F4552524F50
:10AF7000525F494E56414C49445F53544154450039
:10AF80004E52465F4552524F525F494E56414C49D0
:10AF9000445F4C454E475448004E52465F4552521E
:10AFA0004F525F494E56414C49445F464C414753CE
:10AFB000004E52465F4552524F525F494E56414CE9
:10AFC00049445F44415441004E52465F4552524FFE
:10AFD000525F444154415F53495A45004E52465FC7
:10AFE0004552524F525F54494D454F5554004E52B1
:10AFF000465F4552524F525F4E554C4C004E5246A2
:10B000005F4552524F525F464F5242494444454E6B
:10B01000004E52465F4552524F525F494E56414C88
:10B0200049445F41444452004E52465F4552524F9C
:10B03000525F42555359004E52465F4552524F524D
:10B040005F434F4E4E5F434F554E54004E52465F46
:10B050004552524F525F5245534F5552434553004C
:10B060004E52465F4552524F525F4D4F44554C45EC
:10B070005F4E4F545F494E495449414C495A4544EB
:10B08000004E52465F4552524F525F4D55544558FF
:10B090005F494E49545F4641494C4544004E524633
:10B0A0005F4552524F525F4D555445585F4C4F4388
:10B0B0004B5F4641494C4544004E52465F45525213
:10B0C0004F525F4D555445585F554E4C4F434B5F63
:10B0D0004641494C4544004E52465F4552524F52FC
:10B0E0005F4D555445585F434F4E445F494E495458
:10B0F0005F4641494C4544004E52465F4552524FCF
:10B10000525F4D4F44554C455F414C524541445967
:10B110005F494E495449414C495A4544004E5246B4
:10B120005F4552524F525F53544F524147455F461D
:10B13000554C4C004E52465F4552524F525F415063
:10B14000495F4E4F545F494D504C454D454E544517
:10B1500044004E52465F4552524F525F464541545D
:10B160005552455F4E4F545F454E41424C45440059
:10B170004E52465F4552524F525F494F5F50454EC7
:10B1800044494E47004E52465F4552524F525F442B
:10B1900052565F5457495F4552525F4F564552527F
:10B1A000554E004E52465F4552524F525F445256E2
:10B1B0005F5457495F4552525F414E41434B004EE9
:10B1C00052465F4552524F525F4452565F54574960
:10B1D0005F4552525F444E41434B004E52465F45DD
:10B1E00052524F525F424C455F495053505F525844
:10B1F0005F504B545F5452554E4341544544004EAA
:10B2000052465F4552524F525F424C455F49505340
:10B21000505F4348414E4E454C5F414C524541447E
:10B22000595F455849535453004E52465F45525258
:10B230004F525F424C455F495053505F4C494E4B13
:10B240005F444953434F4E4E4543544544004E528C
:10B25000465F4552524F525F424C455F49505350F2
:10B260005F504545525F52454A4543544544005559
:10B270006E6B6E6F776E206572726F7220636F6493
:10B280006500000000000000B5AE020001000000F3
:10B29000C1AE020002000000DFAE020003000000A9
:10B2A00000AF02000400000013AF02000500000020
:10B2B00024AF02000600000038AF020007000000C3
:10B2C00050AF02000800000068AF02000900000053
:10B2D00080AF02000A00000099AF02000B000000DE
:10B2E000B1AF02000C000000C8AF02000D0000006A
:10B2F000DCAF02000E000000EEAF02000F00000005
:10B30000FDAF02001000000011B0020011000000AB
:10B3100028B002001200000037B002001300000045
:10B320004CB002008000000060B00200810000000C
:10B3300081B00200820000009DB002008300000086
:10B34000B9B0020084000000D7B002008500000000
:10B35000F8B00200860000001DB10200900000005D
:10B3600034B102009100000052B1020092000000CE
:10B3700070B102000082000085B10200018200006D
:10B38000A3B1020002820000BFB1020000840000ED
:10B39000DBB1020001840000FFB102000284000062
:10B3A00029B20200038400004EB202000000010135
:10B3B000000000010100000011121314636C6F63A0
:10B3C0006B00434C4F434B004750494F544500508E
:10B3D0005253005541525400554152544500436F59
:10B3E0006E6E656374656400446973636F6E6E6549
:10B3F000637465640053656E6420627574746F6E67
:10B40000207374617465206368616E67652E0052F5
:10B4100065636569766564204C4544204F4E210084
:10B420005265636569766564204C4544204F464605
:10B4300021004E6F726469635F426C696E6B7900C4
:10B44000426C696E6B79206578616D706C652073F4
:10B450007461727465642E0073645F626C655F670B
:10B4600061705F646174615F6C656E6774685F755D
:10B47000706461746528292028726571756573741C
:10B4800029206F6E20636F6E6E656374696F6E2026
:10B49000307825782072657475726E656420257326
:10B4A0002E0054686520726571756573746564203B
:10B4B00054582F5258207061636B6574206C656E10
:10B4C00067746820697320746F6F206C6F6E6720DB
:10B4D00062792025752F2575206F63746574732E2E
:10B4E00000546865207265717565737465642063C6
:10B4F0006F6D62696E6174696F6E206F662054585B
:10B5000020616E64205258207061636B6574206CFA
:10B51000656E6774687320697320746F6F206C6F39
:10B520006E67206279202575206D6963726F73657F
:10B53000636F6E64732E0073645F626C655F676136
:10B540007474635F65786368616E67655F6D747559
:10B550005F726571756573742829207265747572E0
:10B560006E65642025732E0073645F626C655F678F
:10B57000617474735F65786368616E67655F6D742D
:10B58000755F7265706C7928292072657475726EAA
:10B5900065642025732E006E72665F626C655F675E
:10B5A0006174740023D1BCEA5F782315DEEF1212B8
:10B5B000000000006E72665F73646800010000079F
:10B5C0002CAC02002CAC02000800000034AC0200DD
:10B5D00044AC0200080000002CAC020034AC0200B5
:10B5E0000800000073645F626C655F6366675F7389
:10B5F000657428292072657475726E6564202573E0
:10B60000207768656E20617474656D7074696E670B
:10B6100020746F2073657420424C455F434F4E4E3B
:10B620005F4346475F4741502E0073645F626C651D
:10B630005F6366675F73657428292072657475722D
:10B640006E6564202573207768656E20617474656B
:10B650006D7074696E6720746F2073657420424C3E
:10B66000455F4741505F4346475F524F4C455F43FC
:10B670004F554E542E0073645F626C655F6366675E
:10B680005F73657428292072657475726E65642015
:10B690002573207768656E20617474656D707469B8
:10B6A0006E6720746F2073657420424C455F434F72
:10B6B0004D4D4F4E5F4346475F56535F5555494486
:10B6C0002E0073645F626C655F6366675F736574A9
:10B6D00028292072657475726E6564202573207741
:10B6E00068656E20617474656D7074696E6720742E
:10B6F0006F2073657420424C455F47415454535F3B
:10B700004346475F415454525F5441425F53495A44
:10B71000452E0073645F626C655F6366675F736587
:10B720007428292072657475726E656420257320F3
:10B730007768656E20617474656D7074696E6720DA
:10B74000746F2073657420424C455F4741545453D5
:10B750005F4346475F534552564943455F4348411F
:10B760004E4745442E00496E737566666963696588
:10B770006E742052414D20616C6C6F63617465641E
:10B7800020666F722074686520536F667444657616
:10B790006963652E004368616E6765207468652083
:10B7A00052414D207374617274206C6F63617469CF
:10B7B0006F6E2066726F6D203078257820746F2050
:10B7C000307825782E004D6178696D756D20524175
:10B7D0004D2073697A6520666F72206170706C69A4
:10B7E000636174696F6E20697320307825782E004C
:10B7F00073645F626C655F656E61626C65282920A9
:10B8000072657475726E65642025732E006E7266A3
:10B810005F7364685F626C6500000000FCAB02004F
:10B820002CAC0200080000006E72665F7364685FF3
:10B83000736F6300F4AB0200FCAB02000800000071
:10B8400043000000504F53495800000020202020A2
:10B850002020202020682828282820202020202080
:10B8600020202020202020202020202048101010E0
:10B8700010101010101010101010101084848484F8
:10B8800084848484848410101010101010818181AD
:10B890008181810101010101010101010101010118
:10B8A00001010101010101101010101010828282AB
:10B8B00082828202020202020202020202020202E8
:10B8C00002020202020202101010102000070320E0
:10B8D00004170201085710408000000040B8020021
:10B8E00044B9020058BA020053756E004D6F6E00E5
:10B8F00054756500576564005468750046726900A8
:10B9000053617400000000004A616E0046656200E9
:10B910004D617200417072004D6179004A756E0090
:10B920004A756C0041756700536570004F63740081
:10B930004E6F76004465630000000000414D0050EA
:10B940004D0000007CBA020078BA020078BA02000A
:10B9500078BA020078BA020078BA020078BA020017
:10B9600078BA020078BA020078BA0200FFFFFFFF3F
:10B97000FFFFFFFFFFFFFFFFFFFF0000B8B902005E
:10B98000E8B80200F4B9020008B902003CB90200AC
:10B990009CB902004CBA0200A8B90200256D2F25FF
:10B9A000642F25790000000025612025622025658F
:10B9B000202554202559000053756E646179004D8F
:10B9C0006F6E6461790054756573646179005765C1
:10B9D000646E65736461790054687572736461792B
:10B9E00000467269646179005361747572646179AB
:10B9F000000000004A616E756172790046656272EE
:10BA000075617279004D6172636800417072696C92
:10BA1000004D6179004A756E65004A756C79004188
:10BA200075677573740053657074656D6265720037
:10BA30004F63746F626572004E6F76656D626572FA
:10BA400000446563656D62657200000025483A2513
:10BA50004D3A25530000000021AA02003DAA020031
:10BA600049AA020055AA020071AA02007DAA02009A
:0EBA700089AA020097AA0200000000002E0022
:10BA800000000000002000400000000000200040F6
:10BA90000000000000000000FF0000000010014056
:10BAA000110004000090D0030D0003002595020052
:10BAB000E82A00201F000000072B00201F000000C4
:10BAC000FF00FFFFDCB80200DCB80200DCB80200B7
