:020000022000DC
:1060000000000120756302005D6302005F6302000F
:106010006163020063630200656302000000000028
:1060200000000000000000000000000067630200A4
:1060300069630200000000006B6302006D630200F0
:10604000B59902006F630200959B0200E99E020071
:106050006F6302006F630200459A0200E1A4020030
:106060006F6302006F6302006F6302006F630200E0
:106070006F6302006F6302006F6302006F630200D0
:106080006F630200817602006F6302006F6302009B
:106090006F6302006F630200A51203006F630200CA
:1060A0006F6302006F6302006F6302006F630200A0
:1060B00039A402006F63020000000000000000002D
:1060C0006F6302006F6302006F6302006F63020080
:1060D0006F6302006F6302006F6302000000000044
:1060E00000000000000000000000000000000000B0
:1060F00000000000000000000000000000000000A0
:10610000000000000000000000000000000000008F
:10611000000000000000000000000000000000007F
:10612000000000000000000000000000000000006F
:10613000000000000000000000000000000000005F
:10614000000000000000000000000000000000004F
:10615000000000000000000000000000000000003F
:10616000000000000000000000000000000000002F
:10617000000000000000000000000000000000001F
:10618000000000000000000000000000000000000F
:1061900000000000000000000000000000000000FF
:1061A00000000000000000000000000000000000EF
:1061B00000000000000000000000000000000000DF
:1061C00000000000000000000000000000000000CF
:1061D00000000000000000000000000000000000BF
:1061E00000000000000000000000000000000000AF
:1061F000000000000000000000000000000000009F
:10620000354936480A1A02D0072291438D4634494F
:1062100034480A1A06D00722914381F309880222E2
:1062200082F3148830483149314A00F044F831484B
:106230003149324A00F03FF831483249324A00F0E1
:106240003AF832483249334A00F035F83248334997
:10625000334A00F030F833483349344A00F02BF821
:1062600033483449344A00F026F83448344900228F
:1062700000F02CF833483449002200F027F8334866
:106280003349091A082902DB002202604160314AC1
:1062900090471F481F49884205D00268043003B464
:1062A000904703BCF7E700208646EC46002000211B
:1062B000294A9047FEE7884207D0521A05D0037852
:1062C00001300B700131013AF9D17047884202D098
:1062D00002700130FAE770470000012000E0002062
:1062E0000000012000000120D04B03003C320020C0
:1062F000C0320020D0630200D063020028220300D5
:10630000D04B03003C3200203C320020D423030059
:10631000D4230300D4230300D4230300D423030095
:10632000D4230300D4230300D4230300CE4B030063
:10633000544C0300C0320020C0320020C032002084
:106340003469002034690020346900203469002059
:10635000348900209D630200A5AD0200FEE7FEE740
:10636000FEE7FEE7FEE7FEE7FEE7FEE7FEE7FEE705
:1063700000F002B8FFF7FCBF0F484FF00701884359
:1063800085460E4880470E48016841F4700101605F
:10639000BFF34F8FBFF36F8FFFF732BF09480A4932
:1063A0000A4A884207D0521A05D0037801300B7090
:1063B0000131013AF9D17047000001202D6D020032
:1063C00088ED00E0C0230300283200203C3200208A
:1063D0007047000007B5044B0093044A402300F0C7
:1063E00032F803B05DF804FBF1630200C132002013
:1063F0002DE9F84388461446B2B10F4B0F4E0325E2
:10640000002743F00109224608EB0701002006F0AF
:1064100051FA0744241A48B933782BB14FF47A4023
:10642000C847013D02D13570BDE8F88301233370C0
:10643000002CE8D1F8E700BFE0230300C0320020C1
:10644000704706F06BBAF0B595B01D461646084683
:106450000C4602F079FF1A9B0D93CDE908650025E3
:106460002B46082205A920460A958DF82C500C953C
:1064700002F087FF079B0293069B03939DF814305D
:106480008DF8115003F00302012A1DD1BDF814202C
:10649000059DC3F3C203C2F383168DF81030B2001A
:1064A00008230EA9204602F06CFFC5F3952508AB22
:1064B0000093324602AB0EA9284600F041FB20466D
:1064C00002F046FF15B0F0BD022AF8D1BDF8165013
:1064D000C3F3C203C5F389158DF810300827082DC2
:1064E0002E4628BF08263B4632460EA9204602F01B
:1064F00048FFAD1B08AB02AA31460EA8374400F096
:1065000083FB002DEBD1DAE708B5FFF79AFF0448CB
:10651000042100F07FFA034B01225A7108BD00BF2D
:106520009C2303003C320020037813F0040216D0B1
:1065300003F00303012B03D0022B09D00120704785
:106540000A6800880232C0F3831002440A60F5E74B
:106550000B684288023303EB92130B60EEE71046A0
:10656000704700002DE9F04F87B000230446861CD9
:106570000DF107000F4615468DF8073000F0F6FEC6
:10658000404A51683960936803F580735B1A9246FC
:1065900002F21C4702F5836902F21448B3421AD38F
:1065A0000020002D69D004F00F039B0143F0050388
:1065B00063F30F00DAF80430DAB203321E444AF80B
:1065C00022009DF80700CAF8046000F0F3FE0120E5
:1065D00007B0BDE8F08F0121384602F029F948469E
:1065E00002F041F9404602F03EF9DAF80800029064
:1065F000C0B203300AEB800002A9FFF795FF029BAF
:1066000030BBDAB20AEB8202D16803919A1C0133E3
:10661000DBB20AEB83030292D3F80CB001F0030360
:10662000012B22D0022B15D08346404602F01EF9E2
:1066300010B1029BCAF808305946384602F0F8F803
:10664000DAF80830DAF8042003F580739B1AA5E71E
:10665000D8B2CEE7BDF80E30C3F3891303334FEA47
:106660001B4B02EB93030293DFE7BDF80C30C3F33F
:1066700083134FEA1B4B1344F5E7A40544F00600CF
:1066800098E700BFD4330020064B074810B500221E
:106690001A7002F012FE044610B9044802F034FFEA
:1066A000204610BDD4330020AC2303001C2403007B
:1066B00030B50A4C71B10A4A0A49121BD2080023AC
:1066C0009A4201D1002030BD31F82350854202D0DA
:1066D0000133F5E7034654F83300F4E7942203004E
:1066E0006C23030028320020094B013903EBC00062
:1066F000032909D8DFE801F00A02040604207047E4
:106700000079704740797047002070470220704739
:1067100094220300034BD3E90130C31A5842584175
:10672000704700BFD43300202DE9F04186B0FFF759
:10673000F1FF0546002840F0E680744CC4F81804C8
:10674000BFF34F8FA3680293DBB2033304EB8300E4
:1067500002A9FFF7E9FE029B18B1D4F81824002A19
:1067600055D0DAB2991C013304EB8202DBB204EBA0
:106770008303D268DB68049302F00303022B0392C5
:1067800002914FD1BDF80E306148C3F38917502FE5
:106790003E4628BF502666F38F1306F10801ADF878
:1067A0000E3002F0A2FD0546002800F0978002F0AE
:1067B000CBFD002303A90822284602F0D8FD029948
:1067C000CB43DBB20133C9B20331B6EB830F4FEADF
:1067D000830804EB810122D908234246A6EB080670
:1067E000284602F0C4FDF6B24A4908F108033246D1
:1067F000284602F0BCFD029B033703EB9707029784
:10680000D4F81834002B41D1D4F8106451E06268F8
:106810009A4299D8A260284606B0BDE8F0810823C4
:106820003246E5E7012B59D1BDF80C303848C3F3A7
:106830008311062928BF062161F3891302318900DB
:10684000ADF80C3002F051FD0546002846D002F0AC
:106850007BFD0023082203A9284602F088FD0026BC
:10686000BDF80C20C2F38312B300964203F1080373
:10687000C6D202994A1CC9B20331029204EB8101CB
:106880000422284602F073FD0136E9E7284602F0AB
:106890005FFDFFF73FFF80F00100C5B2BBE7F36883
:1068A0005B7923B1336829461B6830469847F36803
:1068B0001E68002EF3D1284602F04AFD0DF10700B4
:1068C0008DF8076000F052FDD4F818340BB9029B24
:1068D000A3609DF8070000F06DFDDAE7D4F81044DE
:1068E00054B90D4B0D480E49C01AC008000440F0C1
:1068F000020000F05DF8CCE7236820469B689847CB
:10690000E3681C68ECE7002585E700BFD43300206E
:10691000AC230300E033002094220300D4220300C0
:10692000042403002DE9F34704460E46924601A9CC
:10693000012218469946FFF715FE1B4F10B3019D23
:106940004FF00008AA1CC84508EB020123D11748E4
:10695000002101F026FF80F31000000440EA1440FB
:10696000E4006B1C04F03804DBB2EDB244F0010427
:1069700007EB8303033544EA881444EA8624D8608D
:1069800047F825403B781BB1FFF7CEFE0028FBD12E
:1069900002B0BDE8F087C9B207EB81015AF8283090
:1069A000CB6008F10108CEE7D4330020F037002097
:1069B00000231A46FFF7B6BF07B50123019201AACB
:1069C000FFF7B0FF03B05DF804FB07B5CDE9002386
:1069D00002236A46FFF7A6FF03B05DF804FB1FB56C
:1069E000CDE90123069B039301AA0323FFF79AFF36
:1069F00005B05DF804FB1FB5CDE90023069B0293AB
:106A0000079B03936A460423FFF78CFF05B05DF8EC
:106A100004FB000030B50F49D1F8102403460020D4
:106A2000144634B9DC6820714AB9C1F810342260C8
:106A300030BDE4682579854206D02468F1E7D26844
:106A4000116821601360F3E701300A28E8D14FF0A4
:106A5000FF30EDE7D4330020084A38B50123D2F8DF
:106A6000104413701D4604B938BDE3685D71236896
:106A700020465B689847E3681C68F4E7D43300203D
:106A800007B503460846197A052911D05B7A2BB160
:106A9000094A0A49019001F04CFF01980849019008
:106AA00001F047FF019803B05DF804EB01F036BF39
:106AB000002AF8D0F2E700BF28240300D33D0300EA
:106AC000B62F030030B5C38885B004460D4633B1F8
:106AD000144A00921449154A284601F02AFF217AE7
:106AE00005291DD0637A4BB1A088FFF7FDFD104B3F
:106AF000104953F82020284601F01BFF227A0E4B44
:106B0000A08853F8222003920021FFF7D1FD039AB9
:106B10000A490346284605B0BDE8304001F009BFE8
:106B200005B030BD28240300352403002D240300C4
:106B3000B4240300D33D0300D82403004D240300F4
:106B40002DE9F04385B01F460C9D002395F80C906D
:106B50002B7306460C46904629463846FFF7B2FF8F
:106B6000B8F1060F09D8DFE808F00412181F28331F
:106B700040003146284601F0DCFE00222946384616
:106B8000FFF77EFF85F80C9005B0BDE8F083226822
:106B90003146284601F0CDFEEFE7D4E90023314627
:106BA000284601F0C6FEE8E7A36800933146D4E921
:106BB0000023284601F0BDFEDFE7E3680193A368E8
:106BC00000933146D4E90023284601F0B2FED4E711
:106BD00023690293E3680193A36800933146D4E9E3
:106BE0000023284601F0A5FEC7E7636903932369E4
:106BF0000293E3680193A36800933146D4E900232C
:106C0000284601F096FEB8E708292DE9F74F80469F
:106C10000E4617461C463CD8002593F80C901D7371
:106C200019461046FFF74EFFDFF888A0DFF888B05E
:106C3000AE4231D918F805205946204601F079FEB8
:106C40000135082DF4D11949194DDFF870A02046FF
:106C500001F06FFE4FF0000B5E4522D918F80B20B3
:106C60007E2A05D8104601920BF0F8F9019A00B976
:106C70002E225146204601F05CFE0BF1010BBBF1C8
:106C8000080FE9D1012221463846FFF7F9FE84F8C2
:106C90000C9003B0BDE8F08F5146204601F049FE4C
:106CA000CEE72946204601F044FEE6E761240300D2
:106CB0005F2403005D2403005724030063240300C2
:106CC0000B4B1B685A1C05BF0A4B0B4A0B4A10683A
:106CD0000ABF1B781068C0F30310062B05D10338D8
:106CE00003288CBF0020012070470020704700BFA0
:106CF00030010010E00F00F0E80F00F03401001048
:106D0000074B1B78062B09D1064B1B68C3F30313F3
:106D1000033B032B02D8044AD05C70470020704725
:106D2000E00F00F0E80F00F0F424030008B5FFF7CF
:106D3000C7FF28B17E4B7F4A1B68C3F3042313604F
:106D4000FFF7DEFF10B17C4B7C4A1A60FFF7B8FFFB
:106D500028B17B4B7B4A1B68C3F342331360FFF7B8
:106D6000CFFF20B1784AD36823F08073D360FFF758
:106D7000A7FF40B14FF080430022C3F80C21C3F8B5
:106D80001021C3F83825FFF7BBFF10B16F4B03226A
:106D90001A60FFF7B5FF40B16D4B05221A60012262
:106DA0009A6700229A603F225A606A4B1A68511C07
:106DB0000BBF694B694B1A781B6802BF08331B680D
:106DC000C3F30313062A4DD1033B032B4AD8644A6D
:106DD000D35C002B46D04FF08052624BD2F80414A3
:106DE000C3F82015D2F80814C3F82415D2F80C14EF
:106DF000C3F82815D2F81014C3F82C15D2F81414BF
:106E0000C3F83015D2F81814C3F83415D2F81C148E
:106E1000C3F84015D2F82014C3F84415D2F824144E
:106E2000C3F84815D2F82814C3F84C15D2F82C141E
:106E3000C3F85015D2F83014C3F85415D2F83414EE
:106E4000C3F86015D2F83814C3F86415D2F83C14AE
:106E5000C3F86815D2F84014C3F86C15D2F844246E
:106E6000C3F87025FFF72CFF28B13F4B3F4A1B6842
:106E700003F04F031360FFF723FF48B14FF0804347
:106E8000D3F80024D20744BF6FF00102C3F80024F6
:106E9000304B1B68062B0CD1304B1B68033B032B7C
:106EA00007D8334AD35C23B1324A136843F4806372
:106EB0001360314AD2F8883043F47003C2F8883046
:106EC000BFF34F8FBFF36F8F4FF01023D3F80C3207
:106ED000DB0729D5294B0122C3F80425D3F8002468
:106EE000002AFBD04FF01022D2F80C3223F001031D
:106EF000C2F80C32214B1A46D3F800140029FBD0FB
:106F00000021C3F80415D2F80034002BFBD0BFF3E6
:106F10004F8F19491A4BCA6802F4E0621343CB60E1
:106F2000BFF34F8F00BFFDE7164B174A1A6008BD2D
:106F3000240300104035014074C007400DF0ADBA85
:106F4000440200103C050040F0ED00E0A0050040C8
:106F50001056004030010010E00F00F03401001026
:106F6000EC24030000C0004058020010E40E004072
:106F7000F02403003C17004000ED00E000E0014079
:106F80000400FA05443200200090D0031FB5002110
:106F9000039001AA44F20100CDE9011100F004F8C8
:106FA00005B05DF804FB000010B572B6FFF754FDA4
:106FB000FFF7BAFB0028FBD1104B114C1149E41A22
:106FC000E408240444F00100FFF7F2FC0E4B1B68B8
:106FD000DB0700D500BE0D4944F00200FFF7E8FCD6
:106FE000BFF34F8F0A490B4BCA6802F4E0621343A8
:106FF000CB60BFF34F8F00BFFDE700BF94220300BB
:10700000D4220300F8240300F0ED00E0042503007F
:1070100000ED00E00400FA05D0E90223D1E9020105
:10702000994208BF90422CBF012000207047000009
:1070300008B50B4800F00DFB0A4B0B49D3E90023C0
:107040001218D1E9000143F100038B4208BF8242CC
:1070500003D212F1807243F100031046194608BDB5
:1070600048320020903800200839002037B5054606
:107070000C460A4801A901F0C8FA60B105704460E5
:1070800001A9064801F0EBFA18B1054800F0E6FA4C
:10709000002003B030BD0420FBE700BFF43800201F
:1070A0004832002038B5184B1B78044613B9002528
:1070B000284638BD0028FAD0037F03F0FF05002BD7
:1070C000F5D0FFF7B5FFD4E90223994208BF9042FB
:1070D00014D3236903B92377D4E90530984721698C
:1070E0000029E4D0237F03F0FF05002BDFD0D4E993
:1070F0000223521843F10003C4E902230348214646
:1071000002F021FAD4E700BF983800201C250300C4
:1071100013B50023ADF8043006238DF806300F496F
:107120000F480823582201F03BFA044698B90D4A4B
:107130000D4801A900F07EF9044660B90A48012112
:1071400000F06AFA0123094A0748194600F0CCF911
:10715000074B01221A70204602B010BD9C38002057
:10716000F4380020D571020048320020FFFF7F0074
:10717000983800203AB103685A614A1E5142514181
:107180001961002070470720704738B5037F044617
:107190000D4683B98261FFF74BFF2369401941F126
:1071A0000001C4E9020103B1256121460020BDE8C8
:1071B0003840FFF75BBF002038BD0023014603774E
:1071C0000120FFF753BF0000014800F042BA00BFA2
:1071D000483200202DE9F04F85B0804600F024FAB7
:1071E00040B15A4AD2E9003113F1807341F10001F4
:1071F000C2E900310021404600F025FA38B1544E72
:10720000336823B13068FFF74DFF0023336001215D
:10721000404600F018FA20B1FFF70AFF4D4BC3E9D2
:1072200000014D484A4F4D4EDFF8389103A901F057
:1072300026FA002845D1DFF82491454EDFF828A131
:10724000484602F096F93368002875D07BB1336860
:10725000D0E90201D3E90223994208BF90422DD21E
:1072600033681B7F1BB13168484602F06CF9484611
:1072700002F079F9D0E902B307460193FFF7D8FE8F
:10728000019BBBEB000463EB0105012C75F10003CE
:1072900045DBB4F5D40F40D3FFF796FF304A0244E4
:1072A0004FF416030021504600F03EF900283ED16D
:1072B000336813B9404600F00FF9376005B0BDE8F8
:1072C000F08F0378012B1DD0022B09D14FF0000A5B
:1072D000304602F048F9002834D080F81CA0F7E7C7
:1072E0003BB941680B7F23B901230B77304602F08D
:1072F0002AF903A9184801F0EDF903A9164801F08D
:10730000BEF996E741683B68994202D100233B6091
:10731000EFE7304602F030F9EBE7BA68C0E700214A
:10732000504600F086F93846FFF7BCFE01E00D2814
:10733000F9D00023336083E7002BBFD1404600F033
:10734000CFF8BBE7012389F80030D2E7903800205E
:107350001039002008390020F43800201C250300D3
:10736000FFFF6900983800204832002070B5EFF325
:10737000108672B60C4A946801239CB993600B4B3B
:107380000B4DD3F8801029401160C3F88050D3F81A
:10739000841051604FF0FF32C3F88420047006B9A6
:1073A00062B670BD0370FAE71439002000E100E016
:1073B000FC06FFBD084B9A6810B55AB150B9EFF3FF
:1073C000108172B6054A1C6814605C68546098604D
:1073D00001B962B610BD00BF1439002000E100E021
:1073E00010B5044622B1108821448C4203D110BD4F
:1073F0004FF6FF70F8E743BA14F8010B9BB2434015
:10740000C3F30312534083EA03335A0102F4FF52D9
:107410009BB283EA0200E8E7435882B03BB1002305
:10742000435043580193019B012002B07047184616
:10743000FBE70000F8B5204B4479204D43F82420A9
:107440001F4A204B05EBC4049B1A2279DB081B045E
:1074500032B143F002001C49FFF7AAFA0820F8BD38
:1074600002680C88C2F8084590F904608A780479AB
:107470005201002ED2B219DB14498F1987F800236C
:107480000122760904F01F0402FA04F441F82640B0
:10749000427905EBC201012445F832000C7143F03A
:1074A00003000B49FFF784FA0020D8E7094904F0EC
:1074B0000F040A55ECE700BF2839002020390020CE
:1074C00094220300DC2203002825030000E100E0F1
:1074D0004A25030014ED00E0036801221A6070479A
:1074E000036801225A60704773B501F15005AD0081
:1074F0000068ADB24FF480348C400026C0F80843D9
:10750000C0F84843465101F5A8714559019522F04C
:107510007F42019D40F82120C0F844430BB1C0F8E0
:10752000044302B070BD00002DE9F74F0D4622F074
:107530007F4402684FF4803705F150068F40804643
:10754000B60002EB8500C2F84873B6B2C2F8087301
:10755000D2F8041599464FF0000BD0F84035C0F82A
:10756000401542F806B05B1A9259009223F07F430F
:10757000012B009A4FEA850A0CD1264B4FF480600C
:1075800043F001039847D8F8003043F806B09B5900
:107590000193019BD8F80010D1F80465C1F8447339
:1075A000A31B23F07F43012B1CD11A4B05F5A875B3
:1075B000013443F0010341F825404FF480609847BF
:1075C000D8F80030D3F804359E4209D1D8F80030FD
:1075D0000020C3F84473C3F8047303B0BDE8F08F10
:1075E0000D20FAE78A44C9F1FF13CAF84045D1F8E3
:1075F0000405221A013A22F07F4203F57F439342A9
:10760000EED3002AE2D10134CAF84045D1F804355E
:107610009842DAE76025030003680222C3F8442396
:1076200009B1C3F80423704700684FF48271FFF773
:10763000F3BE4FF4803303FA01F10368C3F8481333
:10764000C3F80813704750318900006889B2FFF70A
:10765000E3BE0368D3F804057047000090F90430D6
:10766000002B09DB5A09012103F01F0301FA03F380
:107670004032024941F82230704700BF00E100E08B
:10768000024B034A1B681068184700BF28390020C6
:107690002039002070B5064D0646002455F8043BFD
:1076A0000BB1304698470134042CF7D170BD00BFB0
:1076B00038390020033082B240F2FE339A42F0B5EE
:1076C0001ED8114D00232E4628789FB280B92C89F0
:1076D000B5F80AC064441444A4B2B4F5806F07D866
:1076E0000F80142101FB036359890A445A81F0BDBC
:1076F00001330F2B05F11405E6D148F20660F6E7D9
:1077000048F20860F3E700BF783900200B4A0C4BC1
:107710005188142000FB0131CB6833B9042049683B
:1077200010700122074801F091BB0749052313702F
:1077300002238B80012209680023F3E750390020DF
:107740007839002028320020443B002007B5002370
:1077500005490093054A09680548082301F0E0FA45
:1077600003B05DF804FB00BF443B00207425030018
:107770002832002007B5002301460093034A04483D
:10778000082301F0CDFA03B05DF804FB6C2503007B
:107790002832002013B500230C4600930146084A06
:1077A0000848042301F0BCFA38B90749142303FB45
:1077B00004140123237402B010BD48F20D60FAE7EF
:1077C00068250300283200207839002037B50A48A0
:1077D0000A4B42689C881968538803250333057057
:1077E0009BB2002000909B0001EB8401044801F053
:1077F00097FA03B030BD00BF50390020443B002051
:107800002832002010B50146044800F0FEFE1C227C
:10781000044600210AF083FC204610BD303B0020C6
:107820004388033300EB830399420BD382884FF6DE
:10783000FF739A4208D0038833B18068431C5842D2
:107840005841704702207047012070472DE9F041F0
:107850000D460223154F2B80164600F5805100F18E
:1078600008044FF001088C420ED2236801330BD07C
:107870002046FFF7D5FF48B10EB186F800800228F8
:1078800009D14FF480632B80BDE8F081A3683A688A
:10789000934200D93B602B886288033313442B80CA
:1078A0006388033304EB8304DDE700BF70390020F5
:1078B00038B5144B14220D4602FB00302B68446887
:1078C00004F58051A3B15C88033403EB84048C423B
:1078D00015D22368013312D02046FFF7A1FF0128FB
:1078E00008D002280BD00028F1D12C60012038BD2F
:1078F0000834ECE76388033304EB8304E7E70020F4
:10790000F5E700BF78390020426873B504460D469C
:1079100052B3224BD9688A4226D31B699A4223D894
:1079200012F0030320D11E490089098988421BD126
:1079300020689168884217D11A4C194660688242C3
:107940008EB209D900F58050824205D22E80B3FA5A
:1079500083F0400902B070BD01310F2904F1140415
:10796000ECD148F20963F2E700232B801E46019612
:10797000288801A9FFF79CFF30B92B8801339BB2FF
:107980000E2B2B80F3D9E5E7019B22689968914281
:10799000EED16360024B1B892381DBE72832002094
:1079A00050390020783900202DE9F8431C461D4B42
:1079B0001B7806460F46154673B382B37CB3DFF8D7
:1079C0006C804FF01409A3880E2B02D948F209608D
:1079D00020E009FB03F318F803302BB9A0882146F7
:1079E000FFF766FF20B92060A3880133A380EAE790
:1079F00023681EB1998832889142EFD11FB119884E
:107A00003A889142EAD19A68C5E90023064B1B895E
:107A10002B810020BDE8F88348F20160FAE748F2C4
:107A20000460F7E7483900205039002078390020F9
:107A300008B5074B5888191DFFF73AFF18B1BDE884
:107A40000840FFF7C3BEBDE80840FFF75FBE00BFB8
:107A5000503900202DE9F04FA24FDFF8AC9289B0E9
:107A60000646B8463B6823B99F48494600F007FEE2
:107A70003860D8F8005029784B1E052B07D8DFE86E
:107A800013F022007700770009010901600148F234
:107A90000E641422002103A80AF041FB41F61D5395
:107AA0009C4208BF0024D8F8003004941A78013AA8
:107AB000052A00F2F381DFE812F0DF01E30103029F
:107AC00013021F0229022EB1884B00225A604FF484
:107AD0000644DEE72B79032B18D8DFE803F0100209
:107AE0002631834B142101FB06F2D05C022813D10E
:107AF0009918002098544868FFF73CFE03E00123E2
:107B00002B71FFF723FE002800F0BE80774B002288
:107B10005A6048F20D64BCE701360F2EE3D1734B77
:107B200001221A7000225A6002E172497248002351
:107B300002222B718A800968012201F087F9E2E7AD
:107B40006C4C00262E712068694DFFF713FE6B4BBD
:107B5000D4F800C05A8814235343EA18EE545168ED
:107B60002160A188C2F804C011810222A280CAE764
:107B7000B5F814A0AA7DDFF878B1AEB1022AEB887F
:107B800006D9142101FB0AB1DA1C088902440A81D2
:107B9000142202FB0ABAC3F57F43BAF80A20FD3368
:107BA0001344AAF80A3092E7142303FB0AB3188996
:107BB0005C6804EB8004062A69D8DFE802F0274EEF
:107BC00036441D5A040041F61D54AA7DEB88022A52
:107BD00006D9142101FB0AB1DA1C088902440A8182
:107BE000142202FB0ABAC3F57F43BAF80A20FD3318
:107BF0001344AAF80A304CE7414842490023436045
:107C0000AB690360FFF780FE00285AD00223AB75F2
:107C1000002300930423EA182146374801F080F836
:107C2000002831D048F20D64CFE72B69002B14BF38
:107C300003230123AB750023009305F10C020423F9
:107C400004F10801E9E70123AB750022EB880092FB
:107C50002A699B0004F10C01DFE703290CBF05230F
:107C60000623AB7500230093042305F10802E118F5
:107C7000D3E70623AB75234B1988214B5868FFF7D0
:107C800089FD04460028A0D109B0BDE8F08F48F274
:107C90000E649AE7002E7FF41AAF2B79012B35D0B2
:107CA000022B45D0002B7FF4F2AE02232B710DF195
:107CB0000A01EB68039303A8CDE90466FFF724FEED
:107CC00010B948F20964E4E60498BDF80A10838804
:107CD000EB8003882B81FFF75DFD0446002C7FF4C9
:107CE000D8AED1E774390020303B0020483900205D
:107CF00078390020443B00202832002050390020F1
:107D00002C390020503B00206C390020804B03AA06
:107D10003146A81DFFF748FE7D4B044658B99988A7
:107D20000498FFF737FD044648F209639C42D5D119
:107D300041F61D54ADE60822314618460AF0EFF927
:107D4000F2E7002E7FF4C3AE724B5A7EB2B15E767C
:107D50001A78013A062A3FF69AAE01A151F822F0AC
:107D6000117E02003D7E0200517E0200577E02001D
:107D70008F7A02005D7E02006F7E02001A78072A69
:107D8000E6D801A151F822F0A97D0200517D020040
:107D9000517D0200D57D0200E97D02000D7E0200CA
:107DA0000D7E0200D17D02001A895B485B4C0132D6
:107DB0001A8100225A805A76142505FB02F10132FD
:107DC000095DB1FA81F149090F2A00F8011BF4D1CC
:107DD000012207E0524859688288498803320A44E0
:107DE000828002221A70B3E74C485A884C49142505
:107DF00005FB02020C685068086088881081022028
:107E000088800021546011740622EBE70722E9E71D
:107E1000414A424C0020142512F8011B1FFA86FC2F
:107E200079B105FB064102F8010CD1F80CE0BEF176
:107E3000000F06D1097C21B1A3F802C0FFF7F8FDBD
:107E40004BE701360F2EE7D100221A705A806AE6FE
:107E5000FFF7BCFC41E7FFF759FC3EE72F4A5B8880
:107E6000142101FB03235868FFF784FC35E7002247
:107E70005A60FFF76BFC30E700238DF80C300DE003
:107E800001228DF80C201A89ADF818209A88DB6839
:107E90000593ADF81A2000238DF81C3003A8FFF7D6
:107EA000F9FB002649461F48C8F8006000F012FCA4
:107EB0001D48012100F0C8FC00287FF4D3ADE3E6A3
:107EC00002228DF80C201A89ADF818209A88ADF896
:107ED0001A20DA689B7D05929A1F53425341DBE7D3
:107EE00003228DF80C20DA88ADF818201A89DB6897
:107EF000ADF81A200593D1E704228DF80C20DB8819
:107F0000ADF818300023ADF81A30F3E70523B4E7D5
:107F1000543B0020503900205A3900207839002085
:107F2000443B0020303B0020403B00204068FFF7EE
:107F300091BD000008B50548012100F06DFC18B99D
:107F4000BDE80840FFF786BD08BD00BF403B0020EC
:107F50002DE9F34198460023ADF80230414B1B78E0
:107F600006460D46002B71D0002972D009884FF6C5
:107F7000FF73994270D06B88002B6DD06B689B07A4
:107F80006DD142B92F8969463846FFF793FB30B16E
:107F900002B0BDE8F08113885788ADF8003001A821
:107FA000FFF730FC044660B9BDF800302E4A1421BA
:107FB00001FB032358890338C01B588148F207602E
:107FC000E6E780F8008000238375BDF800308382E7
:107FD0006B6803610121254800F02AFC2B8823816E
:107FE000B8F1030F6B88A38001BF0423A375336826
:107FF000A361E06000220621E780201DFFF7F0F971
:108000000DF10202ADF80200042104F10C00FFF7AB
:10801000E7F9A968ADF80200890068680DF102026D
:10802000FFF7DEF901A9ADF802006081104800F009
:1080300016FB3EB10023E2687360B3720D4B3260F1
:108040001B893381FFF776FF0020A1E748F201602A
:108050009EE748F204609BE748F2036098E748F225
:10806000026095E7483900207839002070390020F7
:10807000303B00205039002008B50346074802680D
:10808000042A08D00168064A42F82130012100F094
:10809000CFFB002008BD48F20B60FBE74C3B002003
:1080A000383900202DE9F04F89B01422002103A8AF
:1080B0000AF035F8774A1378914603F0FF0B3BB18D
:1080C00003A8FFF7E7FA0026304609B0BDE8F08FB5
:1080D000101D00F0C5FB0028F5D140F6F8734FF0F5
:1080E00080521B685C1C08BF6B4B6C4C08BF1B6844
:1080F00011695269581C08BF02FB01F323616849EA
:10810000A3F5803300222046E36000F0D7FD019400
:1081100006460028D8D163496348644F1C238C224B
:1081200000F03EFAB04635464FF0100A3446019B47
:10813000D86858F8003018EB00002DD05C4A934204
:1081400040F0A68043685B4A934213D001329342C9
:1081500027D1594BBBF1000F5FD15849186000225D
:10816000FFF774FB544B9B88022B0CBF042308239E
:108170001D4335E0142161437B1800227A5401F13C
:108180001002083158603A443944FFF75FFB45F06C
:1081900002050134A4B223E05A1C02D0444A93429F
:1081A00030D1031D00F580511A6801322AD1043301
:1081B0009942F9D1404B1A682AB9022218609A8074
:1081C0004FF0010B0AE0142363430221FA18F9541B
:1081D0003B4B50605C8001341181A4B245F0010535
:1081E00008F58058B8F5803FA1D1BAF1010F98BFCA
:1081F0000025EDB2022D02D0062D1ED03DBB48F267
:108200000A6661E714236343FA180AF1FF3A5060E3
:108210000322FA541FFA8AFABBE714226243B91800
:108220004FF0020C07F802C01A684A60244AA1F80D
:1082300008C054800134A4B28FE7012389F80030CC
:1082400003A80023C9F80430FFF724FA3CE702A88A
:10825000FFF7D8FAC8B10123013D03700A2D09D8F0
:10826000DFE805F006080608070807080F110F00E9
:108270000023037102A90C4800F0F1F9FFF75AFE40
:1082800022E70323F5E70223F3E748F207661BE73B
:10829000013385E7483900201410001028320020EF
:1082A00068270300A43A0020303B002078390020E2
:1082B000DEC0ADDEFE011EF1443B0020483B002045
:1082C000503900202DE9F3410D46044668B361B3EF
:1082D00001A9FFF719FB58B3666800220621304652
:1082E000B6F806807788FFF77BF8791CADF80600B2
:1082F0000DF10602890006F10800FFF771F88045CC
:1083000019D10E4BBDF80400142202FB00300121EC
:108310000C3000F08DFA63682E600C336B60012323
:10832000A372002002B0BDE8F08148F20460F9E7D2
:1083300048F20960F6E748F20C60F3E7783900206C
:1083400013B50446A8B10DF10601FFF7DDFA98B1A7
:108350000C4ABDF80630142101FB0323DA6872B120
:10836000A27A62B1DA680020013ADA60A07202B043
:1083700010BD48F20460FAE748F20960F7E748F2F6
:108380000560F4E77839002002230022FFF7E0BD02
:1083900018B103230022FFF7DBBD48F204607047E9
:1083A000114B1B7813B50446ABB14FF6FF739842DF
:1083B00014D001A8FFF726FA98B105230370012312
:1083C0000371C48001A9094800F049F9FFF7B2FD23
:1083D000002002B010BD48F20160FAE748F20360E5
:1083E000F7E748F20760F4E748390020303B002007
:1083F0000F4B1B7807B5A3B101A8FFF703FA98B19B
:108400000623037001A90B4800F029F90A4B1A78DA
:108410000AB101225A76FFF78DFD002003B05DF806
:1084200004FB48F20160F9E748F20760F6E700BF95
:1084300048390020303B00205039002007B5ADF806
:108440000600ADF804100DF1060001A9FFF7ACFA23
:1084500003B05DF804FB07B51346ADF806000A4605
:1084600000200DF10601FFF79FFA03B05DF804FB51
:1084700007B51346ADF806000A460DF106000021C7
:10848000FFF792FA03B05DF804FB20B119B103685D
:108490000B600020704748F2046070472DE9F84FE8
:1084A0003B4B1B780446002B6BD000286CD012226B
:1084B000002109F034FE374EDFF8E0B010232380AE
:1084C000354B0027B1464FF014084FF0010A75896B
:1084D000328971682A4492B231B10868984203D156
:1084E00048685844012802D920880138208008FBB8
:1084F0000790B4F802C0C0686044608020890544D9
:108500006089258110446081C2F58062A08992B2A1
:10851000904201F1080538BFA28101F58051A942BE
:1085200027D92A68013224D02846FFF779F9012893
:10853000194B07D0022812D00028F0D1A2880132AE
:10854000A28007E0E2880132E280E2896888033293
:108550000244E2816A88033205EB8205DFE7E288A4
:1085600084F810A00132E280E289491B02EBA101EC
:10857000E18101370F2F06F11406A8D10020BDE8D4
:10858000F88F48F20160FAE748F20460F7E700BFAD
:108590004839002078390020DEC0ADDE02FEE10E51
:1085A00010B561B1B2FBF3F403FB1424A4B244B9D7
:1085B000C0E9001484608281C381204610BD0E2072
:1085C000FCE70920FAE782B050E8022FC188B2EB3D
:1085D000324F4FF0000317BF92B241EA014142EA25
:1085E000014104E04268B2EB324F08BF012340E88A
:1085F0000212002AE8D18DF807309DF80730002BD1
:108600000CBF1120002002B0704737B550E8013F81
:108610009DB2C48925448489A54228BF2D1B0489A5
:10862000A54202BFBFF32F8F002207E0C5EA030572
:1086300040E80154002CE9D14FF001028DF80320ED
:108640000193019B9DF803200B6002F0FF0322B110
:108650000B880068184403B030BD1846FBE70A8851
:108660004B889A4209D150E8012FC2EA024240E801
:108670000123002BF7D1012070470020704737B548
:1086800050E8023F1FFAA3F5C488A54202BFBFF31A
:108690002F8F00220DE0C48925448489A54228BF7C
:1086A0002D1BC3EA054540E80254002CE8D14FF0E9
:1086B00001028DF803200193019B9DF803200B60BC
:1086C00002F0FF0322B14B880068184403B030BDAC
:1086D0001846FBE70A884B889A4209D150E8022FD6
:1086E000C2EA224240E80223002BF7D10120704762
:1086F0000020704701F01F024B090121914000EB5F
:10870000830000F065B84B0910B501F01F0401218A
:10871000A14000EB830000F04FF8E04000F00100C2
:1087200010BD01F01F0301229A404B0900EB8300AA
:10873000D14300F065B84B0901F01F0150F8230048
:10874000C84000F0010070472DE9F0474F1E7F0937
:1087500080460E460137002558F8254008EB85096C
:10876000E44394FAA4F4B4FA84F44FEA451A202CB2
:1087700006D10135AF42EFD834462046BDE8F08738
:108780005444A642F5D921464046FFF7BCFF0028D5
:10879000F3D0D9F80040E44394FAA4F4B4FA84F492
:1087A000E5E710B5034653E8000F0A4643E8002406
:1087B00094F0000FF7D110BD10B5034653E8000F39
:1087C00040EA010243E8002494F0000FF6D110BD06
:1087D00010B5034653E8002F42EA010043E80004C5
:1087E00094F0000FF6D110BD10B5034653E8000F0A
:1087F00000EA010243E8002494F0000FF6D110BD16
:1088000010B5034653E8002F02EA010043E80004D4
:1088100094F0000FF6D110BD10B5034653E8000FD9
:1088200000EB010243E8002494F0000FF6D110BDE4
:1088300010B5034653E8002F02EB010043E80004A3
:1088400094F0000FF6D110BD10B5034653E8002F89
:10885000A2EB010043E8000494F0000FF6D110BD34
:108860000121FFF7A9BF0121FFF7B2BF0021FFF7E8
:10887000BBBF10B590B1D0E9012301689B1ADBB2F0
:108880000A60013BDBB2FF2B026802D100201071AD
:1088900010BD11684C1C14600B70F2E70E20F7E756
:1088A00037B5054600240DF107008DF80740FEF7A7
:1088B0005DFD2A686B68116899420ED9481E1060E8
:1088C00011F8014CEB68298A01FB0434AB6811797B
:1088D0001B1ADBB2994238BF13719DF80700FEF7EF
:1088E00069FD204603B030BD37B5054600230DF1C4
:1088F00007000C468DF80730FEF738FD2A6813682C
:10890000591C1160E968641A298AB4FBF1F41C70DF
:108910009DF80700FEF74EFD03B030BD826810B52C
:1089200004462AB143690168006998470023A3609F
:1089300010BD0EB403B5039921B104AB01AA019394
:1089400000F06EF802B05DF804EB03B07047826887
:1089500030B40468551C8560A154D0E901329A42B4
:1089600002D330BCFFF7DABF30BC70472DE9F84FB7
:108970009846DDE90A43154682460F460A464FF0FF
:108980000109AA420FD2C14538BFC14613F0010BFD
:1089900001D16CB900240126B8F1010F1BD908F1EF
:1089A000FF386E43F8E709F10109B2FBF5F2E8E799
:1089B0009B070ED5B8F1000F0CBF30262026A1452D
:1089C000E9D2013C31465046FFF7C1FF002CF6D1F9
:1089D000E0E72026F3E7B7FBF6F39D42E1D9DFF8A5
:1089E0003C80B7FBF6F3504618F8031006FB1377EC
:1089F000FFF7ADFF3346AB42B6FBF5F6F1D2BBF164
:108A0000000F02D00CB1A14501D3BDE8F88F2021A1
:108A10005046013CFFF79BFFF4E700BF7C250300B5
:108A20002DE9F74F054617468846002900F0428198
:108A300018F8011B49B92B7B002B00F03B8128461D
:108A400003B0BDE8F04FFFF769BF252940F0B780BC
:108A5000002698F800302D2B424608F1010823D05B
:108A6000302B24D02B2B25D000242A2B02F10101FE
:108A700023D13B681A1D1B683A601C440A461378D0
:108A80002E2B26D101324FF0000A104610F8011BA0
:108A9000A1F1300CBCF1090F1DD80A2303FB0A1306
:108AA000A3F1300A0246F0E746F00106D1E746F0AE
:108AB0000206CEE746F00406CBE711F8013CA3F12D
:108AC00030000928DBD80A2202FB0434303C0A4675
:108AD000CBE74FF0000A12F8011B01F0FB006828F9
:108AE0009046F8D0782909D86F290CD8632962D02C
:108AF00022D8252963D0582900F0888098F80030C2
:108B0000002B95D197E770390829F7D801A353F8BE
:108B100021F000BF8F8C0200FD8A0200FD8A020056
:108B20001D8C0200FD8A0200FB8B0200FD8A020000
:108B3000FD8A02000D8C0200642901D06929DDD173
:108B40003A68D2F80090111D89EAE9723960A2EB07
:108B5000E9724FF0010B092A35DCD34538BFD34603
:108B60002CB1B9F1000F01DB720700D5013CB3074E
:108B700002D5BAF1000F03D0F00701D44CBB00249A
:108B8000B9F1000F2DDAC9F100092D212846FFF7B0
:108B9000DEFE06F00302022A04D1BAF1000F01D171
:108BA0001CBB0024CDE9004653460A22494628460C
:108BB000FFF7DCFEA2E73B681A1D19783A602846E9
:108BC000FFF7C5FE9AE70A230BF1010BB2FBF3F2A4
:108BD000C1E7A345D4D220212846013CFFF7B7FEC8
:108BE000CCE77107D5D52B21D0E7A345DAD23021C8
:108BF0002846013CFFF7ABFED2E73968CDE90046D5
:108C00000A1D3A6053460A220968D0E739680A1DEE
:108C10003A60CDE9004653461022F5E73B681A1D3D
:108C20003A6016F00106D3F8009028D1B9F1000F90
:108C300003D0484609F0C8FA0646B44200D904BB3E
:108C400009F1FF3919F8011F00293FF457AF2846F1
:108C5000FFF77DFEF6E728460136FFF778FE19F8A4
:108C600006100029F7D1A642BFF448AF002C3FF40C
:108C700045AF20212846013CFFF769FEF3E70026B7
:108C8000EDE720212846013CFFF761FED5E73B6870
:108C90001A1D3A60302128461C68FFF758FE7821DB
:108CA0002846FFF754FE00220823CDE90032214672
:108CB00010227CE703B0BDE8F08F00BF13B50B4670
:108CC000114680B9104B1148114AC01A0E23C00832
:108CD0000093104B0004104940F00100FDF77FFEA7
:108CE0000E2002B010BD4BB9074B08480B4AC01A02
:108CF000C0080E2300930004064BECE703601B68DA
:108D000002B0BDE81040184794220300F42203008B
:108D10008C2503002227030091250300C0250300B2
:108D20002DE9F34188B93D4B3D483E4AC01AC00881
:108D30000E243D4B009400043C4940F00100FDF737
:108D40004EFE204602B0BDE8F0814AB9334B3448AC
:108D5000374AC01AC0080E24334B00940004EBE7D6
:108D6000D0F800E0BEF1000F09D12C4B2C48314A5D
:108D7000C01AC00808242C4B00940004DCE74BB94F
:108D8000264B27482C4AC01AC0080924264B0094B9
:108D90000004D1E74568D5F80480B3FBF8F508FB7B
:108DA00015354DB11D4B1E48244AC01AC008092470
:108DB0001D4B00940004BFE78D0709D0174B1848DE
:108DC0001F4AC01AC0081024174B00940004B3E7D0
:108DD00012F0030F09D0114B11481A4AC01AC008EB
:108DE0001024114B00940004A6E7C568A9420BD3D8
:108DF0004D1EEC180569AC4206D8DEF80C40A446BE
:108E000002B0BDE8F0416047044B05480E4AC01A65
:108E1000C0081024044B009400048DE79422030042
:108E2000F42203008C25030034270300912503005E
:108E30000E260300BA250300CD25030014260300E7
:108E40003E2603005626030079260300F7B580B9B5
:108E50002A4B2B482B4AC01AC0080E242A4B0094D8
:108E600000042A4940F00100FDF7B9FD204603B097
:108E7000F0BDD0F800C0BCF1000F09D11F4B204855
:108E8000234AC01AC00808241F4B00940004E8E7D6
:108E90004AB91A4B1A481F4AC01AC00809241A4B6B
:108EA00000940004DDE74768D7F800E00EF1FF37D3
:108EB0000F4209D0114B1248174AC01AC00810249B
:108EC000114B00940004CCE7C768B9420CD3046985
:108ED0004D1E0EFB0255A54206D8DCF81040A446F4
:108EE00003B0BDE8F0406047044B05480B4AC01A88
:108EF000C0081024044B00940004B2E7942203003D
:108F0000F42203008C25030047270300912503006A
:108F1000BA250300CD250300A0260300C6260300C2
:108F200029DF704728DF704770B503689E6886B0F8
:108F300004460D466EB114220021684609F0EFF890
:108F4000A3680593237901952BB1012B0DD06846B9
:108F5000B04706B070BD01238DF80030236902933D
:108F6000E368039363690493F1E702238DF800300B
:108F7000E3681B030293F5E708467047002070473B
:108F8000024B187A003818BF01207047F83B0020C8
:108F9000034B187A0122B0FA80F05A7440097047E6
:108FA000F83B002008B510461A4609F08FF800205B
:108FB00008BD000008B514220021044809F0AFF8EC
:108FC0000348FFF700FB002008BD00BFF83B00206E
:108FD000E83B002010B5094C094B43602046FFF7E1
:108FE0003FFC40B908F044F9064920741C230648A8
:108FF0008C22FFF7D5FA002010BD00BFF83B0020FF
:109000005C2703005C3B0020E83B002070B5244C4B
:10901000244E237A25463BB923492448FFF72FFBEA
:10902000306008B9606070BD022334682B72237908
:1090300073B1012B24D020460321FFF775FF0023D5
:109040002B726B6018491948BDE87040FFF742BBAE
:10905000D4E90523D21AB2F5805FD4E9031028BF02
:109060004FF480529208012A38BF01221944184453
:10907000FFF756FF50B11128DDD101232B72D2E743
:10908000D4E903031844FFF74DFFF3E72B7C002BD3
:10909000C9D10146BDE87040022000F009B800BF08
:1090A000F83B0020103C00200C3C0020E83B002056
:1090B00038B5831E012B45D8234C237A002B41D091
:1090C000022B09D1032830D0204B00221B68E2601C
:1090D0001A793AB1012A22D0637C7BBBBDE83840C3
:1090E000FFF794BFD3E905128D1AB5F5805F94BFE1
:1090F000521902F580529A619142EDD102284FF047
:10910000000308BF19462372104B18BF0D211868C1
:10911000FFF70AFF0E490F48FFF7DCFADCE71A6990
:1091200001321A615B699A42E7E7E3680133082B71
:1091300001D8E360D0E70023E360DFE7BDE8384013
:1091400008F086B838BD00BFF83B0020103C002076
:109150000C3C0020E83B002000F0FD03012B08D16F
:10916000044B00225A74421E504250411874FFF7BB
:109170004DBF7047F83B002010B5064C201DFFF78F
:109180006FFB28B9637C1BB9BDE81040FFF73EBFF9
:1091900010BD00BFF83B00202DE9F34180460D468D
:1091A0000F4801A916461F46FFF72FFA0446A8B13B
:1091B0001C22002108F0B3FF2D0B0123237101A90C
:1091C0000748C4F80080A760E5606661FFF747FACA
:1091D000FFF7D2FF002002B0BDE8F0810420FAE7DB
:1091E000E83B00202DE9F74381468846104801A955
:1091F00017461E46FFF709FA0446B0B11C220021AB
:1092000008F08DFF00250A9BA36001A9C4E903783B
:1092100007482571C4F800906661FFF720FAFFF750
:10922000ABFF284603B0BDE8F0830420FAE700BF97
:10923000E83B00202DE9F84FB0F806A04579D2F8B8
:1092400000B09DF828900AFB05F5043D88460BEB1D
:109250000301A94203F1040488BFA5EB030BB4FB8F
:10926000FAF607460AFB1644C2F800B04EB9AAEB5C
:1092700004055D4528BF5D46BBF1000F04D1BDE884
:10928000F88F3F68013EF1E7043408EB06003C44E8
:109290002A46B9F1000F0DD02146ABEB050B08F0C3
:1092A00015FFDA452E443F6855464FF0000428BFAD
:1092B0005D46E1E701462046EFE7FFF7DABAF8B589
:1092C00046790146721E0546002393422D6803D35A
:1092D0000024A64202D8F8BD0133F6E70F682846FD
:1092E000FFF702FB01343946F3E72DE9F843068A1C
:1092F000CD1C0746FFF7D4FA043E35440446B5FBBF
:10930000F6F5F0B14FF48073EDB28380C680013D75
:10931000076081464FF00008A84512D23846FFF793
:10932000BFFA064648B163790133637108F1010859
:10933000C9F8000007608146EEE72046FFF7BFFF4F
:1093400034462046BDE8F88301210430FFF770BAA7
:1093500010B5012104460430FFF776FA10F0FF0F34
:1093600004D12046BDE81040FFF7A9BF10BD1FB5CE
:1093700003920022009203AAFFF75CFF05B05DF89C
:1093800004FB1FB503920122009203AAFFF752FFCC
:1093900005B05DF804FB33DF704741DF7047000024
:1093A0000D4A08B5002313700C4A1360BFF35F8F9A
:1093B0000B490C4800F0B1F80B4A0C480121FDF7AD
:1093C000D9FE024630B9BDE8084009484FF40041D3
:1093D000FDF7DBBE08BD00BF403C0020443C002040
:1093E00098270300143C0020F59402009427030002
:1093F000203C002007B500230DF107008DF8073051
:10940000FDF7B4FFF1EE103A23F09F03E1EE103ABE
:10941000BFF35F8F094B4022C3F884219DF80700FA
:10942000FDF7C8FF07F024FF20B1FFF7B6FF03B038
:109430005DF804FB20BF40BF20BFF8E700E100E07B
:1094400070B5264D044601212846FFF7AAF9BFF35F
:109450005F8F2E4638B9042C0AD0214B1A781AB1E6
:10946000BFF35F8F286070BD1E4A147001221A700E
:109470001D4C1C4D6368BBB9FDF7EEFAFDF754F9BE
:109480000028FBD1174B1B78023B012B14D8BFF3EC
:109490004F8F1649164BCA6802F4E0621343CB6043
:1094A000BFF34F8F00BFFDE71B682878984788B14E
:1094B000204600F03CF8DDE707F0DAFE08B1FFF7E0
:1094C0006AFF4FF080430122C3F80025BFF34F8F9E
:1094D00020BFFDE7BFF35F8F3060C4E7443C00204E
:1094E000403C00201C3C0020143C002000ED00E02B
:1094F0000400FA05034B1B7813B10420FFF7A0BF4B
:10950000704700BF403C0020836800225A60C3E9D6
:1095100004229A60DA601A6070470B684A684360F8
:10952000934208BF0023016008BF4360704743684F
:1095300043B10268916852680B449342436004BF90
:1095400000234360704770B5446806460D462068A6
:1095500018B1B3682946984718B923682B6025606D
:1095600070BD2468F3E74368186808B102681A60A0
:1095700070474368186870474368186800B97047B7
:10958000884203D102681A600120704703460068D0
:10959000F4E7000010B50D49A1F59472914201D88D
:1095A00000200FE08C1AE30F03EBE4035B1002EBE7
:1095B000C30452F83330834205D802D204F10802C2
:1095C000ECE7606810BD2146E8E700BFA42C03006B
:1095D00008B5FFF7DFFF024B002808BF184608BD9B
:1095E000672B0300044A137FB3FA83F3C3F11F030D
:1095F000DBB25376704700BF483C0020F8B580B31B
:1096000079B3194C194F002323760378E37603F5D9
:10961000E0704FF0A0460125032205FA03F346F857
:109620002020C6F80835124861601249BA7001F06E
:1096300007F808B10320F8BDE37E05FA03F3C6F886
:109640000835394601F044F80028F3D10A48294684
:1096500001F006F90028EDD1084BC3F8000525708C
:10966000E9E70720E7E700BF483C00205032002030
:10967000A42C030041970200683C002000700040C9
:10968000054B01221A7602221A709A7E104300229C
:1096900098761A76704700BF483C0020044B9A7EAB
:1096A00022EA000098769A7E0AB901221A70704761
:1096B000483C002010B5FF20FFF7F0FF002401F028
:1096C000A1F9044820222146047008F028FD204614
:1096D00010BD00BF483C002008B515498B7E03F043
:1096E000FF001BB30B7F53B9124A0123C2F80035A8
:1096F0000A7ED2B90B768B7E0B77FFF773FF4B7E1A
:109700000D4A0133DBB2D3710A4A0020C2F81405B6
:10971000C2F81035CA7E012393404FF0A042C2F830
:109720000C35BDE8084001F0EFB8112008BD00BFBE
:10973000483C002000700040503200200000000033
:10974000F7B5274CE37E01254FF0A04705FA03F358
:1097500006462946C7F80835406801F081F8736865
:10976000B3F9000008F006FA1BA3D3E9002308F0C0
:1097700033F81C4B002208F02FF81B4B002208F096
:109780002BF81A4B002208F027F808F0DFF9E37EE7
:1097900005FA03F3C7F80835637E043380B224F872
:1097A0001300637E617EADF804008D40217F8DF84B
:1097B000063021EA0501217719B90D4B2176C3F84E
:1097C0000015636801A89847237F1BB1FFF70AFFC4
:1097D000FFF782FF03B0F0BD333333333333E33F5E
:1097E000483C002000408F40000008400000503FEF
:1097F00000700040014B187E704700BF483C0020BD
:1098000038B5074C051E04F1080318BF1C46236831
:109810002BB11A6822605B6828469847F7E738BD85
:10982000743C002020B9054B01225A70FFF7E8BFB5
:10983000012802D1014A9070F8E770476C3C002083
:1098400020B9034B01225A70FFF7DABF704700BFFF
:109850006C3C002038B50E4C2378B3B90D486360DA
:10986000A3602361E36000F073F8054607F000FD94
:1098700008B900F079F801232370074BD3F80034BE
:109880000BB10123A370284638BD8525F5E700BF3D
:109890006C3C0020259802000000014037B50D4CBB
:1098A00000230DF107008DF80730FDF75FFDE36839
:1098B000013BE360E36833B9074BD3F8005415B9B3
:1098C00000F064F8A5709DF80700FDF773FD03B084
:1098D00030BD00BF6C3C002000000140012813B5E2
:1098E0000CD0032820D038B9124B0122C3F88020B5
:1098F000BFF34F8FBFF36F8F02B010BD0E4C00232C
:109900000DF107008DF80730FDF730FD23780BB916
:10991000FFF7A0FFE3689DF807000133E360012330
:10992000A370FDF747FDE7E700F01EF8FFF7B6FF6D
:10993000E2E700BF00E100E06C3C002000F1804065
:10994000002382B0036003680193019B02B070475B
:10995000044A137923B90121106091801846704799
:1099600085207047803C0020074B1A68D20704D43A
:10997000C02283F8002301221A604FF080430122A5
:10998000C3F81825704700BF00E100E04FF08042A7
:1099900008B50223C2F808334FF48270FFF7CEFFF8
:1099A000034B01211960D2F81834DB03FBD408BD46
:1099B0000C000040124B1B6810B573B14FF480705F
:1099C000FFF7BCFF4FF080430122C3F808230D4B83
:1099D000587910B95A711B6898470B4B1B6873B1C3
:1099E0004FF48270FFF7AAFF4FF080430222C3F8C2
:1099F0000823044BBDE810401B680120184710BD28
:109A000000010040803C00200401004000F1804043
:109A100000F5C040002382B0036003680193019BFE
:109A200002B07047800000F1A040D0F8002722F477
:109A30004032C0F80027D0F8003743EA0141C0F8AF
:109A4000001770472DE9F74F00244E4D01944FF455
:109A50008072012102F1804303F5C04390B21B687C
:109A6000012B06D1D5F804330B4202D0FFF7CEFF0D
:109A70000C430432B2F5907F4FEA4101EAD1424BE8
:109A80001B68012B0CD14FF4BE70FFF7BFFF4FF0E6
:109A9000A04344F00044D3F820250192C3F82025C8
:109AA00014F0FF0F1AD0394F00250126344210D090
:109AB000AB0003F1804303F5C043D3F81005D3F89E
:109AC000101557F8253023B1C1F30141C0F304202C
:109AD00098470135082D4FEA4606E7D1002C48DAB1
:109AE0002A4D4FF0A0482A4E4FF00009012716F9E1
:109AF000013B5A1C31D0C3F3C20202A90A44DCB2B2
:109B000012F8042C03F03F0A03F0070307FA03F3EB
:109B10001A4222D00AF5E073504658F82330C3F3B6
:109B2000014BBBF1020F0CBF03210221FFF77AFFAB
:109B300007FA0AF3C8F8203505EB0A0393F9303029
:109B400055F823304BB1A109032904D0BBF1020F12
:109B500012D1012901D15046984709F10109B9F103
:109B6000040FC4D1D8F820350193C8F82035002B54
:109B7000B9D103B0BDE8F08FBBF1030FEDD10229DD
:109B8000E8E700BF006000407C610040883C0020A6
:109B9000D83C0020014B1B68184700BFE43C002064
:109BA0000E4B984237B50C4602D0002003B030BDB2
:109BB00000230DF107008DF80730FDF7D7FB084BA8
:109BC0001D7915B901221C601A719DF80700FDF777
:109BD000F1FB002DE9D01120E8E700BF0020004094
:109BE000E43C00200023435082B043580193019B82
:109BF00002B070478B6A4A6B9A4210B54FF001036E
:109C000005D2496A8A5CC0F81C251A4604E091F81E
:109C10002C201AB1C3610022104610BD0C6A6406E4
:109C200003D5C36181F82D30F6E74361EDE770B5E8
:109C3000D0F8046104460D4626B14FF48271FFF757
:109C4000D1FF012695F82F2022B34FF492712046C0
:109C5000FFF7C8FF4FF48E71FFF7C4FF4FF4847114
:109C6000FFF7C0FF002E67D095F82F20002385F85E
:109C70002D3082BBAB6A696B99421CBF1646052327
:109C800086F001061CBFC4F80025C4F8003585F82D
:109C90002F6021E0D4F824314BB14FF4927120466B
:109CA000FFF7A0FF0123636185F82F30DAE7D4F8CE
:109CB0001C319BB14FF48E712046FFF793FF6B6B05
:109CC00001336B63D4F82431002BE6D12946FFF72A
:109CD00091FF0028C6D10022104670BDD4F808318B
:109CE000002BBFD04FF484712046FFF77BFFD4F8E0
:109CF0002431002BD1D16B6BA96A8B42B2D2696A35
:109D0000D4F81805C8546B6BA96A0133481E834206
:109D10006B6308D1286A400610D40223C4F80032CD
:109D2000012323629EE78B42FAD12B6A5B0699D509
:109D3000022385F82D30CFE70122CDE78B42EFD10A
:109D4000F6E7000037B5344B01930D464FF48271AE
:109D50000446FFF747FF4FF49271FFF743FF4FF4BC
:109D60008E71FFF73FFF4FF48471FFF73BFF002335
:109D70006B6385F82F30AB6A012B17D12B6A5B061A
:109D800014D40223C4F800320123236295F82D2055
:109D9000022A18BF23602B6893B140F28623AB6080
:109DA000AB68C4F80433002003B030BD0123E9E7F9
:109DB00029462046FFF73BFF28B1019B013B019359
:109DC000019B002BF4DC95F82F0050B9019B002B70
:109DD000EADC0023C4F800350523C4F8003503206D
:109DE000E2E7D4F8C434C4F8C43493B113F0010FDB
:109DF00014BF4FF40240032048F2012213F0020F77
:109E000018BF104613F0040F48F2022318BF18467B
:109E1000DCE70320DAE700BFA086010037B5314B4D
:109E200001930D464FF482710446FFF7DBFE4FF4B9
:109E30009271FFF7D7FE4FF48E71FFF7D3FE4FF408
:109E40008471FFF7CFFE0023C0F800326B6385F802
:109E50002F300123036295F82D209A4218BF8360AA
:109E60002946FFF7C7FE2B6883B140F28623AB601B
:109E7000AB68C4F80433002003B030BD2946204647
:109E8000FFF7D5FE28B1019B013B0193019B002BFD
:109E9000F4DC95F82F0050B9019B002BECDC00237B
:109EA000C4F800350523C4F800350320E4E7D4F8EE
:109EB000C434C4F8C43493B113F0010F14BF4FF489
:109EC0000240032048F2012213F0020F18BF10468F
:109ED00013F0040F48F2022318BF1846DCE70320F2
:109EE000DAE700BFA0860100F0B5294C294887B009
:109EF0002146FFF79CFEA446D8B994F82F60276A44
:109F0000E6B9237B9A1E012A18D8616AA269914298
:109F100014D1E2696262C7F3401762691D48A26208
:109F2000032B84F82C7084F82D60214603D1FFF7B1
:109F300075FF07B0F0BDFFF705FFFAE7164D0FCD2F
:109F400001AC0FC42B682360F6B1124AD2F8C434B6
:109F5000C2F8C43498070ED501238DF800300023D1
:109F60008CF830307B0701D5002EE2D0DCE90031DF
:109F700068469847DDE7590701D50223EDE7DA0780
:109F80004CBF03230423E8E78DF80060E7E700BF38
:109F9000EC3C002000300040F83C00202DE9F84F58
:109FA0000779314E4FF03C0A0AFB07FA06EB0A0527
:109FB0009B4695F82E3080460C469146002B4FD19B
:109FC0002A490068FFF7ECFD00284BD12168637B2C
:109FD00085F8383001F5E0724FF0A043A860C5F86D
:109FE00004B085F8300085F82D0085F8310040F286
:109FF0000C6546F80A9043F82250626802F5E07C4E
:10A0000043F82C50D8F80030C3F80815C3F80C25D5
:10A01000A268C3F82425B9F1000F14D0227B43F3C2
:10A02000073152010029C3F30733D2B213DB104CBE
:10A03000651885F800230122490903F01F0302FA7D
:10A0400003F344F821303C2303FB0766012386F821
:10A050002E30BDE8F88F074903F00F03CA54F2E72A
:10A060000820F6E71120F4E7EC3C0020E99E02000E
:10A0700000E100E014ED00E0026803790521C2F878
:10A080000015044A3C2101FB0323022283F82E2001
:10A09000704700BFEC3C00202DE9F047324E90F8AD
:10A0A0000480D0F800903C2303FB08630C4693F82F
:10A0B0002D30012B174604D10B78012B06D1082037
:10A0C00011E0022B02D10B78012BF8D13C25274B54
:10A0D000C9F8083305FB086595F830302BB1AB683B
:10A0E000C9F804331120BDE8F08787F00403C3F3F7
:10A0F000800385F830302F62A646BEE80F0005F1D8
:10A100000C0CACE80F00DEF80030CCF800306368CF
:10A11000AB62E3686B626378C9F888352378C8EB73
:10A12000081A012B06EB8A0A19D0B3B9C7F34017F6
:10A130003C2303FB0863514683F82C704846FFF725
:10A140006DFE3C2303FB08F806EB080256F80830C6
:10A15000002BC8D182F83030C5E70127E8E7514627
:10A160004846FFF7EFFDECE7EC3C00208642040098
:10A1700010B586B00024CDE902349DF820308DF86A
:10A180000510A342CDE9042401A914BF20222246D0
:10A190008DF80440FFF780FF06B010BD10B586B003
:10A1A000012402930023CDE903328DF805101A46ED
:10A1B00001A98DF804400593FFF76EFF06B010BDAE
:10A1C0000023435082B043580193019B02B0704773
:10A1D00038B51D4602230B710B684A7104467BB1EA
:10A1E00012F0040F0CBF82219221100748BF41F0EA
:10A1F0002001D306236848BF21F08001C3F8001373
:10A2000020684FF48271FFF7DBFF206812F0800FA7
:10A2100005BF012343514019002038BD2DE9F04FFF
:10A22000484D077905EBC70385B01B7906460C46F8
:10A230004FEAC709002B40F0828045F837200139EA
:10A240006A4604F103084FF0010A4FF0A0404FF0B6
:10A25000030B11F801CFBCF1FF0F67D02CF0800386
:10A2600013600AFA03FE03F5E0731CF0800F14BFBD
:10A27000C0F808E5C0F80CE540F823B0414502F10C
:10A280000402E6D13068009BC0F86035019BC0F83D
:10A290006435029BC0F868350122039BC0F86C3519
:10A2A000C0F8002594F805C0A1792389C0F80CC531
:10A2B000C0F80415C0F808356389C0F810350023CC
:10A2C000C0F800324FF48E71C0F80033FFF778FF0A
:10A2D00030684FF48871FFF773FF30684FF48A716C
:10A2E000FFF76EFF30684FF48271FFF769FF55F892
:10A2F0003730A3B13368217943F30730490100288F
:10A30000C3F30733C9B215DB0F4C261886F80013C8
:10A31000400903F01F0302FA03F344F820304D44D0
:10A3200001232B71002005B0BDE8F08F4FF0FF3303
:10A330001360A3E7054A03F00F03D154EFE70820A9
:10A34000F1E700BF283D002000E100E014ED00E04F
:10A3500003681A0B43F30733002B10B504790CDBA9
:10A3600002F01F015B0901228A402033074941F8AE
:10A370002320BFF34F8FBFF36F8F03680022C3F812
:10A380000025034B03EBC4031A7110BD00E100E08C
:10A39000283D0020F0B50E461D461C49037904688F
:10A3A000D6F800E0B6F804C0B768C4F820E501EBC1
:10A3B000C301F368C4F824C5C4F82875C4F82C3563
:10A3C000C4F840E5C4F844C5C4F84875C4F84C3531
:10A3D00002F0010303EB5202C4F81425EA0712D479
:10A3E00015F0020203D0002B14BF08220422002B18
:10A3F000C4F8002218BF0C23EAB208BF0823BDE846
:10A40000F040FFF7E5BE1022F1E700BF283D002035
:10A410000379084A016802EBC3021379D1F80411E9
:10A42000DBB219B9981E18BF0120704701201071C6
:10A43000704700BF283D00202148D0F8103110B5EA
:10A440005BB14FF48871FFF7BBFE1E4B5A79510781
:10A4500003D51B680BB1012098471948D0F8143177
:10A460005BB14FF48A71FFF7ABFE164B5A791207B6
:10A4700003D51B680BB1022098471148D0F81C3156
:10A480005BB14FF48E71FFF79BFE0E4B587910F0C5
:10A49000100002D11B6803B198470948D0F8043175
:10A4A00063B14FF48271FFF78BFE064B01221A71E4
:10A4B0001B681BB1BDE810400320184710BD00BF4A
:10A4C00000C00140283D002000F1804000F5E04040
:10A4D000002382B0036003680193019B02B07047C0
:10A4E000F0B5504B504C1B6885B0002B3DD04FF45D
:10A4F000827094F82E20FFF7E7FF2AB394F82F30EC
:10A5000013BB4A4B1B68002B33D04FF48070FFF70E
:10A51000DBFF638B94F82D108B424FD922895B1A95
:10A520009BB292B26383D31A626802EB4303404A40
:10A53000C2F82C36C2F830164FF48270FFF7C4FF11
:10A540003C4B01221A6014E0636802932389ADF842
:10A550000C30E36800218DF8041023BB23742368BA
:10A5600001A89847002384F82F3094F82E30002B50
:10A57000C7D1314B1B685BB14FF48870FFF7A4FF64
:10A580000023237402238DF8043001A82368984720
:10A590002A4B1B68EBB14FF48A70FFF795FF00233D
:10A5A000237405B0F0BD208B608363602081E1607F
:10A5B000002AD4D11E4B01221A60D0E7BCD1E36837
:10A5C000012284F82F2013B100226283AFE7638356
:10A5D000B2E766694FF000470125002EE1D0B6FAD8
:10A5E00086F227FA02F34632920026EA030602F1C7
:10A5F000804303F5E0431B68002BEED01046FFF7C5
:10A6000063FFA2F58C72D30882F00402C2F38002C9
:10A610008DF808308DF8045023688DF8092001A8C2
:10A620009847DAE704710040303D00200071004097
:10A630000070004004700040107100401471004030
:10A6400038B5204A92F82C300446002B37D11160DF
:10A650001D490078C1F8F0056078C1F8F4050125BE
:10A66000137482F82D30536182F82F30E07882F82D
:10A670002E006FF0004382F82C504FF48270C1F826
:10A680000833FFF721FF4FF48070FFF71DFF4FF4F1
:10A690008A70FFF719FFA3780C485B01DBB280F8E2
:10A6A0000733802303600223C1F8043392F82E306D
:10A6B0000BB1C1F80453C1F80055002038BD082083
:10A6C000FCE700BF303D00200070004000E100E0EA
:10A6D00070B52A4B1A7C02F0FF05002A4BD10A798B
:10A6E000012A9CBF264CC4F8005500F10C0503EB71
:10A6F0004504247924B993F82D40013483F82D4082
:10A7000003EB4503CC790D7A8E781C715D714B7823
:10A7100036021B0106F4E06603F0300333430E7883
:10A7200006F003063343CE78360306F480563343EF
:10A73000160406F4E02633434E798979360506F48B
:10A7400080160906334301F080710B430C4901EB7D
:10A750000016000100F1804000F5E040012AC6F833
:10A760001835C0F81455C0F8104502D80123C1F8B7
:10A770000035002000E0112070BD00BF303D0020FA
:10A780000070004070B5344A147C04F0FF03002CC4
:10A790005FD1324C012503261574C4F80863C4F850
:10A7A0002C16C4F8305692F82D10A9420CD91C462C
:10A7B000190101F1804101F5E0410133082BC1F895
:10A7C0001445C1F81045F3D100F10C03000102EB70
:10A7D000430300F1804000F5E04019795B79C0F84F
:10A7E0001435C0F810151D4901230B604B6042F26F
:10A7F000107301F58271086808B9013BFBD14FF471
:10A800008070FFF761FE4FF48270FFF75DFE92F8F3
:10A810002D30012B11D9104800210B0103F1804389
:10A8200003F5E0430131047F457FC3F8145508293F
:10A83000C3F8104500F10200EFD192F82E10074B3B
:10A8400029B103210020C3F80413107470BD022144
:10A85000F8E71120FAE700BF303D0020007000400B
:10A8600070B5264A264B05461220C2F808031C7C08
:10A87000022C03D1C2F80403112070BD187C0128FA
:10A880001DD1D86818B10223C2F80433F4E7DD60A3
:10A89000198393F82E3063B91A4A1368002BFCD041
:10A8A0004FF48070FFF710FE144BC3F82C56C3F81A
:10A8B0003016124B0222C3F804230020DDE70220E9
:10A8C00093F82E40C2F80403012600201E745D6038
:10A8D0001981D8603CB1598393F82D30C2F82C56B9
:10A8E000C2F83036C9E7C2F82C564FF48070C2F86F
:10A8F0003016FFF7E9FD20461660BEE70070004005
:10A90000303D002000710040084A117C0129CBB283
:10A9100009D192F82E0018B1054A00201360704743
:10A92000044A136070470820704700BF303D002084
:10A930000070004004700040F0B51B4F8BB207EB75
:10A94000001443EA0243C4F81C35184B40005C690C
:10A9500000F1010C4FF0004611F5006F26FA0CF6DD
:10A960004FF0800505FA00F50BBFB44334435C613A
:10A970005C610CBFC7F80853C7F8045340244FF07C
:10A9800000455969844025FA00F040F2FF75AA425B
:10A99000054A0BBF81430143596159610CBFC2F89D
:10A9A0000843C2F80443F0BD00700040303D002071
:10A9B00010B5124B1A7CF2B900F10C0103EB410205
:10A9C000127922B193F82D20013A83F82D2003EB60
:10A9D000410300249C80030103F1804303F5E0431D
:10A9E0000749C3F8144540F2FF72C3F81045FFF75A
:10A9F000A3FF204610BD1120FCE700BF303D002022
:10AA000000F8FFFF38B5154B6FF00042C3F808237C
:10AA1000134A8021C2F88010BFF34F8FBFF36F8FAE
:10AA2000104A01211160104942F21072086808B9F9
:10AA3000013AFBD10D4D0024C3F800452C7405EB01
:10AA400044031B7F13B1E0B2FFF7B2FF0134082CBF
:10AA5000F5D1002385F82C3038BD00BF00700040D0
:10AA600000E100E00870004014710040303D00201B
:10AA70000720704708B5012202210020FFF7F8FFE8
:10AA800008B1072810D1072202210120FFF7F0FFAB
:10AA900008B1072808D100210A220846FFF7E8FF7D
:10AAA00010B1072808BF002008BD00000388102B44
:10AAB00010B502D0112B1ED010BD1A4C2168B1B9AF
:10AAC00001220846FFF7D4FF08B1072824D1072246
:10AAD00002210120FFF7CCFF08B107281CD1042276
:10AAE00002210020FFF7C4FF08B1072814D1236812
:10AAF00001332360E0E70B4A1368013B1360002B2E
:10AB0000DAD1FFF7B7FF0028D6D0074B1B68002B20
:10AB1000D2D0BDE810401847034B1B68002BE6D08D
:10AB20009847E4E7643D0020603D00203FDF704728
:10AB300076DF70477ADF70477CDF70478FDF7047C2
:10AB4000FCF724BA03883B2B13B5044608D005D87C
:10AB5000102B0AD0212B19D002B010BD562BFBD1DF
:10AB6000A0881321FFF7E4FF0BE0022001F08CF92D
:10AB700008B1FCF70BFA094BA1880948198003F0CA
:10AB800001FF0028E8D0FCF701FAE5E7002301A95E
:10AB90008088ADF80430FFF7D1FFF2E75E32002085
:10ABA0008851002010B5044605F0B6F92046BDE8EE
:10ABB000104004F093BF000010B51F4B1F4A9B1AB2
:10ABC000DB088CB01B04032834D8DFE800F0022730
:10ABD0002D3143F003041A492046FBF7E9FE2C22ED
:10ABE000002101A807F09BFA40F6B8324FF49671A5
:10ABF000CDE90512012313488DF8083001A98DF81D
:10AC0000043002F0E2FA00210F4802F07BFD0F4908
:10AC100002462046FBF7D0FE0CB010BD0C4943F0B5
:10AC20000300FBF7C5FEF7E70A4943F00100F8E728
:10AC30000949FAE70949F8E7D422030094220300FE
:10AC4000D82C0300404D002061AC0200062D03000B
:10AC50001D2D0300402D0300792D0300A62D0300B8
:10AC600013B513210190FFF763FF019A034660B10A
:10AC70000748084C0849241AE408240444F0020058
:10AC800002B0BDE81040FBF7A0BE02B010BD00BF8F
:10AC900094220300D4220300CD2D0300022807B51F
:10ACA0000ED1094B09480A49C01AC008000440F0F7
:10ACB00003000190FBF77CFE06490198FBF778FE44
:10ACC000012003B05DF804FB94220300D4220300AA
:10ACD0000E2E03003B2E0300032807D14FF08043C4
:10ACE000A922C3F820250020FEF7AABB7047000068
:10ACF00008B503784BB9054B3B211888FFF718FFBF
:10AD000018B1BDE80840FCF741B908BD5E3200202B
:10AD100008B560B103280FD1012001F0B5F8074B49
:10AD200001221A7040B1BDE80840FCF72FB9034A70
:10AD3000107001F0A9F8F5E708BD00BF743D0020D0
:10AD400008B50B78072B0BD8DFE803F00B0D0F11BC
:10AD5000181307040E4B012201E00D4B00221A705C
:10AD600008BD0C4BF7E70B4BF8E70B4BF3E70A4B2F
:10AD7000F4E71378022BF3D1084BECE701F068FB02
:10AD800008B1FCF703F9BDE8084001F0F1B900BFD4
:10AD9000CD510020CE510020CF510020CC510020B9
:10ADA000FCF7F4B82DE9F04F4FF40041AFB00020AC
:10ADB000FBF76AFC08B1FCF7E9F8FBF7A5FB00F02C
:10ADC000F9FF0120FFF7B2FEFEF7EAFA08B1FCF73F
:10ADD000DDF806F0CFF908B1FCF7D8F8002303A995
:10ADE0000120039306F094FA08B1FCF7CFF803A80A
:10ADF00006F060FB08B1FCF7C9F804F093FB08B15A
:10AE0000FCF7C4F80522002103A807F088F9039B8A
:10AE100003F07C42A64B134303939DF8103023F0BC
:10AE2000030343F0030303A88DF8103004F014FC6F
:10AE300008B1FCF7ABF89F4804F0F6FB08B1FCF74B
:10AE4000A5F811239C488DF8083007F0BDF99A4900
:10AE500082B202A8FFF770FE08B1FCF797F8002154
:10AE6000082203A807F05BF994494FF0C87303A8C0
:10AE7000CDE90313FFF75EFE08B1FCF787F89048B1
:10AE8000002103F073FC08B1FCF780F80023029363
:10AE90008C488D4B019301A903F062FD08B1FCF7CA
:10AEA00075F88A4B029302A805F0F2FF08B1FCF78F
:10AEB0006DF80021142203A807F031F9844B0393A5
:10AEC00041F21113ADF812308248112303A98DF815
:10AED00015308DF81630ADF818308DF81B308DF820
:10AEE0001C30ADF81E3000F04FFA08B1FCF74EF8F8
:10AEF000AC22002103A807F012F902238DF80C30D0
:10AF000040F20163ADF80E300124734B17932C22ED
:10AF1000002121A8ADF8584007F001F940F6B833F8
:10AF20004FF49672CDE925236C486D4B8DF888401F
:10AF300003A92C9301F089FF08B1FCF727F86748B3
:10AF4000012101F07FFF1C22002103A807F0E7F890
:10AF500000234FF42032CDE90332ADF81A304FF41C
:10AF600070228DF81C305F4B0592089303225E4BD4
:10AF70008DF8182003A8099302F032FA08B1FCF703
:10AF800005F85A4B5A4C5B49E41AE408240444F08F
:10AF900003042046FBF70CFD5048032101F0D4FFC9
:10AFA00008B1FBF7F3FF544E544FB0463578002DEF
:10AFB00040F0BE803B7883B1284600F0CFFE2846A3
:10AFC00000F0DAFF33784E493B702046FBF7F0FC87
:10AFD000022001F077F801F05DF84A4B1B7813B1BD
:10AFE000012388F80030DFF83C9199F800301BB954
:10AFF000454A1278002A4FD0444A1278002A00F0BD
:10B000006581434A1278002A00F06081DFF818B1A8
:10B01000404D83B1404B4149DB681222B3FBF2F350
:10B02000CBF80030384B00200122286089F800005E
:10B030001A7001F0E7F9DFF8F4A0DBF80030BAF895
:10B040000000984200F239812B68B3F57C6F08D379
:10B0500000232B603149E023B0FBF3F0C0B201F0D4
:10B06000D1F92A682D4903A811441223013B11F894
:10B0700001CB00F801CB13F0FF03F7D1BAF8003091
:10B0800014481232013303A92A60AAF8003000F0F4
:10B0900019FC08B1FBF77AFF214B1B780BB101F0CB
:10B0A00003FBFBF741FB002880D1FEF7A3F97DE706
:10B0B00031071003A5AB02006A2E03001000200028
:10B0C000745100208851002041AB0200B9AB02004E
:10B0D00041AD0200945100205A320020404D002022
:10B0E00011AD0200F1AC0200A1AD020094220300F8
:10B0F000D4220300702E0300683D00205932002046
:10B100008B2E03007C5200207C3D0020CD5100207E
:10B11000CF5100206C3D0020506200207D3D00207A
:10B120004C620020CC510020C85100206A3D002014
:10B13000012D7FF458AF3B78012B17D0802000F011
:10B140000DFE01F049F8284600F016FF33786249F9
:10B150003B702046FBF72CFC604B1B7833B96048F2
:10B16000032101F0F1FE08B1FBF710FF00F02CFF06
:10B170005C4BDFF89C911B78C9F80000014663B96D
:10B18000594B186800F034FF47F23053984204D905
:10B19000564B1B780BB988F80030554DD9F8001084
:10B1A000286800F025FF4EF66023984222D900F06F
:10B1B0000BFF2860022000F0DFFE01F081F801F0B3
:10B1C0007DFA01F099FA054601464A4800F0C8FBAD
:10B1D00008B1FBF7DBFE01F08DFA01F057F8012012
:10B1E00000F0CAFE0A2D05D8032000F04DFE08B17C
:10B1F000FBF7CCFE404B1A78002A3FF4F4AE002255
:10B200001A7000F053FF98B900253C4B18783C4B5E
:10B210005A78AA4202D31A78AA4249D900287FF460
:10B22000E2AE9B7A002B3FF4DEAE00F04BFFDAE695
:10B23000344BD9F80010186800F0DAFEB0F57A7FC8
:10B24000E2D900F0F9FB00F04BFD2F4BDFF8C4A072
:10B250001B7805466BB12D4B1B7853B19AF8003023
:10B26000834206D00146234800F0F4FA08B1FBF708
:10B270008DFEDFF8A4B0D9F80010DBF8000000F074
:10B28000B7FEB0F57A7F10D9284601F031F9814632
:10B2900000F09AFECBF80000B9F1000F05D0154878
:10B2A00000F045FB08B1FBF771FE8AF80050ACE7EF
:10B2B00000283FF498AE0220B7E70C4A002389F833
:10B2C00000301370AAF800302B60E5E6074A00232F
:10B2D00089F800301370DFE69E2E0300743D0020D5
:10B2E000404D00207C520020785200207C3D002000
:10B2F000783D00209451002040520020425200200E
:10B300005062002068520020CD510020CE51002014
:10B31000703D0020753D002048620020A8DF704786
:10B32000AADF7047ACDF7047AEDF704762DF70475F
:10B33000144B1A7802705A784270DA798270DA887F
:10B34000C2705A68120A02715A6842711A89120A46
:10B3500082711A89C2719A7A0272DA7A4272DA7B3F
:10B360008272DA89C272DA68120A0273DA68427388
:10B37000DA7C82735A8AC2731A69120A02741B69D0
:10B3800043747047506200202DE9F04F0D469BB08A
:10B390000446002800F0C681002900F0C3810B6834
:10B3A00003604FF6FF73C385DD4B05AA03F1100C54
:10B3B000174618685968164603C60833634532466F
:10B3C000F7D1384604F13001FFF7B0FF07460028F7
:10B3D00040F0A18194F830308DF80E30221D4FF4EA
:10B3E000C05303A90120ADF80C30FFF797FF0746C3
:10B3F000002840F090810DF1240901AE4846FFF786
:10B4000097FF39460322304606F089FE9DF8063044
:10B410004FF0010868F3420339461C2241F2111A29
:10B4200013A88DF80630ADF804A006F078FE9DF85C
:10B430004C30149723F01A0343F00A0339460322D1
:10B4400002A8CDE91867CDE916778DF84C3006F0E3
:10B4500066FEEB7B8DF808302B7C8DF809309DF86B
:10B460000A3023F01F0343F002038DF80A3094F8EA
:10B4700030308DF81230394641F6010314220EA8FF
:10B48000ADF8103006F04BFE02AB0F934FF0120BED
:10B49000A088CDF840B004AEA31D0EAA13A90E9645
:10B4A000ADF844B0CDF84890FFF73AFF07460028C2
:10B4B00040F031810146032202A806F030FE9DF8DB
:10B4C0000A30ADF808A068F3420339461C2213A8DD
:10B4D0008DF80A3006F023FE9DF84C30149723F0C7
:10B4E0001A0343F00A0339468DF84C30032202ABAD
:10B4F0003046CDE91837CDE9167706F010FEEB7B24
:10B500008DF810302B7C8DF811309DF8123023F01F
:10B510001F0343F002038DF8123094F830308DF899
:10B520002630394641F6020314220EA8ADF8243025
:10B5300006F0F5FDA088CDF8408004F10E030EAAB8
:10B5400013A9CDE90E96ADF84480FFF7E9FE074652
:10B55000002840F0E0800146032202A806F0DFFD4B
:10B560009DF80A30ADF808A068F3420339461C2262
:10B5700013A88DF80A3006F0D2FD9DF84C301497D0
:10B5800023F01A0343EA0B0339468DF84C300322AB
:10B5900002AB3046CDE91837CDE9167706F0BFFD8E
:10B5A000EB7B8DF810302B7C8DF811309DF812302C
:10B5B00023F01F0343F002038DF8123094F830306B
:10B5C0008DF82630394641F6030314220EA8ADF853
:10B5D000243006F0A4FDA088CDF840B004F1160395
:10B5E0000EAA13A9CDE90E96ADF844B0FFF798FE68
:10B5F0000746002840F08F800146032202A806F08B
:10B600008EFD9DF80A30ADF808A068F34203394674
:10B610001C2213A88DF80A3006F081FD9DF84C30ED
:10B62000149723F01A0343EA0B0339468DF84C3084
:10B63000032202AB3046CDE91837CDE9167706F084
:10B640006EFDEB7B8DF810302B7C8DF811309DF862
:10B65000123023F01F0343F002038DF8123094F8E8
:10B6600030308DF82630394641F6040314220EA8F6
:10B67000ADF8243006F053FDA088CDF8408004F1E9
:10B680001E030EAA13A9CDE90E96ADF84480FFF76C
:10B6900047FE074600283ED101461C2213A806F0AB
:10B6A0003EFD9DF84C30149723F01A0343F002033B
:10B6B000394603223046CDE91677CDE918778DF863
:10B6C0004C3006F02CFDAB7C8DF81030EB7C8DF807
:10B6D00011309DF8123023F01F0343F002038DF860
:10B6E000123094F830308DF82630394641F6050393
:10B6F00014220EA8ADF8243006F011FDA088CDF874
:10B70000408004F126030EAA13A9CDE90E96ADF8E8
:10B710004480FFF705FE38461BB0BDE8F08F00BF40
:10B72000AE2E03000E27F6E737B504460D4689B165
:10B7300080B10388112B0FD0502B12D0102B09D1C0
:10B740008388CB8507238DF804302B68002201A95C
:10B750002846984703B030BD4FF6FF73CB850623CC
:10B76000F1E7C288CB889A423AD1394A837C137078
:10B77000C37C5370437D017D1B0403EB0163817D1A
:10B7800003EB0123C17D0B445360017E437E03EB39
:10B7900001231381837E9372C37ED372437F017F23
:10B7A0001B0403EB0163817F03EB0123C17F0B4487
:10B7B000D36090F8213090F820101B0403EB016354
:10B7C00090F8221003EB012390F823100B4413612F
:10B7D00004238DF8043000222B6801A928469847DD
:10B7E000E288EB899A4208D105238DF8043004F1F0
:10B7F00012022B6801A928469847E2886B8B9A426F
:10B8000013D1238A022B10D12B6873B104F11200DB
:10B8100001F0B3FF002814BF022303238DF8043086
:10B8200000222B6801A928469847E2886B8C9A422F
:10B8300090D1238A022B8DD12B68002B8AD004F162
:10B84000120001F09AFF80F001008DF804007CE7FF
:10B850005062002070B588B004468DF8071068B3B8
:10B8600002AD08220021284606F059FC01260DF100
:10B870000703E18BE08D02962A460393FFF752FD02
:10B88000D0B9E28D4FF6FF739A4219D010220146CB
:10B890000DEB020006F043FCE38BADF81030BDF871
:10B8A0000A30ADF81430E08D039B8DF8126004A9C6
:10B8B00006950793FFF738FD08B070BD0E20FBE733
:10B8C0000820F9E730B50D4687B0044658B3082282
:10B8D0000021684606F023FC1223E18AE08D6A46C7
:10B8E000CDE90035FFF71EFDD8B9E28D4FF6FF73A5
:10B8F0009A421AD00146102202A806F010FCE38AF0
:10B90000ADF8083001238DF80A30BDF80230ADF8EB
:10B910000C30E08D019BCDF810D002A90593FFF704
:10B9200003FD07B030BD0E20FBE70820F9E730B576
:10B93000044689B090B103AD2846FFF7F9FC082210
:10B94000002101A806F0EBFB1223E188E08D01AA9B
:10B95000CDE90135FFF7E6FC09B030BD0E20FBE76D
:10B960001FB504468DF8071088B1082200210DEBA1
:10B97000020006F0D4FB01230293E18CE08D0DF16F
:10B98000070302AA0393FFF7CDFC04B010BD0E20FD
:10B99000FBE7000007B50B46002102460091034873
:10B9A0000F21FEF7E5FB03B05DF804FBD82E030082
:10B9B00030B587B002780292427803924FF0CC7291
:10B9C0000023049202220446ADF814201648009386
:10B9D0001A4602A98DF80430FEF7E0FA08B1FBF729
:10B9E000D5FA1148FEF748FB104B226801251D705F
:10B9F0000F4B02211A6068461B23ADF80030FFF799
:10BA0000C9FF78B9E378A278134363F07F0302217A
:10BA100068468DF80130FFF7BDFFA378402B04BFC7
:10BA2000044B1D7007B030BDD82E0300D551002047
:10BA3000D1510020D05100202DE9F0412DED048B93
:10BA400084B006238DF8043000230293ADF80C3047
:10BA50008DF80E30944B1B7883B9944B94489549DC
:10BA6000C01AC008000440F00300FAF7A1FF9FEDE0
:10BA7000920A04B0BDEC048BBDE8F081012101A85D
:10BA8000FFF788FF08B1FBF781FA8C48062302AA6A
:10BA90000F21FEF783FB08B1FBF778FA884B9DF87E
:10BAA00009001B789DF80B409DF80D60002B00F0FD
:10BAB000A2809DF808109DF80A209DF80C3041EAFC
:10BAC000002005B242EA0422002D14B2B8BF404261
:10BAD00043EA0623B4BFC0F30B100009002C1EB2CA
