:020000022000DC
:1060000000000120756302005D6302005F6302000F
:106010006163020063630200656302000000000028
:1060200000000000000000000000000067630200A4
:1060300069630200000000006B6302006D630200F0
:10604000758802006F630200558A0200A98D020064
:106050006F6302006F63020005890200A1930200D2
:106060006F6302006F6302006F6302006F630200E0
:106070006F6302006F6302006F6302006F630200D0
:106080006F630200256D02006F6302006F63020000
:106090006F6302006F63020019F302006F63020076
:1060A0006F6302006F6302006F6302006F630200A0
:1060B000F99202006F63020000000000000000007F
:1060C0006F6302006F6302006F6302006F63020080
:1060D0006F6302006F6302006F6302000000000044
:1060E00000000000000000000000000000000000B0
:1060F00000000000000000000000000000000000A0
:10610000000000000000000000000000000000008F
:10611000000000000000000000000000000000007F
:10612000000000000000000000000000000000006F
:10613000000000000000000000000000000000005F
:10614000000000000000000000000000000000004F
:10615000000000000000000000000000000000003F
:10616000000000000000000000000000000000002F
:10617000000000000000000000000000000000001F
:10618000000000000000000000000000000000000F
:1061900000000000000000000000000000000000FF
:1061A00000000000000000000000000000000000EF
:1061B00000000000000000000000000000000000DF
:1061C00000000000000000000000000000000000CF
:1061D00000000000000000000000000000000000BF
:1061E00000000000000000000000000000000000AF
:1061F000000000000000000000000000000000009F
:10620000354936480A1A02D0072291438D4634494F
:1062100034480A1A06D00722914381F309880222E2
:1062200082F3148830483149314A00F044F831484B
:106230003149324A00F03FF831483249324A00F0E1
:106240003AF832483249334A00F035F83248334997
:10625000334A00F030F833483349344A00F02BF821
:1062600033483449344A00F026F83448344900228F
:1062700000F02CF833483449002200F027F8334866
:106280003349091A082902DB002202604160314AC1
:1062900090471F481F49884205D00268043003B464
:1062A000904703BCF7E700208646EC46002000211B
:1062B000294A9047FEE7884207D0521A05D0037852
:1062C00001300B700131013AF9D17047884202D098
:1062D00002700130FAE770470000012000E0002062
:1062E0000000012000000120580203003C32002081
:1062F000A2320020D0630200D06302004A000300F3
:10630000580203003C3200203C320020FC00030015
:10631000FC000300FC000300FC000300FC00030081
:10632000FC000300FC000300FC0003005802030013
:10633000C0020300A4320020A4320020A4320020B6
:10634000C4600020C4600020C4600020C46000203D
:10635000C48000209D630200919B0200FEE7FEE7DF
:10636000FEE7FEE7FEE7FEE7FEE7FEE7FEE7FEE705
:1063700000F002B8FFF7FCBF0F484FF00701884359
:1063800085460E4880470E48016841F4700101605F
:10639000BFF34F8FBFF36F8FFFF732BF09480A4932
:1063A0000A4A884207D0521A05D0037801300B7090
:1063B0000131013AF9D17047000001203D6402002B
:1063C00088ED00E0E8000300283200203C32002085
:1063D0000B4B1B685A1C05BF0A4B0B4A0B4A106833
:1063E0000ABF1B781068C0F30310062B05D10338D1
:1063F00003288CBF0020012070470020704700BF99
:1064000030010010E00F00F0E80F00F03401001040
:10641000074B1B78062B09D1064B1B68C3F30313EC
:10642000033B032B02D8044AD05C7047002070471E
:10643000E00F00F0E80F00F00401030008B5FFF7DB
:10644000C7FF28B17E4B7F4A1B68C3F30423136048
:10645000FFF7DEFF10B17C4B7C4A1A60FFF7B8FFF4
:1064600028B17B4B7B4A1B68C3F342331360FFF7B1
:10647000CFFF20B1784AD36823F08073D360FFF751
:10648000A7FF40B14FF080430022C3F80C21C3F8AE
:106490001021C3F83825FFF7BBFF10B16F4B032263
:1064A0001A60FFF7B5FF40B16D4B05221A6001225B
:1064B0009A6700229A603F225A606A4B1A68511C00
:1064C0000BBF694B694B1A781B6802BF08331B6806
:1064D000C3F30313062A4DD1033B032B4AD8644A66
:1064E000D35C002B46D04FF08052624BD2F804149C
:1064F000C3F82015D2F80814C3F82415D2F80C14E8
:10650000C3F82815D2F81014C3F82C15D2F81414B7
:10651000C3F83015D2F81814C3F83415D2F81C1487
:10652000C3F84015D2F82014C3F84415D2F8241447
:10653000C3F84815D2F82814C3F84C15D2F82C1417
:10654000C3F85015D2F83014C3F85415D2F83414E7
:10655000C3F86015D2F83814C3F86415D2F83C14A7
:10656000C3F86815D2F84014C3F86C15D2F8442467
:10657000C3F87025FFF72CFF28B13F4B3F4A1B683B
:1065800003F04F031360FFF723FF48B14FF0804340
:10659000D3F80024D20744BF6FF00102C3F80024EF
:1065A000304B1B68062B0CD1304B1B68033B032B75
:1065B00007D8334AD35C23B1324A136843F480636B
:1065C0001360314AD2F8883043F47003C2F888303F
:1065D000BFF34F8FBFF36F8F4FF01023D3F80C3200
:1065E000DB0729D5294B0122C3F80425D3F8002461
:1065F000002AFBD04FF01022D2F80C3223F0010316
:10660000C2F80C32214B1A46D3F800140029FBD0F3
:106610000021C3F80415D2F80034002BFBD0BFF3DF
:106620004F8F19491A4BCA6802F4E0621343CB60DA
:10663000BFF34F8F00BFFDE7164B174A1A6008BD26
:10664000240300104035014074C007400DF0ADBA7E
:10665000440200103C050040F0ED00E0A0050040C1
:106660001056004030010010E00F00F0340100101F
:10667000FC00030000C0004058020010E40E00407F
:10668000000103003C17004000ED00E000E0014085
:106690000400FA053C3200200090D0031FB5002111
:1066A000039001AA44F20100CDE9011100F004F8C1
:1066B00005B05DF804FB000072B6094B1B68DB07F0
:1066C00000D500BEBFF34F8F0649074BCA6802F4DE
:1066D000E0621343CB60BFF34F8F00BFFDE700BF05
:1066E000F0ED00E000ED00E00400FA05D0E902233F
:1066F000D1E90201994208BF90422CBF012000203D
:106700007047000008B50B4800F0F5FA0A4B0B493A
:10671000D3E900231218D1E9000143F100038B42B1
:1067200008BF824203D212F1807243F10003104687
:10673000194608BD40320020A83200202033002036
:1067400037B505460C460A4801A901F0B0FA60B118
:106750000570446001A9064801F0D3FA18B1054854
:1067600000F0CEFA002003B030BD0420FBE700BFEC
:106770000C3300204032002038B5184B1B780446FB
:1067800013B90025284638BD0028FAD0037F03F04E
:10679000FF05002BF5D0FFF7B5FFD4E9022399429E
:1067A00008BF904214D3236903B92377D4E9053095
:1067B000984721690029E4D0237F03F0FF05002BCF
:1067C000DFD0D4E90223521843F10003C4E90223C5
:1067D0000348214601F040FED4E700BFB03200205C
:1067E0000801030013B50023ADF8043006238DF82B
:1067F00006300F490F480823582201F023FA0446B7
:1068000098B90D4A0D4801A900F07EF9044660B917
:106810000A48012100F052FA0123094A07481946A3
:1068200000F0B4F9074B01221A70204602B010BDE7
:10683000B43200200C330020A9680200403200204E
:10684000FFFF7F00B03200203AB103685A614A1E50
:10685000514251411961002070470720704738B5F7
:10686000037F04460D4683B98261FFF74BFF23691E
:10687000401941F10001C4E9020103B1256121463B
:106880000020BDE83840FFF75BBF002038BD002383
:10689000014603770120FFF753BF0000014800F0D5
:1068A0002ABA00BF403200202DE9F04F85B0804663
:1068B00000F00CFA40B15A4AD2E9003113F180736A
:1068C00041F10001C2E900310021404600F00DFA1B
:1068D00038B1544E336823B13068FFF74DFF0023C1
:1068E00033600121404600F000FA20B1FFF70AFFB3
:1068F0004D4BC3E900014D484A4F4D4EDFF83891EA
:1069000003A901F00EFA002845D1DFF82491454E85
:10691000DFF828A1484601F0B5FD3368002875D09E
:106920007BB13368D0E90201D3E90223994208BF61
:1069300090422DD233681B7F1BB13168484601F06D
:106940008BFD484601F098FDD0E902B3074601935C
:10695000FFF7D8FE019BBBEB000463EB0105012CA4
:1069600075F1000345DBB4F5D40F40D3FFF796FF74
:10697000304A02444FF416030021504600F026F935
:1069800000283ED1336813B9404600F0F7F837606D
:1069900005B0BDE8F08F0378012B1DD0022B09D183
:1069A0004FF0000A304601F067FD002834D080F82F
:1069B0001CA0F7E73BB941680B7F23B901230B7794
:1069C000304601F049FD03A9184801F0D5F903A9A3
:1069D000164801F0A6F996E741683B68994202D152
:1069E00000233B60EFE7304601F04FFDEBE7BA686C
:1069F000C0E70021504600F06EF93846FFF7BCFEB4
:106A000001E00D28F9D00023336083E7002BBFD1CC
:106A1000404600F0B7F8BBE7012389F80030D2E721
:106A2000A832002028330020203300200C3300201F
:106A300008010300FFFF6900B0320020403200204F
:106A400070B5EFF3108672B60C4A946801239CB9B6
:106A500093600B4B0B4DD3F8801029401160C3F8A5
:106A60008050D3F8841051604FF0FF32C3F8842077
:106A7000047006B962B670BD0370FAE72C330020CB
:106A800000E100E0FC06FFBD084B9A6810B55AB162
:106A900050B9EFF3108172B6054A1C6814605C6847
:106AA0005460986001B962B610BD00BF2C3300205D
:106AB00000E100E010B5044622B1108821448C4268
:106AC00003D110BD4FF6FF70F8E743BA14F8010B7D
:106AD0009BB24340C3F30312534083EA03335A018A
:106AE00002F4FF529BB283EA0200E8E7435882B007
:106AF0003BB10023435043580193019B012002B056
:106B000070471846FBE7000070B5184C437944F80D
:106B10002320174C04EBC3031B792BBB03680A88A3
:106B2000C3F8082590F904508B7802795B01002D99
:106B3000DBB214DB0F494E1986F8003301236D09CF
:106B400002F01F0203FA02F241F82520437904EB18
:106B5000C302012144F833001171002070BD0649C1
:106B600002F00F028B54F1E70820F7E740330020D2
:106B70003833002000E100E014ED00E0036801225A
:106B80001A607047036801225A60704773B501F1BB
:106B90005005AD000068ADB24FF480348C40002643
:106BA000C0F80843C0F84843465101F5A87145595B
:106BB000019522F07F42019D40F82120C0F8444316
:106BC0000BB1C0F8044302B070BD00002DE9F74FCF
:106BD0000D4622F07F4402684FF4803705F15006DD
:106BE0008F408046B60002EB8500C2F84873B6B20B
:106BF000C2F80873D2F8041599464FF0000BD0F88C
:106C00004035C0F8401542F806B05B1A9259009220
:106C100023F07F43012B009A4FEA850A0CD1264BC3
:106C20004FF4806043F001039847D8F8003043F8F0
:106C300006B09B590193019BD8F80010D1F8046568
:106C4000C1F84473A31B23F07F43012B1CD11A4BC3
:106C500005F5A875013443F0010341F825404FF4D0
:106C600080609847D8F80030D3F804359E4209D1A7
:106C7000D8F800300020C3F84473C3F8047303B09D
:106C8000BDE8F08F0D20FAE78A44C9F1FF13CAF876
:106C90004045D1F80405221A013A22F07F4203F55B
:106CA0007F439342EED3002AE2D10134CAF8404533
:106CB000D1F804359842DAE7200103000368022284
:106CC000C3F8442309B1C3F80423704700684FF4A4
:106CD0008271FFF70BBF4FF4803303FA01F10368B1
:106CE000C3F84813C3F8081370475031890000688F
:106CF00089B2FFF7FBBE0368D3F8040570470000B4
:106D000090F90430002B09DB5A09012103F01F031D
:106D100001FA03F34032024941F82230704700BFC4
:106D200000E100E0024B034A1B681068184700BFEF
:106D3000403300203833002070B5064D064600244D
:106D400055F8043B0BB1304698470134042CF7D179
:106D500070BD00BF50330020033082B240F2FE33DA
:106D60009A42F0B51ED8114D00232E4628789FB2C6
:106D700080B92C89B5F80AC064441444A4B2B4F5AF
:106D8000806F07D80F80142101FB036359890A44DF
:106D90005A81F0BD01330F2B05F11405E6D148F2FD
:106DA0000660F6E748F20860F3E700BF9033002082
:106DB0000B4A0C4B5188142000FB0131CB6833B9CE
:106DC0000420496810700122074801F0CEB8074935
:106DD0000523137002238B80012209680023F3E747
:106DE0006833002090330020283200205C350020DA
:106DF00007B5002305490093054A0968054808239B
:106E000001F085F803B05DF804FB00BF5C3500209D
:106E1000340103002832002007B500230146009307
:106E2000034A0448082301F072F803B05DF804FB3C
:106E30002C0103002832002013B500230C460093D8
:106E40000146084A0848042301F061F838B90749A7
:106E5000142303FB04140123237402B010BD48F271
:106E60000D60FAE72801030028320020903300204B
:106E700037B50A480A4B42689C881968538803252D
:106E8000033305709BB2002000909B0001EB84014E
:106E9000044801F03CF803B030BD00BF6833002067
:106EA0005C3500202832002010B50146044800F06F
:106EB000FEFE1C220446002109F064F8204610BDA5
:106EC000483500204388033300EB830399420BD3FA
:106ED00082884FF6FF739A4208D0038833B18068E6
:106EE000431C5842584170470220704701207047A8
:106EF0002DE9F0410D460223154F2B80164600F573
:106F0000805100F108044FF001088C420ED2236832
:106F100001330BD02046FFF7D5FF48B10EB186F8FC
:106F20000080022809D14FF480632B80BDE8F081F6
:106F3000A3683A68934200D93B602B886288033388
:106F400013442B806388033304EB8304DDE700BF25
:106F50008833002038B5144B14220D4602FB003054
:106F60002B68446804F58051A3B15C88033403EBBB
:106F700084048C4215D22368013312D02046FFF7D7
:106F8000A1FF012808D002280BD00028F1D12C60E5
:106F9000012038BD0834ECE76388033304EB830435
:106FA000E7E70020F5E700BF90330020426873B5A3
:106FB00004460D4652B3224BD9688A4226D31B6938
:106FC0009A4223D812F0030320D11E49008909896F
:106FD00088421BD120689168884217D11A4C194603
:106FE000606882428EB209D900F58050824205D293
:106FF0002E80B3FA83F0400902B070BD01310F2931
:1070000004F11404ECD148F20963F2E700232B8069
:107010001E460196288801A9FFF79CFF30B92B88EE
:1070200001339BB20E2B2B80F3D9E5E7019B22683D
:1070300099689142EED16360024B1B892381DBE7A3
:107040002832002068330020903300202DE9F843D7
:107050001C461D4B1B7806460F46154673B382B37C
:107060007CB3DFF86C804FF01409A3880E2B02D993
:1070700048F2096020E009FB03F318F803302BB94C
:10708000A0882146FFF766FF20B92060A38801335E
:10709000A380EAE723681EB1998832889142EFD134
:1070A0001FB119883A889142EAD19A68C5E900234C
:1070B000064B1B892B810020BDE8F88348F2016054
:1070C000FAE748F20460F7E76033002068330020F5
:1070D0009033002008B5074B5888191DFFF73AFF79
:1070E00018B1BDE80840FFF7C3BEBDE80840FFF790
:1070F0005FBE00BF683300202DE9F04FA24FDFF8DC
:10710000AC9289B00646B8463B6823B99F484946C9
:1071100000F007FE3860D8F8005029784B1E052B88
:1071200007D8DFE813F02200770077000901090192
:10713000600148F20E641422002103A808F022FF27
:1071400041F61D539C4208BF0024D8F80030049437
:107150001A78013A052A00F2F381DFE812F0DF0124
:10716000E301030213021F0229022EB1884B002201
:107170005A604FF40644DEE72B79032B18D8DFE87A
:1071800003F010022631834B142101FB06F2D05C80
:10719000022813D19918002098544868FFF73CFE44
:1071A00003E001232B71FFF723FE002800F0BE80CF
:1071B000774B00225A6048F20D64BCE701360F2E6F
:1071C000E3D1734B01221A7000225A6002E1724926
:1071D0007248002302222B718A800968012200F084
:1071E000C4FEE2E76C4C00262E712068694DFFF763
:1071F00013FE6B4BD4F800C05A8814235343EA188B
:10720000EE5451682160A188C2F804C011810222A5
:10721000A280CAE7B5F814A0AA7DDFF878B1AEB1B4
:10722000022AEB8806D9142101FB0AB1DA1C08896D
:1072300002440A81142202FB0ABAC3F57F43BAF85A
:107240000A20FD331344AAF80A3092E7142303FB03
:107250000AB318895C6804EB8004062A69D8DFE861
:1072600002F0274E36441D5A040041F61D54AA7DF3
:10727000EB88022A06D9142101FB0AB1DA1C08891D
:1072800002440A81142202FB0ABAC3F57F43BAF80A
:107290000A20FD331344AAF80A304CE7414842491A
:1072A00000234360AB690360FFF780FE00285AD0DB
:1072B0000223AB75002300930423EA1821463748C4
:1072C00000F025FE002831D048F20D64CFE72B698D
:1072D000002B14BF03230123AB750023009305F19A
:1072E0000C02042304F10801E9E70123AB75002235
:1072F000EB8800922A699B0004F10C01DFE7032967
:107300000CBF05230623AB7500230093042305F16E
:107310000802E118D3E70623AB75234B1988214BEC
:107320005868FFF789FD04460028A0D109B0BDE8E0
:10733000F08F48F20E649AE7002E7FF41AAF2B7993
:10734000012B35D0022B45D0002B7FF4F2AE022367
:107350002B710DF10A01EB68039303A8CDE90466D4
:10736000FFF724FE10B948F20964E4E60498BDF87A
:107370000A108388EB8003882B81FFF75DFD0446AC
:10738000002C7FF4D8AED1E78C33002048350020A4
:1073900060330020903300205C350020283200202C
:1073A00068330020443300206835002084330020F7
:1073B000804B03AA3146A81DFFF748FE7D4B0446CB
:1073C00058B999880498FFF737FD044648F20963D5
:1073D0009C42D5D141F61D54ADE6082231461846EF
:1073E00008F0D0FDF2E7002E7FF4C3AE724B5A7E58
:1073F000B2B15E761A78013A062A3FF69AAE01A13A
:1074000051F822F0B5740200E1740200F574020034
:10741000FB74020033710200017502001375020053
:107420001A78072AE6D801A151F822F04D7402001B
:10743000F5730200F5730200797402008D74020086
:10744000B1740200B1740200757402001A895B48BD
:107450005B4C01321A8100225A805A76142505FBB2
:1074600002F10132095DB1FA81F149090F2A00F8F0
:10747000011BF4D1012207E05248596882884988EB
:1074800003320A44828002221A70B3E74C485A88B9
:107490004C49142505FB02020C6850680860888876
:1074A0001081022088800021546011740622EBE7CD
:1074B0000722E9E7414A424C0020142512F8011B3B
:1074C0001FFA86FC79B105FB064102F8010CD1F8E0
:1074D0000CE0BEF1000F06D1097C21B1A3F802C077
:1074E000FFF7F8FD4BE701360F2EE7D100221A70A7
:1074F0005A806AE6FFF7BCFC41E7FFF759FC3EE71C
:107500002F4A5B88142101FB03235868FFF784FC92
:1075100035E700225A60FFF76BFC30E700238DF857
:107520000C300DE001228DF80C201A89ADF81820DE
:107530009A88DB680593ADF81A2000238DF81C307B
:1075400003A8FFF7F9FB002649461F48C8F800606A
:1075500000F012FC1D48012100F0BCFC00287FF463
:10756000D3ADE3E602228DF80C201A89ADF818207D
:107570009A88ADF81A20DA689B7D05929A1F5342CB
:107580005341DBE703228DF80C20DA88ADF8182090
:107590001A89DB68ADF81A200593D1E704228DF82B
:1075A0000C20DB88ADF818300023ADF81A30F3E773
:1075B0000523B4E76C3500206833002072330020C7
:1075C000903300205C3500204835002058350020DD
:1075D0004068FFF791BD000008B50548012100F0A3
:1075E00061FC18B9BDE80840FFF786BD08BD00BFC3
:1075F000583500202DE9F34198460023ADF80230BC
:10760000414B1B7806460D46002B71D0002972D0E5
:1076100009884FF6FF73994270D06B88002B6DD0AC
:107620006B689B076DD142B92F8969463846FFF7D1
:1076300093FB30B102B0BDE8F08113885788ADF8F4
:10764000003001A8FFF730FC044660B9BDF80030F7
:107650002E4A142101FB032358890338C01B58818B
:1076600048F20760E6E780F8008000238375BDF8E4
:10767000003083826B6803610121254800F01EFC05
:107680002B882381B8F1030F6B88A38001BF0423EB
:10769000A3753368A361E06000220621E780201D06
:1076A000FFF708FA0DF10202ADF80200042104F11F
:1076B0000C00FFF7FFF9A968ADF8020089006868BF
:1076C0000DF10202FFF7F6F901A9ADF802006081A1
:1076D000104800F016FB3EB10023E2687360B372FD
:1076E0000D4B32601B893381FFF776FF0020A1E745
:1076F00048F201609EE748F204609BE748F20360AD
:1077000098E748F2026095E760330020903300204C
:1077100088330020483500206833002008B5034630
:1077200007480268042A08D00168064A42F8213056
:10773000012100F0C3FB002008BD48F20B60FBE70D
:1077400064350020503300202DE9F04F89B0142219
:10775000002103A808F016FC774A1378914603F03D
:10776000FF0B3BB103A8FFF7E7FA0026304609B04C
:10777000BDE8F08F101D00F0B9FB0028F5D140F6F0
:10778000F8734FF080521B685C1C08BF6B4B6C4C4D
:1077900008BF1B6811695269581C08BF02FB01F33E
:1077A00023616849A3F5803300222046E36000F09E
:1077B000A0FB019406460028D8D163496348644F72
:1077C0001C238C2200F03EFAB04635464FF0100ADA
:1077D0003446019BD86858F8003018EB00002DD0D3
:1077E0005C4A934240F0A68043685B4A934213D0C0
:1077F0000132934227D1594BBBF1000F5FD1584959
:1078000018600022FFF774FB544B9B88022B0CBFBF
:10781000042308231D4335E0142161437B18002213
:107820007A5401F11002083158603A443944FFF7A4
:107830005FFB45F002050134A4B223E05A1C02D0DC
:10784000444A934230D1031D00F580511A68013239
:107850002AD104339942F9D1404B1A682AB902223D
:1078600018609A804FF0010B0AE014236343022151
:10787000FA18F9543B4B50605C8001341181A4B27A
:1078800045F0010508F58058B8F5803FA1D1BAF15F
:10789000010F98BF0025EDB2022D02D0062D1ED09B
:1078A0003DBB48F20A6661E714236343FA180AF104
:1078B000FF3A50600322FA541FFA8AFABBE71422F7
:1078C0006243B9184FF0020C07F802C01A684A6008
:1078D000244AA1F808C054800134A4B28FE70123E0
:1078E00089F8003003A80023C9F80430FFF724FA10
:1078F0003CE702A8FFF7D8FAC8B10123013D0370A5
:107900000A2D09D8DFE805F0060806080708070869
:107910000F110F000023037102A90C4800F0F1F9C8
:10792000FFF75AFE22E70323F5E70223F3E748F2C5
:1079300007661BE7013385E7603300201410001051
:107940002832002048010300BC34002048350020C4
:1079500090330020DEC0ADDEFE011EF15C3500205C
:1079600060350020683300202DE9F3410D460446C0
:1079700068B361B301A9FFF719FB58B36668002229
:1079800006213046B6F806807788FFF793F8791C11
:10799000ADF806000DF10602890006F10800FFF7B8
:1079A00089F8804519D10E4BBDF80400142202FB62
:1079B000003001210C3000F081FA63682E600C3336
:1079C0006B600123A372002002B0BDE8F08148F291
:1079D0000460F9E748F20960F6E748F20C60F3E763
:1079E0009033002013B50446A8B10DF10601FFF74E
:1079F000DDFA98B10C4ABDF80630142101FB0323CF
:107A0000DA6872B1A27A62B1DA680020013ADA600B
:107A1000A07202B010BD48F20460FAE748F20960B3
:107A2000F7E748F20560F4E79033002002230022D4
:107A3000FFF7E0BD18B103230022FFF7DBBD48F2DA
:107A400004607047114B1B7813B50446ABB14FF679
:107A5000FF73984214D001A8FFF726FA98B10523C6
:107A6000037001230371C48001A9094800F049F99A
:107A7000FFF7B2FD002002B010BD48F20160FAE746
:107A800048F20360F7E748F20760F4E7603300204C
:107A9000483500200F4B1B7807B5A3B101A8FFF7AD
:107AA00003FA98B10623037001A90B4800F029F9E5
:107AB0000A4B1A780AB101225A76FFF78DFD002091
:107AC00003B05DF804FB48F20160F9E748F2076093
:107AD000F6E700BF603300204835002068330020FF
:107AE00007B5ADF80600ADF804100DF1060001A9C8
:107AF000FFF7ACFA03B05DF804FB07B51346ADF829
:107B000006000A4600200DF10601FFF79FFA03B0B8
:107B10005DF804FB07B51346ADF806000A460DF103
:107B200006000021FFF792FA03B05DF804FB20B1D4
:107B300019B103680B600020704748F20460704779
:107B40002DE9F84F3B4B1B780446002B6BD00028E7
:107B50006CD01222002108F015FA374EDFF8E0B0A1
:107B600010232380354B0027B1464FF014084FF007
:107B7000010A7589328971682A4492B231B1086864
:107B8000984203D148685844012802D92088013816
:107B9000208008FB0790B4F802C0C0686044608091
:107BA000208905446089258110446081C2F5806286
:107BB000A08992B2904201F1080538BFA28101F577
:107BC0008051A94227D92A68013224D02846FFF7DC
:107BD00079F90128194B07D0022812D00028F0D1DA
:107BE000A2880132A28007E0E2880132E280E289C5
:107BF000688803320244E2816A88033205EB820519
:107C0000DFE7E28884F810A00132E280E289491BB4
:107C100002EBA101E18101370F2F06F11406A8D173
:107C20000020BDE8F88F48F20160FAE748F20460EE
:107C3000F7E700BF6033002090330020DEC0ADDEE8
:107C400002FEE10E10B561B1B2FBF3F403FB1424A4
:107C5000A4B244B9C0E9001484608281C381204683
:107C600010BD0E20FCE70920FAE782B050E8022F91
:107C7000C188B2EB324F4FF0000317BF92B241EA16
:107C8000014142EA014104E04268B2EB324F08BFD1
:107C9000012340E80212002AE8D18DF807309DF850
:107CA0000730002B0CBF1120002002B0704737B501
:107CB00050E8013F9DB2C48925448489A54228BF6C
:107CC0002D1B0489A54202BFBFF32F8F002207E0BE
:107CD000C5EA030540E80154002CE9D14FF0010248
:107CE0008DF803200193019B9DF803200B6002F0A7
:107CF000FF0322B10B880068184403B030BD18465A
:107D0000FBE70A884B889A4209D150E8012FC2EA62
:107D1000024240E80123002BF7D1012070470020E8
:107D2000704737B550E8023F1FFAA3F5C488A54253
:107D300002BFBFF32F8F00220DE0C4892544848940
:107D4000A54228BF2D1BC3EA054540E80254002C7C
:107D5000E8D14FF001028DF803200193019B9DF8BB
:107D600003200B6002F0FF0322B14B880068184427
:107D700003B030BD1846FBE70A884B889A4209D108
:107D800050E8022FC2EA224240E80223002BF7D13A
:107D9000012070470020704701F01F024B090121AC
:107DA000914000EB830000F065B84B0910B501F07D
:107DB0001F040121A14000EB830000F04FF8E040D8
:107DC00000F0010010BD01F01F0301229A404B0991
:107DD00000EB8300D14300F059B84B0901F01F01BB
:107DE00050F82300C84000F0010070472DE9F0472B
:107DF0004F1E7F0980460E460137002558F8254062
:107E000008EB8509E44394FAA4F4B4FA84F44FEA45
:107E1000451A202C06D10135AF42EFD83446204612
:107E2000BDE8F0875444A642F5D921464046FFF705
:107E3000BCFF0028F3D0D9F80040E44394FAA4F43E
:107E4000B4FA84F4E5E710B5034653E8000F0A4698
:107E500043E8002494F0000FF7D110BD10B503469D
:107E600053E8000F40EA010243E8002494F0000FB9
:107E7000F6D110BD10B5034653E8002F42EA0100C9
:107E800043E8000494F0000FF6D110BD10B503468E
:107E900053E8002F02EA010043E8000494F0000FC9
:107EA000F6D110BD10B5034653E8000F00EB0102F8
:107EB00043E8002494F0000FF6D110BD10B503463E
:107EC00053E8002F02EB010043E8000494F0000F98
:107ED000F6D110BD10B5034653E8002FA2EB010008
:107EE00043E8000494F0000FF6D110BD0121FFF724
:107EF000B5BF0B4610B4114628B123B103605DF83D
:107F0000044B1B6818470E205DF8044B70472DE9A1
:107F1000F04108B302B3D0F800E0BEF1000F1ED06C
:107F2000FBB14568D5F80480B3FBF8F508FB1535BF
:107F3000BDB942EA010C1CF0030F14D1C568A94277
:107F400011D34D1EEC180569AC420CD8DEF80C407C
:107F5000A446BDE8F04160470E20BDE8F08108204E
:107F6000FBE70920F9E71020F7E7F0B5D8B1D0F822
:107F700000C0BCF1000F18D0CAB14768D7F800E0C4
:107F80000EF1FF370F4214D1C768B94211D304690B
:107F90004D1E0EFB0255A5420BD8DCF81040A4463E
:107FA000BDE8F04060470E20F0BD0820FCE7092046
:107FB000FAE71020F8E729DF704728DF704770B52F
:107FC00003689E6886B004460D466EB114220021F7
:107FD000684607F0D7FFA3680593237901952BB175
:107FE000012B0DD06846B04706B070BD01238DF857
:107FF000003023690293E368039363690493F1E714
:1080000002238DF80030E3681B030293F5E708466E
:108010007047002070470000024B187A003818BFE4
:108020000120704710360020034B187A0122B0FA65
:1080300080F05A74400970471036002008B5104689
:108040001A4607F076FF002008BD000008B514228C
:108050000021044807F096FF0348FFF706FE0020C2
:1080600008BD00BF103600200036002010B5094CB6
:10807000094B43602046FFF739FF40B907F032F95A
:10808000064920741C2306488C22FFF7DBFD0020E4
:1080900010BD00BF103600203C01030074350020E5
:1080A0000036002070B5244C244E237A25463BB977
:1080B00023492448FFF735FE306008B9606070BD81
:1080C000022334682B72237973B1012B24D020460C
:1080D0000321FFF774FF00232B726B6018491948C6
:1080E000BDE87040FFF748BED4E90523D21AB2F5C7
:1080F000805FD4E9031028BF4FF480529208012A10
:1081000038BF012219441844FFF755FF50B1112818
:10811000DDD101232B72D2E7D4E903031844FFF722
:108120004CFFF3E72B7C002BC9D10146BDE8704022
:10813000022000F009B800BF1036002028360020C9
:10814000243600200036002038B5831E012B45D888
:10815000234C237A002B41D0022B09D1032830D0A5
:10816000204B00221B68E2601A793AB1012A22D022
:10817000637C7BBBBDE83840FFF794BFD3E90512B1
:108180008D1AB5F5805F94BF521902F580529A613D
:108190009142EDD102284FF0000308BF1946237227
:1081A000104B18BF0D211868FFF709FF0E490F4843
:1081B000FFF7E2FDDCE71A6901321A615B699A4256
:1081C000E7E7E3680133082B01D8E360D0E7002339
:1081D000E360DFE7BDE8384007F074B838BD00BFA2
:1081E00010360020283600202436002000360020DB
:1081F00000F0FD03012B08D1044B00225A74421EEB
:10820000504250411874FFF74DBF704710360020A0
:1082100010B5064C201DFFF769FE28B9637C1BB919
:10822000BDE81040FFF73EBF10BD00BF1036002074
:108230002DE9F34180460D460F4801A916461F4619
:10824000FFF735FD0446A8B11C22002107F09AFE75
:108250002D0B0123237101A90748C4F80080A760F2
:10826000E5606661FFF74DFDFFF7D2FF002002B029
:10827000BDE8F0810420FAE7003600202DE9F7433D
:1082800081468846104801A917461E46FFF70FFD94
:108290000446B0B11C22002107F074FE00250A9BA1
:1082A000A36001A9C4E9037807482571C4F80090C8
:1082B0006661FFF726FDFFF7ABFF284603B0BDE878
:1082C000F0830420FAE700BF0036002033DF704758
:1082D00041DF70470D4A08B5002313700C4A136044
:1082E000BFF35F8F0B490C4800F0A0F80B4A0C4815
:1082F0000121FEF7A9FA024630B9BDE80840094855
:108300004FF40041FEF7ABBA08BD00BF583600205D
:108310005C3600206C0103002C360020198402001A
:10832000680103003836002007B500230DF107006F
:108330008DF80730FEF784FBF1EE103A23F09F032F
:10834000E1EE103ABFF35F8F094B4022C3F884215E
:108350009DF80700FEF798FB06F0C4FF20B1FFF779
:10836000B7FF03B05DF804FB20BF40BF20BFF8E7B4
:1083700000E100E070B5224D044601212846FFF7D8
:1083800062FDBFF35F8F2E4638B9042C0AD01D4B17
:108390001A781AB1BFF35F8F286070BD1A4A147043
:1083A00001221A70194C184D636828787BB902387D
:1083B000012813D8BFF34F8F1549164BCA6802F432
:1083C000E0621343CB60BFF34F8F00BFFDE71B6834
:1083D000984788B1204600F033F8E5E706F082FFC1
:1083E00008B1FFF773FF4FF080430122C3F8002567
:1083F000BFF34F8F20BFFDE7BFF35F8F3060CCE747
:108400005C36002058360020343600202C36002000
:1084100000ED00E00400FA05034B1B7813B10420C3
:10842000FFF7A8BF704700BF583600200B684A68A6
:108430004360934208BF0023016008BF4360704758
:10844000436843B10268916852680B4493424360A9
:1084500004BF00234360704770B5446806460D466C
:10846000206818B1B3682946984718B923682B606B
:10847000256070BD2468F3E74368186808B1026896
:108480001A6070474368186870474368186800B9F5
:108490007047884203D102681A6001207047034682
:1084A0000068F4E7044A137FB3FA83F3C3F11F03B0
:1084B000DBB25376704700BF60360020F8B580B35A
:1084C00079B3194C194F002323760378E37603F52B
:1084D000E0704FF0A0460125032205FA03F346F8A9
:1084E0002020C6F80835124861601249BA7001F0C0
:1084F00007F808B10320F8BDE37E05FA03F3C6F8D8
:108500000835394601F044F80028F3D10A482946D5
:1085100001F006F90028EDD1084BC3F800052570DD
:10852000E9E70720E7E700BF603600204832002077
:1085300078010300018602008036002000700040B0
:10854000054B01221A7602221A709A7E10430022ED
:1085500098761A76704700BF60360020044B9A7EEA
:1085600022EA000098769A7E0AB901221A707047B2
:108570006036002010B5FF20FFF7F0FF002401F067
:10858000A1F9044820222146047007F0FBFC204694
:1085900010BD00BF6036002008B515498B7E03F082
:1085A000FF001BB30B7F53B9124A0123C2F80035F9
:1085B0000A7ED2B90B768B7E0B77FFF773FF4B7E6B
:1085C0000D4A0133DBB2D3710A4A0020C2F8140508
:1085D000C2F81035CA7E012393404FF0A042C2F882
:1085E0000C35BDE8084001F0EFB8112008BD00BF10
:1085F000603600200070004048320020000000007B
:10860000F7B5274CE37E01254FF0A04705FA03F3A9
:1086100006462946C7F80835406801F081F87368B6
:10862000B3F9000007F036FA1BA3D3E9002307F0E3
:1086300063F81C4B002207F05FF81B4B002207F089
:108640005BF81A4B002207F057F807F00FFAE37EA9
:1086500005FA03F3C7F80835637E043380B224F8C3
:108660001300637E617EADF804008D40217F8DF89C
:10867000063021EA0501217719B90D4B2176C3F89F
:108680000015636801A89847237F1BB1FFF70AFF15
:10869000FFF782FF03B0F0BD333333333333E33FAF
:1086A0006036002000408F40000008400000503F2E
:1086B00000700040014B187E704700BF60360020FC
:1086C00038B5074C051E04F1080318BF1C46236883
:1086D0002BB11A6822605B6828469847F7E738BDD7
:1086E0008C36002020B9054B01225A70FFF7E8BFF5
:1086F000012802D1014A9070F8E7704784360020C3
:1087000020B9034B01225A70FFF7DABF704700BF50
:108710008436002038B50E4C2378B3B90D48636019
:10872000A3602361E36000F073F8054606F0DAFD0C
:1087300008B900F079F801232370074BD3F800340F
:108740000BB10123A370284638BD8525F5E700BF8E
:1087500084360020E58602000000014037B50D4C4C
:1087600000230DF107008DF80730FEF769F9E36883
:10877000013BE360E36833B9074BD3F8005415B904
:1087800000F064F8A5709DF80700FEF77DF903B0CE
:1087900030BD00BF8436002000000140012813B521
:1087A0000CD0032820D038B9124B0122C3F8802006
:1087B000BFF34F8FBFF36F8F02B010BD0E4C00237D
:1087C0000DF107008DF80730FEF73AF923780BB961
:1087D000FFF7A0FFE3689DF807000133E360012382
:1087E000A370FEF751F9E7E700F01EF8FFF7B6FFB8
:1087F000E2E700BF00E100E08436002000F18040A5
:10880000002382B0036003680193019B02B07047AC
:10881000044A137923B901211060918018467047EA
:108820008520704798360020074B1A68D20704D479
:10883000C02283F8002301221A604FF080430122F6
:10884000C3F81825704700BF00E100E04FF08042F8
:1088500008B50223C2F808334FF48270FFF7CEFF49
:10886000034B01211960D2F81834DB03FBD408BD97
:108870000C000040124B1B6810B573B14FF48070B0
:10888000FFF7BCFF4FF080430122C3F808230D4BD4
:10889000587910B95A711B6898470B4B1B6873B114
:1088A0004FF48270FFF7AAFF4FF080430222C3F813
:1088B0000823044BBDE810401B680120184710BD79
:1088C00000010040983600200401004000F1804083
:1088D00000F5C040002382B0036003680193019B50
:1088E00002B07047800000F1A040D0F8002722F4C9
:1088F0004032C0F80027D0F8003743EA0141C0F801
:10890000001770472DE9F74F00244E4D01944FF4A6
:108910008072012102F1804303F5C04390B21B68CD
:10892000012B06D1D5F804330B4202D0FFF7CEFF5E
:108930000C430432B2F5907F4FEA4101EAD1424B39
:108940001B68012B0CD14FF4BE70FFF7BFFF4FF037
:10895000A04344F00044D3F820250192C3F8202519
:1089600014F0FF0F1AD0394F01260025344210D0E1
:10897000AB0003F1804303F5C043D3F81005D3F8EF
:10898000101557F8253023B1C1F30141C0F304207D
:1089900098470135082D4FEA4606E7D1002C48DA02
:1089A0002A4D4FF0A0482A4E4FF00009012716F932
:1089B000013B5A1C31D0C3F3C20202A90A44DCB203
:1089C00012F8042C03F03F0A03F0070307FA03F33D
:1089D0001A4222D00AF5E073504658F82330C3F308
:1089E000014BBBF1020F0CBF03210221FFF77AFFFD
:1089F00007FA0AF3C8F8203505EB0A0393F930307B
:108A000055F823304BB1A109032904D0BBF1020F63
:108A100012D1012901D15046984709F10109B9F154
:108A2000040FC4D1D8F820350193C8F82035002BA5
:108A3000B9D103B0BDE8F08FBBF1030FEDD102292E
:108A4000E8E700BF006000407C610040A0360020E5
:108A5000F0360020014B1B68184700BFFC36002091
:108A60000E4B984237B50C4602D0002003B030BD03
:108A700000230DF107008DF80730FDF7E1FF084BEB
:108A80001D7915B901221C601A719DF80700FDF7C8
:108A9000FBFF002DE9D01120E8E700BF00200040D7
:108AA000FC3600200023435082B043580193019BC1
:108AB00002B070478B6A4A6B9A4210B54FF00103BF
:108AC00005D2496A8A5CC0F81C251A4604E091F870
:108AD0002C201AB1C3610022104610BD0C6A640636
:108AE00003D5C36181F82D30F6E74361EDE770B53A
:108AF000D0F8046104460D4626B14FF48271FFF7A9
:108B0000D1FF012695F82F2022B34FF49271204611
:108B1000FFF7C8FF4FF48E71FFF7C4FF4FF4847165
:108B2000FFF7C0FF002E67D095F82F20002385F8AF
:108B30002D3082BBAB6A696B99421CBF1646052378
:108B400086F001061CBFC4F80025C4F8003585F87E
:108B50002F6021E0D4F824314BB14FF492712046BC
:108B6000FFF7A0FF0123636185F82F30DAE7D4F81F
:108B70001C319BB14FF48E712046FFF793FF6B6B56
:108B800001336B63D4F82431002BE6D12946FFF77B
:108B900091FF0028C6D10022104670BDD4F80831DC
:108BA000002BBFD04FF484712046FFF77BFFD4F831
:108BB0002431002BD1D16B6BA96A8B42B2D2696A86
:108BC000D4F81805C8546B6BA96A0133481E834258
:108BD0006B6308D1286A400610D40223C4F800321F
:108BE000012323629EE78B42FAD12B6A5B0699D55B
:108BF000022385F82D30CFE70122CDE78B42EFD15C
:108C0000F6E7000037B5344B01930D464FF48271FF
:108C10000446FFF747FF4FF49271FFF743FF4FF40D
:108C20008E71FFF73FFF4FF48471FFF73BFF002386
:108C30006B6385F82F30AB6A012B17D12B6A5B066B
:108C400014D40223C4F800320123236295F82D20A6
:108C5000022A18BF23602B6893B140F28623AB60D1
:108C6000AB68C4F80433002003B030BD0123E9E74A
:108C700029462046FFF73BFF28B1019B013B0193AA
:108C8000019B002BF4DC95F82F0050B9019B002BC1
:108C9000EADC0023C4F800350523C4F800350320BE
:108CA000E2E7D4F8C434C4F8C43493B113F0010F2C
:108CB00014BF4FF40240032048F2012213F0020FC8
:108CC00018BF104613F0040F48F2022318BF1846CD
:108CD000DCE70320DAE700BFA086010037B5314B9F
:108CE00001930D464FF482710446FFF7DBFE4FF40B
:108CF0009271FFF7D7FE4FF48E71FFF7D3FE4FF45A
:108D00008471FFF7CFFE0023C0F800326B6385F853
:108D10002F300123036295F82D209A4218BF8360FB
:108D20002946FFF7C7FE2B6883B140F28623AB606C
:108D3000AB68C4F80433002003B030BD2946204698
:108D4000FFF7D5FE28B1019B013B0193019B002B4E
:108D5000F4DC95F82F0050B9019B002BECDC0023CC
:108D6000C4F800350523C4F800350320E4E7D4F83F
:108D7000C434C4F8C43493B113F0010F14BF4FF4DA
:108D80000240032048F2012213F0020F18BF1046E0
:108D900013F0040F48F2022318BF1846DCE7032043
:108DA000DAE700BFA0860100F0B5294C294887B05A
:108DB0002146FFF79CFEA446D8B994F82F60276A95
:108DC000E6B9237B9A1E012A18D8616AA2699142EA
:108DD00014D1E2696262C7F3401762691D48A2625A
:108DE000032B84F82C7084F82D60214603D1FFF703
:108DF00075FF07B0F0BDFFF705FFFAE7164D0FCD81
:108E000001AC0FC42B682360F6B1124AD2F8C43407
:108E1000C2F8C43498070ED501238DF80030002322
:108E20008CF830307B0701D5002EE2D0DCE9003130
:108E300068469847DDE7590701D50223EDE7DA07D1
:108E40004CBF03230423E8E78DF80060E7E700BF89
:108E50000437002000300040103700202DE9F84F83
:108E60000779314E4FF03C0A0AFB07FA06EB0A0578
:108E70009B4695F82E3080460C469146002B4FD1EC
:108E80002A490068FFF7ECFD00284BD12168637B7D
:108E900085F8383001F5E0724FF0A043A860C5F8BE
:108EA00004B085F8300085F82D0085F8310040F2D7
:108EB0000C6546F80A9043F82250626802F5E07C9F
:108EC00043F82C50D8F80030C3F80815C3F80C2527
:108ED000A268C3F82425B9F1000F14D0227B43F314
:108EE000073152010029C3F30733D2B213DB104C10
:108EF000651885F800230122490903F01F0302FACF
:108F000003F344F821303C2303FB0766012386F872
:108F10002E30BDE8F88F074903F00F03CA54F2E77B
:108F20000820F6E71120F4E704370020A98D02009D
:108F300000E100E014ED00E0026803790521C2F8C9
:108F40000015044A3C2101FB0323022283F82E2052
:108F5000704700BF043700202DE9F047324E90F8EB
:108F60000480D0F800903C2303FB08630C4693F880
:108F70002D30012B174604D10B78012B06D1082088
:108F800011E0022B02D10B78012BF8D13C25274BA5
:108F9000C9F8083305FB086595F830302BB1AB688C
:108FA000C9F804331120BDE8F08787F00403C3F348
:108FB000800385F830302F62A646BEE80F0005F129
:108FC0000C0CACE80F00DEF80030CCF80030636821
:108FD000AB62E3686B626378C9F888352378C8EBC5
:108FE000081A012B06EB8A0A19D0B3B9C7F3401748
:108FF0003C2303FB0863514683F82C704846FFF777
:109000006DFE3C2303FB08F806EB080256F8083017
:10901000002BC8D182F83030C5E70127E8E7514678
:109020004846FFF7EFFDECE70437002086420400D6
:1090300010B586B00024CDE902349DF820308DF8BB
:109040000510A342CDE9042401A914BF2022224621
:109050008DF80440FFF780FF06B010BD10B586B054
:10906000012402930023CDE903328DF805101A463E
:1090700001A98DF804400593FFF76EFF06B010BDFF
:109080000023435082B043580193019B02B07047C4
:1090900038B51D4602230B710B684A7104467BB13B
:1090A00012F0040F0CBF82219221100748BF41F03B
:1090B0002001D306236848BF21F08001C3F80013C4
:1090C00020684FF48271FFF7DBFF206812F0800FF9
:1090D00005BF012343514019002038BD2DE9F04F51
:1090E000484D077905EBC70385B01B7906460C464A
:1090F0004FEAC709002B40F0828045F8372001393C
:109100006A4604F103084FF0010A4FF0A0404FF007
:10911000030B11F801CFBCF1FF0F67D02CF08003D7
:1091200013600AFA03FE03F5E0731CF0800F14BF0E
:10913000C0F808E5C0F80CE540F823B0414502F15D
:109140000402E6D13068009BC0F86035019BC0F88E
:109150006435029BC0F868350122039BC0F86C356A
:10916000C0F8002594F805C0A1792389C0F80CC582
:10917000C0F80415C0F808356389C0F8103500231D
:10918000C0F800324FF48E71C0F80033FFF778FF5B
:1091900030684FF48871FFF773FF30684FF48A71BD
:1091A000FFF76EFF30684FF48271FFF769FF55F8E3
:1091B0003730A3B13368217943F3073049010028E0
:1091C000C3F30733C9B215DB0F4C261886F800131A
:1091D000400903F01F0302FA03F344F820304D4422
:1091E00001232B71002005B0BDE8F08F4FF0FF3355
:1091F0001360A3E7054A03F00F03D154EFE70820FB
:10920000F1E700BF4037002000E100E014ED00E08E
:1092100003681A0B43F30733002B10B504790CDBFA
:1092200002F01F015B0901228A402033074941F8FF
:109230002320BFF34F8FBFF36F8F03680022C3F863
:109240000025034B03EBC4031A7110BD00E100E0DD
:1092500040370020F0B50E461D461C4903790468CE
:10926000D6F800E0B6F804C0B768C4F820E501EB12
:10927000C301F368C4F824C5C4F82875C4F82C35B4
:10928000C4F840E5C4F844C5C4F84875C4F84C3582
:1092900002F0010303EB5202C4F81425EA0712D4CA
:1092A00015F0020203D0002B14BF08220422002B69
:1092B000C4F8002218BF0C23EAB208BF0823BDE897
:1092C000F040FFF7E5BE1022F1E700BF4037002075
:1092D0000379084A016802EBC3021379D1F804113B
:1092E000DBB219B9981E18BF012070470120107118
:1092F000704700BF403700202148D0F8103110B52A
:109300005BB14FF48871FFF7BBFE1E4B5A795107D2
:1093100003D51B680BB1012098471948D0F81431C8
:109320005BB14FF48A71FFF7ABFE164B5A79120707
:1093300003D51B680BB1022098471148D0F81C31A7
:109340005BB14FF48E71FFF79BFE0E4B587910F016
:10935000100002D11B6803B198470948D0F80431C6
:1093600063B14FF48271FFF78BFE064B01221A7135
:109370001B681BB1BDE810400320184710BD00BF9B
:1093800000C001404037002000F1804000F5E0407F
:10939000002382B0036003680193019B02B0704711
:1093A000F0B5504B504C1B6885B0002B3DD04FF4AE
:1093B000827094F82E20FFF7E7FF2AB394F82F303D
:1093C00013BB4A4B1B68002B33D04FF48070FFF760
:1093D000DBFF638B94F82D108B424FD922895B1AE7
:1093E0009BB292B26383D31A626802EB4303404A92
:1093F000C2F82C36C2F830164FF48270FFF7C4FF63
:109400003C4B01221A6014E0636802932389ADF893
:109410000C30E36800218DF8041023BB237423680B
:1094200001A89847002384F82F3094F82E30002BA1
:10943000C7D1314B1B685BB14FF48870FFF7A4FFB5
:109440000023237402238DF8043001A82368984771
:109450002A4B1B68EBB14FF48A70FFF795FF00238E
:10946000237405B0F0BD208B608363602081E160D0
:10947000002AD4D11E4B01221A60D0E7BCD1E36888
:10948000012284F82F2013B100226283AFE76383A7
:10949000B2E766694FF000470125002EE1D0B6FA29
:1094A00086F227FA02F34632920026EA030602F118
:1094B000804303F5E0431B68002BEED01046FFF716
:1094C00063FFA2F58C72D30882F00402C2F380021B
:1094D0008DF808308DF8045023688DF8092001A814
:1094E0009847DAE7047100404837002000710040D7
:1094F0000070004004700040107100401471004082
:1095000038B5204A92F82C300446002B37D1116030
:109510001D490078C1F8F0056078C1F8F40501250F
:10952000137482F82D30536182F82F30E07882F87E
:109530002E006FF0004382F82C504FF48270C1F877
:109540000833FFF721FF4FF48070FFF71DFF4FF442
:109550008A70FFF719FFA3780C485B01DBB280F833
:109560000733802303600223C1F8043392F82E30BE
:109570000BB1C1F80453C1F80055002038BD0820D4
:10958000FCE700BF483700200070004000E100E029
:1095900070B52A4B1A7C02F0FF05002A4BD10A79DC
:1095A000012A9CBF264CC4F8005500F10C0503EBC2
:1095B0004504247924B993F82D40013483F82D40D3
:1095C00003EB4503CC790D7A8E781C715D714B7875
:1095D00036021B0106F4E06603F0300333430E78D5
:1095E00006F003063343CE78360306F48056334341
:1095F000160406F4E02633434E798979360506F4DD
:1096000080160906334301F080710B430C4901EBCE
:109610000016000100F1804000F5E040012AC6F884
:109620001835C0F81455C0F8104502D80123C1F808
:109630000035002000E0112070BD00BF4837002039
:109640000070004070B5344A147C04F0FF03002C15
:109650005FD1324C012503261574C4F80863C4F8A1
:109660002C16C4F8305692F82D10A9420CD91C467D
:10967000190101F1804101F5E0410133082BC1F8E6
:109680001445C1F81045F3D100F10C03000102EBC1
:10969000430300F1804000F5E04019795B79C0F8A0
:1096A0001435C0F810151D4901230B604B6042F2C0
:1096B000107301F58271086808B9013BFBD14FF4C2
:1096C0008070FFF761FE4FF48270FFF75DFE92F845
:1096D0002D30012B11D9104800210B0103F18043DB
:1096E00003F5E0430131047F457FC3F81455082991
:1096F000C3F8104500F10200EFD192F82E10074B8D
:1097000029B103210020C3F80413107470BD022195
:10971000F8E71120FAE700BF48370020007000404A
:1097200070B5264A264B05461220C2F808031C7C59
:10973000022C03D1C2F80403112070BD187C01284B
:109740001DD1D86818B10223C2F80433F4E7DD60F4
:10975000198393F82E3063B91A4A1368002BFCD092
:109760004FF48070FFF710FE144BC3F82C56C3F86B
:109770003016124B0222C3F804230020DDE702203A
:1097800093F82E40C2F80403012600201E745D6089
:109790001981D8603CB1598393F82D30C2F82C560A
:1097A000C2F83036C9E7C2F82C564FF48070C2F8C0
:1097B0003016FFF7E9FD20461660BEE70070004056
:1097C0004837002000710040084A117C0129CBB2C3
:1097D00009D192F82E0018B1054A00201360704795
:1097E000044A136070470820704700BF48370020C4
:1097F0000070004004700040F0B51B4F8BB207EBC7
:10980000001443EA0243C4F81C35184B40005C695D
:1098100000F1010C4FF0004611F5006F26FA0CF62E
:109820004FF0800505FA00F50BBFB44334435C618B
:109830005C610CBFC7F80853C7F8045340244FF0CD
:1098400000455969844025FA00F040F2FF75AA42AC
:10985000054A0BBF81430143596159610CBFC2F8EE
:109860000843C2F80443F0BD0070004048370020B0
:1098700010B5124B1A7CF2B900F10C0103EB410256
:10988000127922B193F82D20013A83F82D2003EBB1
:10989000410300249C80030103F1804303F5E0436E
:1098A0000749C3F8144540F2FF72C3F81045FFF7AB
:1098B000A3FF204610BD1120FCE700BF4837002061
:1098C00000F8FFFF38B5154B6FF00042C3F80823CE
:1098D000134A8021C2F88010BFF34F8FBFF36F8F00
:1098E000104A01211160104942F21072086808B94B
:1098F000013AFBD10D4D0024C3F800452C7405EB53
:1099000044031B7F13B1E0B2FFF7B2FF0134082C10
:10991000F5D1002385F82C3038BD00BF0070004021
:1099200000E100E00870004014710040483700205A
:109930000720704708B5012202210020FFF7F8FF39
:1099400008B1072810D1072202210120FFF7F0FFFC
:1099500008B1072808D100210A220846FFF7E8FFCE
:1099600010B1072808BF002008BD00000388102B95
:1099700010B502D0112B1ED010BD1A4C2168B1B900
:1099800001220846FFF7D4FF08B1072824D1072297
:1099900002210120FFF7CCFF08B107281CD10422C7
:1099A00002210020FFF7C4FF08B1072814D1236863
:1099B00001332360E0E70B4A1368013B1360002B7F
:1099C000DAD1FFF7B7FF0028D6D0074B1B68002B72
:1099D000D2D0BDE810401847034B1B68002BE6D0DF
:1099E0009847E4E77C370020783700203FDF704756
:1099F00076DF70477ADF70477CDF70478FDF704714
:109A0000012070471321FFF7F3BFFCF747BE0000AA
:109A100003883B2B13B5044608D005D8102B0AD079
:109A2000212B19D002B010BD562BFBD1A0881321D9
:109A3000FFF7DEFF0BE0022001F0E2F808B1FCF7CF
:109A40002DFE094BA1880948198003F09EFB0028D0
:109A5000E8D0FCF723FEE5E7002301A98088ADF8F4
:109A60000430FFF7CBFFF2E756320020A04B002076
:109A700010B5044604F0BFFA2046BDE8104004F0DB
:109A8000C7BA032807D14FF08043A922C3F8202585
:109A90000020FEF76FBC704708B503784BB9054B43
:109AA0003B211888FFF7A4FF18B1BDE80840FCF778
:109AB000F5BD08BD5632002008B560B103280FD1AE
:109AC000012001F09DF8074B01221A7040B1BDE85A
:109AD0000840FCF7E3BD034A107001F091F8F5E788
:109AE00008BD00BF8C37002008B50B78072B0BD8BA
:109AF000DFE803F00B0D0F11181307040E4B0122C2
:109B000001E00D4B00221A7008BD0C4BF7E70B4B20
:109B1000F8E70B4BF3E70A4BF4E71378022BF3D18A
:109B2000084BECE701F0E6FA08B1FCF7B7FDBDE839
:109B3000084001F0BDB900BFE54B0020E64B002016
:109B4000E74B0020E44B0020FCF7A8BD10B504460D
:109B50008CB0B8B901462C2201A806F013FA4FF4D4
:109B6000967140F6B8320123CDE9051206488DF80A
:109B7000083001A98DF8043002F0A3F8034821460B
:109B800002F03CFB0CB010BD58470020059A0200C3
:109B90002DE9F047AEB000F0C9FF05F02DFA08B18D
:109BA000FCF77CFD0120FFF721FFFEF793FB08B1D6
:109BB000FCF774FD05F018FB08B1FCF76FFD0023FE
:109BC00003A90120039305F0DDFB08B1FCF766FD56
:109BD00003A805F041FC08B1FCF760FD03F0E4FFC9
:109BE00008B1FCF75BFD0522002103A806F0CAF9C5
:109BF000039B03F07C429D4B134303939DF810306D
:109C000023F0030343F0030303A88DF8103004F09E
:109C100011F808B1FCF742FD954803F0F3FF08B1D5
:109C2000FCF73CFD112393488DF8083006F0DDF970
:109C3000904982B202A8FFF7DFFE08B1FCF72EFDC3
:109C40000021082203A806F09DF98B494FF0C87344
:109C500003A8CDE90313FFF7CDFE08B1FCF71EFD05
:109C60008648002103F0C0F908B1FCF717FD002376
:109C700002938348834B019301A903F074FA08B15E
:109C8000FCF70CFD804B029302A805F039F908B1EE
:109C9000FCF704FD0021142203A806F073F97B4BA6
:109CA000039341F21113ADF812307948112303A93F
:109CB0008DF815308DF81630ADF818308DF81B3052
:109CC0008DF81C30ADF81E3000F02AFA08B1FCF710
:109CD000E5FCAC22002103A806F054F902238DF81C
:109CE0000C3040F20163ADF80E300124694B17933C
:109CF0002C22002121A8ADF8584006F043F940F687
:109D0000B8334FF49672CDE925236348634B8DF841
:109D1000884003A92C9301F014FE08B1FCF7BEFCA7
:109D20005D48012101F00AFE1C22002103A806F073
:109D300029F900234FF42032CDE90332ADF81A306F
:109D40004FF470228DF81C30554B05920893032276
:109D5000544B8DF8182003A8099302F0BDF808B100
:109D6000FCF79CFC4C48032101F06AFE08B1FCF7AB
:109D700095FC4D4D4D4E2F462C78002C40F0AE807A
:109D8000337863B1204600F0A5FE204600F0B0FF16
:109D90002B783370022001F035F801F01BF8444BAA
:109DA0001B780BB101233B70DFF8248198F8003059
:109DB0001BB9404A1278002A4FD03F4A1278002A35
:109DC00000F053813D4A1278002A00F04E81DFF8FE
:109DD00004A13B4C83B13B4B3B49DB681222B3FBF4
:109DE000F2F3CAF80030334B00200122206088F8DB
:109DF00000001A7001F058F9DFF8DC90DAF8003052
:109E0000B9F80000984200F227812368B3F57C6F0F
:109E100008D3002323602C49E023B0FBF3F0C0B249
:109E200001F042F92268284903A811441223013B9A
:109E300011F801CB00F801CB13F0FF03F7D1B9F80B
:109E4000003013481232013303A92260A9F8003010
:109E500000F004FC08B1FCF721FC1C4B1B780BB193
:109E600001F03EFAFEF760FA86E700BF3107100303
:109E7000719A02007C010300100020008C4B00202E
:109E8000A04B00200B9A02004D9B0200E99A0200B1
:109E9000AC4B00205232002058470020B99A0200F3
:109EA000999A0200499B020080370020513200201D
:109EB000944C002094370020E54B0020E74B002015
:109EC00084370020685C002095370020645C002007
:109ED000E44B0020E04B002082370020012C7FF46F
:109EE00063AF3378012B13D0802000F0F3FD01F035
:109EF00013F8204600F0FCFE2B7833705E4B1B7885
:109F000033B95E48032101F09BFD08B1FCF7C6FBA5
:109F100000F016FFDFF89081594BC8F800000146A9
:109F2000186800F021FF47F23053984203D9554B8F
:109F30001B7803B93B70544CD8F80010206800F02F
:109F400013FF4EF66023984222D900F0F9FE2060FC
:109F5000022000F0CDFE01F053F801F0CBF901F042
:109F6000E7F904460146494800F0C6FB08B1FCF792
:109F700095FB01F0DBF901F029F8012000F0B8FEB3
:109F80000A2C05D8032000F03BFE08B1FCF786FB45
:109F90003F4B1A78002A3FF407AF00221A7000F0F6
:109FA00025FF98B900243B4B18783B4B5A78A242C6
:109FB00002D31A78A2424AD900287FF4F5AE9B7AE0
:109FC000002B3FF4F1AE00F01DFFEDE6334BD8F867
:109FD0000010186800F0C8FEB0F57A7FE2D900F0F2
:109FE000F7FB00F039FD2E4BDFF8C0901B780446DC
:109FF0006BB12C4B1B7853B199F80030834206D0DB
:10A000000146224800F0F2FA08B1FCF747FBDFF8FE
:10A01000A0A0D8F80010DAF8000000F0A5FE42F287
:10A020001073984210D9204601F09CF8804600F049
:10A0300087FECAF80000B8F1000F05D0134800F001
:10A0400042FB08B1FCF72AFB89F80040ABE7002887
:10A050003FF4AAAE0220B6E70A4A002388F800308F
:10A060001370A9F800302360F7E6064A002388F849
:10A0700000301370F1E600BF8C37002058470020F5
:10A08000904C00209437002090370020AC4B0020EB
:10A09000584C00205A4C0020685C0020804C002066
:10A0A000E54B0020E64B0020883700208D3700204C
:10A0B000605C0020A8DF7047AADF7047ACDF704704
:10A0C000AEDF704762DF7047144B1A7802705A781F
:10A0D0004270DA798270DA88C2705A68120A0271A4
:10A0E0005A6842711A89120A82711A89C2719A7A5F
:10A0F0000272DA7A4272DA7B8272DA89C272DA68C2
:10A10000120A0273DA684273DA7C82735A8AC27363
:10A110001A69120A02741B6943747047685C002054
:10A120002DE9F04F0D469BB00446002800F0C68193
:10A13000002900F0C3810B6803604FF6FF73C385ED
:10A14000DD4B05AA03F1100C17461868596816462E
:10A1500003C6083363453246F7D1384604F130016F
:10A16000FFF7B0FF0746002840F0A18194F8303097
:10A170008DF80E30221D4FF4C05303A90120ADF815
:10A180000C30FFF797FF0746002840F090810DF153
:10A19000240901AE4846FFF797FF394603223046AF
:10A1A00005F0F0FE9DF806304FF0010868F3420319
:10A1B00039461C2241F2111A13A88DF80630ADF869
:10A1C00004A005F0DFFE9DF84C30149723F01A032D
:10A1D00043F00A033946032202A8CDE91867CDE906
:10A1E00016778DF84C3005F0CDFEEB7B8DF80830FE
:10A1F0002B7C8DF809309DF80A3023F01F0343F0C3
:10A2000002038DF80A3094F830308DF81230394658
:10A2100041F6010314220EA8ADF8103005F0B2FE8D
:10A2200002AB0F934FF0120BA088CDF840B004AEF4
:10A23000A31D0EAA13A90E96ADF844B0CDF8489010
:10A24000FFF73AFF0746002840F03181014603221C
:10A2500002A805F097FE9DF80A30ADF808A068F353
:10A26000420339461C2213A88DF80A3005F08AFEF5
:10A270009DF84C30149723F01A0343F00A03394633
:10A280008DF84C30032202AB3046CDE91837CDE9CA
:10A29000167705F077FEEB7B8DF810302B7C8DF870
:10A2A00011309DF8123023F01F0343F002038DF8A4
:10A2B000123094F830308DF82630394641F60203DA
:10A2C00014220EA8ADF8243005F05CFEA088CDF86D
:10A2D000408004F10E030EAA13A9CDE90E96ADF845
:10A2E0004480FFF7E9FE0746002840F0E080014681
:10A2F000032202A805F046FE9DF80A30ADF808A03A
:10A3000068F3420339461C2213A88DF80A3005F081
:10A3100039FE9DF84C30149723F01A0343EA0B03DF
:10A3200039468DF84C30032202AB3046CDE9183760
:10A33000CDE9167705F026FEEB7B8DF810302B7CEF
:10A340008DF811309DF8123023F01F0343F0020303
:10A350008DF8123094F830308DF82630394641F6B9
:10A36000030314220EA8ADF8243005F00BFEA088DC
:10A37000CDF840B004F116030EAA13A9CDE90E964C
:10A38000ADF844B0FFF798FE0746002840F08F80F4
:10A390000146032202A805F0F5FD9DF80A30ADF84C
:10A3A00008A068F3420339461C2213A88DF80A302E
:10A3B00005F0E8FD9DF84C30149723F01A0343EAAA
:10A3C0000B0339468DF84C30032202AB3046CDE901
:10A3D0001837CDE9167705F0D5FDEB7B8DF81030F9
:10A3E0002B7C8DF811309DF8123023F01F0343F0C1
:10A3F00002038DF8123094F830308DF8263039464B
:10A4000041F6040314220EA8ADF8243005F0BAFD7D
:10A41000A088CDF8408004F11E030EAA13A9CDE94F
:10A420000E96ADF84480FFF747FE074600283ED160
:10A4300001461C2213A805F0A5FD9DF84C30149789
:10A4400023F01A0343F00203394603223046CDE9D4
:10A450001677CDE918778DF84C3005F093FDAB7C7D
:10A460008DF81030EB7C8DF811309DF8123023F010
:10A470001F0343F002038DF8123094F830308DF84A
:10A480002630394641F6050314220EA8ADF82430D3
:10A4900005F078FDA088CDF8408004F126030EAACF
:10A4A00013A9CDE90E96ADF84480FFF705FE3846B6
:10A4B0001BB0BDE8F08F00BF820103000E27F6E756
:10A4C00037B504460D4689B180B10388112B0FD0F2
:10A4D000502B12D0102B09D18388CB8507238DF800
:10A4E00004302B68002201A92846984703B030BDEC
:10A4F0004FF6FF73CB850623F1E7C288CB889A42DB
:10A500003AD1394A837C1370C37C5370437D017DFB
:10A510001B0403EB0163817D03EB0123C17D0B442D
:10A520005360017E437E03EB01231381837E93728C
:10A53000C37ED372437F017F1B0403EB0163817FE2
:10A5400003EB0123C17F0B44D36090F8213090F8D6
:10A5500020101B0403EB016390F8221003EB01238E
:10A5600090F823100B44136104238DF8043000226B
:10A570002B6801A928469847E288EB899A4208D1BE
:10A5800005238DF8043004F112022B6801A9284636
:10A590009847E2886B8B9A4213D1238A022B10D101
:10A5A0002B6873B104F1120001F063FE002814BFA0
:10A5B000022303238DF8043000222B6801A92846CA
:10A5C0009847E2886B8C9A4290D1238A022B8DD1D6
:10A5D0002B68002B8AD004F1120001F04AFE80F0B3
:10A5E00001008DF804007CE7685C002070B588B03D
:10A5F00004468DF8071068B302AD082200212846F2
:10A6000005F0C0FC01260DF10703E18BE08D0296F9
:10A610002A460393FFF752FDD0B9E28D4FF6FF7340
:10A620009A4219D0102201460DEB020005F0AAFC57
:10A63000E38BADF81030BDF80A30ADF81430E08D82
:10A64000039B8DF8126004A906950793FFF738FD68
:10A6500008B070BD0E20FBE70820F9E730B50D46C5
:10A6600087B0044658B308220021684605F08AFCEA
:10A670001223E18AE08D6A46CDE90035FFF71EFD21
:10A68000D8B9E28D4FF6FF739A421AD001461022D4
:10A6900002A805F077FCE38AADF8083001238DF8B5
:10A6A0000A30BDF80230ADF80C30E08D019BCDF8DA
:10A6B00010D002A90593FFF703FD07B030BD0E20AF
:10A6C000FBE70820F9E730B5044689B090B103AD47
:10A6D0002846FFF7F9FC0822002101A805F052FCEA
:10A6E0001223E188E08D01AACDE90135FFF7E6FCF0
:10A6F00009B030BD0E20FBE71FB504468DF80710EA
:10A7000088B1082200210DEB020005F03BFC01237B
:10A710000293E18CE08D0DF1070302AA0393FFF78A
:10A72000CDFC04B010BD0E20FBE7000007B50B46C2
:10A7300000210246009103480F21FEF779FC03B087
:10A740005DF804FB9401030030B587B002780292F3
:10A75000427803924FF0CC72002304920222044606
:10A76000ADF81420164800931A4602A98DF804305B
:10A77000FEF774FB08B1FBF791FF1148FEF7DCFB15
:10A78000104B226801251D700F4B02211A6068468C
:10A790001B23ADF80030FFF7C9FF78B9E378A27842
:10A7A000134363F07F03022168468DF80130FFF701
:10A7B000BDFFA378402B04BF044B1D7007B030BD14
:10A7C00094010300ED4B0020E94B0020E84B0020F2
:10A7D0002DE9F0412DED048B84B006238DF8043073
:10A7E00000230293ADF80C308DF80E30904B1B789F
:10A7F000002B00F01381012101A8FFF797FF08B19A
:10A80000FBF74CFF8B48062302AA0F21FEF726FC1C
:10A8100008B1FBF743FF884B9DF809001B789DF8B2
:10A820000B409DF80D60002B00F0A6809DF80810ED
:10A830009DF80A209DF80C3041EA002005B242EA5A
:10A840000422002D14B2B8BF404243EA0623B4BF2D
:10A85000C0F30B100009002C1EB2BABF5242C2F363
:10A860000B12C2F30F12002EB8BF5B4207EE902A04
:10A87000B4BFC3F30B13C3F30F13F8EE678A07EEED
:10A88000903AB8EE678A07EE900AF8EE677A17EE0C
:10A89000900A05F021F9694B002204F02DFF002DEC
:10A8A000ACBF674B674B002204F026FF05F02EF982
:10A8B00009EE100A18EE900A05F00EF95F4B00221F
:10A8C00004F01AFF002CACBF5D4B5E4B002204F07D
:10A8D00013FF05F01BF908EE900A18EE100A05F0B8
:10A8E000FBF80022554B04F007FF0022002EACBFFE
:10A8F000534B544B04F000FF05F008F908EE100A22
:10A9000028EEA80AB5EE408AF1EE10FAA9EE090A7F
:10A9100008BF9FED4D8A05F06FFAB1EE400AC0EE18
:10A92000087A9FED4A8A17EE900A05F0D5F841ECB7
:10A93000100B05F01DF951EC100B05F0E7F807EED0
:10A94000900A67EE887A17EE900A05F0C5F836A3EC
:10A95000D3E9002304F06CFF05F0D8F800EE100AEC
:10A96000B5EEC00AF1EE10FA01D530EE080A04B0D7
:10A97000BDEC048BBDE8F0814FFA80F8B8F1000F10
:10A98000B8BF404267B2B8BFC0B2002FB8BF624282
:10A9900075B2B8BFD4B2002DB8BF734207EE904A6B
:10A9A000B8BFDEB2B8EE678A07EE906AF8EE679A33
:10A9B00007EE900AF8EE677A17EE900A05F08CF829
:10A9C000234B002204F098FEB8F1000FACBF1C4BE3
:10A9D0001C4B002204F090FE05F098F809EE100AD6
:10A9E00018EE100A05F078F8194B002204F084FEE6
:10A9F000002FACBF124B134B002204F07DFE05F07C
:10AA000085F808EE900A19EE900A05F065F8002224
:10AA10000F4B04F071FE0022002D68E79FED0D0A38
:10AA2000A5E700BFAFF300806E861BF0F921094057
:10AA3000ED4B002094010300E84B00200000603F34
:10AA40000000F03F0000F0BF0AD7233C0000344371
:10AA50000000A03F00000000F7B51D4CD4ED007AC7
:10AA600010EE105AF5EEC07AF1EE10FA48BF2560EC
:10AA7000206805F031F812A3D3E9002304F03CFE6E
:10AA8000064628460F4605F027F80FA3D3E9002312
:10AA900004F032FE02460B463046394604F006FD0D
:10AAA00005F034F807EE900AFCEEE77A2560CDED6C
:10AAB000017A9DF8040003B0F0BD00BFAFF3008041
:10AAC000666666666666E63F333333333333D33FB9
:10AAD0005832002007B51B2340B9ADF804300221DD
:10AAE00001A8FFF723FE03B05DF804FB054A8DF8CB
:10AAF0000430D3789278134363F07F038DF80530E8
:10AB0000EDE700BFE94B0020024A136901331361EE
:10AB1000704700BF685C002008B500F07BFA024B6C
:10AB200001221A7008BD00BF584C00204FF0A0430E
:10AB300007B50322C3F83827C3F84027C3F80C270A
:10AB4000C3F81827C3F828274022C3F808254FF474
:10AB50008042C3F808250822C3F808254FF4803244
:10AB6000C3F808254FF48062C3F80C25FBF73AFEC2
:10AB700008B1FBF793FD00F0EDF9194A19480021DF
:10AB8000FBF762FE08B1FBF789FD174A1748012160
:10AB9000FBF75AFE08B1FBF781FD154A1548012164
:10ABA000FBF752FE08B1FBF779FD134800224FF482
:10ABB0000041FBF754FE08B1FBF770FD00F050FBBD
:10ABC00000F0AAF90D4B1868019001A8FFF7BCFD31
:10ABD00008B1FBF763FD00F0F9F903B05DF804FB81
:10ABE000E5AC0200A801030019AB0200A0010300BC
:10ABF00009AB0200A4010300184C00209C010300D3
:10AC000038B5344D344B2A7818708242044635D01A
:10AC10004FF0A0434FF48032C3F808254FF4804230
:10AC2000C3F8082508222D48C3F80825FBF72FFE96
:10AC3000022C2C702BD0032C3CD0012C39D1284B6A
:10AC400018784FF0A0420821D0B9C2F80C151C703A
:10AC5000C8214FF400404FF4FA740025E0FB014591
:10AC60004FF47A7200232046294605F0C8F80022E6
:10AC70000146BDE838401948FBF7F1BD0020D7E791
:10AC8000C2F8081500221A704FF44871E1E7144B1E
:10AC90001A784FF0A0414FF4803432B9C1F80C4516
:10ACA000012119704FF40041E3E7C1F80845002283
:10ACB0001A7038BD0A4B1A784FF0A0444FF4804107
:10ACC00022B90120C4F80C151870D2E7C4F8081591
:10ACD000EDE700BFEE4B0020F04B0020384C002089
:10ACE000EF4B0020014B1878FFF78ABFF04B002094
:10ACF00038B5114D2A788242044602D00F48FBF73E
:10AD0000C6FD012C2C700AD1002240F6CD410B4823
:10AD1000FBF7A5FD78B1BDE83840FBF7BFBC1CB917
:10AD200022464FF48041F2E7022C04D1BDE83840BE
:10AD30000248FBF7ACBD38BD5C320020F84B002068
:10AD400008B5FBF7ABFD04F0B9FE05A3D3E900237A
:10AD500004F06EFD04F08AFE08BD00BFAFF3008072
:10AD6000FCA9F1D24D6240400B1A814238BF03F179
:10AD7000FA631846704700001FB518B101280DD0BE
:10AD800004B010BD0E4B0FCB6C4684E80F000123BE
:10AD9000022221460B48FEF75DFAF1E70A4B0093C9
:10ADA0000A4BDB7A01335B00ADF80430084B1B68BB
:10ADB000029300230393024603466946EAE700BF75
:10ADC000AC010300603200206E320020685C00207D
:10ADD000884C002008B50348FEF71AFA024B0022FF
:10ADE0001A7008BD60320020594C0020034B1B78BC
:10ADF00013B10348FEF76CBA01207047594C00208C
:10AE00006032002070B5214E214D32782870824288
:10AE1000044602D01F48FBF73AFD012C347011D0D4
:10AE2000022C2CD0ECB90120FFF7A6FF1A490B78B1
:10AE3000012213440B70194B2A701A70224640F6F7
:10AE4000CD4113E0FFF7D2FF02460028F7D0124BA6
:10AE50001B78042B06D902232B70FFF771FF104BD0
:10AE6000186070BD00222A704FF4C0310948FBF70A
:10AE7000F6FC0028F5D0BDE87040FBF70FBC074A90
:10AE800000231370044A1370EBE700BF5D3200200B
:10AE900068320020604C0020844C00205A4C002076
:10AEA000804C0020014B1878FFF7ACBF68320020BF
:10AEB00010B5144CA37A642B84BF6423A372A07AC8
:10AEC00004F0E8FD104B002204F0B2FC04F01EFE7A
:10AED000DFED0E7A0E4A07EE100AE7EE677AFCEE17
:10AEE000E77A17EE903A9BB2938013819381138295
:10AEF000E27A2389B3FBF2F30A22B3FBF2F3054AA9
:10AF0000136010BD685C00200000594000409C4563
:10AF10006E320020884C00207FB50B4A52F8100F8B
:10AF2000516803AB03C39068186003A90022074867
:10AF3000FEF7D4F8064B019001221A70FFF7B8FF14
:10AF4000019807B05DF804FBAC01030060320020FB
:10AF5000594C002008B5054A05480021FBF774FC50
:10AF600018B1BDE80840FBF799BB08BDA5AE0200CB
:10AF7000C801030008B58378022B10D10F4B02885B
:10AF800019688A420CD30E490878012808D00D4A66
:10AF900001230B701370FFF7D3FE0B4B186008BD35
:10AFA0001B689A42FBD2064B1A78012AF7D102227B
:10AFB0001A70044B00221A70EDE700BF84320020A3
:10AFC0008C4C0020944C0020904C002013B50B2397
:10AFD00009498DF8043001A8FDF770FA044608B15C
:10AFE000FBF75CFB2420FDF7ABFA044B0122204663
:10AFF0001A7002B010BD00BF75AF02008D4C00206A
:10B0000008B5FDF7B7FA024B00221A7008BD00BF61
:10B010008D4C002008B5FDF74DFB30B9FDF7BCFAAB
:10B0200018B1BDE80840FBF739BB08BD0378012B18
:10B0300003D143680BB9014A137070475C5C002070
:10B0400030B5152889B026D8144B0393441C4FF40F
:10B050007C7341F212150822002168460493ADF872
:10B060000850ADF80A4004F08DFF21466B4605AA52
:10B070002846FCF735FD02A948B905A8FCF7DAFC1B
:10B08000074A01231370074A137009B030BD05A8A1
:10B09000FCF7CCFCF9E748F20660F6E7954C002097
:10B0A0005C5C0020645C002030B589B00546082255
:10B0B0000C4603A8002104F065FF03AB05AA691C38
:10B0C00041F21210FCF70CFD10B1002009B030BDA8
:10B0D00001A905A8FCF748FC0028F6D102994FF415
:10B0E0007C62204604F025FF05A8FCF77BFC0120CC
:10B0F000ECE7000010B588B0164B0293164B039393
:10B100000822142300216846049304F03BFF42F216
:10B1100022216B4605AA41F21110FCF7E1FC02A9BD
:10B1200070B905A8FCF786FC044608B1FBF7B6FA2F
:10B130000A4A012313700A4A1370204608B010BD52
:10B1400005A8FCF773FC04460028F6D0FBF7A6FA26
:10B15000F3E700BF11112222685C00205C5C002034
:10B16000645C0020F8B5254CE3684FF47C67B3FBC2
:10B17000F7F207FB1236224A90552248591CE1602B
:10B1800001780131C9B20E294FF0000514D00170C9
:10B19000E1684FF47C62B1FBF2F302FB13134BB98D
:10B1A000194B1B78002BFDD115484FF47C62FF2111
:10B1B00004F0E8FE2846F8BD2169057013483244C2
:10B1C0000160C1F307605070C1F307409070C1F394
:10B1D0000720D07011715A1D0433B3FBF7F0C0B2D1
:10B1E000E260FFF72DFF08B1FBF758FAFFF782FF87
:10B1F000FFF7A6FD064B01251860C9E7685C002033
:10B20000954C0020555C00205C5C0020585C0020C0
:10B21000605C002000B589B00822002103A804F07A
:10B22000B1FE03AB05AA42F2222141F21110FCF754
:10B2300057FC18B1002009B05DF804FB01A905A86E
:10B24000FCF792FB0028F5D102990448142204F07F
:10B2500070FE05A8FCF7C6FB0120ECE7685C002047
:10B2600010B51A48FCF75AFAFCF76EFA08B1FBF76A
:10B2700015FAFFF7CFFF164C88B944F232632380EA
:10B28000144BE06047F23052C4E9012303F1B843A4
:10B2900003F53B1303F589732361FFF72BFFE06888
:10B2A0000D4B22690D491A6001384FF47C64B0FBE4
:10B2B000F4F0C0B2FFF7F8FE30B922460748BDE807
:10B2C0001040FF2104F05EBE10BD00BF2DB0020093
:10B2D000685C0020E8035003585C0020954C002077
:10B2E000024B00221A70FCF7D5BB00BF645C002043
:10B2F000704700001FB50B4B1868009053F8040FFF
:10B3000059681B7A01AA03C2074913706846FEF701
:10B31000F7F818B901A90620FEF73AF905B05DF86B
:10B3200004FB00BFCC010300F1B20200FEF7CABA71
:10B3300007B506200DF10601FEF784F908B1FBF709
:10B34000ADF9BDF806004FF4167310FB03F00028AA
:10B35000B8BF00F6FF70001300EB4000800080B221
:10B3600040F6B83398422AD940F6E443984228D9A7
:10B37000B0F5616F27D940F67463984225D940F63D
:10B38000A663984223D940F6CE63984221D940F66D
:10B39000F66398421FD940F61E7398421DD9B0F546
:10B3A000756F1CD940F6827398421AD941F2040392
:10B3B000984294BF5A20642003B05DF804FB00203B
:10B3C000FAE70520F8E70A20F6E71420F4E71E2044
:10B3D000F2E72820F0E73220EEE73C20ECE74620B9
:10B3E000EAE75020E8E713DF7047000040F6F87303
:10B3F0001868421C03D1044B1868431C01D0FFF7A6
:10B40000F2BF0420704700BF141000100148FFF77E
:10B41000EABF00BF006002006DDF704779DF704750
:10B420007DDF704764DF70472DE9F04F85B0002560
:10B430000E9CBDF83CB0B4F800A0019107469046C0
:10B440001E46A9463A884A450DDC45B12388013B92
:10B45000A3EB0A039BB2FF2B3AD806F80A30002070
:10B4600005B0BDE8F08F7A6852F8290003900022F9
:10B470000DF10B0103A8FFF7D5FF0028F0D19DF8CF
:10B480000B20424521D12288002D14BF002002202C
:10B4900002EB0801014459451ADC3DB9013292B270
:10B4A000019B2280B35422880132228022880DF130
:10B4B0000B01324403A8FFF7B5FF0028D0D1218843
:10B4C0009DF80B200A442280012509F10109B9E702
:10B4D0000C20C5E72DE9F341089FBDF824801546EF
:10B4E000CDE90078022204461E46FFF79DFF50B9C1
:10B4F0003346102229462046CDE9087802B0BDE83F
:10B50000F041FFF791BF02B0BDE8F0812DE9F04FA7
:10B5100000231788138090F82D3085B006460D461D
:10B52000144653B3082F01D80C2027E102A8FFF7D7
:10B5300073FF002840F0228123880822EA542388E0
:10B5400001339BB21B222380EA542088013080B251
:10B55000208006220DF10901284404F0EAFC23882A
:10B560009DF8082006339BB212F0FE0218BF01229C
:10B570002380EA54238801332380B378FBB12388E6
:10B580000433BB42D0D802A8FFF748FF002840F0A0
:10B59000F58023880322EA54238801339BB21922C1
:10B5A0002380EA542388BDF8082001339BB2E918B0
:10B5B0002380EA54120A4A70238802332380F278E7
:10B5C0009AB12388D91CB942AED80221E954238804
:10B5D00001339BB201212380E95423880B449BB2A1
:10B5E0002380EA5423880B4423807268AAB12388FD
:10B5F000D91CB94298D8022192F90020E954238835
:10B6000001339BB20A212380E954238801339BB282
:10B610002380EA542388013323803389002B40F0B0
:10B62000A180338A5BB1CDE900472B460722032175
:10B6300006F11000FFF74EFF002840F09F80338B8B
:10B640005BB1CDE900472B461522142106F1180005
:10B65000FFF740FF002840F09180326A002A40F056
:10B660009080D6F82480B8F1000F30D0B8F80430BC
:10B670002188981C8A1C0244BA423FF655AFFE2826
:10B680003FF652AF03336B54238801339BB2FF2242
:10B690002380EA54238801339BB22380B8F800202A
:10B6A000EA54E918120A4A702088023080B22080D9
:10B6B000B8F804205AB1D8F8081000296BD02844F3
:10B6C00004F037FC2388B8F804201344238096F84C
:10B6D0002C30002B40F09A80307800284ED03388F0
:10B6E000012B58D0228802F1020CBC453FF61CAF5A
:10B6F000012805D17378023313449F42FFF414AF3D
:10B70000023FBF1ABFB202A905EB0C00ADF80870EA
:10B71000FFF786FE90BB3178BDF80830022900F0B3
:10B72000BA8072789A4202D3BB4240F2B2800129B9
:10B7300040F0B380974293B2C0F0AF80ADF80830CC
:10B740000821BDF80830FE2B3FF6EEAE228801330B
:10B75000AB542288013292B22280A9542288134429
:10B7600023800BE0CDE900472B460622022106F19B
:10B770000800FFF7AFFE00283FF453AF05B0BDE867
:10B78000F08FB4F800C00CF10603BB423FF6CCAE1C
:10B790001188052901D80720F0E76FF4486E01EB06
:10B7A0000E039BB24FF27D3E7345F4D95388052BAF
:10B7B000F1D96FF44860181880B27045EBD94FF694
:10B7C000FF70814203D0834201D09942E3D8052320
:10B7D00005F80C30238801339BB212212380E954F1
:10B7E000238801339BB223801188E954E818090AA1
:10B7F0004170238802339BB223805288EA54E918AF
:10B80000120A4A702388023323802AE7B36A002B86
:10B81000C1D04FF000094FF00C0A4FF0160B96F80C
:10B820002C305FFA89F293427FF656AFB16A0AFB79
:10B8300002F201EB0208B8F80430981CFE283FF62B
:10B8400073AE208803332B54238801339BB22380AB
:10B8500005F803B0238801339BB223808A5AEA5447
:10B86000E918120A4A702088023080B22080B8F8A5
:10B8700004205AB1D8F8081000298CD0284404F0CC
:10B8800058FB2388B8F804201344238009F10109E8
:10B89000C5E7092155E7BB42FBD9ADF808704FE772
:10B8A00030B5C8B1F2B10024651C8D4206DA1588A6
:10B8B000A54212D805196D789D420ED1A14211D929
:10B8C000005D48B1013880B230B10234A3B210FA41
:10B8D00084F4A14206DB138030BD055D01352C44A4
:10B8E000A4B2E1E70020F7E713B513460022ADF854
:10B8F00006200DF106020446FFF7D2FF10B1BDF895
:10B900000630E01802B010BD72DF704773DF704779
:10B9100038B5012204460D46B0F81414D0F81004CE
:10B92000FFF7E2FF00B1057004F13C0204F582610B
:10B9300004F15400BDE83840FFF7E6BF80F830104E
:10B940007047F8B504460F46002975D0002873D01B
:10B9500091F87A301BB191F89830002B6ED1D7F85E
:10B96000A030042B6AD0D7F89C30042B66D04FF05F
:10B97000000C84F802C007F178060FCE251D0FC514
:10B980000FCE0FC596E8070085E8070084F830C0A1
:10B99000D7F8A4306363D7F8A830A3634FF6FF75D8
:10B9A00004F58263C4F82034A4F8245407226146C5
:10B9B00004F2264004F0E6FA23780BB984F85450D8
:10B9C00094F82430002B14BFEE231F2304F15501FB
:10B9D000C4F81014A4F8143404F214423846FFF7E3
:10B9E00095FD40BB94F82430002B14BFEE231F2399
:10B9F00004F23121C4F81814A4F81C3404F21C42D7
:10BA000007F13C00FFF782FDA8B9A369A4F848300C
:10BA10004FF480730125A4F8503063692064014617
:10BA200084F83C50636404F13C0204F15400FFF7D5
:10BA30006BFF00B92570F8BD0E20FCE70720FAE780
:10BA4000F8B5077804460D46002F00F0038100F298
:10BA50002646817007220021304604F093FAE388DD
:10BA600013B1A378012B04D0E3794BB1A378022B57
:10BA700006D1636BA3B1012284F82D2408209847D6
:10BA8000334604F22C4113F8012F12B99942FAD12E
:10BA900017466B1E032B51D8DFE803F0050B0F127E
:10BAA00084F82D34ECE7A3791BB194F8243003B962
:10BAB0005FB9E3790BB1002F42D1237A002B41D13A
:10BAC000637A002B0CBF00250425636BA570002B47
:10BAD0003AD0033D012D37D86279AAB394F82E24C9
