:020000022000DC
:1060000000000120756302005D6302005F6302000F
:106010006163020063630200656302000000000028
:1060200000000000000000000000000067630200A4
:1060300069630200000000006B6302006D630200F0
:1060400091D902006F63020029DF02004DED0200CA
:106050006F6302006F63020025DE02000DFD020087
:106060006F6302006F6302006F6302006F630200E0
:106070006F6302006F6302006F6302006F630200D0
:106080006F630200999002006F6302006F63020069
:106090006F6302006F630200F9DD03006F630200AB
:1060A0006F6302006F6302006F6302006F630200A0
:1060B000E9F802006F630200000000000000000029
:1060C0006F6302006F6302006F6302006F63020080
:1060D0006F6302006F6302006F6302000000000044
:1060E00000000000000000000000000000000000B0
:1060F00000000000000000000000000000000000A0
:10610000000000000000000000000000000000008F
:10611000000000000000000000000000000000007F
:10612000000000000000000000000000000000006F
:10613000000000000000000000000000000000005F
:10614000000000000000000000000000000000004F
:10615000000000000000000000000000000000003F
:10616000000000000000000000000000000000002F
:10617000000000000000000000000000000000001F
:10618000000000000000000000000000000000000F
:1061900000000000000000000000000000000000FF
:1061A00000000000000000000000000000000000EF
:1061B00000000000000000000000000000000000DF
:1061C00000000000000000000000000000000000CF
:1061D00000000000000000000000000000000000BF
:1061E00000000000000000000000000000000000AF
:1061F000000000000000000000000000000000009F
:10620000354936480A1A02D0072291438D4634494F
:1062100034480A1A06D00722914381F309880222E2
:1062200082F3148830483149314A00F044F831484B
:106230003149324A00F03FF831483249324A00F0E1
:106240003AF832483249334A00F035F83248334997
:10625000334A00F030F833483349344A00F02BF821
:1062600033483449344A00F026F83448344900228F
:1062700000F02CF833483449002200F027F8334866
:106280003349091A082902DB002202604160314AC1
:1062900090471F481F49884205D00268043003B464
:1062A000904703BCF7E700208646EC46002000211B
:1062B000294A9047FEE7884207D0521A05D0037852
:1062C00001300B700131013AF9D17047884202D098
:1062D00002700130FAE770470000012000E0002062
:1062E0000000012000000120B04904003C320020E1
:1062F00038330020D0630200D06302006000040045
:10630000B04904003C3200203C3200200C02040062
:106310000C0204000C0204000C0204000C02040035
:106320000C0204000C0204000C020400B04904003A
:10633000AC4A0400383300203833002038330020C2
:10634000B0690020B0690020B4690020B469002061
:10635000B48900209D63020085190300FEE7FEE773
:10636000FEE7FEE7FEE7FEE7FEE7FEE7FEE7FEE705
:1063700000F002B8FFF7FCBF0F484FF00701884359
:1063800085460E4880470E48016841F4700101605F
:10639000BFF34F8FBFF36F8FFFF732BF09480A4932
:1063A0000A4A884207D0521A05D0037801300B7090
:1063B0000131013AF9D1704700000120BD7A020095
:1063C00088ED00E0F8010400283200203C32002073
:1063D00000487047A869002000B585B00190019B76
:1063E000002B0AD0074B43F001030393019B9B0151
:1063F0000293039B0298984700E000BF05B05DF848
:1064000004FB00BF2002040000B583B00190019B93
:10641000002B0AD04FF47A70FFF7DEFF019B013B9F
:106420000193019B002BF5D100E000BF03B05DF8A4
:1064300004FB08B50EF088F900BF08BD00B589B0AF
:10644000039002910192019B002B33D0002307930C
:1064500003230693029A079B1344019A19460020CE
:106460000EF0EAF80590079A059B13440793019AEA
:10647000059BD31A0193059B002B13D10F4B1B785F
:1064800083F00103DBB2002B13D10120FFF7BCFF27
:10649000069B013B0693069B002B03D1074B002272
:1064A0001A7007E0054B01221A70019B002BD1D115
:1064B00000E000BF00BF09B05DF804FB38330020E6
:1064C00000B585B003900291054B00934023054A27
:1064D0000299039800F012F800BF05B05DF804FBC4
:1064E0003D6402003C33002082B0019000BF02B046
:1064F000704782B0019000BF02B0704700B5A1B0F4
:106500000590049103920293049806F019FB039BF3
:106510001593029B16930023179300238DF8603088
:1065200000231993229B1A9300231F930FA91F9BEB
:106530000822049806F0DEFB08231F93119B129398
:10654000BDF84030ADF84C30BDF84230ADF84E30BB
:1065500000238DF851309DF83C3003F00303DBB28B
:10656000012B26D10F9BC3F395231C939DF83C3040
:10657000C3F3C203DBB28DF85030BDF83C30C3F337
:106580008313DBB21B931B9B9A0009A91F9B0498E2
:1065900006F0B0FB1B9B9B001F9A13441F9312AA8B
:1065A00009A915AB009313461B9A1C9800F0F8FE3E
:1065B0002FE09DF83C3003F00303DBB2022B28D11F
:1065C000BDF83E30C3F389139BB21E939DF83C3057
:1065D000C3F3C203DBB28DF850301E9B082B28BFDB
:1065E00008231D9307A91F9B1D9A049806F082FBA0
:1065F0001F9A1D9B13441F931E9A1D9BD31A1E9313
:1066000015AB12AA07A81D9900F06CFF1E9B002B6A
:10661000E3D1049806F0A3FA00BF21B05DF804FBB3
:1066200082B00190019BDB6801225A7100BF02B069
:106630007047000000B583B04FF0FF330193FFF7C0
:10664000F8FE0421084800F0C7FD0190019B002BD3
:1066500003DA064941200AF0A5FA0348FFF7E0FFF4
:1066600000BF03B05DF804FBD4010400380204004D
:1066700000B583B001900091019B1B681B680099D5
:106680000198984700BF03B05DF804FB00B583B0E4
:106690000190019B1B685B680198984700BF03B09D
:1066A0005DF804FB00B583B00190019B1B689B68FB
:1066B0000198984700BF03B05DF804FB82B00190D9
:1066C0000B468DF80330019BDB689DF803201A719F
:1066D00000BF02B0704782B00190019BDB681B795C
:1066E000184602B0704782B00190019BDB6801221E
:1066F0005A7100BF02B0704782B00190019BDB6805
:106700005B79184602B0704700B585B001900091E2
:106710000C4B00221A700C4806F076F90390039B8C
:10672000002B01D0039B08E0084806F0D3FC084A80
:10673000084BD31ADB0802930023184605B05DF816
:1067400004FB00BFE4340020E4010400B4020400B0
:10675000A4010400CC000400024A034BD31ADB0856
:1067600018467047A4010400CC00040000B587B0AF
:1067700001900B468DF803309DF80330002B1FD09D
:10678000FFF7EAFF04900023059313E0059B9B00AD
:106790000E4A13440393039B1B881A46019B1B68F4
:1067A0009A4204D1019B059A1A60002309E0059BD7
:1067B00001330593059A049B9A42E7D3052300E031
:1067C0000023184607B05DF804FB00BF2832002004
:1067D00000B585B001900B468DF803309DF803207D
:1067E00001AB11461846FFF7C1FF0346002B07D146
:1067F000019BDB00054A13440393039B1B6800E0E5
:106800000023184605B05DF804FB00BFCC0004006F
:1068100084B001900B468DF80330019BDB00174AD2
:10682000134402939DF80330013B032B1CD801A2B3
:1068300052F823F0456802004D68020055680200D6
:106840005F68020002238DF80F3011E004238DF8F9
:106850000F300DE0029B1B798DF80F3008E0029B92
:106860005B798DF80F3003E000238DF80F3000BF07
:106870009DF80F30184604B0704700BFCC000400EC
:1068800084B00190009100238DF80F30019B1B789C
:1068900003F00403DBB2002B24D0019B1B78C3F36D
:1068A0000103DBB2012B02D0022B0CD017E0009BBE
:1068B0001B68019A1288C2F38312D2B213449A1C45
:1068C000009B1A600BE0009B1B68019A5288C2F380
:1068D000891292B213449A1C009B1A6000BF0123D4
:1068E0008DF80F309DF80F30184604B07047000047
:1068F00000B58BB00023ADF826303E4804F0BDFE55
:106900003D4804F0BAFE3D4B9B6804933C4B1B682A
:106910000693049A069B134002339B00374A1344A4
:106920000433089304AB19460898FFF7A9FF034600
:10693000002B09D0049A069B134002339B002F4A78
:10694000134404330893EDE700BF0023079311E0DD
:10695000049B5A1C0492069A1340079A920001A9BC
:106960000A44264902339B000B445B681360079B73
:1069700001330793079B012BEAD99DF80430C3F339
:106980000103DBB2012B10D0022B1CD1BDF80A3061
:10699000ADF82630BDF80630C3F389139BB203333C
:1069A0009A08049B1344049313E0BDF80A30ADF831
:1069B0002630BDF80430C3F38313DBB21A46049BC0
:1069C0001344049305E00F494FF4C2700AF0EAF84B
:1069D00000BF094804F05DFE0590059B002B02D026
:1069E000049B064A9360BDF8263018460BB05DF84C
:1069F00004FB00BFFC380020F8380020E4340020FD
:106A000044320020C402040000B585B000210748CC
:106A100004F068FD0390039B0293029B83F3100331
:106A20000193019B184605B05DF804FB0039002076
:106A300000B589B00390029101920093039B1B0C57
:106A40000793FFF7E1FF0690FFF786FE0246079BDC
:106A5000934204D3214940F2A9100AF0A3F8069BFF
:106A60001904009B5A1C0A9B1340079A0A431C49AD
:106A700002339B000B445A60009A0A9B1340023376
:106A80009B00174A134404330593039B03F0070349
:106A9000D9B2059A137861F3C5031370019B03F013
:106AA0000F03D9B2059A138861F389131380029BEF
:106AB000C3F31501059A136861F39F231360059AC8
:106AC0001378012161F301031370059A13786FF3B2
:106AD0008203137000BF09B05DF804FBC402040018
:106AE000E434002000B58DB00390029113468DF878
:106AF0000730039B02330A9301238DF827300023CC
:106B00008DF81B300DF11B03184601F043FE404B7E
:106B10005A68029B1A603F4B1A683D4B99683C4B80
:106B20005B68CB1A134401330B9314E001213A48FC
:106B300004F067FDFFF7DCFE07900799364804F084
:106B400060FD344B1A68324B9968314B5B68CB1A45
:106B5000134401330B930A9A0B9B9A42E6D89DF893
:106B60002730002B48D0002305939DF80730002BD9
:106B700017D09DF81430012262F301038DF8143010
:106B80009DF8143043F004038DF81430039B03F098
:106B90000F03DAB2BDF8143062F38913ADF8143084
:106BA00016E09DF81430022262F301038DF81430D0
:106BB0009DF8143043F004038DF81430039BC3F3A5
:106BC00009039AB2BDF8163062F38F13ADF8163090
:106BD0000F4B5A680F4B1B68134002339B000C4A43
:106BE000134404330893059A089B1A60084B5A68AB
:106BF0000A9B1344064A53609DF81B30184601F067
:106C0000DFFD9DF8273018460DB05DF804FB00BF8E
:106C1000E4340020443200200039002000B58BB05D
:106C200005900491039202931F4B1B68079306ABD8
:106C3000012219460298FFF755FF0346002B24D086
:106C4000069B023309930023089311E0089B9B00E5
:106C5000039A1A44099B591C099107990B40126821
:106C6000124902339B000B445A60089B013308937E
:106C7000089A029B9A42E9D3069A079B009313460F
:106C8000029A04990598FFF7D3FE084B1B78002B56
:106C900005D000BF00F096F80346002BFAD100BFE4
:106CA0000BB05DF804FB00BF44320020E434002048
:106CB00000B583B001900091002300220099019853
:106CC000FFF7ACFF00BF03B05DF804FB00B587B071
:106CD000039002910192019B059305AA0123029959
:106CE0000398FFF79BFF00BF07B05DF804FB00B5FA
:106CF00087B00390029101920093019B0493009B43
:106D0000059304AA022302990398FFF787FF00BFA7
:106D100007B05DF804FB00B589B0039002910192C1
:106D20000093019B0593009B06930A9B079305AA7A
:106D3000032302990398FFF771FF00BF09B05DF8C4
:106D400004FB00B589B00390029101920093019B6E
:106D50000493009B05930A9B06930B9B079304AA3D
:106D6000042302990398FFF759FF00BF09B05DF8AB
:106D700004FB00B58BB00390029101920093019B3C
:106D80000593009B06930C9B07930D9B08930E9B0A
:106D9000099305AA052302990398FFF73FFF00BF57
:106DA0000BB05DF804FB0000054B9A68044B5B6870
:106DB0009A420CBF01230023DBB21846704700BF84
:106DC000E434002000B599B0FFF7EEFF0346002B36
:106DD00001D00023C0E19B4B0022C3F81824BFF36D
:106DE0004F8F00BF974B9B680493974B1B68109382
:106DF000049A109B134002339B00924A13440433BD
:106E00001193002317930023169300230F9304ABD1
:106E100019461198FFF734FD0346002B19D0894B12
:106E2000D3F81834002B14D1864B5A68049B9A422D
:106E300005D8844B5B68834A936000238CE1049AF5
:106E4000109B134002339B007E4A1344043311937A
:106E5000DDE70023159311E0049B5A1C0492109A5D
:106E60001340159A920001A90A44764902339B0007
:106E70000B445B681360159B01331593159B012B25
:106E8000EAD99DF8043003F00303DBB2022B40F093
:106E90009C80BDF80630C3F389139BB20D93BDF8F7
:106EA0000630C3F389139BB2502B28BF50239BB2EB
:106EB0000C930C9BC3F309039AB2BDF8063062F33E
:106EC0008F13ADF806300C9B08330B939DF80430FC
:106ED000C3F3C203DBB20F930B995C4805F09FFD2F
:106EE0001790179B002B00F0D380179805F028FE11
:106EF00001A9169B0822179805F0DEFE169B0833A1
:106F00001693049BDA43109B134001339B000A93B2
:106F10000C9A0A9B9A4242D90A9B002B08D0049AE9
:106F2000109B134002339B00464A1344043300E095
:106F3000474B08930A9B002B02D00A9BDBB201E06F
:106F40000C9BDBB28DF81F300A9B002B01D0404B0D
:106F500000E0002306930A9B002B06D00C9BDAB2BC
:106F60000A9BDBB2D31ADBB200E000238DF81730A6
:106F70009DF81F20169B0899179805F09DFE9DF817
:106F80001F30169A13441693069B002B16D09DF8BB
:106F90001720169B0699179805F08EFE0EE0049AAE
:106FA000109B134002339B00264A13440433099379
:106FB000169B0C9A0999179805F07EFE0D9B0333DA
:106FC0009A08049B1344049362E09DF8043003F094
:106FD0000303DBB2012B5BD1BDF80430C3F3831391
:106FE000DBB2062B28BF0623DAB2BDF8043062F309
:106FF0008913ADF80430BDF80430C3F38313DBB25A
:1070000002330E939DF80430C3F3C203DBB20F9337
:107010000E9B9B0019460D4805F001FD1790179B2C
:10702000002B35D0179805F08BFD01A9169B08227F
:10703000179805F041FE169B08331693002315930D
:107040001DE000BFE434002044320020E4010400CD
:10705000F0340020049B5A1C0492109A134002330F
:107060009B003F4A1344191D169B0422179805F0F4
:1070700023FE169B04331693159B01331593BDF81D
:107080000430C3F38313DBB21A46159B9342E1D35A
:10709000179B002B40D0324BD3F810341493304B55
:1070A000D3F81834002B1BD0179805F058FD4DE08D
:1070B00000238DF84F301498FFF71EFB0346002B7A
:1070C00002D001238DF84F309DF84F30002B03D0B4
:1070D00017991498FFF7CCFA149BDB681B6814937C
:1070E000149B002BE4D1179805F039FD00238DF88F
:1070F00003300DF10303184601F04CFB184BD3F895
:107100001834002B02D1049B154A93609DF803307C
:10711000184601F055FB19E0114BD3F810341293C7
:1071200006E01298FFF7BEFA129BDB681B68129309
:10713000129B002BF5D10B4A0B4BD31ADB081B0417
:1071400043F0020309491846FFF7B2FDFFF72CFE92
:10715000034683F00103DBB2184619B05DF804FB67
:10716000E43400200C010400CC00040038030400C7
:1071700000B585B00023039323E0164BD3F81034F9
:10718000029301238DF807300FE00298FFF7A3FA6E
:1071900003461A46039B934203D100238DF8073020
:1071A00006E0029BDB681B680293029B002BECD17C
:1071B0009DF80730002B01D0039B07E0039B0133B0
:1071C0000393039B092BD8DD4FF0FF33184605B01E
:1071D0005DF804FBE434002000B585B001900B4657
:1071E0008DF80330FFF7C4FF0390039BB3F1FF3F1B
:1071F00001D1039B22E0039BDBB219460198FFF704
:107200005DFA104BD3F81034002B08D10D4A019BC6
:10721000C2F81034019BDB6800221A600DE0094BB4
:10722000D3F81034DA68019BDB6812681A60054BEA
:10723000D3F81034DB68019A1A60039B184605B036
:107240005DF804FBE434002000B583B00C4BD3F8A8
:10725000103401930A4B01221A7009E00198FFF7DC
:1072600042FA0198FFF712FA019BDB681B68019351
:10727000019B002BF2D100BF00BF03B05DF804FBFF
:10728000E434002082B00190009100BF02B070474A
:1072900010B584B003900291039BDB88002B0AD0C9
:1072A000039BDB881A461F4B009313461E4A1F4957
:1072B000029804F02BFB039B1B7A052B2ED0039B1B
:1072C0005B7A002B12D0039B9B881A46039B1B7A88
:1072D00019461046FFF79CFA03461A46144B53F81A
:1072E00022301A461349029804F010FB039B1B68D6
:1072F00019460298FFF7C6FF039B1B7A1A460E4BEE
:1073000053F82240039B9B8800211846FFF760FA40
:10731000034622460949029804F0F8FA00BF04B077
:1073200010BD00BF6C0304007C030400B403040020
:107330005C320020CC03040048320020D00304005B
:1073400000B585B00390029113468DF80730039B7A
:107350001B7A052B0FD0039B5B7A002B06D00D4BBD
:107360001B681A460C49029804F0D0FA0B4902989F
:1073700004F0CCFA07E09DF80730002B03D0074952
:10738000029804F0C3FA029804F09EFA00BF05B018
:107390005DF804FB5C320020CC030400DC03040035
:1073A00030B58BB007900691059204930E9B1B7B22
:1073B0008DF827300E9B00221A730E990498FFF760
:1073C00067FF059B062B7FD801A252F823F000BF70
:1073D000ED730200F7730200077402001B740200D1
:1073E00039740200617402009174020007990E98CA
:1073F00004F08CFA69E0069B1B681A4607990E9800
:1074000004F084FA61E0069B1A68069B04331B684B
:1074100007990E9804F07AFA57E0069B1A68069BC3
:1074200004331968069B08331B6800930B460799C1
:107430000E9804F06BFA48E0069B1968069B04332B
:107440001868069B08331B68069A0C321268019272
:10745000009303460A4607990E9804F057FA34E061
:10746000069B1868069B04331C68069B08331B6840
:10747000069A0C321268069910310968029101923D
:1074800000932346024607990E9804F03FFA1CE049
:10749000069B1C68069B04331D68069B08331B680B
:1074A000069A0C3212680699103109680698143051
:1074B000006803900291019200932B46224607999F
:1074C0000E9804F023FA00E000BF00220E99049801
:1074D000FFF736FF0E9B9DF827201A7300BF0BB0F5
:1074E00030BD00BF00B587B00390029101920093B8
:1074F000029B082B60D8009B1B7B8DF81330009BF0
:1075000000221A7300990198FFF7C2FE0023059329
:1075100014E0059A029B9A4209D2039A059B1344F0
:107520001B781A462649009804F0F0F903E0254933
:10753000009804F0EBF9059B01330593059B072B9D
:10754000E7D92149009804F0E1F90023059326E0EA
:10755000059A029B9A421BD2039A059B13441B78FF
:107560008DF812309DF812307E2B0AD89DF812301B
:10757000184617F0BBFD0346002B02D09DF81230D1
:1075800000E02E231A461149009804F0BFF903E0E9
:107590000F49009804F0BAF9059B01330593059B48
:1075A000072BD5D9012200990198FFF7C9FE009B4E
:1075B0009DF813201A7300E000BF07B05DF804FBCC
:1075C000E0030400E8030400EC030400F0030400FB
:1075D000F4030400BFF34F8F00BF064BDB6803F4D6
:1075E000E0620449044B1343CB60BFF34F8F00BFED
:1075F00000BFFDE700ED00E00400FA0582B01A4B81
:107600001B68B3F1FF3F0AD1184B1B68DBB2019333
:10761000174B1B681B0903F00F03009305E0124B87
:107620001B680193134B1B680093019B062B17D11A
:10763000009B033B032B13D801A252F823F000BF99
:107640005176020055760200597602005D760200FE
:10765000012306E0012304E0012302E0012300E00E
:107660000023184602B0704730010010E00F00F010
:10767000E80F00F03401001082B0144B1B68DBB23D
:107680000193134B1B681B0903F00F030093019B2D
:10769000062B17D1009B033B032B13D801A252F8F2
:1076A00023F000BFB5760200B9760200BD76020075
:1076B000C1760200012306E0002304E0002302E07B
:1076C000002300E00023184602B07047E00F00F0EE
:1076D000E80F00F082B01A4B1B68B3F1FF3F0AD1EC
:1076E000184B1B68DBB20193174B1B681B0903F097
:1076F0000F03009305E0124B1B680193134B1B68AB
:107700000093019B062B17D1009B033B032B13D83F
:1077100001A252F823F000BF297702002D77020062
:107720003177020035770200012306E0012304E0EF
:10773000012302E0012300E00023184602B0704755
:1077400030010010E00F00F0E80F00F034010010ED
:1077500082B0144B1B68DBB20193134B1B681B09EF
:1077600003F00F030093019B062B17D1009B033BF3
:10777000032B13D801A252F823F000BF8D7702002B
:10778000917702009577020099770200012306E0C5
:10779000002304E0002302E0002300E00023184659
:1077A00002B07047E00F00F0E80F00F082B01A4B13
:1077B0001B68B3F1FF3F0AD1184B1B68DBB2019382
:1077C000174B1B681B0903F00F03009305E0124BD6
:1077D0001B680193134B1B680093019B062B17D169
:1077E000009B033B032B13D801A252F823F000BFE8
:1077F0000178020005780200097802000D78020085
:10780000012306E0012304E0012302E0012300E05C
:107810000023184602B0704730010010E00F00F05E
:10782000E80F00F03401001082B0144B1B68DBB28B
:107830000193134B1B681B0903F00F030093019B7B
:10784000062B17D1009B033B032B13D801A252F840
:1078500023F000BF65780200697802006D780200AD
:1078600071780200012306E0002304E0002302E017
:10787000002300E00023184602B07047E00F00F03C
:10788000E80F00F082B0144B1B68DBB20193134B7E
:107890001B681B0903F00F030093019B062B17D1F4
:1078A000009B033B032B13D801A252F823F000BF27
:1078B000C1780200C5780200C9780200CD780200C4
:1078C000012306E0002304E0002302E0002300E09F
:1078D0000023184602B07047E00F00F0E80F00F0F8
:1078E00082B01A4B1B68B3F1FF3F0AD1184B1B68DB
:1078F000DBB20193174B1B681B0903F00F030093C6
:1079000005E0124B1B680193134B1B680093019B0E
:10791000062B17D1009B033B032B13D801A252F86F
:1079200023F000BF35790200397902003D79020069
:1079300041790200002306E0002304E0012302E075
:10794000012300E00023184602B070473001001008
:10795000E00F00F0E80F00F03401001082B01A4B85
:107960001B68B3F1FF3F0AD1184B1B68DBB20193D0
:10797000174B1B681B0903F00F03009305E0124B24
:107980001B680193134B1B680093019B062B17D1B7
:10799000009B033B032B13D801A252F823F000BF36
:1079A000B1790200B5790200B9790200BD7902000F
:1079B000012306E0012304E0012302E0012300E0AB
:1079C0000023184602B0704730010010E00F00F0AD
:1079D000E80F00F03401001082B01A4B1B68B3F1BD
:1079E000FF3F0AD1184B1B68DBB20193174B1B6892
:1079F0001B0903F00F03009305E0124B1B68019372
:107A0000134B1B680093019B062B17D1009B033B74
:107A1000032B13D801A252F823F000BF2D7A0200E5
:107A2000317A0200357A0200397A0200012306E039
:107A3000012304E0012302E0012300E000231846B3
:107A400002B0704730010010E00F00F0E80F00F0C6
:107A50003401001082B0124B1B680193114B1B685C
:107A60000093019B062B17D1009B033B032B13D8DC
:107A700001A252F823F000BF897A02008D7A020039
:107A8000917A0200957A0200002306E0002304E0C8
:107A9000002302E0012300E00023184602B07047F3
:107AA0003001001034010010024B034A1A6000BF7D
:107AB000704700BF803200200090D00308B5FFF768
:107AC0009DFD0346002B06D09B4B1B681B0A9B4A5F
:107AD00003F01F031360FFF7CFFD0346002B02D016
:107AE000974B984A1A60FFF7F5FD0346002B06D026
:107AF000954B1B685B0B954A03F007031360FFF778
:107B000027FE0346002B05D0914BDB68904A23F0FB
:107B10008073D360FFF74AFE0346002B0ED04FF070
:107B200080430022C3F80C214FF080430022C3F8A9
:107B300010214FF080430022C3F83825FFF774FE70
:107B40000346002B02D0834B03221A60FFF79AFEF4
:107B50000346002B0BD0804B05221A607F4B01227D
:107B60001A607F4B00221A607E4B3F221A60FFF79B
:107B7000B7FE0346002B76D04FF080537A4AD3F8F5
:107B80000434C2F820354FF08053774AD3F80834D4
:107B9000C2F824354FF08053734AD3F80C34C2F83E
:107BA00028354FF08053704AD3F81034C2F82C3582
:107BB0004FF080536C4AD3F81434C2F830354FF08C
:107BC0008053694AD3F81834C2F834354FF08053E3
:107BD000654AD3F81C34C2F840354FF08053624AEE
:107BE000D3F82034C2F844354FF080535E4AD3F8BE
:107BF0002434C2F848354FF080535B4AD3F8283418
:107C0000C2F84C354FF08053574AD3F82C34C2F8A1
:107C100050354FF08053544AD3F83034C2F85435BD
:107C20004FF08053504AD3F83434C2F860354FF0E7
:107C300080534D4AD3F83834C2F864354FF080533E
:107C4000494AD3F83C34C2F868354FF08053464A6D
:107C5000D3F84034C2F86C354FF08053424AD3F821
:107C60004434C2F87035FFF779FE0346002B05D087
:107C70003E4B1B683E4A03F04F031360FFF7ACFE18
:107C80000346002B0DD04FF08043D3F8003403F0AF
:107C90000103002B05D04FF080436FF00102C3F8C1
:107CA0000024FFF7D7FE0346002B05D0314B1B689D
:107CB000304A43F4806313602F4BD3F888302E4A48
:107CC00043F47003C2F88830BFF34F8F00BFBFF397
:107CD0006F8F00BF4FF01023D3F80C3203F0010375
:107CE000012B25D1254B0122C3F8042500BF234BCE
:107CF000D3F80034002BFAD04FF01023D3F80C3215
:107D00004FF0102223F00103C2F80C3200BF1B4BCE
:107D1000D3F80034002BFAD0184B0022C3F8042506
:107D200000BF164BD3F80034002BFAD0FFF752FCFB
:107D3000FFF7BAFE00BF08BD240300104035014024
:107D400074C007400DF0ADBA440200103C0500407D
:107D5000F0ED00E0A00500401056004088560040BD
:107D6000185600401456004000C000405802001051
:107D7000E40E00403C17004000ED00E000E0014050
:107D800086B003900291019201238DF817309DF87F
:107D90001730204A039B13601E4A029B53601D4A02
:107DA000019B9360039B44F20102934212D0039B18
:107DB00044F20202934220D1019B164AD360154B34
:107DC000DB681B68134A9361124BDB685B68114ADE
:107DD000D36112E0019B0F4A13610E4B1B699B6834
:107DE0000C4A53610B4B1B691B680A4A9361094B90
:107DF0001B695B68074AD36100BF72B600BF00BF52
:107E00009DF81730DBB2002BFAD162B600BF00BF7D
:107E100006B070470439002000B583B0029000918D
:107E2000019244F2010071466A4600F003F803B083
:107E300000BD00BF30B58BB007900691059272B6B9
:107E400000BFFFF701FA00BFFEF7BCFF0346002B9F
:107E5000FAD1079B44F2020293422FD0079B44F2CF
:107E60000202934269D8079B44F20102934237D041
:107E7000079B44F2010293425FD8079B012B05D078
:107E8000079B41F2010293420CD056E0394A3A4B2B
:107E9000D31ADB081B0443F0010338491846FEF7E8
:107EA00007FF57E0334A344BD31ADB081B0443F077
:107EB000010333491846FEF7FBFE4BE0059B09938F
:107EC0002C4A2D4BD31ADB081B0443F00100099BFD
:107ED0005B681A46099B1B682A49FEF708FF39E0D0
:107EE000059B0893234A244BD31ADB081B0443F059
:107EF0000104089B9D68089B9B68184605F00AFAD8
:107F000003461846089B5B681946089B1B68069A3F
:107F100002920193009103462A461B492046FEF730
:107F200028FF144A144BD31ADB081B0443F0010347
:107F300016491846FEF7BCFE0CE00E4A0E4BD31A4B
:107F4000DB081B0443F00103069A11491846FEF7AB
:107F5000BDFE00BF0F4B1B6803F00103002B00D0D8
:107F600000BE059A06990798FFF70AFF00BF0BB0FD
:107F700030BD00BF0C010400CC000400F803040075
:107F8000180404003C0404005804040080040400A5
:107F900094040400F0ED00E02DE9F04383B01448B0
:107FA00001F05FF8034600221C461546114BD3E949
:107FB000002314EB020845EB0309CDE900890E4BC1
:107FC000D3E90023DDE90001904271EB030307D2FE
:107FD000DDE9002312F1807643F10007CDE9006767
:107FE000DDE900231046194603B0BDE8F08300BF69
:107FF00084320020303900203839002088B00190C8
:108000000091019B0793009B0693079BD3E90223F2
:10801000CDE90423069BD3E90223CDE90223DDE960
:108020000423DDE90201904271EB03032CBF01231D
:108030000023DBB2184608B070470000F0B585B0E9
:108040000190019B5B69002B03D12B49A22008F012
:10805000A9FD00238DF80F30284B1B78002B45D04D
:10806000019B002B42D0019B1B7FDBB2002B3DD03C
:10807000FFF792FF019BD3E90223904271EB0303C8
:108080002CD3019B1B69002B02D1019B00221A7784
:10809000019B5B69019A926910469847019B1B6995
:1080A000002B23D0019B1B7FDBB2002B1ED0019B3A
:1080B000D3E902230199096900200C4605461619E7
:1080C00043EB0507019BC3E90267019B19460C4876
:1080D00005F07AF801238DF80F3007E0019B19466F
:1080E000074805F071F801238DF80F309DF80F3027
:1080F000184605B0F0BD00BFB804040028390020C0
:1081000024050400F0B589B0019000910D23079378
:10811000009B00221A70019BD3E90245FFF73CFF48
:1081200002460B46A61A65EB0307CDE90467DDE9B5
:108130000423012A73F100031BDB049BB3F5D40F66
:1081400005D300F0A9FA0246154B134403E0019B46
:10815000D3E90223134603934FF41603039A002135
:10816000104800F071FE0790079B002B05D10123FA
:1081700013E000210B4800F03FFF079B0D2B07D1B8
:108180000198FFF75BFF03461A46009B1A7003E055
:108190000549F52008F006FD0023184609B0F0BD9A
:1081A000FFFF690084320020B804040000B583B0EA
:1081B000044805F043F80190019B184603B05DF8B0
:1081C00004FB00BF2405040000B583B0044805F09B
:1081D00057F80190019B184603B05DF804FB00BFFF
:1081E0002405040000B583B0FFF7E0FF0190019B78
:1081F000002B02D0019B00221A77019B002BF3D1A8
:1082000000BF00BF03B05DF804FB0000054BD3E9DD
:10821000002312F1807043F10001024BC3E9000119
:1082200000BF70473039002010B582B00190124B6A
:108230001B68002B1DD0019800F013FF044600219D
:10824000019800F0FFFE03461946204600F018FA98
:108250000346B3F5160F04D308494FF4957008F0A0
:10826000A1FC054B1B681846FFF7E8FE024B0022F5
:108270001A6000BF02B010BD24390020B804040009
:1082800000B583B00190FFF787FE02460B46034915
:10829000C1E9002300BF03B05DF804FB38390020BA
:1082A00000B585B00190FFF78FFF039000238DF894
:1082B0000B30039B002B48D02B4B1B68002B03D1AA
:1082C00001238DF80B3019E0039BD3E90201264B03
:1082D0001B68D3E90223904271EB03030ED2012302
:1082E0008DF80B30204B1B681B7FDBB2002B05D0B9
:1082F0001D4B1B6819461D4804F066FF9DF80B30A6
:10830000002B2AD0FFF752FF03900DF10A03194604
:108310000398FFF7F7FE0346002B12D0124B1B68A1
:10832000002B02D1019800F09BFC0F4A039B1360C5
:108330009DF80A3083F00103DBB2002BB3D000BFFD
:108340000EE0094B00221A60ADE7074B1B68002BBB
:1083500005D1019800F09AFC01E000BF00E000BFE9
:1083600000BF05B05DF804FB24390020240504009B
:1083700000B587B001902C4A03AB1946104602F0B5
:10838000B8FF059048E0059B1B78022B2ED0022BEE
:1083900032DC002B02D0012B14D02DE0059B5B6852
:1083A0001B7FDBB283F00103DBB2002B26D0059BE1
:1083B0005B6801221A77059B5B6819461B4804F02D
:1083C00003FF1BE0059B5A68194B1B689A4203D1B7
:1083D000174B00221A6012E0059B5B681946134890
:1083E00004F062FF03468DF8133008E0FFF7FAFE51
:1083F000104B01221A7002E000BF00E000BF0A4AE1
:1084000003AB1946104602F08DFF074A03AB19462D
:10841000104602F06EFF0590059B002BB3D100BF04
:1084200000BF07B05DF804FB983900202405040064
:10843000243900202839002000B583B0019001982C
:1084400000F0CDFD0346002B01D0FFF7DFFE002139
:10845000019800F0E2FD0346002B02D00198FFF7DF
:10846000E3FE0121019800F0D8FD0346002B02D065
:108470000198FFF705FF0198FFF77AFF0198FFF7D2
:108480000FFF00BF03B05DF804FB000008B5024811
:1084900000F0F4FD00BF08BD8432002000B585B0B7
:1084A000034600918DF80730114A02AB1946104679
:1084B00002F0F2FE0390039B002B13D0039B9DF868
:1084C00007201A70039B009A5A60094A02AB1946AA
:1084D000104602F0FAFE0346002B01D0FFF7D6FF4C
:1084E000002300E00423184605B05DF804FB00BF3C
:1084F0009839002000B583B00023ADF80030062382
:108500008DF80230144808235822144902F07DFEE9
:108510000190019B002B01D0019B19E06B46104A92
:108520001946104800F01EFB0190019B002B01D062
:10853000019B0DE001210B4800F040FD01230A4A98
:108540000121084800F0B8FB084B01221A70019B7A
:10855000184603B05DF804FB98390020403900202C
:108560003984020084320020FFFF7F002839002078
:1085700000B587B003900B4601928DF80B30039B3A
:10858000002B04D1134940F22E2008F00BFB019B75
:10859000002B04D10F4940F22F2008F003FB019B70
:1085A000002B01D1072310E0039B1B680593059B5B
:1085B000019A5A619DF80B30012B0CBF0123002357
:1085C000DBB21A46059B1A610023184607B05DF816
:1085D00004FB00BFB8040400F0B587B0039002911B
:1085E0000192039B002B04D1164940F23E2008F073
:1085F000D9FA039B0593059B1B7FDBB2002B01D0AF
:1086000000231CE0059B019A9A61FFF7C5FC024616
:108610000B46029900200C460546161943EB050748
:10862000059BC3E90267059B1B69002B02D0059BD4
:10863000029A1A6105990020FFF730FF0346184699
:1086400007B0F0BDB804040000B585B00190019BEF
:10865000002B04D109494FF4157008F0A3FA019BCF
:108660000393039B00221A7703990120FFF716FF5B
:108670000346184605B05DF804FB00BFB8040400CB
:1086800082B001900091019A009BD31A23F07F439E
:10869000184602B07047000008B5034800F0E1FC3E
:1086A0000346184608BD00BF8432002082B0EFF3B5
:1086B00010830093009B019372B600BF019B184684
:1086C00002B0704762B600BF00BF704700B585B00A
:1086D0000190FFF7EBFF0390164B9B68002B1BD11B
:1086E000144B01229A60144BD3F88020134B134093
:1086F000104A1360104B114AC3F880200E4BD3F878
:1087000084300C4A53600C4B4FF0FF32C3F8842086
:10871000019B00221A7002E0019B01221A70039B48
:10872000002B01D1FFF7CEFF0023184605B05DF8FE
:1087300004FB00BFAC39002000E100E0FC06FFBDF7
:1087400000B585B003468DF80730104B9B68002BB1
:1087500016D09DF80730002B12D1FFF7A7FF03902A
:108760000B4A0A4B1B681360094A084B5B6853604D
:10877000064B00229A60039B002B01D1FFF7A2FF5A
:108780000023184605B05DF804FB00BFAC3900209B
:1087900000E100E000B583B0019000F02BF8034643
:1087A000012B03D00549432008F0FCF90198FFF79D
:1087B0008DFF00BF03B05DF804FB00BF300504006F
:1087C00000B583B003468DF8073000F013F8034678
:1087D000012B03D00649512008F0E4F99DF8073039
:1087E0001846FFF7ADFF00BF03B05DF804FB00BF04
:1087F0003005040084B0EFF305830193019BC3F3BC
:1088000008030393039B002B0DD1EFF31483009314
:10881000009B0293029B03F00103002B0CBF01237A
:108820000023DBB200E00123184604B0704786B095
:10883000039002910192019B002B02D0019B1B88A7
:1088400001E04FF6FF73ADF81630002304933CE0CF
:10885000BDF816301B0A9BB2DBB21AB2BDF8163057
:108860001B021BB213431BB2ADF81630039A049BD4
:1088700013441B789AB2BDF816305340ADF8163049
:10888000BDF81630DBB21B09DBB29AB2BDF8163068
:108890005340ADF81630BDF816301B031AB2BDF9BF
:1088A000163053401BB2ADF81630BDF816305B01E0
:1088B0001BB203F4FF531AB2BDF9163053401BB27A
:1088C000ADF81630049B01330493049A029B9A423C
:1088D000BED3BDF81630184606B0704782B00346C6
:1088E0008DF807309DF90730002B0CDB9DF8073021
:1088F00003F01F0205499DF907305B09012000FACA
:1089000002F241F8232000BF02B0704700E100E00E
:1089100082B003468DF807309DF90730002B0DDB40
:108920009DF8073003F01F0206499DF907305B09E7
:10893000012000FA02F2403341F8232000BF02B0C8
:10894000704700BF00E100E082B0034600918DF85F
:1089500007309DF90730002B0ADB009BDAB20C4987
:108960009DF907305201D2B20B4483F800230BE08B
:10897000009BDAB207499DF8073003F00F03043B70
:108980005201D2B20B441A7600BF02B0704700BF4A
:1089900000E100E000ED00E000B583B003460A46C8
:1089A0008DF8073013468DF806309DF80630012B00
:1089B00003D99DF80630032B0BD99DF80630042B04
:1089C00003D99DF80630072B03D908496B2008F01E
:1089D000E9F89DF806209DF9073011461846FFF783
:1089E000B3FF00BF03B05DF804FB00BFA4050400A3
:1089F00000B583B003468DF807309DF9073018465F
:108A0000FFF76CFF00BF03B05DF804FB00B585B055
:108A10000190019B002B0AD0074B43F00103039305
:108A2000019B9B010293039B0298984700E000BFC3
:108A300005B05DF804FB00BFC006040084B00390DD
:108A400002910192039B029A02F5A872019943F8E0
:108A5000221000BF04B0704782B001900091019BCA
:108A6000009A02F5A87253F82230184602B07047F7
:108A700082B001900091019B009AC3F8042300BFCB
:108A800002B0704782B001900091019B009AC3F838
:108A9000082300BF02B0704782B001900B46ADF8CA
:108AA0000230BDF80230019A13441B68184602B028
:108AB000704784B001900B46ADF80230BDF802302B
:108AC000019A134400221A60BDF80230019A13443F
:108AD0001B680393039B00BF04B0704782B00190F2
:108AE000019BD3F80435184602B0704700B583B037
:108AF00001900091009BB3F5805F04D306494FF4C9
:108B0000BE7008F04FF8019B009AC3F8082500BF1B
:108B100003B05DF804FB00BFD405040082B00190EF
:108B20000B468DF803309DF80320019B13441A4631
:108B30000123136000BF02B0704782B00190009122
:108B4000019B009AC3F8442300BF02B0704782B073
:108B500001900091019B009AC3F8482300BF02B026
:108B60007047000000B587B0039002910192039B0B
:108B7000002B03D13349552008F014F8029B002B39
:108B800003D13049562008F00DF8019B002B03D18A
:108B90002C49572008F006F8039B5B7919462A4AAE
:108BA000019B42F82130039B5B79284ADB00134488
:108BB0001B79002B0ED008230593254A254BD31A89
:108BC000DB081B0443F0020323491846FEF770F844
:108BD000059B32E0039B1A68029B1B8819461046CE
:108BE000FFF784FF039B93F90420029B9B781946AF
:108BF0001046FFF7D1FE039B93F904301846FFF7A8
:108C0000F7FE039B5B79114ADB00134401221A71C2
:108C1000039B5B7919460D4A039B42F831300023D0
:108C200005930B4A0B4BD31ADB081B0443F00303D9
:108C30000A491846FEF73CF8059B184607B05DF850
:108C400004FB00BF04060400B8390020BC39002032
:108C500014010400CC000400700604009406040013
:108C600000B583B00190019B002B03D106498720FA
:108C700007F098FF019B1B6800211846FFF74EFF85
:108C800000BF03B05DF804FB0406040000B583B028
:108C90000190019B002B03D106498D2007F082FF34
:108CA000019B1B6804211846FFF738FF00BF03B083
:108CB0005DF804FB0406040000B587B00390029140
:108CC00001928DF80330039B002B03D1214996209C
:108CD00007F068FF4FF48032029B02FA03F305931A
:108CE000029B50339BB29B00ADF81230019B23F0E6
:108CF0007F430193039B1B6805991846FFF7C2FE4B
:108D0000039B1B6805991846FFF721FF039B1B680F
:108D1000BDF8122011461846FFF7CBFE039B1B68D7
:108D2000019A02991846FFF789FE039B1B68059973
:108D30001846FFF702FF9DF80330002B05D0039B78
:108D40001B6805991846FFF793FE00BF07B05DF852
:108D500004FB00BF0406040000B585B00390029137
:108D600013468DF80730039B002B03D10B49A92034
:108D700007F018FF039B1B6802991846FFF7DDFEFA
:108D80009DF80730002B05D0039B1B6802991846FD
:108D9000FFF76EFE00BF05B05DF804FB040604009B
:108DA00000B583B001900091019B002B03D10A49CB
:108DB000B32007F0F7FE019B1B6800991846FFF7E8
:108DC000C6FE019B1B6800991846FFF75BFE00BFBB
:108DD00003B05DF804FB00BF0406040000B583B0D7
:108DE00001900B46ADF80230019B002B03D10F49D7
:108DF000BA2007F0D7FE019B1B68BDF80220114680
:108E00001846FFF749FE0346002B09D0019B1B685B
:108E1000BDF8022011461846FFF74BFE012300E083
:108E20000023184603B05DF804FB00BF04060400ED
:108E300082B001900091019A009BD31A23F07F43E6
:108E4000184602B07047000000B58BB00390029145
:108E500001920093039B002B03D15749CD2007F0CB
:108E6000A1FE4FF48032029B02FA03F30993029BA6
:108E700050339BB29B00ADF82230019B23F07F431F
:108E8000019309990398FFF78BFF039B1B68184612
:108E9000FFF724FE0790039B1B6802991846FFF713
:108EA000DBFD0690039B1B68079A02991846FFF7A3
:108EB000C5FD039B1B68BDF8222011461846FFF72D
:108EC000F8FD07990698FFF7B3FF0346012B0AD177
:108ED0001020FFF79BFD039B1B68BDF82220114665
:108EE0001846FFF7E6FD039B1B681846FFF7F6FDE3
:108EF000079007990198FFF79BFF0590039B1B685C
:108F000009991846FFF719FE059B012B15D1039B04
:108F10001868019B01331A460299FFF78FFD102054
:108F2000FFF774FD039B1B681846FFF7D7FD024649
:108F3000079B934235D00D2339E0039B1B68019AB0
:108F400002991846FFF77AFD039B1B681846FFF746
:108F5000C5FD0790019B013B07991846FFF768FF85
:108F60000590009BC3F1FF1303F57F43059A9A42D6
:108F700001D90D231BE0059B002B12D1039B186820
:108F8000019B01331A460299FFF758FD039B1B68AA
:108F90001846FFF7A3FD0246079B934201D00D231D
:108FA00005E0012209990398FFF7D6FE0023184631
:108FB0000BB05DF804FB00BF0406040000B583B0ED
:108FC00001900B468DF803309DF803301A460221BC
:108FD0000198FFF7C1FE00BF03B05DF804FB00B5C8
:108FE00083B001904FF482710198FFF7F7FE0346BA
:108FF000184603B05DF804FB00B583B00190009102
:109000004FF48032009B02FA03F319460198FFF7F0
:10901000C7FE00BF03B05DF804FB00B585B001904A
:109020000091009B50339BB29B00ADF80E30BDF811
:109030000E3019460198FFF7D1FE0346184605B0D9
:109040005DF804FB00B583B001900091019B1B68A3
:1090500000991846FFF700FD0346184603B05DF877
:1090600004FB00B583B00190019B1B681846FFF715
:1090700035FD0346184603B05DF804FB00B583B028
:109080000190019B93F904301846FFF741FC00BFA3
:1090900003B05DF804FB000008B5044B1B68044AEC
:1090A00012681046984700BF08BD00BFB8390020BD
:1090B000BC39002082B00190019B03F00303002B18
:1090C0000CBF01230023DBB2184602B0704700003A
:1090D00000B585B00190002303930EE00B4A039B7B
:1090E00052F82330002B05D0084A039B52F8233056
:1090F00001989847039B01330393039B032BEDD9FE
:1091000000BF00BF05B05DF804FB00BFD4390020EC
:1091100082B001900091019B1B78013B052B61D827
:1091200001A252F823F000BF4191020049910200D0
:109130006F910200A1910200C1910200DD91020035
:10914000009B00221A704EE0009B01221A70019BC6
:109150001A89009B9A81019B9A88009BDA81019B66
:10916000DA68009B9A60009B00221A743BE0009B27
:1091700002221A70019B1A89009B9A81019B9A888E
:10918000009BDA81019BDA68009B9A60019B9B7DC2
:10919000062B0CBF01230023DAB2009B1A7422E0D5
:1091A000009B03221A70019BDA88009B9A81019B25
:1091B0001A89009BDA81019BDA68009B9A6012E0B1
:1091C000009B04221A70019BDA88009B9A81009B05
:1091D0000022DA81009B00229A6004E0009B0522B5
:1091E0001A7000E000BF00BF02B0704784B0019069
:1091F0000091019B0393039A009B9A4206D2039B22
:109200001B68B3F1FF3F01D0012300E0002303F00E
:109210000103DBB2184604B0704782B00190019B95
:109220005B8803339B00019A1344184602B07047D1
:1092300000B583B0019000910198FFF7EEFF024660
:10924000009B934201D2022311E0019B9B884FF6C1
:10925000FF72934208D0019B1B88002B04D0019B16
:109260009B68B3F1FF3F01D1012300E000231846C2
:1092700003B05DF804FB000000B583B00190019BD2
:10928000002B13D00D4BDB681A46019B93420DD384
:109290000A4B1B691A46019B934207D80198FFF7B6
:1092A00009FF0346002B01D0012300E0002303F057
:1092B0000103DBB2184603B05DF804FB283200203E
:1092C00082B00190019B002B04D0019B1B680B4ACC
:1092D000934201D003230DE0019B04331B68084A2D
:1092E000934204D0074A934203D1012302E00023B2
:1092F00000E00323184602B0704700BFDEC0ADDEB9
:10930000FE011EF1FF011EF184B00190019B1B685C
:10931000B3F1FF3F06D0019B1B680E4A934201D078
:10932000002314E0012303930CE0039B9B00019AAC
:1093300013441B68B3F1FF3F01D0002307E0039BF8
:1093400001330393039BB3F5806FEED301231846DB
:1093500004B07047DEC0ADDE82B003460A46ADF809
:1093600006301346ADF80430BDF806201349134605
:109370009B0013449B000B4408331A88BDF804304B
:109380001344ADF80430BDF806200C4913469B0089
:1093900013449B000B440A331A88BDF8043013446D
:1093A000ADF80430BDF80430B3F5806F94BF0123ED
:1093B0000023DBB2184602B0704700BF2C3B0020F0
:1093C00084B00190009148F2096303930023ADF843
:1093D0000A3027E0BDF80A20164913469B001344C3
:1093E0009B000B4404331B68009A9A4215D9BDF8C0
:1093F0000A20104913469B0013449B000B4404337E
:109400001B6803F58053009A9A4206D20023039307
:10941000019BBDF80A201A8008E0BDF80A3001332C
:10942000ADF80A30BDF80A30032BD3D9039B184698
:1094300004B070472C3B002000B589B00390029126
:109440000192039B03F580530693039B0833039318
:10945000029B02221A80039B079332E00699079829
:10946000FFF7E6FE03468DF817309DF81730002B06
:109470000AD1079B9A68184B1B689A4213D9079B1D
:109480009B68154A13600EE0019B002B02D0019BE4
:1094900001221A709DF81730022B04D1029B4FF461
:1094A00080621A8014E0029B1A88079B5B88134431
:1094B0009BB203339AB2029B1A800798FFF7ADFE66
:1094C000079006990798FFF791FE0346002BC5D138
:1094D00009B05DF804FB00BFE439002082B00190C0
:1094E0000091009B9B7D022B09D9019B1A89009B4F
:1094F000DB8813449BB203339AB2019B1A81019B10
:109500005A89009BDB88D31A9BB2033B9AB2019B1A
:109510005A8100BF02B0704700B583B0074B1B688B
:109520001946002300930823054A064802F0DAFD95
:109530000346184603B05DF804FB00BF7C3B0020E7
:109540002C0704002832002000B585B00390039951
:10955000002300930823044A044802F0C3FD034695
:10956000184605B05DF804FB3407040028320020DB
:1095700000B585B003460091ADF8063000238DF8A4
:109580000F30BDF806300333ADF80A30BDF80A30AD
:1095900040F2FE32934202D948F208634BE00023C6
:1095A000ADF80C303BE0BDF80C20254913469B007C
:1095B00013449B000B441B78002B2BD1BDF80A20D1
:1095C000BDF80C3011461846FFF7C6FE0346002BC7
:1095D00020D001238DF80F30009BBDF80C201A809D
:1095E000BDF80C20164913469B0013449B000B4406
:1095F0000A331988BDF80C20BDF80A300B4498B224
:109600000F4913469B0013449B000B440A33024648
:109610001A8008E0BDF80C300133ADF80C30BDF80D
:109620000C30032BBFD99DF80F30002B01D0002345
:1096300001E048F20663184605B05DF804FB00BF80
:109640002C3B002082B003460A46ADF80630134694
:10965000ADF80430BDF804200D4913469B001344B7
:109660009B000B440A331A88BDF80630D31A9BB20C
:10967000BDF80420033B98B2054913469B001344F0
:109680009B000B440A3302461A8000BF02B07047A9
:109690002C3B002008B50121024801F0B2FF03462F
:1096A000184608BDE439002000B585B00346009196
:1096B000ADF80630BDF80620244913469B0013443C
:1096C0009B000B4404331B6803F580530293009BFB
:1096D0001B680393039B002B04D00398FFF79DFDA9
:1096E000039026E0BDF80620184913469B0013445A
:1096F0009B000B4404331B680833039319E0029961
:109700000398FFF795FD0346022B10D0022B10DCC7
:10971000002B02D0012B05D00BE0009B039A1A60AE
:1097200001230EE00398FFF778FD039001E000238A
:1097300007E002990398FFF759FD0346002BDED19D
:109740000023184605B05DF804FB00BF2C3B002049
:1097500000B585B001900091019B5B681846FFF74A
:109760008BFD0346002B19D0019B1A89244B1B89C2
:109770009A4213D1019B1A68019B5B689B689A42CD
:109780000CD1019B5B6819460098FFF719FE034650
:10979000002B0CBF01230023DBB22CE0009B002236
:1097A0001A8023E00023029310E0029B0393039BA3
:1097B0009A68019B1B689A4208D1029A019B5A60E1
:1097C0000F4B1A89019B1A81012314E0009B1B880F
:1097D00002AA11461846FFF767FF0346002BE4D1A3
:1097E000009B1B8801339AB2009B1A80009B1B8848
:1097F000032BD7D90023184605B05DF804FB00BF42
:10980000843B002000B587B0039002910192009341
:10981000324B1B78DBB283F00103DBB2002B02D0AA
:1098200048F2016355E0019B002B02D0009B002B06
:1098300049D148F204634CE0009B9B881946284AB2
:109840000B469B000B449B0013441B78002B33D129
:1098500024E0009B1B680593039B002B06D0059B0F
:109860009A88039B1B889A4200D017E0029B002B2A
:1098700006D0059B1A88029B1B889A4200D00DE0F7
:10988000059B9A68019B1A60009B1A68019B5A60AD
:10989000144B1A89019B1A8100231AE0009B9B88B4
:1098A000009A11461846FFF7FFFE0346002BD0D161
:1098B000009B00221A6000E000BF009B9B880133E0
:1098C0009AB2009B9A80009B9B88032BB4D948F2E4
:1098D0000963184607B05DF804FB00BFC4390020D7
:1098E0002C3B0020843B002000B587B00291019200
:1098F00000930346ADF80E30BDF80E2032491346F2
:109900009B0013449B000B4404331B6808330593EE
:10991000BDF80E202C4913469B0013449B000B44BA
:1099200004331B6803F58053049342E004990598BF
:10993000FFF77EFC0346022B25D0022B38DC002BE0
:1099400016D0012B34D1019B1B8801339AB2019BA5
:109950001A80009B1A88059B5B8813449BB20333D3
:109960009AB2009B1A800598FFF757FC059020E0FB
:10997000029B1B8801339AB2029B1A800598FFF75D
:109980004CFC059015E0019B1B8801339AB2019BAA
:109990001A80009B1A880499059BCB1A9B109BB2D6
:1099A00013449AB2009B1A80089B01221A7007E0A8
:1099B00000BF04990598FFF719FC0346002BB5D1A9
:1099C00007B05DF804FB00BF2C3B002000B585B05C
:1099D0000190084B0199184601F05EFC03901C228F
:1099E0000021039815F011FC039B184605B05DF8A3
:1099F00004FB00BF1C3B002000B583B00190044B6A
:109A00000199184601F061FC00BF03B05DF804FB4A
:109A10001C3B002000B583B00190054B019918460E
:109A200001F067FC0346184603B05DF804FB00BF75
:109A30001C3B002000B583B00190044B01991846EF
:109A400001F070FC00BF03B05DF804FB1C3B00207C
:109A500008B50A4B1B68002B04D109494FF4247048
:109A600007F0A0F80121054801F0E3FD0346002BB3
:109A700014BF01230023DBB2184608BDCC390020F7
:109A8000C806040000B587B0002305930023ADF895
:109A900012300523ADF8103000238DF80F3000236D
:109AA000ADF80C30F7E0BDF80C301A03824BDB68E0
:109AB000134402930298FFF703FC03468DF8073026
:109AC0009DF80730032B08D0032B00F3DE80002B1A
:109AD00065D0012B00F09880D7E00298FFF714FCC6
:109AE0000346002B3BD0754B1B68002B29D0BDF8DB
:109AF0001220734913469B0013449B000B4402221F
:109B00001A70BDF812206E4913469B0013449B0047
:109B10000B440433029A1A60BDF8122068491346B8
:109B20009B0013449B000B44083302221A80654AB1
:109B3000BDF812305380BDF812300133ADF8123049
:109B400008E05E4A029B13605C4B02229A8001236C
:109B50008DF80F30059B43F00103059396E0BDF8A7
:109B60001030013BADF81030BDF8122054491346B7
:109B70009B0013449B000B440433029A1A60BDF807
:109B800012204F4913469B0013449B000B440322B1
:109B90001A70BDF812300133ADF8123076E0BDF81E
:109BA0001220474913469B0013449B000B4400229C
:109BB0001A70BDF81220424913469B0013449B00C3
:109BC0000B440433029A1A60BDF8122013469B001E
:109BD00013449B0008333A4A9918BDF812201346E3
:109BE0009B0013449B001033354A13441A460298D5
:109BF000FFF722FC059B43F002030593BDF81230EA
:109C00000133ADF8123041E09DF80F30002B29D020
:109C1000BDF812202A4913469B0013449B000B44B5
:109C200002221A70BDF81220244B196824481346EA
:109C30009B0013449B00034404331960BDF81220B9
:109C40001F4913469B0013449B000B440833022218
:109C50001A801C4ABDF812305380BDF8123001330F
:109C6000ADF81230154A029B136000221649029883
:109C7000FFF7E2FB114B9B88022B01D1042300E08C
:109C80000823059A1343059300E000BFBDF80C308C
:109C90000133ADF80C30BDF80C30042B7FF603AF68
:109CA000BDF81030012B01D800230593059BDBB2D2
:109CB000184607B05DF804FB283200207C3B0020EA
:109CC0002C3B0020843B0020803B002000B587B067
:109CD00003900291039B02229A750299039B1A1D1D
:109CE000002300930423074802F0FCF90590059B2C
:109CF000002B01D1002301E048F20D63184607B0A4
:109D00005DF804FB2832002000B587B00390029173
:109D1000039B1B69002B01D0032200E00122039B5F
:109D20009A75029B08331946039B03F10C0200232A
:109D300000930423074802F0D5F90590059B002BFA
:109D400001D1002301E048F20D63184607B05DF829
:109D500004FB00BF2832002000B587B003900291B9
:109D6000039B1B78032B01D1052200E00622039BF5
:109D70009A75029B04331946039B03F108020023E2
:109D800000930423074802F0ADF90590059B002BD2
:109D900001D1002301E048F20D63184607B05DF8D9
:109DA00004FB00BF2832002000B587B003900B46AB
:109DB000ADF80A3003990023009304230D4A0E489E
:109DC00002F090F90590059B002B02D048F20D633C
:109DD0000BE0BDF80A20094913469B0013449B0081
:109DE0000B44103301221A700023184607B05DF8A7
:109DF00004FB00BF3C070400283200202C3B00205D
:109E000000B589B0019002AB00221A605A609A60D6
:109E1000019BDB6802930DF1160202AB1146184656
:109E2000FFF796FC0346002B12D0039B0693069B7C
:109E30009A88019BDA80069B1A88019B1A81039BF2
:109E4000BDF8162011461846FFF7AEFF079002E056
:109E500048F209630793079B184609B05DF804FBB5
:109E600000B587B00190019B981D02AA0D4B0021FF
:109E7000FFF7C8FC0590059B002B08D1039B094AFE
:109E8000928811461846FFF78FFF059004E00822DC
:109E90000021044815F0B9F9059B184607B05DF894
:109EA00004FB00BF943B002000B587B003900291F3
:109EB000039B01229A75029B0C331846039B1A6977
:109EC000039BDB889B00002100910146074802F0BC
:109ED00009F90590059B002B01D1002301E048F210
:109EE0000D63184607B05DF804FB00BF2832002060
:109EF00000B585B003460092ADF806300B46ADF8CC
:109F00000430002206210098FEF791FC0346ADF8CC
:109F10000E30009B03F10800BDF8043001339B00B4
:109F20000DF10E021946FEF782FC0346ADF80E3025
:109F3000BDF80E30BDF806209A420CBF0123002365
:109F4000DBB2184605B05DF804FB000082B0184B88
:109F50001B8901339AB2164B1A81154B00225A8085
:109F6000134B00229A730023ADF8063018E0BDF8B9
:109F70000620104913469B0013449B000B441A789B
:109F8000BDF80630002A0CBF01220022D1B2084AD7
:109F900013440A469A72BDF806300133ADF8063014
:109FA000BDF80630032BE2D900BF00BF02B07047F6
:109FB000843B00202C3B002084B0019000238DF8CE
:109FC0000F300023ADF80C3031E0BDF80C301C4AE6
:109FD00013449B7A002B25D0BDF80C30184A13444B
:109FE00000229A72BDF80C20164913469B001344B8
:109FF0009B000B440C331B68002B13D1BDF80C20C5
:10A00000104913469B0013449B000B4410331B78EC
:10A01000002B07D0019BBDF80C201A8001238DF87E
:10A020000F3008E0BDF80C300133ADF80C30BDF84E
:10A030000C30032BC9D99DF80F30184604B0704777
:10A04000843B00202C3B002008B5084B05221A70E9
:10A05000074B02229A80064B1B68194600230122F7
:10A06000044802F021F90346184608BD843B00204D
:10A070007C3B00202832002000B583B0164B5B8863
:10A08000ADF80230BDF80220144913469B0013447A
:10A090009B000B440C331B68002B14D10E4B042285
:10A0A0001A70BDF802200D4913469B0013449B0013
:10A0B0000B4404331B68194600230122084802F0B0
:10A0C000F3F8019002E0FFF7BFFF0190019B1846F3
:10A0D00003B05DF804FB00BF843B00202C3B002054
:10A0E0002832002000B587B0104B5B680593104BF9
:10A0F0001A680F4B9B889B0013440493059B5B8855
:10A100000333ADF80E30094B03221A700499074B44
:10A110005A68BDF80E309B0000200090054801F001
:10A12000E1FF0346184607B05DF804FB843B0020BE
:10A130007C3B00202832002000B583B00A4B5B88AE
:10A140000A491846FFF7B0FA0346002B03D0FFF781
:10A15000C9FF019002E0FFF78FFF0190019B1846B5
:10A1600003B05DF804FB00BF843B0020883B002067
:10A1700008B50A4B06221A70084B5B881946084A34
:10A180000B469B000B449B00134404331B6818468A
:10A19000FFF7DAF90346184608BD00BF843B0020EC
:10A1A0002C3B002008B5054B07221A70034B0022F8
:10A1B0005A60FFF7B1F90346184608BD843B0020FA
:10A1C00008B50D48FFF7F8FE034683F00103DBB244
:10A1D000002B0BD0094B00221A70084B00225A802A
:10A1E000064B00225A6041F61D5302E0FFF7A4FF20
:10A1F0000346184608BD00BF863B0020843B002074
:10A2000082B0094B5B680193019B5B880333ADF817
:10A210000230064B9A88BDF8023013449AB2034BC1
:10A220009A8000BF02B07047843B00207C3B002036
:10A2300082B01E4B1B6801931D4B5B8819461D4A5B
:10A240000B469B000B449B00134404331B68174AC6
:10A250001360174B5B881946164A0B469B000B444C
:10A260009B0013440433019A1A60114B5B88194612
:10A270000E4B98880F4A0B469B000B449B001344DF
:10A28000083302461A80094B02229A80084B5B88E9
:10A290001946084A0B469B000B449B00134410339D
:10A2A00000221A7000BF02B0704700BF7C3B002044
:10A2B000843B00202C3B002008B51A4B1B78072B51
:10A2C0002CD801A252F823F0E9A202001DA302003B
:10A2D0001DA30200F5A2020001A302000DA30200CB
:10A2E0000DA3020015A30200FFF730FE0D4B012263
:10A2F0001A7014E0FFF784FF0A4B02221A700EE076
:10A30000FFF796FF074B06221A7008E0054B07225D
:10A310001A7004E0034B01221A7000E000BF00BF76
:10A3200008BD00BF843B002000B587B001900091BC
:10A3300048F20E630593019B002B05D0634B00226E
:10A340005A604FF40643BCE0009B1B79032B00F2DC
:10A35000AB8001A252F823F069A3020077A30200A8
:10A3600005A4020025A40200009B01221A71FFF738
:10A37000D3F805909BE000238DF813300023ADF84F
:10A3800010302BE0BDF81020514913469B001344B8
:10A390009B000B441B78022B1BD1BDF810204C49AD
:10A3A00013469B0013449B000B4400221A700123A8
:10A3B0008DF81330BDF81020454913469B00134417
:10A3C0009B000B4404331B681846FFF7BDF805904B
:10A3D00008E0BDF810300133ADF81030BDF8103092
:10A3E000032BCFD99DF8133083F00103DBB2002B90
:10A3F0005CD0364B01221A70344B00225A6041F671
:10A400001D535EE0009B00221A71324B02229A809B
:10A41000304B1B681946002301222F4801F044FFEE
:10A42000059044E0009B00221A712A4B1B681846D5
:10A43000FFF78AF80590294B5B88ADF80E30254B65
:10A440001B680293BDF80E20214913469B0013445C
:10A450009B000B4404331B681E4A1360BDF80E209A
:10A460001B4913469B0013449B000B440433029A80
:10A470001A60BDF80E20174B9888154913469B00AB
:10A4800013449B000B44083302461A80114B0222EE
:10A490009A80BDF80E200E4913469B0013449B0082
:10A4A0000B4400221A7002E000BF00E000BF059BD1
:10A4B000002B05D0054B00225A6048F20D6300E0E6
:10A4C0000023184607B05DF804FB00BFC439002024
:10A4D0002C3B00207C3B002028320020843B0020C5
:10A4E00000B587B001900091009B9B8A1A461346E5
:10A4F0009B0013449B003B4A13440493019B002B95
:10A5000006D000990498FEF7E9FF4FF4064364E093
:10A51000049B5A68049B1B899B0013440393009B74
:10A520009B7D062B4DD801A252F823F071A50200A5
:10A5300095A502007DA5020089A5020049A502009B
:10A54000A1A50200BBA50200274B00225A60009B78
:10A550009B69254A136025492348FFF7F9F803460C
:10A5600083F00103DBB2002B02D048F2096334E030
:10A5700003990098FFF7AAFB059026E0039900983D
:10A58000FFF7C2FB059020E003990098FFF78CFCD1
:10A5900005901AE003990098FFF7DEFB059014E0A0
:10A5A000009B06229A75104B5B68104A1288114670
:10A5B0001846FFF7F9FB059007E041F61D53059398
:10A5C00003E048F20E63059300BF059B002B03D008
:10A5D00000990498FEF782FF059B184607B05DF8C6
:10A5E00004FB00BF2C3B00209C3B0020A83B00202C
:10A5F00000B585B001900091019B002B02D04FF473
:10A60000064329E0009B1B79022B1BD0022B1DDC8B
:10A61000002B02D0012B08D018E0009B02221A71F7
:10A620000098FFF7EDFB039015E00098FFF718FC8A
:10A630000390039B48F2096293420BD141F61D53EC
:10A64000039307E041F61D53039304E048F20E63C1
:10A65000039300E000BF039B184605B05DF804FBC0
:10A6600000B585B00190019B002B02D04FF406434A
:10A670003DE0214B9B7B002B03D01F4B00229A73A4
:10A6800001E0FFF719FE1C4B1B78013B062B29D874
:10A6900001A252F823F000BFB5A60200BDA6020039
:10A6A000C5A60200CDA60200E5A60200D5A60200BE
:10A6B000DDA60200FFF784FD039017E0FFF73CFDE5
:10A6C000039013E0FFF70EFD03900FE0FFF7D4FCBB
:10A6D00003900BE0FFF74CFD039007E0FFF762FDEE
:10A6E000039003E048F20E63039300BF039B1846F8
:10A6F00005B05DF804FB00BF843B002000B589B0C5
:10A700000190404B1B68002B05D13F48FFF782F9B1
:10A7100003463C4A13603B4B1B68002B04D13B496A
:10A7200040F29E5006F03EFA364B1B681B78013B08
:10A73000052B2CD801A252F823F000BF55A7020028
:10A7400065A7020065A7020075A7020075A70200B1
:10A7500085A702002B4B1B6819460198FFF7E4FD03
:10A76000019018E0274B1B6819460198FFF7B8FEC7
:10A77000019010E0234B1B6819460198FFF738FF42
:10A78000019008E00198FFF76BFF019003E048F2A9
:10A790000E63019300BF019B002B2BD003AB002263
:10A7A0001A605A609A60DA601A61019B41F61D5284
:10A7B000934201D0019B00E000230493114B1B68DE
:10A7C00003AA11461846FEF7A3FC03AB1846FEF792
:10A7D0007FFC0C4B00221A60002301930A48FFF70C
:10A7E00029F9FFF735F9034683F00103DBB2002BAB
:10A7F00002D186E700BF00E000BF00BF09B05DF8EE
:10A8000004FB00BFAC3B0020B03B0020C8060400A6
:10A8100008B50121054800F0DCFE0346002B02D1FB
:10A820000020FFF76BFF00BF08BD00BFCC39002040
:10A8300000B583B00190019B5B681846FFF75EFF8F
:10A8400000BF03B05DF804FB00B58BB0039002912C
:10A8500001928DF803300023ADF818300023ADF8D5
:10A860002630634B1B78DBB283F00103DBB2002B95
:10A8700002D048F20163B7E0029B002B02D148F2FC
:10A880000463B1E0029B1B884FF6FF72934203D032
:10A89000029B5B88002B02D148F20363A4E0029B79
:10A8A0005B681846FEF706FC034683F00103DBB243
:10A8B000002B02D048F2026396E0019B002B11D1DD
:10A8C000029B9B68ADF826300DF11A02BDF82630C8
:10A8D00011461846FEF74CFE0890089B002B09D045
:10A8E000089B81E0019B1B88ADF81A30019B5B88B7
:10A8F000ADF8263005AB1846FFF768F80790079BC0
:10A90000002B0AD1BDF81A20BDF826301146184692
:10A91000FEF798FE48F2076366E0079B9DF8032068
:10A920001A70079B00229A75BDF81A20079B9A821D
:10A93000029B5A68079B1A61FEF7ACFE0246079B12
:10A94000DA60029B1A88079B1A81029B5A88079B30
:10A950009A80079BBDF82620DA809DF80330032BF0
:10A9600006D1079B04229A75039B1A68079B9A617C
:10A97000079B0433002206211846FDF758FF0346C3
:10A98000ADF81830079B0C3306AA04211846FDF7D2
:10A990004EFF0346ADF81830029B5868029B9B6837
:10A9A0009B0006AA1946FDF742FF0346ADF8183092
:10A9B000BDF81820079B5A8105AB1846FFF71CF815
:10A9C000039B002B0DD0039B00225A60079BDA6883
:10A9D000039B1A60039B00229A72064B1A89039B01
:10A9E0001A81FFF715FF002318460BB05DF804FB32
:10A9F000C4390020843B002000B585B001900C4B89
:10AA00001B68042B03D148F20B6303930BE0084B44
:10AA10001B680849019A41F823200121044800F0ED
:10AA2000F0FD00230393039B184605B05DF804FB7B
:10AA3000D0390020D439002084B040F6F8731B6868
:10AA4000B3F1FF3F02D10F4B1B6802E040F6F873F1
:10AA50001B6803934FF080531B6902934FF08053A0
:10AA60005B690193039BB3F1FF3F04D1019B029A01
:10AA700002FB03F300E0039B0093009B184604B025
:10AA8000704700BF1410001000B583B04FF4A0430E
:10AA90000193FFF7D1FF0346054A1361044B1A697E
:10AAA000019BD31A024AD36000BF03B05DF804FBD8
:10AAB0002832002008B5FFF7E7FF002203490448C9
:10AAC00001F0C8FA0346184608BD00BF8C0A04000E
:10AAD0002832002008B504481C234FF49A72034919
:10AAE00000F093FB00BF08BD1C3B0020E8390020AC
:10AAF00000B58BB002AB00221A605A609A60DA602F
:10AB00001A61424B1B78DBB2002B05D002AB184612
:10AB1000FEF7DEFA002375E03D4800F0A2FD034693
:10AB2000002B01D000236DE0FFF7C4FF0990099BC3
:10AB3000002B01D0099B65E0FFF7CCFFFEF7A2FFD9
:10AB400003468DF823309DF82330062B08D0062BC2
:10AB500012DC002B01D0022B0ED148F20A6351E027
:10AB60002A4B01221A70294B00225A6002AB184668
:10AB7000FEF7AEFA002345E000BF01AB1846FEF732
:10AB800025FF0790079B002B02D148F2076339E0AD
:10AB9000079B01221A709DF82330013B0A2B29D80C
:10ABA00001A252F823F000BFD5AB0200F5AB0200C2
:10ABB000D5AB0200F5AB0200EDAB0200F5AB020035
:10ABC000EDAB0200F5AB0200DDAB0200E5AB02002D
:10ABD000DDAB0200079B00221A710CE0079B0322E9
:10ABE0001A7108E0079B02221A7104E0079B0122F8
:10ABF0001A7100E000BF01AB1846FEF7FDFEFFF73B
:10AC000007FE002318460BB05DF804FBC439002092
:10AC1000C839002000B585B001900091019B002B40
:10AC200002D0009B002B02D148F204633CE00DF1FE
:10AC30000A0319460198FEF78BFD0346002B31D01D
:10AC4000019B5B680393039BD888039B5988019BF6
:10AC50005B681A46FFF74CF9034683F00103DBB249
:10AC6000002B02D048F20C631EE0BDF80A301A46F1
:10AC700013469B0013449B0008330D4A13440433CE
:10AC80000121184600F0BDFC009B039A1A60019B4D
:10AC90005B6803F10C02009B5A60019B01229A72CF
:10ACA000002301E048F20963184605B05DF804FB93
:10ACB0002C3B002000B585B00190019B002B02D1F8
:10ACC00048F204633BE00DF10A0319460198FEF7D0
:10ACD0003FFD0346002B2ED0BDF80A3019461A4A14
:10ACE0000B469B000B449B0013440C331B68002B4A
:10ACF0001DD0019B9B7A002B19D0BDF80A301A4653
:10AD0000114913469B0013449B000B440C331B68F2
:10AD1000591E0D4813469B0013449B0003440C33FB
:10AD20001960019B00229A720023039306E048F207
:10AD30000563039302E048F209630393039B1846FB
:10AD400005B05DF804FB00BF2C3B002000B583B0CC
:10AD5000019000910223002200990198FFF774FDF1
:10AD60000346184603B05DF804FB00B583B00190BC
:10AD70000091019B002B02D148F2046306E00323FB
:10AD8000002200990198FFF75FFD0346184603B0C3
:10AD90005DF804FB00B585B00190184B1B78DBB261
:10ADA00083F00103DBB2002B02D048F2016321E003
:10ADB000019B002B02D148F204631BE002AB184652
:10ADC000FEF704FE0390039B002B02D148F20763B9
:10ADD00010E0039B04221A70039B00221A71019B4E
:10ADE0001A68039BDA6002AB1846FEF705FEFFF710
:10ADF0000FFD0023184605B05DF804FBC4390020A0
:10AE000000B585B00346ADF806301A4B1B78DBB2AF
:10AE100083F00103DBB2002B02D048F2016324E08F
:10AE2000BDF806304FF6FF72934202D148F2036339
:10AE30001BE002AB1846FEF7C9FD0390039B002BF5
:10AE400002D148F2076310E0039B05221A70039BAE
:10AE500001221A71039BBDF80620DA8002AB184666
:10AE6000FEF7CAFDFFF7D4FC0023184605B05DF8D5
:10AE700004FB00BFC439002000B583B0154B1B781C
:10AE8000DBB283F00103DBB2002B02D048F2016396
:10AE90001BE06B461846FEF799FD0190019B002BC5
:10AEA00002D148F2076310E0019B06221A706B463C
:10AEB0001846FEF7A1FD084B1B78002B02D0064B6D
:10AEC00001229A73FFF7A4FC0023184603B05DF833
:10AED00004FB00BFC4390020843B002000B585B0CE
:10AEE000029201930346ADF80E300B46ADF80C30DC
:10AEF00003A90DF10E00019B029AFEF783FC0346A5
:10AF0000184605B05DF804FB00B585B00346029114
:10AF10000192ADF80E300DF10E01019B029A002056
:10AF2000FEF770FC0346184605B05DF804FB00B55B
:10AF300085B0034602910192ADF80E300DF10E007E
:10AF4000019B029A0021FEF75DFC0346184605B0FE
:10AF50005DF804FB82B001900091019B002B02D0B0
:10AF6000009B002B02D148F2046304E0019B1A68A5
:10AF7000009B1A600023184602B0704710B586B0D7
:10AF800003904FF48063ADF814300023ADF8123015
:10AF90004F4B1B78DBB283F00103DBB2002B02D0F6
:10AFA00048F2016391E0039B002B02D148F2046355
:10AFB0008BE012220021039814F027F9039B05224D
:10AFC0001A800023ADF816307AE0BDF8162041490A
:10AFD00013469B0013449B000B4408331988BDF8AB
:10AFE00016203C4813469B0013449B0003440A333D
:10AFF0001B880B44ADF81030BDF8162035491346B8
:10B000009B0013449B000B4404331B681846FEF757
:10B0100057F90346032B05D1039B1B88013B9AB2CA
:10B02000039B1A80BDF816202A4913469B0013443F
:10B030009B000B440C331968039B5A888BB2134452
:10B040009AB2039B5A80039B1989BDF816202148A8
:10B0500013469B0013449B0003440A331B880B4494
:10B060009AB2039B1A81039B5A89BDF8103013448E
:10B070009AB2039B5A81BDF81420BDF81030D31A40
:10B08000ADF81230039B9B89BDF812209A4203D978
:10B09000039BBDF812209A81039B191D039B9A1DE7
:10B0A000039B03F10E04039B1033BDF816000093BD
:10B0B0002346FEF719FCBDF816300133ADF8163003
:10B0C000BDF81630032B80D90023184606B010BDFA
:10B0D000C43900202C3B002086B001900091019BD8
:10B0E00053E8011F8AB2D88902449889824228BF56
:10B0F000121A1889824202BFBFF32F8F002307E084
:10B10000C2EA010243E801200028E9D14FF001031F
:10B110008DF80F30059002910492029A009B1A60FC
:10B120009DF80F30DBB2184606B0704784B001902E
:10B13000019951E8013FC3EA034341E80132002A83
:10B14000F7D10392029300BF04B0704786B001901C
:10B150000091019B53E8021F1FFAA1F2D888824296
:10B1600002BFBFF32F8F00230DE0D88902449889D6
:10B17000824228BF121AC1EA024243E80220002894
:10B18000E8D14FF001038DF80F3005900291049241
:10B19000029A009B1A609DF80F30DBB2184606B089
:10B1A000704784B00190019951E8023FC3EA2343FC
:10B1B00041E80232002AF7D10392029300BF04B0A3
:10B1C000704786B00190019B53E8021FDA88B1EB0B
:10B1D000314F4FF0000017BF89B242EA024241EA04
:10B1E000024204E05968B1EB314F08BF012043E847
:10B1F00002210029E8D18DF80F00059104929DF8F5
:10B200000F30DBB2184606B0704784B0039002914D
:10B2100011461A460B46ADF806301346ADF8043019
:10B22000029B002B01D10E231FE0BDF80630BDF8B4
:10B230000420B3FBF2F101FB02F29B1A9BB2002B3C
:10B2400001D0092311E0039B029A1A60039B00229C
:10B250005A60039B00229A60039BBDF806209A81E6
:10B26000039BBDF80420DA810023184604B0704720
:10B2700000B585B001900198FFF7A3FF03468DF854
:10B280000F309DF80F30002B01D0002300E0112378
:10B29000184605B05DF804FB00B585B0019000913B
:10B2A000009B19460198FFF717FF0346002B07D0B4
:10B2B000019B1B68009A128813440393039B00E0D0
:10B2C0000023184605B05DF804FB00B583B001907B
:10B2D0000091009B1A88009B5B889A4204D10198D8
:10B2E000FFF724FF012300E00023184603B05DF8B8
:10B2F00004FB00B585B001900091009B19460198B0
:10B30000FFF724FF0346002B07D0019B1B68009A20
:10B31000528813440393039B00E00023184605B0B2
:10B320005DF804FB00B583B001900091009B1A8882
:10B33000009B5B889A4204D10198FFF732FF0123FA
:10B3400000E00023184603B05DF804FB00B585B0AB
:10B3500001900091009B5B099B00019A1A44009B9D
:10B3600003F01F03012101FA03F31946104600F010
:10B37000E8F8039000BF05B05DF804FB00B583B0AA
:10B3800001900091009B5B099B00019A1A44009B6D
:10B3900003F01F03012101FA03F31946104600F0E0
:10B3A000B8F80246009B03F01F0322FA03F303F0F0
:10B3B0000103002B14BF01230023DBB2184603B0A6
:10B3C0005DF804FB00B585B001900091009B5B091E
:10B3D0009B00019A1A44009B03F01F03012101FA0C
:10B3E00003F3DB431946104600F0DBF8039000BF7F
:10B3F00005B05DF804FB82B001900091009B5B09F1
:10B400009B00019A13441A68009B03F01F0322FA61
:10B4100003F303F00103002B14BF01230023DBB26D
:10B42000184602B0704700B58DB00190009100231E
:10B430000B934BE00B9B9B00019A13441B68DB436F
:10B440000793079B93FAA3F30693069B0893089B25
:10B45000002B01D1202303E0089BB3FA83F3DBB276
:10B460000A932BE00B9B5B010A9A13440993099AF8
:10B47000009B9A4226D209990198FFF77FFF034665
:10B4800083F00103DBB2002B01D0099B26E00B9B6C
:10B490009B00019A13441B68DB430493049B93FABB
:10B4A000A3F30393039B0593059B002B01D120235A
:10B4B00003E0059BB3FA83F3DBB20A930A9B1F2BCD
:10B4C000D0D900E000BF0B9B01330B93009B013BE5
:10B4D0005B0901330B9A9A42ACD3009B18460DB01E
:10B4E0005DF804FB10B487B001900091019B009AB5
:10B4F00053E8004F104643E8000191F0000FF7D1E8
:10B50000059404900391059B184607B05DF8044B21
:10B51000704710B487B001900091019B009A53E8E6
:10B52000004F44EA020043E8000191F0000FF6D119
:10B53000059404900391059B184607B05DF8044BF1
:10B54000704710B487B001900091019B009A53E8B6
:10B55000004F44EA020043E8000191F0000FF6D1E9
:10B56000059404900391049B184607B05DF8044BC2
:10B57000704710B487B001900091019B009A53E886
:10B58000004F04EA020043E8000191F0000FF6D1F9
:10B59000059404900391059B184607B05DF8044B91
:10B5A000704710B487B001900091019B009A53E856
:10B5B000004F04EA020043E8000191F0000FF6D1C9
:10B5C000059404900391049B184607B05DF8044B62
:10B5D000704710B487B001900091019B009A53E826
:10B5E000004F04EB020043E8000191F0000FF6D198
:10B5F000059404900391059B184607B05DF8044B31
:10B60000704710B487B001900091019B009A53E8F5
:10B61000004F04EB020043E8000191F0000FF6D167
:10B62000059404900391049B184607B05DF8044B01
:10B63000704710B487B001900091019B009A53E8C5
:10B64000004FA4EB020043E8000191F0000FF6D197
:10B65000059404900391049B184607B05DF8044BD1
:10B66000704700B583B0019001210198FFF751FFA9
:10B670000346184603B05DF804FB00B583B00190A3
:10B6800001210198FFF75DFF0346184603B05DF8FE
:10B6900004FB00B583B0019000210198FFF769FF1A
:10B6A0000346184603B05DF804FB000000B583B004
:10B6B00001900B468DF80330019B002B03D1084904
:10B6C000E82005F06FFA019BDA689DF803300199D4
:10B6D000098A01FB03F31344184603B05DF804FB29
:10B6E0004007040000B583B001900091019B002B3E
:10B6F00003D10849F52005F055FA009B019AD2685C
:10B700009B1A019A128AB3FBF2F3DBB2184603B01C
:10B710005DF804FB4007040000B585B00190019B73
:10B72000002B01D10E234CE0019B1B68002B03D1A1
:10B730002649FF2005F036FA019B5B68002B04D1F7
:10B7400022494FF4807005F02DFA019B9B68002B75
:10B7500004D11E4940F2011005F024FA019BDB6878
:10B76000002B04D119494FF4817005F01BFA019B9D
:10B770001B8A002B04D1154940F2031005F012FA80
:10B78000019B9A68019B5B68D31A8DF80F30019B6F
:10B790001B68019A52681A6007E0019B1A681368D7
:10B7A000591C11609DF80F201A709DF80F305A1E19
:10B7B0008DF80F20002BF0D1019B1B6800221A711D
:10B7C0000023184605B05DF804FB00BF40070400E5
:10B7D00000B585B00190019B002B04D11F494FF4A7
:10B7E000927005F0DFF90023039300238DF80A30EF
:10B7F0000DF10A031846FCF7CDFF019B1B681A6880
:10B80000019B5B689A421FD9019B1B681A68013A29
:10B810001A601B681B7819460198FFF747FF0390D1
:10B82000019B9A68019B1B681B68D31A8DF80B302B
:10B83000019B1B681B799DF80B209A4204D9019B40
:10B840001B689DF80B201A719DF80A301846FCF70A
:10B85000B7FF039B184605B05DF804FB40070400E2
:10B8600010B584B001900091019B002B04D11549C3
:10B8700040F2471005F096F9009B002B04D11149C6
:10B880004FF4A47005F08EF9009B039300238DF80C
:10B890000B300DF10B031846FCF77CFF019B1B6876
:10B8A0001C68621C1A6003990198FFF71BFF03468E
:10B8B00023709DF80B301846FCF782FF00BF04B0E0
:10B8C00010BD00BF4007040000B583B00190019B8C
:10B8D000002B03D10C49312005F064F9019B9B68D2
:10B8E000002B0CD0019B5B69019A1069019A1168C9
:10B8F000019A92689847019B00229A6000E000BF7D
:10B9000003B05DF804FB00BFB00704000EB400B53F
:10B9100084B00190019B002B03D11849422005F00F
:10B9200041F9019B5B69002B03D11449432005F0C9
:10B9300039F9019B1B68002B03D11049442005F005
:10B9400031F9019B5B68002B03D10C49452005F0C0
:10B9500029F9059B002B0AD00023039306AB039320
:10B9600003AB1A460599019800F0B0F900E000BF5A
:10B9700004B05DF804EB03B0704700BFB0070400EB
:10B9800000B583B001900B468DF80330019B1A6817
:10B99000019B9B68581C0199886013449DF8032003
:10B9A0001A70019B9A68019B5B689A4202D30198C6
:10B9B000FFF78AFF00BF03B05DF804FB00B587B056
:10B9C000039002910192009300230593009B03F0E2
:10B9D0000103002B24D00BE0029B01330293059B53
:10B9E000013305939DF8133019460398FFF7C8FFFC
:10B9F000029B1B788DF813309DF81330002BEBD190
:10BA000006E0019B013B019320210398FFF7B8FF5B
:10BA1000019A059B9A422ED9019B002BF1D12AE075
:10BA2000029B002B0BD0029813F022FC059006E03D
:10BA3000019B013B019320210398FFF7A1FF019A8D
:10BA4000059B9A420FD9019B002BF1D10BE0029B81
:10BA500001330293059B013305939DF8133019467A
:10BA60000398FFF78DFF029B1B788DF813309DF82C
:10BA70001330002BEBD100BF07B05DF804FB0000D2
:10BA800000B589B00390029101920093029B079345
:10BA90000123069307E0079A019BB2FBF3F3079398
:10BAA000069B01330693079A019B9A42F3D2009AB0
:10BAB000069B9A4201D9009B06930B9B03F001035E
:10BAC000002B22D10A9B002B1FD00B9B03F00203FB
:10BAD000002B06D0009B002B03D130238DF81730AC
