:1000000000000120750300005D0300005F03000095
:1000100061030000630300006503000000000000AE
:100020000000000000000000000000006703000066
:1000300069030000000000006B0300006D03000076
:10004000953400006F030000BD3500006F03000011
:100050006F0300006F0300006F030000E135000034
:100060006F030000A9390000B93900006F030000D8
:100070006F0300006F0300006F0300006F030000B8
:100080006F030000591900006F0300008D35000058
:100090006F0300006F0300006F0300006F03000098
:1000A0006F0300006F0300006F0300006F03000088
:1000B0006F0300006F03000000000000000000005C
:1000C0006F0300006F0300006F0300006F03000068
:1000D0006F0300006F0300006F03000000000000CA
:1000E0000000000000000000000000000000000010
:1000F0000000000000000000000000000000000000
:1001000000000000000000000000000000000000EF
:1001100000000000000000000000000000000000DF
:1001200000000000000000000000000000000000CF
:1001300000000000000000000000000000000000BF
:1001400000000000000000000000000000000000AF
:10015000000000000000000000000000000000009F
:10016000000000000000000000000000000000008F
:10017000000000000000000000000000000000007F
:10018000000000000000000000000000000000006F
:10019000000000000000000000000000000000005F
:1001A000000000000000000000000000000000004F
:1001B000000000000000000000000000000000003F
:1001C000000000000000000000000000000000002F
:1001D000000000000000000000000000000000001F
:1001E000000000000000000000000000000000000F
:1001F00000000000000000000000000000000000FF
:10020000354936480A1A02D0072291438D463449AF
:1002100034480A1A06D00722914381F30988022242
:1002200082F3148830483149314A00F044F83148AB
:100230003149324A00F03FF831483249324A00F041
:100240003AF832483249334A00F035F832483349F7
:10025000334A00F030F833483349344A00F02BF881
:1002600033483449344A00F026F8344834490022EF
:1002700000F02CF833483449002200F027F83348C6
:100280003349091A082902DB002202604160314A21
:1002900090471F481F49884205D00268043003B4C4
:1002A000904703BCF7E700208646EC46002000217B
:1002B000294A9047FEE7884207D0521A05D00378B2
:1002C00001300B700131013AF9D17047884202D0F8
:1002D00002700130FAE770470000012000E00020C2
:1002E0000000012000000120CC610000C8000020B7
:1002F00080010020D0030000D0030000D44B000098
:10030000CC610000C8000020C8000020F84D0000AB
:10031000F84D0000F84D0000F84D0000F84D0000C9
:10032000F84D0000F84D0000F84D0000CB610000D2
:1003300084620000800100208001002080010020F4
:10034000CC0C0020CC0C0020CC0C0020CC0C0020CD
:10035000CC2C00209D030000693B0000FEE7FEE777
:10036000FEE7FEE7FEE7FEE7FEE7FEE7FEE7FEE765
:1003700000F002B8FFF7FCBF0F484FF007018843B9
:1003800085460E4880470E48016841F470010160BF
:10039000BFF34F8FBFF36F8FFFF732BF09480A4992
:1003A0000A4A884207D0521A05D0037801300B70F0
:1003B0000131013AF9D1704700000120553E00009B
:1003C00088ED00E0304D000000000020C800002053
:1003D0007047000007B5044B0093044A402300F027
:1003E00030F803B05DF804FBF10300008101002048
:1003F0002DE9F84388461446B2B10F4B0F4E032542
:10040000002743F00109224608EB0701002003F012
:100410007FFC0744241A48B933782BB14FF47A4053
:10042000C847013D02D13570BDE8F8830123337020
:10043000002CE8D1F8E700BF004E0000800100204A
:100440007047F0B595B01D46164608460C4602F0BA
:100450005FFD1A9B0D93CDE9086500252B46082208
:1004600005A920460A958DF82C500C9502F06DFDDB
:10047000079B0293069B03939DF814308DF811504F
:1004800003F00302012A1DD1BDF81420059DC3F31A
:10049000C203C2F383168DF81030B20008230EA9F0
:1004A000204602F052FDC5F3952508AB0093324675
:1004B00002AB0EA9284600F0F5FD204602F02CFD07
:1004C00015B0F0BD022AF8D1BDF81650C3F3C2032F
:1004D000C5F389158DF810300827082D2E4628BF42
:1004E00008263B4632460EA9204602F02EFDAD1BE3
:1004F00008AB02AA31460EA8374400F037FE002DA3
:10050000EBD1DAE700230428CB604B6098BF044BA3
:10051000044A98BF53F820308A600B60704700BFD0
:100520006C52000048520000CB6800225A7170479C
:10053000C368DB6800225A717047CB6801225A7188
:100540007047C368DB6801225A7170470D4A8A60A0
:1005500070B50D4A0D4C0023121BCB604B600B6035
:1005600012091D469A4207D0E6683679FF2E05D05B
:10057000854202D1A3680B6070BD01350133103490
:10058000F0E700BF80520000F84C0000D84C00009B
:100590002DE9F74F154D164C9846641B52F8043C54
:1005A00006468946174624094FF0000B5C4507D1E3
:1005B000104A0221304603B0BDE8F04F01F062BDA1
:1005C000A9680193184603F093FFAA46103518B1A5
:1005D000019B0BF1010BE9E73B464A465146304689
:1005E000C44603B0BDE8F04F604700BFD84C0000E0
:1005F000F84C0000244E0000014BFFF7C9BF00BFBC
:10060000F90B0000014BFFF7C3BF00BF2905000035
:10061000014BFFF7BDBF00BF3B050000014BFFF7DB
:10062000B7BF00BF250A0000037813F0040216D0FC
:1006300003F00303012B03D0022B09D001207047E4
:100640000A6800880232C0F3831002440A60F5E7AA
:100650000B684288023303EB92130B60EEE71046FF
:10066000704700002DE9F04F044685B0861C00203D
:100670000F46154601F02AF83F4A516839609368E1
:1006800003F580735B1A924602F21C4702F58369F8
:1006900002F21448B34219D30020002D68D004F0B0
:1006A0000F039B0143F0050363F30F00DAF80430F6
:1006B000DAB203321E444AF822000020CAF804606D
:1006C00001F006F8012005B0BDE8F08F01213846A1
:1006D00001F0F7F9484601F00CFA404601F009FA3A
:1006E000DAF808000090C0B203300AEB80006946D7
:1006F000FFF79AFF009B30BBDAB20AEB8202D168A7
:1007000001919A1C0133DBB20AEB83030092D3F808
:100710000CB001F00303012B22D0022B15D083462D
:10072000404601F0E9F910B1009BCAF8083059467B
:10073000384601F0C6F9DAF80830DAF8042003F593
:1007400080739B1AA6E7D8B2CEE7BDF80630C3F394
:10075000891303334FEA1B4B02EB93030093DFE74C
:10076000BDF80430C3F383134FEA1B4B1344F5E782
:10077000A40544F0060099E794020020012907B57A
:10078000034604D08168D1F84811890707D50022B3
:100790001146184603B05DF804EB01F06DBD5368D7
:1007A0000193054B00931368044A022101F06AFC8F
:1007B00003B05DF804FB00BF444E00003A4E000059
:1007C0002DE9F3478368D3F84831C3F340059B070D
:1007D000074606D50022114602B0BDE8F04701F0F9
:1007E0004BBD144E144CDFF85880DFF85890DFF8FA
:1007F00058A0A41B2409A54202D102B0BDE8F0878D
:10080000F268B3681179FF2907D10C4A08213846EC
:1008100001F038FC01351036EDE75279002A14BF9B
:1008200042464A46CDE9002138465246082101F0A9
:1008300029FCEFE7D84C0000F84C00006A4E00009D
:10084000594E0000614E0000894E000030B50A4B41
:100850000A4A0B49D21AD20800239A4201D1052034
:1008600006E031F823500468A54202D1036000205D
:1008700030BD0133F1E700BF304C0000D84C000020
:10088000200000208368D3F848319B0703D500225D
:10089000114601F0F1BC024A022101F0F3BB00BF96
:1008A000AA4E00008368D3F848319B0703D5002285
:1008B000114601F0E1BC024A022101F0E3BB00BF96
:1008C000AA4E00002DE9F84F1D4B1E4800221A7059
:1008D00002F0D7FA814688B91B481C4E1C4CDFF841
:1008E0007CA002F064FCA41BE4084D46A54208D19C
:1008F0000023184A18481946A3421BD14846BDE8B0
:10090000F88F4FF00008474606EBC50BBD420AD0F2
:1009100056F83710DBF80000142203F02FFD0028F2
:10092000C8BF08F101080137BC42EFD12AF8258081
:100930000135DBE720F8231042F8041B0133DBE725
:1009400094020020F84C00003C520000304C0000A3
:10095000D84C00007400002022000020200000205D
:1009600007B5019031B9019A064B53F8320003B034
:100970005DF804FB01A8FFF769FF0028F3D0002011
:10098000F5E700BF304C0000002310B5CB604B6092
:10099000034B8B600C460121FFF7E2FF206010BD86
:1009A00048520000094B013903EBC000032909D864
:1009B000DFE801F00A02040604207047007970475E
:1009C000407970470020704702207047304C00008B
:1009D00030B5124C00EB400054F8215002FA00F3FD
:1009E000072202FA00F06B400D4A03406B40C3F34C
:1009F000821044F8213002EB8101C3F3C20282422B
:100A000038BF0246C3F34220824203F0070338BFD7
:100A10000246934238BF13464B8030BD740000201D
:100A2000200000202DE9F04F064685B01D461746F0
:100A3000002A51D0CB6828684C4993F804900722CB
:100A400003F09CFC0446C8B9012F07D1484A022193
:100A5000304605B0BDE8F04F01F014BBDFF82C8143
:100A600058F8041B68680A2203F088FC002877D035
:100A70000134052CF4D16B683E4A15E03E492868E4
:100A8000082203F07BFC044660B9012F2DD04FF003
:100A900001083A4A3A4BDFF8F8A09B1ADB08CDE987
:100AA000013247E02B68374A0221304605B0BDE8E5
:100AB000F04F01F0E7BA18F83530A3420FD2002109
:100AC0002846FFF74DFF524603460221304601F00B
:100AD000D9FA0135BD42EED105B0BDE8F08F22460E
:100AE00029464846FFF774FFF3E7244B244FDFF80D
:100AF000A0A0FF1AFF08002503F10608EAE7184640
:100B000000210393FFF72CFF5946202203F036FC07
:100B1000039B014608B1013311E0029A02EBC302C4
:100B20009279A24216D3224619464846FFF750FF53
:100B300008F10108B845CFD255F828B00023019A32
:100B40009A42DCD155F828300F4A0221304601F094
:100B500099FAEDE71846FFF703FF52460346F4E71C
:100B6000022FE4B2C1D04FF0020892E7BB4E000062
:100B7000C24E00002D4F0000D94E0000304C000046
:100B8000D84C0000E14E0000194F00005852000000
:100B9000F64E000013460A46C168FFF743BF000047
:100BA00013B504460191ABB16AB90199104A04EB3F
:100BB000440052F8212007238340134023FA00F019
:100BC000C0B202B010BD01A8FFF740FE0028ECD073
:100BD0000020F6E72AB9019A064B03EBC203987985
:100BE000EFE701A8FFF732FE0028F1D1F3E700BFDD
:100BF00074000020304C0000294B2A4A2DE9F04FA8
:100C00009B1A4FEAD30ACB685B7985B005460E463E
:100C10001BB9254A022101F035FA244B244ADFF89A
:100C2000A4800821284601F02DFA224A08212846EE
:100C300001F028FA0024544502D105B0BDE8F08F38
:100C4000F36893F8049001231A4621464846FFF7BB
:100C5000A7FF00230746214601224846FFF7A0FFD1
:100C600003280246814628BF0322012120465FFA5D
:100C700082FBFFF775FE104A58F82B10034658F810
:100C800027000E4F0090D94598BF3A46CDE9011292
:100C900028460B4A082101F0F5F90134CBE700BFE3
:100CA000D84C0000304C00004C4F00005F4F00005B
:100CB0006B4F0000894F00004A4F0000A65500000E
:100CC000C64F00005852000013460A46C168FFF79D
:100CD00093BF0000034BD3E90130C31A5842584177
:100CE000704700BF940200202DE9F04385B0FFF764
:100CF000F1FF0546002840F00481834CC4F8180435
:100D0000BFF34F8FA3680093DBB2033304EB830080
:100D10006946FFF789FC009B18B1D4F81824002A13
:100D20005FD0DAB2991C013304EB8202DBB204EB30
:100D30008303D268DB68029302F00303022B019263
:100D4000009159D1BDF8063070489DF80450C3F3A6
:100D50008917502FB84628BF4FF0500868F38F13FB
:100D600008F10801ADF8063002F0A3F8C5F3C2059A
:100D70000646002800F0AC8002F0CAF8002301A962
:100D80000822304602F0D7F80099CB43DBB201339A
:100D9000C9B20331B8EB830F4FEA830904EB810139
:100DA00027D908234A46A8EB0908304602F0C3F8C1
:100DB0005FFA88F8564909F108034246304602F0C6
:100DC000BAF8009B033703EB97070097D4F8183461
:100DD000002B47D1D4F81074DFF848914FF0070882
:100DE00065E062689A428FD8A260284605B0BDE8E7
:100DF000F08308234246E1E7012B69D1BDF8045096
:100E00004248C5F38311062928BF062161F38915DD
:100E100002318900ADF8045002F04BF8C5F3C20569
:100E20000646002854D002F073F80023082201A9D6
:100E3000304602F080F80027BDF80420C2F3831288
:100E4000BB00974203F10803C0D200994A1CC9B203
:100E50000331009204EB81010422304602F06BF86A
:100E60000137E9E7304602F057F8FFF733FF80F02B
:100E70000100C5B2B9E7FB685A79B2B11B79BDF878
:100E8000081003EB430259F8211008FA02F3052D6C
:100E900003EA010323FA02F308BF0325AB4204D39C
:100EA0003B6831461B6838469847FB681F68002F2F
:100EB000E1D1304602F030F8384600F007FCD4F8B3
:100EC00018340BB9009BA360002000F001FCCCE7B4
:100ED000D4F8104474B90F4B5B88012BC5D90E4B65
:100EE0000E480F49C01AC008000440F0020000F08C
:100EF00061F8BAE7236820469B689847E3681C6856
:100F0000E8E7002571E700BF94020020F84C0000DC
:100F1000A002002040000020304C0000704C000077
:100F2000DC4F0000740000202DE9F34704460E4614
:100F3000924601A9012218469946FFF793FB1B4FE1
:100F400010B3019D4FF00008AA1CC84508EB020130
:100F500023D11748002100F091FD80F31000000418
:100F600040EA1440E4006B1C04F03804DBB2EDB23C
:100F700044F0010407EB8303033544EA881444EA90
:100F80008624D86047F825403B781BB1FFF7ACFEBC
:100F90000028FBD102B0BDE8F087C9B207EB8101A0
:100FA0005AF82830CB6008F10108CEE794020020FF
:100FB000B006002000231A46FFF7B6BF084A38B52E
:100FC0000123D2F8104413701D4604B938BDE368FC
:100FD0005D71236820465B689847E3681C68F4E706
:100FE0009402002007B503460846197A052911D056
:100FF0005B7A2BB1094A0A49019001F032FD019850
:101000000849019001F02DFD019803B05DF804EB53
:1010100001F01CBD002AF8D0F2E700BFC853000061
:10102000F1560000A455000030B5C38885B00446D1
:101030000D4633B1144A00921449154A284601F06E
:1010400010FD217A05291DD0637A4BB1A088FFF7E6
:10105000A9FC104B104953F82020284601F001FD4F
:10106000227A0E4BA08853F8222003920021FFF72A
:1010700077FC039A0A490346284605B0BDE830408C
:1010800001F0EFBC05B030BDC8530000D5530000DF
:10109000CD53000040540000F1560000645400009D
:1010A000ED5300002DE9F04385B01F460C9D002351
:1010B00095F80C902B7306460C4690462946384608
:1010C000FFF7B2FFB8F1060F09D8DFE808F0041205
:1010D000181F283340003146284601F0C2FC002288
:1010E00029463846FFF77EFF85F80C9005B0BDE82D
:1010F000F08322683146284601F0B3FCEFE7D4E9DB
:1011000000233146284601F0ACFCE8E7A3680093D1
:101110003146D4E90023284601F0A3FCDFE7E36869
:101120000193A36800933146D4E90023284601F0D7
:1011300098FCD4E723690293E3680193A3680093C2
:101140003146D4E90023284601F08BFCC7E76369E8
:10115000039323690293E3680193A36800933146E4
:10116000D4E90023284601F07CFCB8E708292DE9E2
:10117000F74F80460E4617461C463CD8002593F88C
:101180000C901D7319461046FFF74EFFDFF888A03C
:10119000DFF888B0AE4231D918F80520594620460C
:1011A00001F05FFC0135082DF4D11949194DDFF824
:1011B00070A0204601F055FC4FF0000B5E4522D98F
:1011C00018F80B207E2A05D81046019203F0D1F8BA
:1011D000019A00B92E225146204601F042FC0BF143
:1011E000010BBBF1080FE9D1012221463846FFF778
:1011F000F9FE84F80C9003B0BDE8F08F514620460C
:1012000001F02FFCCEE72946204601F02AFCE6E754
:1012100001540000FF530000FD530000F75300008D
:1012200003540000044B1A5C012393404FF0A0428A
:10123000C2F80C35704700BF78540000044B1A5CAC
:10124000012393404FF0A042C2F80835704700BF19
:101250007854000008B50020FFF7F0FF0120FFF7E9
:10126000EDFF0220FFF7EAFFBDE808400320FFF78B
:10127000E5BFC20708B501460CD54FF0A0430322D5
:10128000C3F84427C3F84827C3F84C27C3F85027AE
:10129000FFF7E0FF8B070AD54FF0A0430C22C3F8FD
:1012A0003427C3F83827C3F83C27C3F8402708BDC4
:1012B0001FB50021039001AA44F20100CDE90111FC
:1012C00000F004F805B05DF804FB000010B572B63C
:1012D000FFF774FEFFF708FD0028FBD1154C62886C
:1012E0004AB11548154B1649C01AC008000440F011
:1012F0000100FFF75FFE134B1B68DB0700D500BE44
:101300006388012B09D90C480C4B0F49C01AC0083F
:10131000000440F00200FFF74DFEBFF34F8F0B4972
:101320000B4BCA6802F4E0621343CB60BFF34F8FEC
:1013300000BFFDE740000020704C0000304C000072
:101340007C540000F0ED00E08854000000ED00E067
:101350000400FA05D0E90223D1E90201994208BF4D
:1013600090422CBF012000207047000008B50B48B8
:1013700000F0DBFA0A4B0B49D3E900231218D1E93C
:10138000000143F100038B4208BF824203D212F1F5
:10139000807243F100031046194608BDE4000020A6
:1013A00050070020B807002037B505460C460A480C
:1013B00001A900F0EEFA60B10570446001A9064889
:1013C00000F011FB18B1054800F0B4FA002003B09A
:1013D00030BD0420FBE700BFD0000020E400002067
:1013E00038B5194B1B78044613B90025284638BD7B
:1013F0000028FAD090F8203003F0FF05002BF4D03D
:10140000FFF7B4FFD4E90223994208BF904216D3F4
:1014100023690BB984F82030D4E905309847216955
:101420000029E2D094F8203003F0FF05002BDCD037
:10143000D4E90223521843F10003C4E9022303480C
:10144000214601F0BDFED1E758070020B854000046
:1014500013B5114B11491868019008231048582200
:1014600000F084FA044698B90E4A0F4801A900F02A
:101470003FF9044660B90C48012100F039FA012314
:101480000A4A0948194600F09BF9094B01221A70D3
:10149000204602B010BD00BFB25400005C0700201F
:1014A000D000002009150000E4000020FFFF7F00AD
:1014B000580700203AB103685A614A1E514251410F
:1014C0001961002070470720704738B590F8203028
:1014D00004460D4683B98261FFF748FF236940192E
:1014E00041F10001C4E9020103B125612146002058
:1014F000BDE83840FFF758BF002038BD014800F074
:1015000014BA00BFE40000202DE9F04F85B08046FA
:1015100000F0F6F940B15C4AD2E9003113F1807372
:1015200041F10001C2E900310021404600F0F7F925
:1015300038B1564E336823B13068FFF751FF0023AE
:1015400033600121404600F0EAF920B1FFF70EFFB9
:101550004F4BC3E900014F484C4F4F4EDFF84091CD
:1015600003A900F050FA002846D1DFF82C91474E2D
:10157000DFF830A1484601F039FE3368002878D002
:1015800083B13368D0E90201D3E90223994208BF4D
:1015900090422ED2336893F820301BB13168484610
:1015A00001F00EFE484601F01BFED0E902B30746EB
:1015B0000193FFF7DBFE019BBBEB000463EB01052E
:1015C000012C75F1000347DBB4F5350F42D3FFF76B
:1015D00095FF324A02444FF496030021504600F032
:1015E0000FF9002840D1336813B9404600F0E0F805
:1015F000376005B0BDE8F08F0378012B1FD0022BB8
:1016000009D14FF0000A304601F0EAFD002836D03B
:1016100080F820A0F7E74BB9416891F820302BB94A
:10162000012381F82030304601F0CAFD03A9194892
:1016300000F014FA03A9174800F0E5F993E74168B0
:101640003B68994202D100233B60EFE7304601F04E
:10165000D0FDEBE7BA68BEE70021504600F055F92F
:101660003846FFF7BDFE01E00D28F9D000233360B6
:1016700080E7002BBDD1404600F09EF8B9E701237A
:1016800089F80030D2E700BF50070020C0070020D3
:10169000B8070020D0000020B8540000FFFFB400BD
:1016A00058070020E400002072B6024A1368013394
:1016B00013607047C4070020034A1368013B13609E
:1016C00003B962B6704700BFC4070020FFF7ECBF44
:1016D000FFF7F2BF435882B03BB100234350435859
:1016E0000193019B012002B070471846FBE7000000
:1016F000F8B5264C4379264E44F82320254C04EBBC
:10170000C3031B7973B17388012B09D92248234B7A
:101710002349C01AC008000440F00200FFF74AFC49
:101720000820F8BD03680A88C3F8082590F904501A
:101730008B7802795B01002DDBB221DB19494F194F
:1017400087F8003301236D0902F01F0203FA02F249
:1017500041F82520437904EBC30244F83300738831
:101760000121022B117109D90B480C4B0E49C01AEB
:10177000C008000440F00300FFF71CFC0020D0E785
:101780000A4902F00F028B54E4E700BFD0070020A3
:1017900044000020C8070020784C0000304C0000B6
:1017A000C454000000E100E0E654000014ED00E045
:1017B000036801221A607047036801225A6070476B
:1017C00073B501F15005AD000068ADB24FF480343F
:1017D0008C400026C0F80843C0F84843465101F544
:1017E000A8714559019522F07F42019D40F82120C2
:1017F000C0F844430BB1C0F8044302B070BD000010
:101800002DE9F74F0D4622F07F4402684FF48037F0
:1018100005F150068F408046B60002EB8500C2F805
:101820004873B6B2C2F80873D2F8041599464FF05F
:10183000000BD0F84035C0F8401542F806B05B1AEE
:101840009259009223F07F43012B009A4FEA850AB8
:101850000CD1264B4FF4806043F001039847D8F831
:10186000003043F806B09B590193019BD8F8001053
:10187000D1F80465C1F84473A31B23F07F43012B07
:101880001CD11A4B05F5A875013443F0010341F84A
:1018900025404FF480609847D8F80030D3F80435DD
:1018A0009E4209D1D8F800300020C3F84473C3F831
:1018B000047303B0BDE8F08F0D20FAE78A44C9F144
:1018C000FF13CAF84045D1F80405221A013A22F064
:1018D0007F4203F57F439342EED3002AE2D10134E5
:1018E000CAF84045D1F804359842DAE700550000BF
:1018F00003680222C3F8442309B1C3F804237047E4
:1019000000684FF48271FFF7E5BE4FF4803303FAAD
:1019100001F10368C3F84813C3F808137047503146
:101920008900006889B2FFF7D5BE0368D3F80405C3
:101930007047000090F90430002B09DB5A0901219F
:1019400003F01F0301FA03F34032024941F8223049
:10195000704700BF00E100E0024B034A1B681068BB
:10196000184700BFD0070020C807002010B561B19C
:10197000B2FBF3F403FB1424A4B244B9C0E900148D
:1019800084608281C381204610BD0E20FCE70920BF
:10199000FAE737B550E8013F9DB2C48925448489F0
:1019A000A54228BF2D1B0489A54202BFBFF32F8F7C
:1019B000002207E0C5EA030540E80154002CE9D104
:1019C0004FF001028DF803200193019B9DF8032045
:1019D0000B6002F0FF0322B10B880068184403B0CB
:1019E00030BD1846FBE70A884B889A4209D150E877
:1019F000012FC2EA024240E80123002BF7D1012067
:101A000070470020704737B550E8023F1FFAA3F532
:101A1000C488A54202BFBFF32F8F00220DE0C48906
:101A200025448489A54228BF2D1BC3EA054540E80B
:101A30000254002CE8D14FF001028DF803200193ED
:101A4000019B9DF803200B6002F0FF0322B14B883D
:101A50000068184403B030BD1846FBE70A884B887D
:101A60009A4209D150E8022FC2EA224240E80223FA
:101A7000002BF7D1012070470020704710B50346B6
:101A800053E8000F0A4643E8002494F0000FF7D112
:101A900010BD10B5034653E8002F42EA010043E8A9
:101AA000000494F0000FF6D110BD10B5034653E8C2
:101AB000000F00EA010243E8002494F0000FF6D181
:101AC00010BD10B5034653E8002F02EB010043E8B8
:101AD000000494F0000FF6D110BD10B5034653E892
:101AE000002FA2EB010043E8000494F0000FF6D1B0
:101AF00010BD0121FFF7CDBF0021FFF7D6BF0000C9
:101B00002DE9F0478368D3F84831C3F340059B07BC
:101B100088B0074606D50022114608B0BDE8F04758
:101B200000F0AABB012906D91E4A022108B0BDE86F
:101B3000F04700F0A7BA1C4C1C4EDFF874A04FF021
:101B40006408A946361B1C23B6FBF3F6AE4204F12B
:101B50001C0402D108B0BDE8F08754F81C0C54E90D
:101B60000623017900689A1A1B1ADBB2039308FB5B
:101B700003F3B3FBF2F3CDE9019334F8043C009393
:101B8000CDE9061254F8083C11FB08F13846B1FBC8
:101B9000F2F1CDE904215246082100F073FA013533
:101BA000D4E700BF06550000F84C0000304D00009F
:101BB0001955000010B590B1D0E9012301689B1AB6
:101BC000DBB20A60013BDBB2FF2B026802D10020CE
:101BD000107110BD11684C1C14600B70F2E70E20E0
:101BE000F7E738B504460020FFF770FD2268636808
:101BF0001168994213D9481E106011F8015CE3681E
:101C0000218B01FB0535A36811791B1ADBB29942C0
:101C100000D213710020FFF75BFD284638BD002578
:101C2000F8E738B5054600200C46FFF74FFD2A6857
:101C30001368591C1160E968641A298BB4FBF1F42C
:101C40001C70BDE838400020FFF742BD436810B566
:101C50009C686068036801219B689847A36810B975
:101C600003221A7010BD0422FBE708B102F067BC22
:101C7000704710B584680068FFF7F7FFE37F627E66
:101C8000A07653FA80F3B3FBF2F102FB1133013378
:101C90002375A37F53FA80F00131B0FBF2F302FB0E
:101CA0001300A1750130591C6075E17504F1140031
:101CB00010BD00002DE9F843089E1C460D46E9B909
:101CC000194E1A4B9B1BB2EBD30F4FEAD30804D229
:101CD000174F07EB8207A84501D1002309E073687D
:101CE0003868196802F004FCB146083620B9D9F802
:101CF00004302360BDE8F8830135ECE70028ECD020
:101D00000178436839B13146104698473368002B53
:101D1000E3D02660EEE7110103EB02125B58002BC3
:101D2000DBD02260E6E700BFD44B0000144C00007B
:101D30000000002007B58368B9B1DA7E8A4211D06D
:101D40000B4A009233228DF8042001F12F028DF806
:101D500005206D22ADF80620D9766A46054900694E
:101D600000F07FFE03B05DF804FB034AD976F5E787
:101D70001B5B313BF1560000715A000007B58368C8
:101D80001A7F8A4213D045F61B32ADF80020342268
:101D90008DF8022001F12F0219778DF803206D22B2
:101DA000ADF80420034900696A4600F05AFE03B00A
:101DB0005DF804FBF1560000014900F052BE00BF7F
:101DC000A55500000A460068014900F04ABE00BF60
:101DD0002856000009B1FFF7F5BF7047014A0249D4
:101DE00000F03FBE6D5A0000F15600002DE9F341AE
:101DF00005460F461446002614B902B0BDE8F0812E
:101E0000686803682246D3F80C80B91901ABC04753
:101E1000019B1E44E41A002BEED1AB681A78032A0A
:101E2000EAD0D3F848219206FBD5B3F848216FF3E6
:101E30004512A3F84821DFE72DE9F04F2DED028B85
:101E4000044683B090460E46002973D00025705D8D
:101E500002F08AFA50BB04F1100308EE103A5FFA60
:101E600088FB3046FFF701FFA36893F81990401BE9
:101E7000A9EB080906EB050A484553464FF0000751
:101E800017D913F8010BCDE9003302F06DFA009B6E
:101E900020B113F8012C0A2A34D0B946A268507E2A
:101EA00008EB070290422CD90137EAE70135CEE76B
:101EB0000137B84219D013F8012B0A2A05EB07099C
:101EC000F6D1206900F0C2FD3A4627465146204629
:101ED000FFF78CFF57F8100FFFF76EFF5FFA88F1DE
:101EE000384609F10105FFF775FF2069711900F007
:101EF000B8FD206903B0BDEC028BBDE8F04FFFF7E1
:101F00005BBF4F46206900F0A1FD3A46514620468E
:101F1000FFF76CFF3D44705D02F026FA40B920697E
:101F2000FFF74AFF18EE100A5946FFF753FF98E7EC
:101F30000135F0E703B0BDEC028BBDE8F08F000087
:101F40000A4619B10249006800F08BBD704700BF16
:101F50002E5600000A4619B10249006800F081BD02
:101F6000704700BF345600002DE9F34105468068F4
:101F7000424F002480222146A0308DF8034002F019
:101F800062FA3F49286900F06CFD286900F05EFDA7
:101F90004FF47A7647F00107686803680122D3F8A6
:101FA00010800DF1030101ABC047019B5BB94FF6F7
:101FB000C010B847019B002BEED1013EB6B2002EF7
:101FC000EAD10D2035E09DF80330AA681B2B48D0DC
:101FD00092F8A0101B29EDD1522B42D114440023BA
:101FE00084F8A03092F8A1105B291FD102F1A2065B
:101FF00002211D4616F8010B4C1C3B28E1B264B2CD
:102000001AD1002C20DB01F1A0041444002314F8A1
:10201000010BD8B9FA2B28BFFA23FA2D13752B46DA
:1020200028BFFA23937582F8A00002E082F8A0305E
:102030000B2002B0BDE8F08105EB850300EB430304
:10204000303B80299DB2D5D10C20F2E703EB83030E
:1020500000EB43004E1C303883B23006F1B2F3D4AB
:10206000D5E711190134E4B2092C81F8A030A1D9C7
:10207000002382F8A0300420DBE700BF905A000064
:10208000845A00000CB473B506AB0D4653F8046BCC
:1020900081680193D1F848315B07044620D5CB7E97
:1020A000AB421DD002221B31684602F0A3F929463B
:1020B0002046FFF73FFE206901AA314600F050FD9F
:1020C0009DF800102046FFF735FE9DF8011011B174
:1020D0002046FFF753FE02B0BDE8704002B07047E3
:1020E000206901AA314600F03BFDF4E72DE9F041FB
:1020F000C3685B6890B004460D461868002203A9C7
:1021000001F00FF8002840F08C808DB1039800F0AA
:1021100003FFA268D2F838310133C2F8383103F036
:102120000703012B04D00125284610B0BDE8F0813B
:102130002046FFF79EFD81780129064605D9013921
:10214000C9B204F11000FFF7FBFE3178012905D96F
:102150000139C9B204F11000FFF7FCFE2069FFF756
:102160003DFE2DB1304A02212046FFF78BFFDBE711
:1021700000230822039804A900F0E7FE069B0793BA
:10218000059B08939DF810308DF8255003F003024D
:10219000012A25D1BDF81020049E0398C3F3C20381
:1021A000C2F383178DF82430BA0008230AA900F07F
:1021B000CCFEC6F39526236900933A4607AB0AA9DD
:1021C0003046FEF76FFF039800F0A6FEE3685B68F9
:1021D0000022186803A900F0A4FF0028C8D0A2E7D5
:1021E000022AF0D1BDF81260C3F3C203C6F3891608
:1021F0008DF824304FF00808082E374628BF0827EE
:10220000434603983A460AA900F09FFEF61B23694D
:1022100007AA39460AA8B844FEF7A8FF002EEBD15A
:10222000D1E7002580E700BF405600004368012148
:102230009868FFF75BBFF7B547680191BD68AB6869
:102240001E78042E0ED0386801A900F0A0FE0446C6
:1022500050B9019800F05CFE032E03D121462846B8
:10226000FFF744FF03B0F0BDF11E18BF012128465F
:10227000FFF73CFFE7E700002DE9F04F07468BB082
:102280007F48DFF81C8291460D4602F058F9064659
:102290007C4802F054F9BB68CDF80080301A7A4AC5
:1022A0005B68082186B23846FFF7ECFEBB685868C9
:1022B000FFF7DBFC0446404602F041F9BB682044CE
:1022C00082B299683846FFF7B7FD704A0021384658
:1022D000FFF7D8FEB9F1000F07D035B14FF00C0869
:1022E000AA4608FB0958C24529D1664802F027F9D9
:1022F000841C3444A4B2624B654A009304F1030881
:102300000821384623461FFA88F8FFF7BBFE6149CB
:1023100042463846FFF790FD45B10C2606FB0956AC
:10232000DFF880B1DFF86891B54222D1BB68D3F8FD
:102330000C80B8F1000F5AD10BB0BDE8F08FDAF87D
:102340000400FFF792FC0446DAF80000FFF78DFC6A
:102350002044B0420AD9DAF80400FFF786FC0446AC
:10236000DAF80000FFF781FC204486B20AF10C0A7B
:10237000B9E7D5E9002393B34AB30192414A0092E9
:1023800008215A463846FFF77DFE6868FFF76DFC66
:1023900003902868FFF769FC82463A4802F0CFF8BC
:1023A000039AA21AA2EB0A03181AC1B207F110008D
:1023B000FFF710FD384938693A2200F052FBA9684E
:1023C00089B142463846FFF737FD0C35ACE700933C
:1023D00023464A4608213846FFF754FEEFE7002A15
:1023E000EDD00092F4E73869FFF7E6FCEDE7002254
:1023F0000592164606AD009505AB0121404602F157
:102400000109FFF757FC059C5CB12068FFF72DFC24
:10241000B04204D9059B1868FFF727FC86B24A46EC
:10242000E9E7B9F1010F87D01C4ADFF864A0214623
:102430003846FFF727FE2246B41CA4B205AB009530
:102440000121404602F10109FFF734FC059B002BF6
:102450003FF472AF1B68009308212346524638466A
:10246000FFF710FE059B596831B1721D92B23846D4
:10247000FFF7E2FC4A46E1E73869FFF79DFCF9E720
:10248000965A0000085C0000EB560000F45600006D
:10249000FE560000065700000354000022570000BB
:1024A000895A00001957000000221146FFF7E4BEC8
:1024B000022910B5044608D18368D3F848319B0738
:1024C00003D5BDE81040FFF7EFBF2069054A064974
:1024D00000F0C7FA2069054A0349BDE8104000F042
:1024E000C0BA00BF755A0000F1560000795A0000CA
:1024F000012906D0022906D18368D3F848319B0709
:1025000001D5FFF7D1BF024A0221FFF7BBBD00BFD3
:10251000A056000038B58368D3F84821C2F34005BF
:1025200092070C4606D500221146FFF7A5FE2C4661
:10253000204638BD0029FBD05B68024A0221FFF724
:10254000A1FDF5E730570000012937B505461446CF
:1025500004D103B0BDE83040FFF7A6BF023918BF71
:102560000121FFF7D7FF48B963680193044B00933B
:10257000044A236802212846FFF784FD03B030BDDA
:10258000444E00004B570000012907B504D103B0A9
:102590005DF804EBFFF788BF02290AD15368019365
:1025A000084B00931368084AFFF76CFD03B05DF811
:1025B00004FB8CBF0121002103B05DF804EBFFF7A1
:1025C000A9BF00BF444E00004B570000013910B5B1
:1025D00018BF01210446FFF79DFF40B9044A054991
:1025E000206900F03EFAA36845F218021A8310BD74
:1025F0007E5A0000F156000001292DE9F3410446FE
:10260000154637D18668FFF7AFFC38BBA36804F1E5
:102610001005FA21284693F814809F7DFFF7D2FB1E
:1026200020691E49FA2200F01CFA2046FFF79CFCA4
:10263000A0B9A368197D7176A368A1EB08019B7D01
:1026400033762846C9B2FFF785FC317EC91BC9B273
:10265000284602B0BDE8F041FFF772BCA36845F21E
:1026600018021A830E4A0421204602B0BDE8F04148
:10267000FFF708BD022994BF00210121FFF74AFF9F
:1026800048B96B680193074B00932B68064A0221F7
:102690002046FFF7F7FC02B0BDE8F0813A56000093
:1026A00054570000444E00004B5700002DE9F04104
:1026B000013986B018BF01210546FFF72BFF40BB4B
:1026C000AB68DFF85480D3F840610446EEB1082CC3
:1026D0001BD030460023092203A900F036FC9DF8E8
:1026E0001420A968304609230132A03100F02DFCE6
:1026F000AB68049EA0330093671C2346424600212A
:102700002846FFF7BFFC3C46E0E7AB68002283F8B1
:10271000A02006B0BDE8F0818E570000013910B549
:1027200018BF01210446FFF7F5FE30B9A368B3F8DE
:10273000482160F38202A3F8482110BD013910B589
:1027400018BF01210446FFF7E5FE30B9A268B2F8D0
:10275000483143F00403A2F8483110BD013910B5E7
:1027600018BF01210446FFF7D5FE30B9A368B3F8BE
:10277000482160F3C302A3F8482110BD013910B508
:1027800018BF01210446FFF7C5FE30B9A268B2F8B0
:10279000483143F00803A2F8483110BD022973B54F
:1027A0000D4694BF0021012104461646FFF7B2FEF4
:1027B000014658B9022D0BD1736801930C4B00935D
:1027C0000C4A336829462046FFF75CFC02B070BD16
:1027D000A368094AD3F8483113F0080F074B18BF14
:1027E0001346074A204602B0BDE87040FFF74ABCD6
:1027F000444E00004B5700004B500000985700001B
:102800009C570000013910B518BF01210446FFF79D
:1028100081FE48B9A368C3F83801E3685B68BDE886
:102820001040186800F0BFBC10BD00007FB5013932
:1028300018BF01210446FFF76DFE0546B8B9E368ED
:102840005B681E68304600F0ABFCB168A268C0B29D
:10285000CDE9010164234343B3FBF1F3DBB2009301
:10286000D2F83831034A29462046FFF70BFC04B062
:1028700070BD00BFAD570000044A137FB3FA83F365
:10288000C3F11F03DBB25376704700BFD4070020AB
:10289000F8B580B379B3194C194F00232376037828
:1028A000E37603F5E0704FF0A0460125032205FA18
:1028B00003F346F82020C6F8083512486160124933
:1028C000BA7000F03DFF08B10320F8BDE37E05FAC1
:1028D00003F3C6F80835394600F07AFF0028F3D133
:1028E0000A48294600F0CEFF0028EDD1084BC3F876
:1028F00000052570E9E70720E7E700BFD4070020BF
:10290000EC000020145C000099290000F40700206E
:1029100000700040054B01221A7602221A709A7E3E
:102920001043002298761A76704700BFD407002023
:1029300008B515498B7E03F0FF001BB30B7F53B91D
:10294000124A0123C2F800350A7ED2B90B768B7E7B
:102950000B77FFF791FF4B7E0D4A0133DBB2D3714A
:102960000A4A0020C2F81405C2F81035CA7E0123B5
:1029700093404FF0A042C2F80C35BDE8084000F08B
:10298000D5BF112008BD00BFD40700200070004053
:10299000EC00002000000000F7B5274CE37E012585
:1029A0004FF0A04705FA03F306462946C7F8083555
:1029B000406800F067FF7368B3F9000001F034FC71
:1029C0001BA3D3E9002301F07FFB1C4B002201F085
:1029D0007BFB1B4B002201F077FB1A4B002201F01E
:1029E00073FB01F00DFCE37E05FA03F3C7F808352D
:1029F000637E043380B224F81300637E617EADF8F9
:102A000004008D40217F8DF8063021EA05012177F1
:102A100019B90D4B2176C3F80015636801A89847D2
:102A2000237F1BB1FFF728FFFFF782FF03B0F0BD44
:102A3000333333333333E33FD407002000408F4038
:102A4000000008400000503F00700040826810B550
:102A500004462AB143690168006998470023A360CE
:102A600010BD0EB403B5039921B104AB01AA0193C3
:102A700000F076F802B05DF804EB03B070470A2965
:102A800038B504460D4602D10D21FFF7F8FFA368C3
:102A90002268591CA160D554D4E901329A4204D36A
:102AA0002046BDE83840FFF7D1BF38BD2DE9F84FCB
:102AB0009846DDE90A43154682460F460A464FF01E
:102AC0000109AA420FD2C14538BFC14613F0010B1C
:102AD00001D16CB900240126B8F1010F1BD908F10E
:102AE000FF386E43F8E709F10109B2FBF5F2E8E7B8
:102AF0009B070ED5B8F1000F0CBF30262026A1454C
:102B0000E9D2013C31465046FFF7B9FF002CF6D11F
:102B1000E0E72026F3E7B7FBF6F39D42E1D9DFF8C3
:102B20003C80B7FBF6F3504618F8031006FB13770A
:102B3000FFF7A5FF3346AB42B6FBF5F6F1D2BBF18A
:102B4000000F02D00CB1A14501D3BDE8F88F2021C0
:102B50005046013CFFF793FFF4E700BF185C00000C
:102B60002DE9F74F054617468846002900F04281B7
:102B700018F8011B49B92B7B002B00F03B8128463C
:102B800003B0BDE8F04FFFF761BF252940F0B780E3
:102B9000002698F800302D2B424608F1010823D07A
:102BA000302B24D02B2B25D000242A2B02F101011D
:102BB00023D13B681A1D1B683A601C440A461378EF
:102BC0002E2B26D101324FF0000A104610F8011BBF
:102BD000A1F1300CBCF1090F1DD80A2303FB0A1325
:102BE000A3F1300A0246F0E746F00106D1E746F0CD
:102BF0000206CEE746F00406CBE711F8013CA3F14C
:102C000030000928DBD80A2202FB0434303C0A4693
:102C1000CBE74FF0000A12F8011B01F0FB00682817
:102C20009046F8D0782909D86F290CD8632962D04A
:102C300022D8252963D0582900F0888098F80030E0
:102C4000002B95D197E770390829F7D801A353F8DD
:102C500021F000BFCF2D00003D2C00003D2C0000D6
:102C60005D2D00003D2C00003B2D00003D2C0000A0
:102C70003D2C00004D2D0000642901D06929DDD1D3
:102C80003A68D2F80090111D89EAE9723960A2EB26
:102C9000E9724FF0010B092A35DCD34538BFD34622
:102CA0002CB1B9F1000F01DB720700D5013CB3076D
:102CB00002D5BAF1000F03D0F00701D44CBB0024B9
:102CC000B9F1000F2DDAC9F100092D212846FFF7CF
:102CD000D6FE06F00302022A04D1BAF1000F01D198
:102CE0001CBB0024CDE9004653460A22494628462B
:102CF000FFF7DCFEA2E73B681A1D19783A60284608
:102D0000FFF7BDFE9AE70A230BF1010BB2FBF3F2CA
:102D1000C1E7A345D4D220212846013CFFF7AFFEEE
:102D2000CCE77107D5D52B21D0E7A345DAD23021E6
:102D30002846013CFFF7A3FED2E73968CDE90046FB
:102D40000A1D3A6053460A220968D0E739680A1D0D
:102D50003A60CDE9004653461022F5E73B681A1D5C
:102D60003A6016F00106D3F8009028D1B9F1000FAF
:102D700003D0484601F0E3FB0646B44200D904BB49
:102D800009F1FF3919F8011F00293FF457AF284610
:102D9000FFF775FEF6E728460136FFF770FE19F8D3
:102DA00006100029F7D1A642BFF448AF002C3FF42B
:102DB00045AF20212846013CFFF761FEF3E70026DE
:102DC000EDE720212846013CFFF759FED5E73B6897
:102DD0001A1D3A60302128461C68FFF750FE782102
:102DE0002846FFF74CFE00220823CDE90032214699
:102DF00010227CE703B0BDE8F08F00BF2DE9F84F4B
:102E0000B0F806A04579D2F800B09DF828900AFBEA
:102E100005F5043D88460BEB0301A94203F10404C8
:102E200088BFA5EB030BB4FBFAF607460AFB164472
:102E3000C2F800B04EB9AAEB04055D4528BF5D4657
:102E4000BBF1000F04D1BDE8F88F3F68013EF1E708
:102E5000043408EB06003C442A46B9F1000F0DD0BB
:102E60002146ABEB050B01F0C5FADA452E443F686D
:102E700055464FF0000428BF5D46E1E70146204675
:102E8000EFE7FEF797BEF8B546790146721E054694
:102E9000002393422D6803D30024A64202D8F8BD34
:102EA0000133F6E70F682846FEF7BBFE01343946CA
:102EB000F3E72DE9F843068BCD1C0746FEF791FE9C
:102EC000043E35440446B5FBF6F5F0B14FF480738B
:102ED000EDB28380C680013D076081464FF0000857
:102EE000A84512D23846FEF77CFE064648B1637903
:102EF0000133637108F10108C9F8000007608146D9
:102F0000EEE72046FFF7BFFF34462046BDE8F883D2
:102F100001210430FEF7D5BD10B50121044604306F
:102F2000FEF7DBFD10F0FF0F04D12046BDE8104096
:102F3000FFF7A9BF10BD1FB503920022009203AA9C
:102F4000FFF75CFF05B05DF804FB1FB5039201229B
:102F5000009203AAFFF752FF05B05DF804FB026878
:102F600013685268934291BFD01A8068013080186C
:102F700088BFC01A7047036881681A685B688B4213
:102F800034BF01330023D31A584258417047F8B573
:102F9000044600200D46FEF799FB2046FFF7EBFFA5
:102FA00010B1237C002B3CD12268A668536851687D
:102FB000B14234BF01310021516030B11168A068C5
:102FC000814234BF013100211160E2686068511E06
:102FD000072920D8DFE801F004101F141F1F1F1855
:102FE0002A78C2542046FFF7BAFF23689A688242C3
:102FF00000D29860002415E02A8820F81320F1E719
:103000002A6840F82320EDE7D5E9006700EBC3000C
:10301000C0E90067E6E7294602FB030001F0EAF990
:10302000E0E704240020FEF753FB2046F8BD10B56E
:1030300004460020FEF74AFB2046FFF790FF0446B7
:103040000020FEF745FB204610BD00002DE9F04FA3
:103050008368D3F84831C3F340059B078BB007461C
:1030600006D5002211460BB0BDE8F04FFFF704B9BA
:10307000012906D9214A02210BB0BDE8F04FFFF724
:1030800001B81F4C1F4EDFF88090DFF880A0DFF8FA
:1030900080B0361B1C23B6FBF3F6AE4202D10BB058
:1030A000BDE8F08FE36808932368D4F808809A6835
:1030B00009922046FFF7BBFF099A94F810E06423B9
:1030C00003FB00FCBEF1000F0CBFCE46D6465343B7
:1030D000B3FBF8F3CDE90432BCFBF8F1089B019196
:1030E000CDE902080093CDE9068E63695A460821AE
:1030F0003846FEF7C7FF01351C34CEE70655000001
:10310000144C0000304C0000315C00003A5C0000C0
:10311000465C0000036818685B68C31A584258414F
:10312000704770B5054600200C461646FEF7CEFAED
:103130002846FFF7EFFF002830D129680B682EB929
:103140000A68A868824238BF561C0E60EA6869683F
:10315000501E07281CD8DFE800F0040C1B101B1BB6
:103160001B14CB5C237000240020FEF7B1FA20462C
:1031700070BD31F813302380F5E751F82330236018
:10318000F1E701EBC301D1E90023C4E90023EAE739
:1031900003FB0211204601F02DF9E4E70524E3E7E3
:1031A000036898687047036800229A6070478368D4
:1031B00000225A60C3E904229A60DA601A607047FC
:1031C00070B5446806460D46206818B1B3682946B4
:1031D000984718B923682B60256070BD2468F3E711
:1031E0004368186808B102681A6070474368186835
:1031F00070474368186800B97047884203D1026875
:103200001A600120704703460068F4E738B5074CA0
:10321000051E04F1080318BF1C4623682BB11A6869
:1032200022605B6828469847F7E738BD0008002011
:1032300070B50D4C2578ADB90C486560A560256169
:10324000E56000F0B9F8064600F0C4F8012384F800
:1032500020502370064BD3F800340BB10123A37028
:10326000304670BD8526F5E7F8070020453300009D
:103270000000014038B5134CA378054603F0FF0069
:1032800073B115B16B68012098470020FEF71EFA54
:10329000E3680133E3600020BDE83840FEF718BA68
:1032A000FEF714FA25B1226913463BB92A6025615D
:1032B000E368002BECD100F09FF8E9E79D42F7D0DE
:1032C0001B68F2E7F807002038B5134C6378054611
:1032D00003F0FF0073B115B16B6800209847002020
:1032E000FEF7F4F96368013363600020BDE83840FD
:1032F000FEF7EEB9FEF7EAF925B1A26813463BB92D
:103300002A60A5606368002BECD100F09BF8E9E728
:103310009D42F7D01B68F2E7F807002038B5084C4B
:103320000020FEF7D3F96368013B6360656815B957
:1033300000F094F86570BDE838400020FEF7C8B989
:10334000F807002010B5044630B9144B01225A701A
:10335000BDE81040FFF75ABF012806D0022807D168
:10336000BDE810400E48FFF7AFBF0C4B9870EFE779
:10337000032800D010BDFFF7D1FF084A002192F8C2
:10338000203082F82010D269DBB2002AF2D0042B60
:103390000CBF20460220BDE810401047F80700206F
:1033A0000C08002000F18040002382B00360036815
:1033B0000193019B02B07047054A13792BB9012193
:1033C000106093719180184670478520704700BF48
:1033D0001C080020074B1A68D20704D4C02283F8C7
:1033E000002301221A604FF080430022C3F8182501
:1033F000704700BF00E100E038B54FF48270FFF77E
:10340000D1FF4FF080430222C3F804230A4AD06858
:1034100040F08073D360094B1C6844F001011960CF
:103420005D685968491BB1F50A5FFAD31C60044B0B
:10343000D06001221A6038BDF0ED00E0001000E01D
:103440000800004008B54FF48070FFF7ABFF4FF065
:1034500080430122C3F804231A6008BD4FF0804264
:10346000012108B54FF48070C2F80813FFF79AFFE6
:10347000064B1960D2F80C3403F00113B3F1011FAD
:10348000F8D0034B00225A7108BD00BF0400004071
:103490001C080020244B1B6810B573B14FF48070DA
:1034A000FFF780FF4FF080430122C3F808231F4B32
:1034B000587910B95A711B6898471D4B1B6863B146
:1034C0004FF48270FFF76EFF4FF080430222C3F883
:1034D0000823164B01201B689847164B1B6863B1E5
:1034E0004FF48870FFF75EFF4FF080431022C3F85F
:1034F00008230E4B02201B6898470F4B1B6893B1A3
:103500000E4B00221A604FF48670FFF74BFF4FF00E
:1035100080430821C3F80813044B9A71BDE810409A
:103520001B680320184710BD000100401C08002044
:1035300004010040100100400C010040340C004028
:1035400000F1804000F59830002382B003600368EA
:103550000193019B02B0704700F1804303F598335B
:1035600010B51B68024663B1064BD3F80433194209
:1035700007D0FFF7E5FF044BBDE810401B6810467D
:10358000184710BD003001402408002008B5012173
:103590004FF48070FFF7E0FF02214FF48270FFF7D5
:1035A000DBFF04214FF48470FFF7D6FFBDE808402D
:1035B00008214FF48670FFF7CFBF0000014B1B6856
:1035C000184700BF2808002000F1804000F5E040C7
:1035D000002382B0036003680193019B02B070472F
:1035E000F0B5504B504C1B6885B0002B3DD04FF4CC
:1035F000827094F82E20FFF7E7FF2AB394F82F305B
:1036000013BB4A4B1B68002B33D04FF48070FFF77D
:10361000DBFF638B94F82D108B424FD922895B1A04
:103620009BB292B26383D31A626802EB4303404AAF
:10363000C2F82C36C2F830164FF48270FFF7C4FF80
:103640003C4B01221A6014E0636802932389ADF8B1
:103650000C30E36800218DF8041023BB2374236829
:1036600001A89847002384F82F3094F82E30002BBF
:10367000C7D1314B1B685BB14FF48870FFF7A4FFD3
:103680000023237402238DF8043001A8236898478F
:103690002A4B1B68EBB14FF48A70FFF795FF0023AC
:1036A000237405B0F0BD208B608363602081E160EE
:1036B000002AD4D11E4B01221A60D0E7BCD1E368A6
:1036C000012284F82F2013B100226283AFE76383C5
:1036D000B2E766694FF000470125002EE1D0B6FA47
:1036E00086F227FA02F34632920026EA030602F136
:1036F000804303F5E0431B68002BEED01046FFF734
:1037000063FFA2F58C72D30882F00402C2F3800238
:103710008DF808308DF8045023688DF8092001A831
:103720009847DAE70471004030080020007100403B
:10373000007000400470004010710040147100409F
:1037400038B5204A92F82C300446002B37D111604E
:103750001D490078C1F8F0056078C1F8F40501252D
:10376000137482F82D30536182F82F30E07882F89C
:103770002E006FF0004382F82C504FF48270C1F895
:103780000833FFF721FF4FF48070FFF71DFF4FF460
:103790008A70FFF719FFA3780C485B01DBB280F851
:1037A0000733802303600223C1F8043392F82E30DC
:1037B0000BB1C1F80453C1F80055002038BD0820F2
:1037C000FCE700BF300800200070004000E100E08E
:1037D00070B52A4B1A7C02F0FF05002A4BD10A79FA
:1037E000012A9CBF264CC4F8005500F10C0503EBE0
:1037F0004504247924B993F82D40013483F82D40F1
:1038000003EB4503CC790D7A8E781C715D714B7892
:1038100036021B0106F4E06603F0300333430E78F2
:1038200006F003063343CE78360306F4805633435E
:10383000160406F4E02633434E798979360506F4FA
:1038400080160906334301F080710B430C4901EBEC
:103850000016000100F1804000F5E040012AC6F8A2
:103860001835C0F81455C0F8104502D80123C1F826
:103870000035002000E0112070BD00BF300800209E
:103880000070004070B5264A264B05461220C2F84B
:1038900008031C7C022C03D1C2F80403112070BD64
:1038A000187C01281DD1D86818B10223C2F804334E
:1038B000F4E7DD60198393F82E3063B91A4A136870
:1038C000002BFCD04FF48070FFF77EFE144BC3F842
:1038D0002C56C3F83016124B0222C3F804230020E2
:1038E000DDE7022093F82E40C2F8040301260020F1
:1038F0001E745D601981D8603CB1598393F82D30F6
:10390000C2F82C56C2F83036C9E7C2F82C564FF42C
:103910008070C2F83016FFF757FE20461660BEE7EB
:10392000007000403008002000710040084A117CFF
:103930000129CBB209D192F82E0018B1054A002016
:1039400013607047044A136070470820704700BF37
:103950003008002000700040047000402DE9F7435B
:10396000002406460F4600F5A0754FF48038A146A6
:103970002B688BB1D6F8043308FA04F21A420BD044
:10398000C5F800902B680193019BA30003F5A07379
:1039900098B2D7E9003198470134042C05F10405A9
:1039A000E6D103B0BDE8F08301490248FFF7D6BF76
:1039B000600800200090004001490248FFF7CEBF98
:1039C0006C08002000A00040034B1A6812B11A686E
:1039D000013A1A60704700BF2C0A002008B5FEF7B4
:1039E000A7FF78B1084B5B88022B0BD9074B08481F
:1039F0000849C01AC0080004BDE8084040F00500AE
:103A0000FDF7D8BA08BD00BF40000020304C0000D0
:103A1000704C0000555D0000012904D91368074A65
:103A20000221FEF72FBB064B1A781AB1054A042172
:103A3000FEF728BB01221A70704700BF5B5D0000D3
:103A4000280A0020745D00008378022B07D002D979
:103A5000072B1DD0704701881A4800F0A7B91A4BF0
:103A60001A780388032A01D0052A0AD1174A116857
:103A7000994238BF1360164A1168994220D91360E1
:103A80007047144A126800209A4217D8FDF7CABB43
:103A90000D4B1A780388032A01D0052A0AD10B4A54
:103AA0005168994238BF5360094A5168994207D911
:103AB00053607047084A02201268E5E7FDF7BEBB75
:103AC000704700BF935D0000280A0020300A0020E4
:103AD000380A0020600100206401002007B504239B
:103AE00007498DF804300DEB0300FEF7D1FE08B155
:103AF000FDF7DEFB0120FEF70DFF03B05DF804FBD0
:103B0000493A000008B5124A12480121FDF7D2FCDB
:103B100008B1FDF7CDFB1048002240F26661FDF7C9
:103B2000D4FC08B1FDF7C4FB0C4A0D480121FDF798
:103B3000C1FC08B1FDF7BCFB0A48002240F233315A
:103B4000FDF7C3FC18B1BDE80840FDF7B1BB08BDE7
:103B5000C9390000305F000038010020DD39000065
:103B60002C5F00001001002038B54FF48041002088
:103B7000FCF7A8FE08B1FDF79BFB0120FDF779FBE0
:103B8000FFF756FB88BBFFF775FBFDF761FC08B13B
:103B9000FDF78EFB164D6B88022B11D9154B164C79
:103BA0001649E41AE408240444F00300FDF702FA7D
:103BB0006B88022B04D9124944F00500FDF7FAF98D
:103BC000FFF78CFF6B88022B09D90B48094B0D4975
:103BD000C01AC008000440F00500FDF7EBF9FFF73C
:103BE00091FFFDF781F830BFFBE7FDF761FBCCE704
:103BF00040000020304C0000704C0000A55D00002B
:103C0000AD5D0000DA5D00000369C1688B429DBFB5
:103C10008268D21802F1FF3203F1FF3394BF501AC9
:103C2000581A70472DE9F843D0E902940546A9EBEC
:103C300004084068904520440F46144404D900F01D
:103C4000D9FBEC60BDE8F8834246A4EB090400F020
:103C5000D1FB6868224607EB0801F0E72DE9F8433D
:103C6000C5680646894617464FF000083469B368B0
:103C70007068A54228BFE418013C621B5C1BBC4273
:103C800028BF3C46944228BF144649462844224651
:103C900000F0B0FBB3682544AB4208BF00253F1BD2
:103CA000A044A144F560E1D14046BDE8F88300009E
:103CB00010B5114C114AA2610223C4E90433104B20
:103CC000E361A2644FF400730E4A0F492362E26479
:103CD00000231022E01DA3626362E362A3656365B3
:103CE000E365226500F0E2FB0849204600F0DEFBB8
:103CF0002023A37110BD00BF400A0020445F0000D4
:103D0000C80A0020B80A00204D5F0000515F000083
:103D1000F8B5184C182300FB033503FB004025447D
:103D2000C46A012C0F4616460FD0022C1AD0F4B9E3
:103D30002846FFF769FF864205D8324639462846AD
:103D4000FFF770FF34462046F8BD2846FFF75CFFBA
:103D50008642344628BF0446224639462846FFF7A5
:103D600061FFF0E72846BDE8F840FFF777BF002481
:103D7000E9E700BF400A002070B50B4B1B780446F2
:103D80000D4616460BB9FFF793FF0020FDF79EFC8A
:103D9000324629462046FFF7BBFF04460020FDF7C8
:103DA00097FC204670BD00BF400A00200FB410B53C
:103DB000A2B024AB802153F8042B019302A800F099
:103DC0000BFB802804460ADD802202A90020FFF7B1
:103DD000D3FF204622B0BDE8104004B07047002851
:103DE000F7DD0246F1E700000B4B1B685A1C05BFCC
:103DF0000A4B0B4A0B4A10680ABF1B781068C0F3C5
:103E00000310062B05D1033803288CBF00200120A6
:103E100070470020704700BF30010010E00F00F035
:103E2000E80F00F034010010074B1B78062B09D176
:103E3000064B1B68C3F30313033B032B02D8044A4E
:103E4000D05C704700207047E00F00F0E80F00F0F2
:103E5000605F000008B5FFF7C7FF28B1834B844AB5
:103E60001B68C3F304231360FFF7DEFF10B1814B1F
:103E7000814A1A60FFF7B8FF28B1804B804A1B685F
:103E8000C3F342331360FFF7CFFF20B17D4AD368FD
:103E900023F08073D360FFF7A7FF40B14FF080435A
:103EA0000022C3F80C21C3F81021C3F83825FFF70E
:103EB000BBFF10B1744B03221A60FFF7B5FF40B18E
:103EC000724B05221A6001229A6700229A603F22F3
:103ED0005A606F4B1A68511C0BBF6E4B6E4B1A78B1
:103EE0001B6802BF08331B68C3F30313062A4DD1B6
:103EF000033B032B4AD8694AD35C002B46D04FF0D2
:103F00008052674BD2F80414C3F82015D2F8081475
:103F1000C3F82415D2F80C14C3F82815D2F81014DD
:103F2000C3F82C15D2F81414C3F83015D2F81814AD
:103F3000C3F83415D2F81C14C3F84015D2F8201475
:103F4000C3F84415D2F82414C3F84815D2F828143D
:103F5000C3F84C15D2F82C14C3F85015D2F830140D
:103F6000C3F85415D2F83414C3F86015D2F83814D5
:103F7000C3F86415D2F83C14C3F86815D2F840149D
:103F8000C3F86C15D2F84424C3F87025FFF72CFF52
:103F900028B1444B444A1B6803F04F031360FFF7FA
:103FA00023FF48B14FF08043D3F80024D20744BF29
:103FB0006FF00102C3F80024354B1B68062B0CD1AF
:103FC000354B1B68033B032B07D8384AD35C23B11E
:103FD000374A136843F480631360364AD2F8883056
:103FE00043F47003C2F88830BFF34F8FBFF36F8F75
:103FF0004FF01023D3F80022002A03DBD3F8043259
:10400000002B2FDA2C4B0122C3F80425D3F800240F
:10401000002AFBD04FF010221521C2F80012D3F86D
:104020000024002AFBD04FF010231522C3F80422ED
:10403000214B1A46D3F800140029FBD00021C3F805
:104040000415D2F80034002BFBD0BFF34F8F194971
:104050001A4BCA6802F4E0621343CB60BFF34F8F80
:1040600000BFFDE7164B174A1A6008BD2403001075
:104070004035014074C007400DF0ADBA4402001055
:104080003C050040F0ED00E0A00500401056004067
:1040900030010010E00F00F034010010585F000004
:1040A00000C0004058020010E40E00405C5F0000B9
:1040B0003C17004000ED00E000E001400400FA057C
:1040C000680100200090D003F0B540F2FF7681EA4D
:1040D000030C16EA115E1EBFB64516EA1355B5422B
:1040E0005AD021EA465141F48011A1FB024723EA4C
:1040F000465343F48013AE44A0FB03650CF0004C20
:1041000036197D41A1FB034747F10003A0FB0217CD
:10411000F619654153F10003094218BF46F0010644
:1041200040F2FE74B3F5007F13D2AEF5806EA64563
:104130002BD24CEA0331280341EA155140EA1650CC
:104140003203450872F1004250F1000051EB0E516C
:10415000F0BDAEF2FF3EA64517D24CEAC321E802FD
:1041600041EA555140EA5650F202450872F10042C8
:1041700050F1000051EB0E51F0BD0CF0004141F048
:10418000FE4141F470010020F0BD1EEA0E0FF4D58F
:104190000CF000410020F0BD16EA115F04BF01F0F1
:1041A00000410020004218BF41F0010116EA135FF0
:1041B00004BF03F000430022124218BF43F0010382
:1041C00006EA1354B44218BF9EEA060F03D00CF05F
:1041D00000410020F0BD21F0004123F00043B1EB8D
:1041E000065F06D8B3EB065F03D8002918BF002B83
:1041F000C3D140F20001C7F6F8710020F0BD00BF46
:104200000B0D40F21E42D21A09DBCB0243EA50509A
:1042100040F00040202A28BF2022D04070474900AB
:1042200060EB0000704700BF80B110F0004248BF53
:10423000D0F10000120D02F21D42B0FA80F1884068
:10424000521AC30A400503EB025170470100704740
:104250007F2805D8034B185C034B5B5C1840704704
:1042600000207047705F0000F05F0000A0F1610364
:10427000192B98BF20387047A0F14103192B98BF24
:10428000203070477F2805D8034B185C034B5B5CDC
:104290001840704700207047705F0000F05F00001A
:1042A000A0F16103192B98BF20387047A0F141039A
:1042B000192B98BF203070477F299ABF01700120C9
:1042C0006FF02E0070475AB10A787F2A0AD800B1E1
:1042D0000260002119605960501A18BF0120704710
:1042E000002070476FF02E00704738B5044608462E
:1042F000A26842B1236861685D1C8D4208BF00203E
:104300008B4208D2D054E3682BB121686268914295
:1043100001D22146984723680133236038BD70B528
:104320004C1E09D41646C5B229463046FFF7DDFFBC
:10433000013CB4F1FF3FF7D170BD10F0100F08D170
:1043400008B510F4007F14BF30202020FFF7E7FFEE
:1043500008BD704708B5034B5B689B681B689847AE
:1043600008BD00BF6C01002008B50821FFF7F2FF6F
:1043700008BD08B50921FFF7EDFF08BDCAB170B44B
:104380001446012A10D00A4603462044461E114610
:10439000184613F8014B3CB101320D78A54203D108
:1043A000184611469E42F2D100780B78C01A70BCB4
:1043B000704700207047037853B159B10144034658
:1043C00013F8012F12B18B42FAD10B46181A70471D
:1043D0000346FBE70346F9E710B584B00C461146E7
:1043E00002900022039201941A46684600F0D8F821
:1043F00004B010BD844640EA010313F0030F18D146
:104400008446202A0BD32DE9F007B1E8F807A0E88D
:10441000F807A2F12002202AF7D2BDE8F007042A0B
:1044200007D351F8043B40F8043BA2F10402042AEC
:10443000F7D2002A05D011F8013B00F8013B013A00
:10444000F9D1604670478446002A2DD010F0030F42
:1044500004D000F8011B013A26D0F7E7C9B241EABF
:10446000012141EA0141202A12D3A2F120022DE9C3
:10447000F0030B460C460D460E460F46884689460D
:10448000A0E8FA03203AFBD2BDE8F00320320BD0BB
:10449000042A05D340F8041B043A05D0042AF9D2B3
:1044A00000F8011B013AFBD160467047024610F04C
:1044B000030F16D111F0030F13D12DE9F0004FF0C7
:1044C00001374FF0803351F8044BA4EB070525EA80
:1044D00004051D4002D142F8044BF4E7A1F10401A8
:1044E000F0BC11F8013B02F8013B002BF9D17047F9
:1044F00010F0030F19D111F0030F16D12DE9700040
:104500004FF001364FF0803350F8044B51F8045B04
:10451000AC4205D1A4EB060525EA04051D40F3D005
:10452000A0F10400A1F1040170BC10F8012B11F8F6
:10453000013BD21A01D1002BF7D11046704700F190
:10454000010110F0030F11D010F8012B002A23D025
:1045500010F0030F0AD010F8012B002A1CD010F025
:10456000030F03D010F8012B002A15D02DE970009D
:104570004FF001324FF0803350F8044BA4EB0205AA
:1045800025EA04051D4000D1F6E7A0F1040070BC47
:1045900010F8012B002AFBD1A0EB010070470000AE
:1045A0002DE9F04F89B007460392002303600C46C3
:1045B00014F8011B002900F0FA82DFF814B5E9E2D3
:1045C000002507E05E2868D145F4805501E045F0FC
:1045D00040051C46234613F8010B3028F2D81F284B
:1045E00037D9A0F12002102A33D801A151F822F0C6
:1045F000CF450000534600005346000035460000FA
:104600005346000053460000534600003B4600005E
:104610005346000053460000534600004146000048
:104620005346000047460000534600005346000032
:104630004D46000045F08005CBE745F40045C8E74E
:1046400045F02005C5E745F01005C2E745F40075C3
:10465000BFE72A2821D1039A111D0391D2F800A0A7
:10466000BAF1000FBCBFCAF1000A45F01005187876
:10467000A31C2AEAEA7A2E2826D00021742847D0E3
:104680007A2845D06C2800F0A8804C2800F0AB8038
:10469000682800F0B8801C463DE0A0F13002D2B29C
:1046A000092A88BF4FF0000AE3D84FF0000A0AEB4E
:1046B0008A0A303800EB4A0A13F8010BA0F13002E5
:1046C000D2B2092AF3D9D4E718782A280AD1039A52
:1046D000111D03911168587802330029CEDB45F48F
:1046E0008075CBE70133A0F13002D2B2092A88BF2E
:1046F0000021F4D8002101EB8101303800EB4101A9
:1047000013F8010BA0F13002D2B2092AF3D9E4E781
:104710001C4614F8010B002800F05582A0F1250377
:10472000DBB2532B62D8A0F12503532B5ED8DFE810
:1047300013F076005D005D005D005D005D005D00D2
:104740005D005D005D005D005D005D005D005D0081
:104750005D005D005D005D005D005D005D005D0071
:104760005D005D005D005D005D005D005D005D0061
:104770005D005D005D005D005D005D005D005D0051
:104780005D005D005D005D005D005D005D005D0041
:104790005D005D005D005D00EB005D005D005D00A3
:1047A0005D005D005D005D005D005D005D007B0003
:1047B00020015D005D005D005D0020015D005D0089
:1047C0005D005D0095000E01D1005D005D00A6005A
:1047D0005D0019015D005D00ED001C4614F8010B41
:1047E00045F0010597E745F001051C46B44B1E68EE
:1047F000002E00F0CC8103AB0193009153462A4672
:104800003946B047C3E11878682803D05C1C45F0EE
:10481000040580E745F008059C1C58787BE72521B6
:104820003846FFF762FDB2E1039B1A1D03921E7822
:104830000AF1FF3A3A4651462846FFF77EFD3146D7
:104840003846FFF752FDA94619F0100F00F09F817E
:104850003A4651462020FFF762FD98E115F0080F17
:1048600006D03A68039B191D03911B681A708EE1EC
:10487000039B1A1D03921B683A681A6087E1039B29
:104880001A1D0392D3F800808E4BB8F1000F08BFB9
:104890009846464625F4007915F4807F15D04046A9
:1048A000FFF789FD0546AAEB050A3A4651464846F8
:1048B000FFF743FD002DC7D0454416F8011B3846CD
:1048C000FFF713FDB542F8D1BEE74046FFF737FECC
:1048D0000546E8E7039B1A1D03921B6815F0800F3D
:1048E0000CBF0026232645F4807508211A46002BAC
:1048F00000F0298105AB4FF0000805F4005CA646E6
:1049000060468C460146D1E045F4005515F0800F15
:104910001BD043F2780643F25803782818BF1E468E
:1049200015F4807F01D025F4007515F4804F32D046
:10493000039B1A1D03921B6815F0040F1FD01BB2B6
:10494000002B20DA5B422D262DE00026E8E715F04B
:10495000800F0CBF0026302615F4807FE5D025F4AB
:104960000075E2E715F4807F07D025F40075002676
:10497000DBE745F480450026D7E70026D5E715F0AC
:10498000080FDDD0DBB215F0200F60D115F0400F1D
:1049900018BF202607E0039B1A1D03921B6815F021
:1049A000040F4FD09BB215F4807F14BF25F400751F
:1049B00001215838202800F2AE8001A252F820F0E0
:1049C000ED480000174B0000174B0000174B00008C
:1049D000174B0000174B0000174B0000174B00004F
:1049E000174B0000174B0000174B0000174B00003F
:1049F0007B4A0000174B0000174B0000174B0000CC
:104A0000174B00007B4A0000174B0000174B0000BB
:104A1000174B0000174B0000174B0000534A0000D3
:104A2000ED480000174B0000174B0000174B00002B
:104A3000174B00007B4A0000174B0000174B00008B
:104A4000ED48000015F0080FADD0DBB2ABE72B2628
:104A5000A9E71A464FF00008002B5ED005A84FF0DA
:104A6000000803F00703303300F8013B08F10108A8
:104A7000D2081346002AF4D14FE018464FF0000840
:104A8000002B4AD04FF0000805F4004E4FF02C09DF
:104A900073468E4619462FE002F00F000A4C205C48
:104AA00003F8010B08F10108120906D00029F3D020
:104AB00002F00F00054C205CF2E7744661462CE0E2
:104AC000C80C0020C4610000A4610000B4610000B3
:104AD000CDCCCCCC08AB03EB080CABFB0032D2083E
:104AE00002EB8203A0EB430330330CF80C3C08F1DB
:104AF000010809280DD910460029EBD008F003035E
:104B0000032BE7D108AB434403F80C9C08F10108E0
:104B1000E0E7714601E04FF00008A1EB080121EA4F
:104B2000E179AAEB090AAAEB080AFF2E0ED9AAF12D
:104B3000020AC6F307213846FFF7D7FBF1B2384621
:104B4000FFF7D3FB04E04FF00008E6E7002E3DD16D
:104B50003A4651462846FFF7F0FB3A464946302090
:104B6000FFF7DDFBB8F1000F0EDD0DF1140908F1C0
:104B7000FF38C84498F8001046463846FFF7B5FBA2
:104B8000C14508F1FF38F5D115F0100F09D114F81F
:104B9000011B61B125293FF413AD3846FFF7A5FB92
:104BA000F5E73A4651462020FFF7B9FBEFE7BB682F
:104BB0002BB13A6879688A423CBF00219954386821
:104BC00009B0BDE8F08F4FF0FF30F9E70AF1FF3A86
:044BD000B4E700BF87
:104BD40000000000B8530000000000001856000058
:104BE40000000000EC5B000000000000DC5B000043
:104BF40000000000CC5B000000000000BC5B000073
:104C040000000000E45C000000000000345F0000CD
:104C14001C0A0020080A0020040000000400000010
:0C4C240001000000E95E00006C000020B0
:104C30002B5D000000000000315D0000000000005E
:104C4000365D0000000000003A5D0000000000003A
:104C50003E5D000000000000445D00000000000018
:104C60004A5D0000000000004F5D000000000000F1
:104C70001A52000000000303A754000000000000C7
:104C8000065F000000000003965E000000000003C5
:104C9000825E000000000003955400000000000345
:104CA0001E52000000000003AA5E00000000000386
:104CB0000B5C000000000000255D0000000000000B
:104CC000285C000000000000E35E0000000000031C
:084CD0001C5D00000000000063
:104CD800084E000000000000144E0000C80000202C
:104CE800FC5B0000F8000020CC5E000004010020FE
:104CF800C40100208C02002094020020CC01002076
:104D080058000020255200001800000078080020F4
:104D1800000A0020080A0020800800205C0000200B
:084D2800B15E00003000000044
:104D30000000000000000000000000000000000073
:104D40000000000000000000000000000000000063
:104D50000000000000000000000000000000000053
:104D60000000000000000000000000000000000043
:104D70000000000000000000000000000000000033
:104D80000000000000000000000000000000000023
:104D90000000000000000000000000000000000013
:044DA000000000000F
:104DA40000000000000000000000000000000000FF
:104DB40000000000000000000000000000000000EF
:104DC40000000000000000000000000000000000DF
:104DD40000000000000000000000000000000000CF
:104DE40000000000000000000000000000000000BF
:044DF40000000000BB
:104DF80000000000000000000338FDD870470000E4
:104E0800D503000041040000D10300007274745FF0
:104E18006C6F675F6261636B656E6400496E766193
:104E28006C6964206261636B656E643A2025730D5A
:104E38000A0025733A257325730D0A0020756E6BD9
:104E48006E6F776E20706172616D657465723A205D
:104E580000656E61626C65640064697361626C65AB
:104E6800640025730D0A092D205374617475733A13
:104E78002064656163746976617465640D0A0D0A5E
:104E88000025730D0A092D205374617475733A2037
:104E980025730D0A092D2049443A2025640D0A0D71
:104EA8000A004E6F7420737570706F727465642E8B
:104EB8000D0A00656E61626C650042616420706174
:104EC80072616D6574657220636F756E742E0D0A5C
:104ED8000064697361626C6500556E6B6E6F776E06
:104EE800206F7074696F6E3A2025730D0A004C6547
:104EF80076656C20756E617661696C61626C65209F
:104F0800666F72206D6F64756C653A2025730D0AA3
:104F180000556E6B6E6F776E206D6F64756C653AB9
:104F280025730D0A00556E6B6E6F776E207365766C
:104F38006572697479206C6576656C3A2025730D05
:104F48000A002A004C6F6773206172652068616CE3
:104F5800746564210D0A006D6F64756C655F6E6120
:104F68006D6500252D343073207C20637572726561
:104F78006E74207C206275696C742D696E200D0A30
:104F8800002D2D2D2D2D2D2D2D2D2D2D2D2D2D2D76
:104F98002D2D2D2D2D2D2D2D2D2D2D2D2D2D2D2D39
:104FA8002D2D2D2D2D2D2D2D2D2D2D2D2D2D2D2D29
:104FB8002D2D2D2D2D2D2D2D2D2D2D0D0A00252D91
:104FC800343073207C20252D3773207C20257325D1
:104FD800730D0A004261636B656E647320666C75BD
:104FE80073686564006C6F6700436F6D6D616E6414
:104FF8007320666F7220636F6E74726F6C6C696E6B
:1050080067206C6F67676572004C6F676765722011
:105018006261636B656E647320636F6D6D616E644E
:10502800732E00636F6E666967004D616E61676518
:10503800206C6F6767657220636F6E66696775724B
:105048006174696F6E00276C6F67206469736162B1
:105058006C65203C6D6F64756C655F303E202E2E4C
:10506800203C6D6F64756C655F6E3E2720646973C4
:1050780061626C6573206C6F677320696E20737052
:1050880065636966696564206D6F64756C65732016
:1050980028616C6C206966206E6F206D6F64756C7A
:1050A800657320737065636966696564292E0027D6
:1050B8006C6F6720656E61626C65203C6C65766517
:1050C8006C3E203C6D6F64756C655F303E202E2E03
:1050D8002E20203C6D6F64756C655F6E3E272065E1
:1050E8006E61626C6573206C6F67732075702074D5
:1050F8006F20676976656E206C6576656C20696ED1
:1051080020737065636966696564206D6F64756C8A
:1051180065732028616C6C206966206E6F206D6F46
:1051280064756C6573207370656369666965642965
:105138002E00676F00526573756D65206C6F676729
:10514800696E670068616C740048616C74206C6FEC
:105158006767696E67006C6973745F6261636B652A
:105168006E6473004C69737473206C6F6767657243
:10517800206261636B656E64732E004C6F676765B0
:105188007220737461747573006C6F6164004C6F86
:10519800616420636F6E66696775726174696F6EAA
:1051A8002073746F72656420696E206E6F6E2D7641
:1051B8006F6C6174696C65206D656D6F72792E0016
:1051C80073746F72650053746F72652063757272C1
:1051D800656E7420636F6E66696775726174696F56
:1051E8006E20696E206E6F6E2D766F6C6174696CBF
:1051F80065206D656D6F72792E0064656275670054
:10520800696E666F006E6F6E65007761726E696EAB
:1052180067006170700062616C6C6F632E6C6F6701
:105228005F6D656D706F6F6C00000000010000001D
:105238004D050000B40600207F0000003407002060
:1052480001000000890900000100000005050000B8
:105258000D52000082540000125200000852000053
:10526800025200000252000082540000085200005E
:105278000D52000012520000000000008852000089
:10528800D94E00004E500000485200001D06000094
:10529800BB4E0000B7500000505200001D06000031
:1052A8003A5100003D5100000000000011060000C6
:1052B8004C5100005151000000000000050600009C
:1052C8008A5100008351000000000000F905000029
:1052D80000000000000000000000000000000000C6
:1052E80000000000F05200009151000096510000AB
:1052F8000000000085080000C8510000CE510000E1
:1053080000000000A50800000000000000000000E8
:10531800000000000000000000000000285300000A
:10532800DB5E000011500000345200000000000055
:105338002B50000032500000E8520000000000002E
:10534800D94E00004E50000048520000950B000056
:10535800BB4E0000B750000050520000950B0000F3
:105368003A5100003D5100000000000043050000D4
:105378004C510000515100000000000031050000B0
:105388005E5100006C51000000000000C1070000E1
:105398008A5100008351000000000000C90C000081
:1053A80000000000000000000000000000000000F5
:1053B800ED4F0000F14F0000205300007D07000072
:1053C8001B5B306D001B5B313B33316D0025734C2B
:1053D8006F67732064726F70706564202825642974
:1053E80025730D0A003C25733E2025733A200020C2
:1053F8002530327800202020007C002563001B5BCC
:10540800313B33306D001B5B313B33326D001B5B2E
:10541800313B33336D001B5B313B33346D001B5B19
:10542800313B33356D001B5B313B33366D001B5B05
:10543800313B33376D000000C853000006540000AC
:10544800CD5300000E540000165400001E540000F6
:10545800265400002E5400003654000000000000BE
:10546800825400001252000008520000025200004C
:1054780011121314466174616C206572726F7200A8
:1054880053797374656D2072657365740061746611
:1054980069666F2E6D5F7265715F6669666F006120
:1054A80070705F74696D657200000100060000008D
:1054B800000000004C070020551300005254432000
:1054C800696E7374616E636520616C72656164797D
:1054D80020696E697469616C697A65642E0052543A
:1054E800433A20696E697469616C697A65642E0053
:1054F80000000000000000000338FDD8704742613A
:105508006420617267756D656E7420636F756E7463
:105518000025730D0A092D20456C656D656E742094
:1055280073697A653A092564202B202564206279FD
:10553800746573206F6620646562756720696E669E
:105548006F726D6174696F6E0D0A092D2055736154
:1055580067653A092575252520282575206F7574F6
:10556800206F6620257520656C656D656E747329DE
:105578000D0A092D204D6178696D756D3A092575FB
:10558800252520282575206F7574206F66202575C0
:1055980020656C656D656E7473290D0A0D0A0062CD
:1055A800616C6C6F6300436F6D6D616E6473206630
:1055B8006F722042414C4C4F43206D616E616765AC
:1055C8006D656E74005072696E74207374617475C1
:1055D80073206F662062616C6C6F6320696E7374F0
:1055E800616E6365732E000000000000F85500002E
:1055F8008A510000CD55000000000000011B00008A
:105608000000000000000000000000000000000092
:10561800A7550000AE550000F0550000011B000022
:105628001B5B256443001B5B256441001B5B2564F1
:1056380044001B5B256442004C6F7374206C6F67D9
:1056480073202D20696E637265617365206C6F67C6
:10565800206261636B656E64207175657565207382
:10566800697A652E0A006E6F74207465726D696EB2
:10567800617465643A2025630A003A20636F6D6D92
:10568800616E64206E6F7420666F756E64002D689D
:10569800002D2D68656C7000506C65617365207312
:1056A800706563696679206120737562636F6D6DDB
:1056B800616E642E0A005461622066756E637469B7
:1056C8006F6E3A20636F6D6D616E647320636F75E2
:1056D8006E746572206F766572666C6F7765642E7E
:1056E8000A000A25732573000A2573004F70746930
:1056F8006F6E733A0A002020252D2A733A005368EA
:105708006F7720636F6D6D616E642068656C702EB5
:1057180000202025732573257300537562636F6D10
:105728006D616E64733A0A0025733A2077726F6E62
:105738006720706172616D6574657220636F756E44
:10574800740A0025733A257325730A004E6F207278
:105758006573706F6E73652066726F6D207468650F
:10576800207465726D696E616C2C20617373756D40
:1057780065642038307832342073637265656E2032
:1057880073697A650A005B2533645D2025730A0016
:105798006F6666004563686F207374617475733A49
:1057A8002025730A004C6F7374206C6F67733A205E
:1057B80025750A4D6178206C6F6720717565756570
:1057C800207574696C697A6174696F6E3A20257501
:1057D8002525205B25752F25755D0A00726573697F
:1057E8007A6500436F6E736F6C652067657473200C
:1057F8007465726D696E616C2073637265656E2085
:1058080073697A65206F7220617373756D65732093
:10581800383020696E206361736520746865207272
:105828006561646F7574206661696C732E204974B4
:10583800206D75737420626520657865637574657D
:10584800642061667465722065616368207465729E
:105858006D696E616C207769647468206368616E35
:10586800676520746F20656E7375726520636F724B
:1058780072656374207465787420646973706C61F0
:10588800792E00686973746F727900436F6D6D616A
:105898006E6420686973746F72792E00636C690096
:1058A80055736566756C2C206E6F7420556E69781B
:1058B8002D6C696B6520434C4920636F6D6D616E7B
:1058C80064732E00636C65617200436C65617220BD
:1058D80073637265656E2E0064656661756C74002D
:1058E800417373756D652038302063686172732069
:1058F80073637265656E20776964746820616E648D
:105908002073656E642074686973207365747469A4
:105918006E6720746F20746865207465726D696E97
:10592800616C2E00636F6C6F727300546F67676CE5
:105938006520636F6C6F7265642073796E7461782B
:105948002E006563686F00546F67676C6520434C71
:1059580049206563686F2E00737461747300434C4B
:105968004920737461746973746963732E00526596
:1059780073657420434C4920737461746973746946
:10598800637320666F7220746865204C6F67676563
:1059980072206D6F64756C652E0073686F770047B1
:1059A800657420434C492073746174697374696326
:1059B8007320666F7220746865204C6F6767657224
:1059C800206D6F64756C652E0044697361626C6547
:1059D80020434C49206563686F2E204172726F77AF
:1059E8007320616E6420627574746F6E733A20421E
:1059F80061636B73706163652C2044656C657465C5
:105A08002C20456E642C20486F6D652C20496E73E0
:105A180065727420617265206E6F742068616E64AF
:105A28006C65642E00456E61626C6520434C4920AC
:105A38006563686F2E0044697361626C6520636FEB
:105A48006C6F7265642073796E7461782E00456E90
:105A580061626C6520636F6C6F7265642073796E28
:105A68007461782E001B5B4A001B5B6D001B5B4852
:105A7800001B5B324A001B5B3F336C001B5B366EBE
:105A880000202D20000000000338FDD870472D6845
:105A98002C202D2D68656C700000000000000000AF
:105AA800AC5A00002C59000033590000245B000058
:105AB800492500004A5900004F5900005C5B00006E
:105AC8009D2700006059000066590000EC5A00004C
